:100000000C94BB010C94D8010C94D8010C94D80129
:100010000C94D8010C94D8010C94D8010C94D801FC
:100020000C94D8010C94D8010C94D8010C94D801EC
:100030000C94D8010C94D8010C94D8010C94D801DC
:100040000C94D8010C94D8010C94D8010C94D801CC
:100050000C94D8010C94D8010C94D8010C94D801BC
:100060000C94D8010C94D8010C94D8010C94D801AC
:100070000C94D8010C94D8010C94D8010C94D8019C
:100080000C94D8010C94D8010C94D80161646420BC
:100090006120747261696C696E6720736C6173684A
:1000A00020746F207468652075726C0A003C68319A
:1000B0003E333031204D6F766564205065726D613E
:1000C0006E656E746C793C2F68313E0A002F0D0A04
:1000D000436F6E74656E742D547970653A20746543
:1000E00078742F68746D6C0D0A507261676D613A97
:1000F000206E6F2D63616368650D0A0D0A00485418
:1001000054502F312E3020333031204D6F766564BE
:10011000205065726D616E656E746C790D0A4C6F5E
:10012000636174696F6E3A20003C2F63656E74657D
:10013000723E3C68723E3C7020616C69676E3D6344
:10014000656E7465723ECFEACFB8D0C5CFA2C7EB5B
:10015000B7C3CECAA3BA3C6120687265663D226807
:100160007474703A2F2F7777772E6C63736F667481
:100170002E6E6574223E687474703A2F2F777777ED
:100180002E6C63736F66742E6E65743C2F613E3CFB
:100190002F703E002F31223EB4F2BFAA3C2F613EA9
:1001A0003C703E002F30223EB9D8B1D53C2F613E85
:1001B0003C703E00203C736D616C6C3E3C6120687D
:1001C0007265663D222E223E5BCBA2D0C25D3C2FE3
:1001D000613E3C2F736D616C6C3E3C2F703E0A3C5F
:1001E000703E3C6120687265663D222E00B9D8B130
:1001F000D5003C666F6E7420636F6C6F723D222376
:10020000303046463030223E20B4F2BFAA3C2F6642
:100210006F6E743E003C63656E7465723E3C703E6A
:10022000B5B1C7B0D7B4CCAC3A20003C683120613E
:100230006C69676E3D63656E7465723E4C43534FE7
:1002400054B2E2CAD4D2B3C3E63C2F68313E3C6814
:10025000723E00485454502F312E3020323030201E
:100260004F4B0D0A436F6E74656E742D5479706533
:100270003A20746578742F68746D6C0D0A50726141
:10028000676D613A206E6F2D63616368650D0A0DBD
:100290000A00485454502F312E302034303120552C
:1002A0006E617574686F72697A65640D0A436F6E6A
:1002B00074656E742D547970653A20746578742F66
:1002C00068746D6C0D0A0D0A3C68313E3430312083
:1002D000556E617574686F72697A65643C2F683118
:1002E0003E003C703E55736167653A2068747470D7
:1002F0003A2F2F686F73745F6F725F69702F706130
:100300007373776F72643C2F703E0A0048545450E8
:100310002F312E3020323030204F4B0D0A436F6E7C
:1003200074656E742D547970653A20746578742FF5
:1003300068746D6C0D0A0D0A00485454502F312E0C
:100340003020323030204F4B0D0A436F6E74656E93
:10035000742D547970653A20746578742F68746DC3
:100360006C0D0A0D0A3C68313E323030204F4B3C58
:100370002F68313E000011241FBECFEFD0E1DEBF59
:10038000CDBF11E0A0E0B1E0E4E2F1E302C00590EE
:100390000D92A035B107D9F713E0A0E5B1E001C097
:1003A0001D92A432B107E1F70E94F70F0C94901848
:1003B0000C940000DF93CF93CDB7DEB760970FB6F4
:1003C000F894DEBF0FBECDBF988B8F8777C08FE8C4
:1003D00092ECA5E7BFE38B879C87AD87BE876B85D3
:1003E0007C858D859E8520E030E04AE753E40E94BD
:1003F0000914DC01CB018F839887A987BA876F81A5
:10040000788589859A8520E030E040E85FE30E94A6
:100410000F1688232CF481E090E09E838D833FC0EB
:100420006F81788589859A8520E03FEF4FE757E413
:100430000E94AF1518164CF56B857C858D859E85C1
:1004400020E030E040E251E40E940914DC01CB01DD
:10045000BC01CD010E943312DC01CB019E838D8350
:100460000FC089E190E09C838B838B819C810197F5
:10047000F1F79C838B838D819E8101979E838D8371
:100480008D819E81009769F714C06F817885898579
:100490009A850E943312DC01CB019E838D838D816E
:1004A0009E819A83898389819A810197F1F79A8342
:1004B00089838F8598890197988B8F878F859889F5
:1004C000009709F084CF60960FB6F894DEBF0FBE98
:1004D000CDBFCF91DF910895DF93CF9300D0CDB7FB
:1004E000DEB789836A83A8E3B0E0E8E3F0E08081C7
:1004F0008E7F8C93EFE2F0E08A81982F9F71898143
:10050000892B8083EEE2F0E080818823DCF7EFE244
:10051000F0E01082EEE2F0E080818823DCF78A814F
:10052000882344F4EFE2F0E01082EEE2F0E0808114
:100530008823DCF7A8E3B0E0E8E3F0E080818160A5
:100540008C93EFE2F0E080810F900F90CF91DF91DC
:100550000895DF93CF9300D00F92CDB7DEB7898394
:100560006A834B83A8E3B0E0E8E3F0E080818E7F0C
:100570008C93EFE2F0E08A81982F9F718981892B1B
:100580008083EEE2F0E080818823DCF7EFE2F0E0A8
:100590008B818083EEE2F0E080818823DCF7A8E3A2
:1005A000B0E0E8E3F0E0808181608C930F900F90E1
:1005B0000F90CF91DF910895DF93CF9300D000D0BB
:1005C000CDB7DEB79A8389837C836B83A8E3B0E0E1
:1005D000E8E3F0E080818E7F8C93EFE2F0E08AE345
:1005E0008083EEE2F0E080818823DCF718C0898107
:1005F0009A8101979A838983EFE2F0E01082EEE21C
:10060000F0E080818823DCF7EFE2F0E08081EB818D
:10061000FC8180838B819C8101969C838B83898163
:100620009A81009721F7EB81FC811082A8E3B0E06A
:10063000E8E3F0E0808181608C930F900F900F9041
:100640000F90CF91DF910895DF93CF9300D000D02A
:10065000CDB7DEB79A8389837C836B83A8E3B0E050
:10066000E8E3F0E080818E7F8C93EFE2F0E08AE7B0
:100670008083EEE2F0E080818823DCF715C0898179
:100680009A8101979A838983AFE2B0E0EB81FC8184
:1006900080818C938B819C8101969C838B83EEE27D
:1006A000F0E080818823DCF789819A81009739F70F
:1006B000A8E3B0E0E8E3F0E0808181608C930F90E4
:1006C0000F900F900F90CF91DF910895DF93CF930C
:1006D0000F92CDB7DEB789838981882F90E09C0186
:1006E0002076307080915001882F90E028173907CC
:1006F000F1F080EA6FE143E00E94A9028981882F2E
:1007000090E08076907095958795959587959595CD
:1007100087959595879595958795982F80E86FE1B2
:10072000492F0E94A90289818076809350010F9001
:10073000CF91DF910895DF93CF930F92CDB7DEB7BE
:10074000898389810E94660380E069810E946C022E
:100750000F90CF91DF910895DF93CF93CDB7DEB7A0
:1007600069970FB6F894DEBF0FBECDBF898F84EDB9
:10077000698D0E94980482ED61E00E94980480E0F7
:1007800090E0A0E7B1E48D8B9E8BAF8BB88F6D8925
:100790007E898F89988D2BEA3AEA4AEA5EE30E94C5
:1007A0000914DC01CB01898B9A8BAB8BBC8B6989DB
:1007B0007A898B899C8920E030E040E85FE30E94E1
:1007C0000F1688231CF481E0888B91C069897A898F
:1007D0008B899C8920E030E04FE753E40E94AF15FD
:1007E00018160CF07BC06D897E898F89988D20E06A
:1007F00030E04AE754E40E940315DC01CB018C870A
:100800009D87AE87BF876C857D858E859F8520E01F
:1008100030E04AE753E40E940914DC01CB018887E9
:100820009987AA87BB87688579858A859B8520E01B
:1008300030E040E85FE30E940F1688232CF481E04B
:1008400090E09F838E833FC0688579858A859B85EC
:1008500020E03FEF4FE757E40E94AF1518164CF524
:100860006C857D858E859F8520E030E040E251E4F7
:100870000E940914DC01CB01BC01CD010E9433129E
:10088000DC01CB019F838E830FC089E190E09D83C3
:100890008C838C819D810197F1F79D838C838E8160
:1008A0009F8101979F838E838E819F81009769F737
:1008B00024C0688579858A859B850E943312DC0176
:1008C000CB019F838E838E819F819B838A838A81C4
:1008D0009B810197F1F79B838A830FC069897A898D
:1008E0008B899C890E943312DC01CB01888B88891B
:1008F000898389818A95F1F789838AEE0E949B0317
:10090000882F90E0817090708823B9F782ED60E0C5
:100910000E94980489ED0E949B03882F90E06996BD
:100920000FB6F894DEBF0FBECDBFCF91DF91089513
:10093000DF93CF9300D0CDB7DEB789836A838981F7
:100940000E94660380E469814A810E94A9020F9097
:100950000F90CF91DF910895DF93CF93CDB7DEB79E
:100960006B970FB6F894DEBF0FBECDBF898F7B8F1C
:100970006A8F84ED698D0E9498049A8D86ED692FA7
:100980000E9498048A8D9B8D892F9927982F87ED37
:10099000692F0E949804BEC080E090E0A0E7B1E417
:1009A0008D8B9E8BAF8BB88F6D897E898F89988D4B
:1009B0002BEA3AEA4AEA5EE30E940914DC01CB0121
:1009C000898B9A8BAB8BBC8B69897A898B899C8943
:1009D00020E030E040E85FE30E940F1688231CF41B
:1009E00081E0888B91C069897A898B899C8920E014
:1009F00030E04FE753E40E94AF1518160CF07BC0AF
:100A00006D897E898F89988D20E030E04AE754E433
:100A10000E940315DC01CB018C879D87AE87BF87C1
:100A20006C857D858E859F8520E030E04AE753E424
:100A30000E940914DC01CB0188879987AA87BB87AC
:100A4000688579858A859B8520E030E040E85FE312
:100A50000E940F1688232CF481E090E09F838E8300
:100A60003FC0688579858A859B8520E03FEF4FE709
:100A700057E40E94AF1518164CF56C857D858E8560
:100A80009F8520E030E040E251E40E940914DC013F
:100A9000CB01BC01CD010E943312DC01CB019F834D
:100AA0008E830FC089E190E09D838C838C819D8132
:100AB0000197F1F79D838C838E819F8101979F839E
:100AC0008E838E819F81009769F724C06885798520
:100AD0008A859B850E943312DC01CB019F838E8324
:100AE0008E819F819B838A838A819B810197F1F705
:100AF0009B838A830FC069897A898B899C890E942C
:100B00003312DC01CB01888B8889898389818A959E
:100B1000F1F789838AEE0E949B03882F90E0817011
:100B20009070882309F038CF6B960FB6F894DEBF2B
:100B30000FBECDBFCF91DF910895DF93CF930F927A
:100B4000CDB7DEB789838981982F977085E7692FA4
:100B50000E9498040F90CF91DF910895DF93CF9377
:100B600000D0CDB7DEB79A838983A7E3B0E0E7E38F
:100B7000F0E0808181608C93A8E3B0E0E8E3F0E0EE
:100B8000808181608C93A7E3B0E0E7E3F0E08081AF
:100B900086608C93A7E3B0E0E7E3F0E08081877F95
:100BA0008C93A8E3B0E0E8E3F0E080818D7F8C9344
:100BB000A8E3B0E0E8E3F0E080818B7F8C93EDE286
:100BC000F0E080E58083AEE2B0E0EEE2F0E080812C
:100BD00081608C938FEF60E04FEF0E94A90282E367
:100BE00090E00E94DA01109252011092510188E0C7
:100BF00060E00E94980489E060E00E9498048CE024
:100C000060E00E9498048DE060E00E9498048AE011
:100C10006EEF0E9498048BE069E10E94980484E0E2
:100C20006FEF0E94980485E069E10E94980486E0D5
:100C30006FEF0E94980487E06FE10E94980488E3B8
:100C400060EB0E94980488E26FE30E94980489E2B6
:100C500060E30E94980480E369EF0E94980481E3B6
:100C600067EF0E94980480EC6DE00E94980481EC8C
:100C700060E00E94980480E862EC42E30E94A902CE
:100C800086EC62E10E94980487EC6CE00E94980474
:100C900084EC62E10E9498048AEC6CED0E94980456
:100CA0008BEC65E00E949804E981FA81908184EEE2
:100CB000692F0E94980489819A81FC013196908164
:100CC00085EE692F0E94980489819A81FC013296F1
:100CD000908182EE692F0E94980489819A81FC019B
:100CE0003396908183EE692F0E94980489819A81BE
:100CF000FC013496908180EE692F0E9498048981CE
:100D00009A81FC013596908181EE692F0E949804AA
:100D100080E160E071E00E94AC048FE10E94660314
:100D200080E86BE140EC0E94A90280E86FE144E0BA
:100D30000E94A9020F900F90CF91DF910895DF9349
:100D4000CF93CDB7DEB782E70E949B03CF91DF91AF
:100D50000895DF93CF9300D0CDB7DEB781E10E9435
:100D6000AC03009729F081E090E09A83898302C068
:100D70001A82198289810F900F90CF91DF91089587
:100D8000DF93CF9300D000D0CDB7DEB79A838983AD
:100D90007C836B8382E06FEF0E94980483E069E1BB
:100DA0000E9498048981982F915086E0692F0E94B3
:100DB000980489819A818150964E892F9927982F7E
:100DC00087E0692F0E9498048AE760E040E00E9473
:100DD000A90289819A812B813C81B9010E94240357
:100DE00080E86FE148E00E94A9028CE10E949B0329
:100DF000882F90E082709070009729F080EA6FE170
:100E000048E00E94A9020F900F900F900F90CF9191
:100E1000DF910895DF93CF93CDB7DEB72A970FB652
:100E2000F894DEBF0FBECDBF9E838D8378876F831E
:100E300089E30E949B03882319F41A8619869FC0B0
:100E40008091510190915201982F80E0692F0E946A
:100E500098048091510190915201892F9927982FE0
:100E600081E0692F0E9498048AE360E00E946C028E
:100E7000882F90E090935201809351018AE360E0C3
:100E80000E946C02882F90E0982F88279C01809107
:100E9000510190915201822B932B90935201809398
:100EA00051018AE360E00E946C02882F90E09A83EF
:100EB00089838AE360E00E946C02882F90E0982F7B
:100EC00088279C0189819A81822B932B9A8389831D
:100ED00089819A8104979A8389838AE360E00E94DA
:100EE0006C02882F90E09C838B838AE360E00E94F1
:100EF0006C02882F90E0382F22278B819C81822BD7
:100F0000932B9C838B838D819E819C01215030404B
:100F100089819A812817390728F48D819E8101974C
:100F20009A8389838B819C8180789070009719F4D3
:100F30001A82198207C089819A812F813885B90167
:100F40000E94DC028091510190915201982F8CE017
:100F5000692F0E9498048091510190915201892F2C
:100F60009927982F8DE0692F0E94980480E86EE100
:100F700040E40E94A90289819A819A87898789859C
:100F80009A852A960FB6F894DEBF0FBECDBFCF91DB
:100F9000DF910895DF93CF93CDB7DEB729970FB6D2
:100FA000F894DEBF0FBECDBF9E838D8378876F839D
:100FB000498719821A821B821C8289858130E9F453
:100FC00089819A81AB81BC814196A11DB11D898324
:100FD0009A83AB83BC838F81988508979C0140E0FE
:100FE00050E089819A81AB81BC81820F931FA41F3D
:100FF000B51F89839A83AB83BC838985823009F0CE
:1010000050C089819A81AB81BC810696A11DB11D1A
:1010100089839A83AB83BC838F81988508979C01D1
:1010200040E050E089819A81AB81BC81820F931F9F
:10103000A41FB51F89839A83AB83BC8332C0ED8123
:10104000FE818081882F90E0A0E0B0E02227382F39
:10105000492F5A2F8D819E81FC0131968081882FE6
:1010600090E0A0E0B0E0822B932BA42BB52B9C0149
:10107000AD014070507089819A81AB81BC81820F33
:10108000931FA41FB51F89839A83AB83BC838D8173
:101090009E8102969E838D838F8198850297988783
:1010A0008F838F8198858230910548F68F8198854E
:1010B000009779F1ED81FE818081882F90E0A0E09A
:1010C000B0E02227382F492F5A2F89819A81AB818E
:1010D000BC81820F931FA41FB51F89839A83AB83A2
:1010E000BC8317C089819A81AB81BC819C01AD0111
:1010F0004070507089819A81AB81BC81CD01AA2753
:10110000BB27820F931FA41FB51F89839A83AB83CC
:10111000BC8389819A81AB81BC81CD01AA27BB2781
:101120000097A105B105F1F689819A818095909586
:1011300029960FB6F894DEBF0FBECDBFCF91DF91D9
:101140000895DF93CF9300D000D000D0CDB7DEB7A5
:101150009B838A837D836C834E8319828E818093E7
:10116000000113C08981482F50E08981282F30E089
:101170008C819D81FC01E20FF31F8081FA01E35A0B
:10118000FE4F808389818F5F89838981843050F30A
:10119000198213C08981482F50E08981282F30E0BF
:1011A0008A819B81FC01E20FF31F8081FA01E95AD9
:1011B000FE4F808389818F5F89838981863050F3D8
:1011C00026960FB6F894DEBF0FBECDBFCF91DF914C
:1011D0000895DF93CF9300D000D000D0CDB7DEB715
:1011E0009B838A837D836C8319828C819D81893264
:1011F000910510F41E822FC08A819B81FC013C96D0
:101200008081883039F48A819B81FC013D96808100
:101210008630E1F01E821FC08981882F90E09C01FA
:101220002A5D3F4F8A819B81FC01E20FF31F2081E1
:101230008981882F90E0FC01E35AFE4F80812817B6
:1012400011F01E8208C089818F5F89838981843073
:1012500018F381E08E838E8126960FB6F894DEBF58
:101260000FBECDBFCF91DF910895DF93CF9300D014
:1012700000D000D0CDB7DEB79B838A837D836C839B
:1012800019828C819D818A32910510F41E8238C0AA
:101290008A819B81FC013C968081883039F48A8167
:1012A0009B81FC013D968081882311F01E8228C01D
:1012B0008A819B81FC013E9680818534E1F01E820B
:1012C0001FC08981882F90E09C01225E3F4F8A8158
:1012D0009B81FC01E20FF31F20818981882F90E020
:1012E000FC01E35AFE4F8081281711F01E8208C0CE
:1012F00089818F5F89838981843018F381E08E83AF
:101300008E8126960FB6F894DEBF0FBECDBFCF916B
:10131000DF910895DF93CF9300D00F92CDB7DEB762
:101320009B838A8319822BC08981282F30E08A8190
:101330009B81DC01A20FB31F8981882F90E09C0163
:101340002A5F3F4F8A819B81FC01E20FF31F80815E
:101350008C938981882F90E09C012A5F3F4F8A817E
:101360009B81DC01A20FB31F8981882F90E0FC01D3
:10137000E95AFE4F80818C9389818F5F89838981AF
:10138000863090F20F900F900F90CF91DF910895DB
:10139000DF93CF9300D000D0CDB7DEB79C838B8393
:1013A0008B819C81FC01789610828B819C81FC0151
:1013B000799610828B819C81FC01749680E48083F5
:1013C0008B819C81FC01759610828B819C81FC0134
:1013D000769680E480838B819C810E9664E170E038
:1013E00040E00E94CA079A8389838B819C81FC011B
:1013F000789689819A81892F992780838B819C8116
:10140000FC017996898180830F900F900F900F9047
:10141000CF91DF910895DF93CF9300D00F92CDB796
:10142000DEB79B838A8319822EC08981882F90E042
:101430009C01225E3F4F8A819B81DC01A20FB31F7A
:101440008981882F90E09C01265E3F4F8A819B8195
:10145000FC01E20FF31F80818C938981882F90E03B
:101460009C01265E3F4F8A819B81DC01A20FB31F46
:101470008981882F90E0FC01E35AFE4F80818C9394
:1014800089818F5F89838981843078F28A819B8109
:101490000E94C8090F900F900F90CF91DF9108958F
:1014A000DF93CF93CDB7DEB728970FB6F894DEBFA2
:1014B0000FBECDBF9C838B837E836D834F83288734
:1014C0001A8227C08A81882F90E09C012C5D3F4FB3
:1014D0008B819C81DC01A20FB31F8A81882F90E051
:1014E0009C012E5D3F4F8B819C81FC01E20FF31F1D
:1014F00080818C938A81882F90E09C012E5D3F4FE4
:101500008B819C81FC01E20FF31F10828A818F5F27
:101510008A838A818230B0F28B819C81FC01B396F0
:1015200080910001808384E08A8354C08A81882F5F
:1015300090E09C012B5D3F4F8B819C81FC01E20F71
:10154000F31F8081282F30E08D819E81820F931FB1
:101550009E838D838A81882F90E09C01275D3F4F79
:101560008B819C81FC01E20FF31F808189838A813A
:10157000882F90E09C01275D3F4F8B819C81FC016F
:10158000E20FF31F8D8180838885882371F08A8123
:10159000882F90E09C012B5D3F4F8B819C81FC014B
:1015A000E20FF31F898180830CC08A81882F90E02D
:1015B0009C012B5D3F4F8B819C81FC01E20FF31F4F
:1015C00010828D819E81892F99279E838D838A81A8
:1015D00081508A838A81882309F0A8CF888588234F
:1015E000D9F48B819C81FC01B69610828B819C8101
:1015F000FC01B79610828B819C81FC01B89680918A
:10160000010180838B819C81FC01B99610828091BD
:1016100001018E5F809301018B819C81FC01F29618
:1016200010828B819C81FC01F39610828F8188232C
:10163000F9F08B819C81FC01F69682E080838B819E
:101640009C81FC01F79684E080838B819C81FC0166
:10165000F89685E080838B819C81FC01F99680E877
:1016600080838B819C81FC01BE9680E6808306C0CE
:101670008B819C81FC01BE9680E5808328960FB605
:10168000F894DEBF0FBECDBFCF91DF910895DF93F9
:10169000CF9300D00F92CDB7DEB79B838A83198298
:1016A0008A819B810E948A098A819B81FC017496B0
:1016B00010828A819B81FC01759682E080832EC016
:1016C0008981882F90E09C01205E3F4F8A819B8119
:1016D000DC01A20FB31F8981882F90E09C012A5E54
:1016E0003F4F8A819B81FC01E20FF31F80818C9325
:1016F0008981882F90E09C012A5E3F4F8A819B81DF
:10170000DC01A20FB31F8981882F90E0FC01E95A08
:10171000FE4F80818C9389818F5F89838981863098
:1017200078F219822EC08981882F90E09C012A5D71
:101730003F4F8A819B81DC01A20FB31F8981882FD3
:1017400090E09C01245E3F4F8A819B81FC01E20F67
:10175000F31F80818C938981882F90E09C01245E07
:101760003F4F8A819B81DC01A20FB31F8981882FA3
:1017700090E0FC01E35AFE4F80818C9389818F5F5A
:1017800089838981843078F22A813B818AE290E0E2
:10179000B9010E94C0060F900F900F90CF91DF917A
:1017A0000895DF93CF9300D000D0CDB7DEB79A83F2
:1017B00089837C836B8389819A810E948A098981CC
:1017C0009A810E940B0A89819A81FC01B29610824B
:1017D00089819A81FC01B4968081883F38F08981A3
:1017E0009A81FC01B59680818F5F808389819A817F
:1017F000DC01949689819A81FC01B4968081885F8E
:101800008C938B819C8129813A81B9010E94C00609
:101810000F900F900F900F90CF91DF910895DF936D
:10182000CF93CDB7DEB72A970FB6F894DEBF0FBEC1
:10183000CDBF9D838C837F836E8348873A872987BA
:101840001B828C819D810E948A0988858D3D10F0C4
:101850008CED88878C819D81FC01709610828C8133
:101860009D81FC0171968885845E80838C819D8139
:101870000E940B0A8C819D81FC01B49689859A8512
:10188000892F992780838C819D81FC01B59689855C
:1018900080838C819D81FC01B69610828C819D8114
:1018A000FC01B7968885885F80838C819D81FC01CF
:1018B000B89610828C819D81FC01B996108218C067
:1018C0008B81882F90E09C01265D3F4F8C819D810C
:1018D000DC01A20FB31F8B81282F30E08E819F8106
:1018E000FC01E20FF31F80818C938B818F5F8B83D0
:1018F0009B818885981720F38C819D81AC01465E81
:101900005F4F8885882F90E040969C01CA01B901FD
:1019100041E00E94CA079A8389838C819D81FC01E2
:10192000B89689819A81892F992780838C819D819E
:10193000FC01B996898180838885882F90E08A96FA
:101940002C813D81B9010E94C0062A960FB6F894F9
:10195000DEBF0FBECDBFCF91DF910895DF93CF9350
:1019600000D000D0CDB7DEB79C838B838B819C8168
:101970000E948A098B819C81FC01709610828B8168
:101980009C81FC0171968CE280838B819C810E94FA
:101990000B0A8B819C81FC01BF9682E180838B8145
:1019A0009C8161E070E041E020E00E94500A8B8160
:1019B0009C814A9660E270E042E00E94CA079A83E6
:1019C00089838B819C81FC01F29689819A81892F80
:1019D000992780838B819C81FC01F3968981808388
:1019E0002B813C818AE390E0B9010E94C0060F90F0
:1019F0000F900F900F90CF91DF910895DF93CF93C9
:101A000000D0CDB7DEB78091550190915601009777
:101A100051F080915301909154019C012E5D3F4FF4
:101A20003A83298302C01A82198289819A810F9090
:101A30000F90CF91DF910895DF93CF9300D0CDB772
:101A4000DEB79A83898389819A81FC0170968081AF
:101A5000882F90E0382F222789819A81FC01719686
:101A60008081882F90E0822B932B90935601809356
:101A700055018091550190915601449790935601DC
:101A80008093550189819A81FC01BE96808182955F
:101A90008F70882F90E0880F991F880F991F90935F
:101AA000540180935301209155013091560180914A
:101AB000530190915401A901481B590BCA019093FD
:101AC0005601809355018091550190915601181649
:101AD000190624F010925601109255010F900F90A4
:101AE000CF91DF910895DF93CF93CDB7DEB72A97DB
:101AF0000FB6F894DEBF0FBECDBF9E838D8378876F
:101B00006F835A87498711C08F8198859C012A5C11
:101B10003F4F8D819E81FC01E20FF31F8C818083FA
:101B20008F819885019698878F8389859A859B8375
:101B30008A8389859A8501969A878987EA81FB81BC
:101B40008491898389818C838C818823E9F68F81B4
:101B500098852A960FB6F894DEBF0FBECDBFCF9101
:101B6000DF910895DF93CF9300D000D000D0CDB7A0
:101B7000DEB79A8389837C836B835E834D8318C031
:101B80008B819C819C012A5C3F4F89819A81DC0179
:101B9000A20FB31FED81FE8180818C938B819C818C
:101BA00001969C838B838D819E8101969E838D837C
:101BB000ED81FE818081882319F78B819C81269697
:101BC0000FB6F894DEBF0FBECDBFCF91DF91089561
:101BD000DF93CF9300D000D0CDB7DEB79C838B834B
:101BE0008B819C810E948A098B819C81FC01BF961C
:101BF00080E180838091550190915601009749F4CE
:101C00008B819C8161E070E040E021E00E94500AFD
:101C10000CC080915501909156019C018B819C8153
:101C2000B90140E021E00E94500A88E290E09A83E6
:101C300089838B819C81FC01709689819A81892F8F
:101C4000992780838B819C81FC0171968981808397
:101C50008B819C810E940B0A8B819C814A966CE14E
:101C600070E042E00E94CA079A8389838B819C813D
:101C7000FC01F29689819A81892F992780838B8133
:101C80009C81FC01F396898180832B813C8186E3D2
:101C900090E0B9010E94C0060F900F900F900F9036
:101CA000CF91DF910895DF93CF9300D000D000D083
:101CB000CDB7DEB79C838B837E836D838B819C81C4
:101CC000FC01BF9689E180838D819E8188969A83ED
:101CD00089838B819C81FC01709689819A81892FEF
:101CE000992780838B819C81FC01719689818083F7
:101CF0008B819C810E94C8098B819C81FC01F2969A
:101D000010828B819C81FC01F39610828B819C81D7
:101D1000AC01465E5F4F8D819E819C01245E3F4FEA
:101D2000CA01B90142E00E94CA079A8389838B8164
:101D30009C81FC01F29689819A81892F9927808361
:101D40008B819C81FC01F396898180838D819E81AA
:101D5000C6962B813C81B9010E94C00626960FB61B
:101D6000F894DEBF0FBECDBFCF91DF910895DF9312
:101D7000CF9300D00F92CDB7DEB79A8389838CE0E2
:101D800091E029813A81B90145E050E00E944B1869
:101D9000009719F481E08B8301C01B828B810F9027
:101DA0000F900F90CF91DF910895DF93CF9300D0E4
:101DB00000D00F92CDB7DEB79C838B8381E08A83FE
:101DC000198222C08981882F90E0FC01E45FFE4FD8
:101DD00080818823C1F0EB81FC8120818981882F5B
:101DE00090E0FC01E45FFE4F8081281749F48B816D
:101DF0009C8101969C838B8389818F5F898304C03A
:101E00008FEF8D8324C01A828A818823D9F6EB81D3
:101E1000FC8180818F3259F48B819C8101969C8357
:101E20008B83EB81FC8180818A3324F00EC08DEF9F
:101E30008D830DC0EB81FC818081803334F0EB8198
:101E4000FC81808180538D8302C08EEF8D838D81D4
:101E50000F900F900F900F900F90CF91DF910895FA
:101E6000DF93CF9300D000D0CDB7DEB79C838B83B8
:101E70002EEF30E08B819C8160E070E0A9010E9430
:101E8000730D9A8389838B819C8129813A814CE0EF
:101E900051E0B9010E94B20D9A8389834DEC50E064
:101EA0008B819C8129813A81B9010E94730D9A83AB
:101EB00089834DEA50E08B819C8129813A81B90167
:101EC0000E94730D9A8389834CE850E08B819C813A
:101ED00029813A81B9010E94730D9A83898389818E
:101EE0009A810F900F900F900F90CF91DF910895EE
:101EF000DF93CF9300D000D00F92CDB7DEB79C8395
:101F00008B836D8323E532E08B819C8160E070E000
:101F1000A9010E94730D9A8389834BE252E08B8161
:101F20009C8129813A81B9010E94730D9A8389832A
:101F300045E152E08B819C8129813A81B9010E945F
:101F4000730D9A8389838D81882361F042EF51E07C
:101F50008B819C8129813A81B9010E94730D9A83FA
:101F600089830BC04DEE51E08B819C8129813A81A0
:101F7000B9010E94730D9A83898344EB51E08B81F0
:101F80009C8129813A81B9010E94730D9A838983CA
:101F90008D81882361F044EA51E08B819C81298105
:101FA0003A81B9010E94730D9A8389830BC044E979
:101FB00051E08B819C8129813A81B9010E94730D86
:101FC0009A83898349E251E08B819C8129813A81FE
:101FD000B9010E94730D9A83898389819A810F9038
:101FE0000F900F900F900F90CF91DF910895DF9396
:101FF000CF93CDB7DEB7A7970FB6F894DEBF0FBE6D
:10200000CDBF1D821C821A8281E090E00E94DA011D
:10201000A1E3B0E0E1E3F0E080818B7F8C9382E08C
:1020200091E00E94AE0582E00E949D058AE090E06A
:102030000E94DA01A4E3B0E0E4E3F0E08081816093
:102040008C93A5E3B0E0E5E3F0E0808181608C93C0
:10205000A1E3B0E0E1E3F0E0808180688C93A2E34B
:10206000B0E0E2E3F0E080818F778C9384E166E773
:1020700074E00E94AC0484E190E00E94DA01A5E3E0
:10208000B0E0E5E3F0E080818E7F8C9381E08D838A
:1020900082E091E028E031E0B90140E50E94A1082A
:1020A00021E631E082EC91E0B9010E940A079987AC
:1020B000888788859985009799F381E691E028853E
:1020C0003985B9010E94E908882329F081E691E069
:1020D0000E94470BE5CF81E691E028853985B9015B
:1020E0000E9435098823E1F28D81882349F0A5E318
:1020F000B0E0E5E3F0E0808181608C931D8209C04F
:10210000A5E3B0E0E5E3F0E080818E7F8C9381E091
:102110008D8380917801813061F4809183018830D2
:1021200041F481E691E028853985B9010E94D10BFF
:10213000B7CF80917801863009F0C8C080918501C1
:10214000882309F0C3C080918601803509F0BEC0A4
:1021500080919001882F90E082709070009729F014
:1021600081E691E00E94AE0C9BCF80919001882F78
:1021700090E080719070009709F4A8C081E691E02A
:102180000E941C0D0E94FE0C9F838E838E819F8176
:10219000009771F480919001882F90E08170907089
:1021A000882309F47DCF81E691E00E94E80D78CF85
:1021B00021E631E08E819F81280F391F83E191E074
:1021C000B90144E050E00E944B18009761F029E308
:1021D00033E081E691E060E070E0A9010E94730DB8
:1021E0009987888767C08E819F8104968F599E4FFB
:1021F0009C0188E191E0B90142E050E00E944B1857
:102200000097B9F42CE033E081E691E060E070E003
:10221000A9010E94730D9987888742EE52E081E6FA
:1022200091E028853985B9010E94730D99878887C7
:1022300041C08E819F8105968F599E4F0E94D50E79
:102240008B838B818F3F61F422E932E081E691E05C
:1022500060E070E0A9010E94730D998788872AC009
:102260008B81813039F4A2E3B0E0E2E3F0E08081D9
:1022700080688C938B81882339F4A2E3B0E0E2E399
:10228000F0E080818F778C938B818D3F39F481E6EC
:1022900091E00E94300F998788870CC0E2E3F0E05C
:1022A0008081282F207881E691E0622F0E94780FAC
:1022B0009987888781E691E00E94E80D81E691E0A8
:1022C00028853985B9010E94530EEACE80917801A4
:1022D000813109F0E5CE80918501843009F0E0CEAE
:1022E00080918601803B09F0DBCE80918801885087
:1022F0008A838BE891E00E94B70E882309F49AC084
:102300001C8211C08C818F5F8C838C81882F90E020
:102310008A96FC01EF59FE4F80818C3221F48C812A
:102320008F5F8C8304C09C818A81981758F38C81BD
:102330008230A0F08C81282F30E08A81882F90E0B5
:1023400003978217930754F08C81882F90E08B9627
:10235000FC01EF59FE4F80818D3351F0CE010A967A
:102360002BE131E0B90149E050E00E9439186BC01F
:102370008C81882F90E08A96FC01EF59FE4F808176
:10238000843709F04DC08C81882F90E08C96FC0139
:10239000EF59FE4F808189838981813389F4A2E3DB
:1023A000B0E0E2E3F0E0808180688C93CE010A9691
:1023B00024E231E0B90144E050E00E94391843C002
:1023C0008981803389F4A2E3B0E0E2E3F0E0808128
:1023D0008F778C93CE010A9628E231E0B90144E070
:1023E00050E00E9439182FC089818F33C9F4E2E38D
:1023F000F0E08081882354F4CE010A9624E231E093
:10240000B90144E050E00E9439181DC0CE010A967F
:1024100028E231E0B90144E050E00E94391813C0CD
:10242000CE010A962CE231E0B9014EE050E00E9464
:10243000391809C0CE010A962AE331E0B9014DE00E
:1024400050E00E943918CE010A960E944218482F87
:1024500081E691E09E01265F3F4FB90120EB34E019
:102460000E940F0C1DCEEF92FF920F931F937B01E2
:102470008C0120E030E040E05FE40E94DF1588231B
:102480008CF0C801B70120E030E040E05FE40E943A
:10249000AB130E943F169B01AC01205030404040DE
:1024A000504806C0C801B7010E943F169B01AC010D
:1024B000B901CA011F910F91FF90EF900895A0E01C
:1024C000B0E0E5E6F2E10C945918DC012B01FA01C9
:1024D0009C91923008F439C1EB018881823008F474
:1024E00033C1943069F4843009F02FC111969C9166
:1024F00011978981981709F428C1A7E4B1E025C193
:10250000843009F421C18230A9F4923009F01DC150
:102510009A01AD0188E0EA010990AE01E901099252
:102520009E018150C1F7E201898111969C91892316
:10253000818308C1923009F407C112962D903C9016
:102540001397EB018A819B811496AD90BD90CD903D
:10255000DC901797EC80FD800E811F819101281B74
:10256000390BB90137FF04C066277727621B730B4D
:10257000603271050CF061C0121613066CF537015C
:102580004801062E04C096948794779467940A9421
:10259000D2F721E030E040E050E004C0220F331FCA
:1025A000441F551F6A95D2F721503040404050409B
:1025B0002E213F214023512321153105410551058D
:1025C00021F021E030E040E050E079018A01E62886
:1025D000F728082919293CC0232BD1F1260E371ED4
:1025E00035014601062E04C096948794779467942B
:1025F0000A94D2F721E030E040E050E004C0220F1E
:10260000331F441F551F6A95D2F721503040404078
:1026100050402A213B214C215D21211531054105E6
:10262000510521F021E030E040E050E059016A011D
:10263000A628B728C828D9280BC0821593052CF0E6
:102640001C01AA24BB24650103C0EE24FF248701DA
:1026500011969C91D20111968C91981709F445C05E
:10266000992339F0A80197012A193B094C095D0902
:1026700006C0A60195012E193F09400B510B57FDCD
:1026800008C0118233822282248335834683578394
:102690001DC081E081833382228288279927DC0153
:1026A000821B930BA40BB50B84839583A683B783FE
:1026B0000DC0220F331F441F551F248335834683CB
:1026C000578382819381019793838283248135810B
:1026D00046815781DA01C9010197A109B1098F5FCC
:1026E0009F4FAF4FBF4328F30BC0918333822282A9
:1026F000EA0CFB1C0C1D1D1DE482F582068317836A
:1027000083E08083248135814681578157FF1AC039
:10271000C901AA2797FDA095BA2F81709070A0706B
:10272000B0705695479537952795822B932BA42B00
:10273000B52B84839583A683B78382819381019689
:1027400093838283DF0101C0D201CD01CDB7DEB713
:10275000E2E10C947518A0E2B0E0E1EBF3E10C9437
:10276000651869837A838B839C832D833E834F8393
:102770005887E9E0EE2EF12CEC0EFD1ECE010196FD
:10278000B7010E9468178E010F5E1F4FCE0105969C
:10279000B8010E9468178A8991E089278A8BC7014E
:1027A000B801AE01475E5F4F0E945F120E94931610
:1027B000A096E6E00C948118A0E2B0E0E2EEF3E12E
:1027C0000C94651869837A838B839C832D833E8365
:1027D0004F835887F9E0EF2EF12CEC0EFD1ECE0151
:1027E0000196B7010E9468178E010F5E1F4FCE0140
:1027F0000596B8010E946817C701B801AE01475E8F
:102800005F4F0E945F120E949316A096E6E00C9420
:102810008118A0E2B0E0EFE0F4E10C94591869836C
:102820007A838B839C832D833E834F835887CE018D
:102830000196BE01675F7F4F0E946817CE01059623
:10284000BE016F5E7F4F0E9468179985923088F0B5
:1028500089898230C8F0943019F4823051F404C070
:10286000843029F4923081F487E491E0C6C092303C
:1028700049F420E09A858A89981321E02A87CE01BD
:102880000996BBC0823049F420E09A858A89981362
:1028900021E02A8BCE014196B0C02D843E844F8426
:1028A00058886D887E888F88988CEE24FF24870155
:1028B000AA24BB24650140E050E060E070E0E0E065
:1028C000F0E0C10181709070892BE9F0E60CF71CF3
:1028D000081D191D9A01AB012A0D3B1D4C1D5D1DE4
:1028E00080E090E0A0E0B0E0E614F70408051905E8
:1028F00020F481E090E0A0E0B0E0BA01A901480F27
:10290000591F6A1F7B1FAA0CBB1CCC1CDD1C97FE29
:1029100008C081E090E0A0E0B0E0A82AB92ACA2A65
:10292000DB2A3196E032F10549F0660C771C881CF1
:10293000991C5694479437942794C3CFFA85EA8913
:102940002B893C898B859C85280F391F2E5F3F4F33
:1029500017C0CA0181709070892B61F01695079598
:10296000F794E79480E090E0A0E0B0E8E82AF92A44
:102970000A2B1B2B76956795579547952F5F3F4FF1
:1029800077FDE7CF0CC0440F551F661F771F17FD5B
:102990004160EE0CFF1C001F111F215030404030E1
:1029A00090E0590790E0690790E4790760F32B8F76
:1029B0003C8FDB01CA018F779070A070B0708034BB
:1029C0009105A105B10561F447FD0AC0E114F104C8
:1029D0000105110529F0405C5F4F6F4F7F4F407834
:1029E0001A8EFE1711F081E08A8F4D8F5E8F6F8FE8
:1029F00078A383E0898FCE0149960E949316A09612
:102A0000E2E10C947518A8E1B0E0E9E0F5E10C947E
:102A1000611869837A838B839C832D833E834F83E4
:102A20005887B9E0EB2EF12CEC0EFD1ECE0101967D
:102A3000B7010E9468178E010F5E1F4FCE010596E9
:102A4000B8010E9468172985223008F47EC03989B0
:102A5000323010F4B8017CC08A859A8989278A8728
:102A6000243011F0223031F4231709F06EC067E4EE
:102A700071E06EC0343039F41D861E861F86188AB8
:102A80001C861B8604C0323021F484E08987B7019C
:102A90005FC02B853C858B899C89281B390B3C8723
:102AA0002B87ED84FE840F851889AD88BE88CF887A
:102AB000D88CEA14FB040C051D0540F4EE0CFF1C39
:102AC000001F111F215030403C872B8720E030E051
:102AD00040E050E080E090E0A0E0B0E460E070E032
:102AE000EA14FB040C051D0540F0282B392B4A2B5A
:102AF0005B2BEA18FB080C091D09B695A79597955D
:102B00008795EE0CFF1C001F111F6F5F7F4F6F3109
:102B1000710531F7DA01C9018F779070A070B0703C
:102B200080349105A105B10561F427FD0AC0E114C7
:102B3000F1040105110529F0205C3F4F4F4F5F4F15
:102B400020782D873E874F87588BBE01675F7F4F68
:102B5000CB010E9493166896EAE00C947D18A8E1D8
:102B6000B0E0E5EBF5E10C94651869837A838B831B
:102B70009C832D833E834F83588789E0E82EF12C78
:102B8000EC0EFD1ECE010196B7010E9468178E0162
:102B90000F5E1F4FCE010596B8010E946817898508
:102BA000823040F08989823028F0C701B8010E9444
:102BB000E01701C08FEF6896E6E00C948118A8E159
:102BC000B0E0E5EEF5E10C94651869837A838B83B8
:102BD0009C832D833E834F83588789E0E82EF12C18
:102BE000EC0EFD1ECE010196B7010E9468178E0102
:102BF0000F5E1F4FCE010596B8010E9468178985A8
:102C0000823040F08989823028F0C701B8010E94E3
:102C1000E01701C08FEF6896E6E00C948118A8E1F8
:102C2000B0E0E5E1F6E10C94651869837A838B8363
:102C30009C832D833E834F83588789E0E82EF12CB7
:102C4000EC0EFD1ECE010196B7010E9468178E01A1
:102C50000F5E1F4FCE010596B8010E946817898547
:102C6000823040F08989823028F0C701B8010E9483
:102C7000E01701C081E06896E6E00C948118ACE0B2
:102C8000B0E0E5E4F6E10C94691869837A838B83FC
:102C90009C83CE010196BE016B5F7F4F0E94681737
:102CA0008D81823061F1823050F1843021F48E8147
:102CB000882351F12EC02F81388537FD20C06E81C9
:102CC0002F3131051CF06623F9F023C08EE190E02E
:102CD000821B930B29853A854B855C8504C05695EC
:102CE0004795379527958A95D2F76623B1F0509589
:102CF0004095309521953F4F4F4F5F4F0EC020E0DC
:102D000030E040E050E009C02FEF3FEF4FEF5FE7CA
:102D100004C020E030E040E050E8B901CA012C9640
:102D2000E2E00C948518DF92EF92FF920F931F93CD
:102D3000FC01E480F58006811781D180808182309A
:102D400048F480E090E0A0E1B0E0E82AF92A0A2BFC
:102D50001B2BA5C0843009F49FC0823021F4EE24DF
:102D6000FF24870105C0E114F1040105110519F4E0
:102D7000E0E0F0E096C0628173819FEF62387907EE
:102D80000CF05BC022E83FEF261B370B2A313105E0
:102D90002CF020E030E040E050E02AC0B801A7016C
:102DA000022E04C076956795579547950A94D2F7F9
:102DB00081E090E0A0E0B0E004C0880F991FAA1F56
:102DC000BB1F2A95D2F70197A109B1098E219F2136
:102DD000A023B1230097A105B10521F081E090E087
:102DE000A0E0B0E09A01AB01282B392B4A2B5B2BDA
:102DF000DA01C9018F779070A070B07080349105AE
:102E0000A105B10539F427FF09C0205C3F4F4F4FA2
:102E10005F4F04C0215C3F4F4F4F5F4FE0E0F0E059
:102E20002030A0E03A07A0E04A07A0E45A0710F0DB
:102E3000E1E0F0E079018A0127C06038710564F5AE
:102E4000FB01E158FF4FD801C7018F779070A07048
:102E5000B07080349105A105B10539F4E7FE0DC0CD
:102E600080E490E0A0E0B0E004C08FE390E0A0E058
:102E7000B0E0E80EF91E0A1F1B1F17FF05C01695CC
:102E80000795F794E794319687E016950795F794A0
:102E9000E7948A95D1F705C0EE24FF248701EFEF70
:102EA000F0E06E2F679566276795902F9F77D794F0
:102EB000DD24D7948E2F8695492F462B582F5D29D8
:102EC000B701CA011F910F91FF90EF90DF90089515
:102ED000FC01DB01408151812281622F6F7770E01C
:102EE000221F2227221F9381892F880F822B282FB0
:102EF00030E0991F9927991F11969C9311972115DE
:102F00003105A9F5411551056105710511F482E0FE
:102F100037C082E89FEF13969C938E9312979A0185
:102F2000AB0167E0220F331F441F551F6A95D1F78D
:102F300083E08C930DC0220F331F441F551F129640
:102F40008D919C911397019713969C938E93129752
:102F5000203080E0380780E0480780E4580758F3C5
:102F600014962D933D934D935C93179708952F3F9F
:102F7000310579F4411551056105710519F484E0B5
:102F80008C93089564FF03C081E08C9312C01C925F
:102F900010C02F57304013963C932E93129783E026
:102FA0008C9387E0440F551F661F771F8A95D1F7D2
:102FB000706414964D935D936D937C931797089569
:102FC0001F93DC01FB019C91923008F447C0808183
:102FD000823008F443C0943051F411961C9184302F
:102FE00099F58181682F70E0611B71093FC08430C1
:102FF00021F0923031F48230B9F18181882389F156
:103000002DC011961C9111978230F1F08181181713
:10301000D9F412962D913C91139782819381821756
:10302000930794F028173907BCF014968D919D9161
:103030000D90BC91A02D24813581468157812817A0
:1030400039074A075B0718F4112341F00AC08217B9
:103050009307A407B50740F4112319F061E070E06D
:1030600005C06FEF7FEF02C060E070E0CB011F9101
:103070000895FB01DC0102C001900D9241505040C7
:10308000D8F70895FC0101900020E9F7809590950C
:103090008E0F9F1F0895FB01DC014150504030F01E
:1030A0008D910190801919F40020B9F7881B990BB4
:1030B00008952F923F924F925F926F927F928F92DC
:1030C0009F92AF92BF92CF92DF92EF92FF920F93B7
:1030D0001F93CF93DF93CDB7DEB7CA1BDB0B0FB6C1
:1030E000F894DEBF0FBECDBF09942A88398848887E
:1030F0005F846E847D848C849B84AA84B984C88414
:10310000DF80EE80FD800C811B81AA81B981CE0F0A
:10311000D11D0FB6F894DEBF0FBECDBFED010895EF
:04312000F894FFCF51
:10312400500A545558100024C0A801586C63736F9A
:1031340066740047455420002F2000653D6E6F5F84
:10314400636D6400743D3100743D3000653D6E6F05
:103154005F737563685F636D6400653D696E766176
:103164006C69645F707700000000000000000000DC
:00000001FF
