:020000040000FA
:06000000020A920201E277
:03002B000207D2F7
:0300330002065B67
:0300430002076B46
:0300530002012186
:03006B0002063555
:1000830002017E0101FF0503017F117F117F117FB3
:100093001135102F107F11962000000000662100FB
:1000A300000000FF000000FF0001436F6E6E6563F8
:1000B3007420617320456E644465766963650A0044
:1000C30059135F130000A713000000000000611420
:1000D3000000000000008913000000000000000081
:1000E300FFFF010101003205000000E8038505E878
:1000F3000364006400B8010202000800000502075F
:1001030004051E02051E0A03B80B020102E8030AD6
:10011300050001FFFF020020FD0002020612C0E0FD
:1001230074F21203FBA2AFE433FED2AFE5A7FFE5FF
:10013300A1F5085F54106006121B7575A1EFE50861
:100143005F54086008121B7B75A1F78024E508A2A1
:10015300E092F0EFA2E082F05017906198E0F890FF
:10016300088BE0C398A2D265D0335002E8F075A1A2
:10017300FEEEA2E092AF7F0102045AC0E074F212D5
:1001830003FBA2AFE433FED2AF9061A4E0F8759B0A
:1001930000E59158540860087591F7121BCF80232E
:1001A300E59158541060087591EF121BD58014E542
:1001B30091A2E092F0E8A2E082F05007E0C2E0F002
:1001C300121D199061A3E0F8E5E9585404600E127A
:1001D3001CEF75E9FB906193E0A2E640F28092C0C8
:1001E300E074F21203FBA2AFE433FED2AF9061A539
:1001F300E0F8E5BF585404600675BFFB121D3102D9
:100203000174C3E498F8E499F91202468026C3E422
:100213009AFAE49BFBE920E7E9120246E498F8E442
:1002230099F922C3E498F8E499F9120246E498F89C
:10023300E499F9C3E49AFAE49BFB22EB20E7CFE9C4
:1002430020E7E0B90010BB0008E88AF084F8AAF0C0
:1002530022E4FBC8FA22EB70227B10C833C8C933EF
:10026300C9335007C39AC3DBF280069A50012ADBD5
:10027300EAC833F4C8C933F4C9FA2275F008E4C8EC
:1002830033C8C933C933C99AC99B5004C92AC93B66
:10029300D5F0ECFBC833F4C8E4C9FA22080808EA2D
:1002A300C0E0EBC0E086F0E7A4FA180986F0E7A403
:1002B3002AFA180986F0E7A42AFA180986F0E7A4AF
:1002C3002AFA1986F0E7A4FBE5F02AFA190886F062
:1002D300E7A42BFBE5F03AFA190886F0E7A42BFB19
:1002E300E5F03AFA18180986F0E7A4C5F02BFBE409
:1002F3003AFA1908E7C5F0C6A426F6E5F03BFBE495
:100303003AFA1886F0E7A4F6E5F00826F6E43B0887
:10031300F6E43A08F6D0E0FBD0E0FA22E4CFC0E0FE
:10032300E4CEC0E0E4CDC0E0E4CCC0E075F020C38F
:10033300E633F608E633F608E633F608E633F6184E
:100343001818EC33FCED33FDEE33FEEF33FFC3EC53
:100353009709ED9709EE9709EF97191919400FFFC0
:10036300EC97FC09ED97FD09EE97FE191906D5F0F8
:10037300BEECF709EDF709EEF709EFF7191919D0F4
:10038300E0FCD0E0FDD0E0FED0E0FF222518C582DE
:10039300C0E0E51934FFC583C0E0E518C3958224A6
:1003A300F810AF088583198582188008858319851D
:1003B3008218D2AFCEF0A3E520F0A37808E608F0C8
:1003C300A3DEFAEFF0A3E58124FAF8E608F0A3E64A
:1003D30008F0A3E608F0A30808E608F0A3E608F08F
:1003E300A315811581D0E0FED0E0F81581158115A4
:1003F30081E8C0E0EEC0E022C0D02518C582C0E08D
:10040300E51934FFC583C0E0E518C3958224F310D2
:10041300AF0885831985821880088583198582181A
:10042300D2AFC8F0A3E9F0A3EAF0A3EBF0A37908F5
:10043300E709F0A3D8FAECF0A3EDF0A3EEF0A3EFF5
:10044300F0A3D0E0F0A3D0E0F0A3D0E0F0A3E52048
:10045300F0A3E5F0F0A322851983851882E0C0E0BC
:10046300A3E0F9A3E0FAA3E0FBA37808E0F608A36E
:10047300DFFAE0FCA3E0FDA3E0FEA3E0FFA3E0C0FE
:10048300E0A3E0C0E0A3E0F5D0A3E0F520A3E0A360
:10049300F5F010AF088583198582188008858319C4
:1004A300858218D2AFD082D083D0E0F8D0E0321268
:1004B3000B01B900030204F4E49003017860790BA3
:1004C3008002F0A3D8FCD9FA900D60AA82AB839086
:1004D3000086789C79018015E493A3AC82AD838A6E
:1004E300828B83F0A3AA82AB838C828D83D8E9D9D4
:1004F300E775826E7583E674031208717582017560
:1005030083207400120871E47375F0108E1A8F1B28
:1005130085821F85831E851882851983E0CEA3E01B
:10052300CF851F82851E83EBC9EAC8EDCBECCAC316
:10053300E833C8E933C9EA33CAEB33CBC3EA9EF5E0
:100543001DEB9FF51CB35004AB1CAA1DEC33CCED83
:1005530033CDD5F0DAAE1AAF1B22D083D082ECC0F4
:10056300E0EDC0E0E493A3FCE493A3FDED4C600D48
:10057300120679EC24FFFCED34FFFD80EFE493A336
:10058300FCE493A3FDED4C600D120716EC24FFFC75
:10059300ED34FFFD80EFD0E0FDD0E0FCE493A3C099
:1005A300E0E493C0E022851983851882E0A3FEE08E
:1005B300A3F5207808E0A3F608DFFAE0A3FFE0A3A1
:1005C300C0E0E0A3C0E0E0A3C0E0E0A3C0E0E0A39C
:1005D300C0E010AF088582188583198008858218CA
:1005E300858319D2AFD083D082020877D083D0829B
:1005F300E9C0E0E493A3C386F0C5F095F0F908E4FD
:1006030093A386F0C5F095F0700BE493A3C39940D0
:1006130005E9048002A3E475F002A42582F582E5CE
:10062300F03583F583D0E0F9E493A3C0E0E493C00D
:10063300E022C0E074F21203FBA2AFE433FED2AFB8
:10064300E589A2E45003121A49758900C2C5EEA2D6
:10065300E092AF7F0102045AC0E074F21203FBA2DE
:10066300AFE433FED2AFE58BA2E05003121A497513
:100673008B00C2E880D8C0E0C3E49396087401936A
:100683009618400FE4936670080874019366187017
:10069300007019A3A3C3E49396087401939618A357
:1006A300A3400DD0E0D0E0D0E0020599A3A3A3A31B
:1006B300A3A3D0E0227404800474028000CCC0E0C1
:1006C300EDC0E0E518C39CCCAD1950011D10AF0679
:1006D3008C188D1980068C188D19D2AF1207F3D0A0
:1006E300E0FDD0E0FC2274028000CCC0E0EDC0E06D
:1006F300E518C39CCCAD1950011D10AF068C188DA5
:100703001980068C188D19D2AF12078ED0E0FDD058
:10071300E0FC22C0E0C0F088F0E49366700808743F
:10072300019366187000A8F0A3A3700BD0F0D0E07B
:10073300D0E0D0E0020599A3A3D0F0D0E022D0838B
:10074300D082CCC0E0E493A360061208521470FA7E
:10075300E493A3600612092A1470FAD0E0FCE49330
:10076300A3C0E0E493C0E022C0E074F21203FBA252
:10077300AFE433FED2AFC2C0E5D1A2E45003121AF4
:10078300EBEEA2E092AF7F0102045ACAC0E0E49309
:10079300A3C582CCC582C583CDC583F0A3C582CC56
:1007A300C582C583CDC583DAE5D0E0CA22A2E7922C
:1007B300D65002F40430F70663F0FF05F0B34003AC
:1007C30084800384F40430D60563F0FF05F022C06F
:1007D300E0C0D0E8C0E0E9C0E0E5A8D2AFC2C7A25C
:1007E300E7A2E792AFD0E0F9D0E0F8D0D0D0E03282
:1007F300CAC0E0E0A3C582CCC582C583CDC583F062
:10080300A3C582CCC582C583CDC583DAE6D0E0CA51
:1008130022C008C3E096F50808A3E096420808A39F
:10082300E096420808A3E09645087001D3D0082259
:100833007009080808226016181818C6C333C608BA
:10084300C633C608C633C608C633C6D5E0EA22C0D7
:10085300E0E493A3D39C5010E493A3C39C400AD039
:10086300E0D0E0D0E002075EA3A3A3D0E022C09FC4
:10087300F59FE473D09F22D083D082C09FE493C0BE
:10088300E0740193C0E0740293F59F222518F5826A
:1008930010AF08F518400215198008F51840021525
:1008A30019D2AF851983227404800A7403800674F5
:1008B3000280027401C0E0F40412088FD0E0120A2F
:1008C300DC22BB0102E722C082C08389828A83BB08
:1008D3000003E08002E493D083D08222C0D02518A5
:1008E30010AF08F518500205198008F518500205D5
:1008F30019D2AFD0D0226016080808C6C313C61891
:10090300C613C618C613C618C613C6D5E0EA22C353
:10091300E0C696F608A3E0C696F608A3E0C696F6E8
:1009230008A3E0C696F622C0E0E493A36C7009D056
:10093300E0D0E0D0E002075EA3A3D0E022251810A8
:10094300AF08F518400215198008F518400215196B
:10095300D2AF22E066701008A3E066700A08A3E035
:1009630066700408A3E06622E76670100809E7666C
:10097300700A0809E76670040809E76622C3E0966F
:1009830008A3E09608A3E09608A3E096A2D265D058
:100993003322C3E096F008A3E096F008A3E096F0B4
:1009A30008A3E096F022E026F608A3E036F608A3B3
:1009B300E036F608A3E036F622E026F008A3E03698
:1009C300F008A3E036F008A3E036F022E657F60875
:1009D30009E657F60809E657F60809E657F622E04E
:1009E30056F608A3E056F608A3E056F608A3E05629
:1009F300F622E056F008A3E056F008A3E056F0080C
:100A0300A3E056F022E627F60809E637F60809E6DA
:100A130037F60809E637F622700422600D18C6C3BC
:100A230033C608C633C6D5E0F41822E647F60809EC
:100A3300E647F60809E647F60809E647F622E4C35F
:100A430096F608E496F608E496F608E496F622C3CA
:100A5300E09608A3E09608A3E09608A3E096226038
:100A63000D08C6A2E713C618C613C6D5E0F322C6FF
:100A7300F4C608C6F4C608C6F4C608C6F4C622C33C
:100A8300E7960809E7960809E7960809E7962275A5
:100A9300D000758140751801751903000204B2E690
:100AA300F008A3E6F008A3E6F008A3E6F022600C42
:100AB30008C6C313C618C613C6D5E0F422E0F60869
:100AC300A3E0F608A3E0F608A3E0F622C58224FD1E
:100AD300C582C58334FFC58322CAC0E0E6F0A308FC
:100AE300DAFAD0E0FA22E0FAA3E0FBA3E0FCA3E009
:100AF300FD22EAF0A3EBF0A3ECF0A3EDF022E5C7AF
:100B030054F84401F5C77901222518F582E4351913
:100B1300F58322C2AF75D69F0200002212087A3FE6
:100B23004D0012087AA84F0012087A5B5100120890
:100B33007A1F520012087A69530012087A4156004C
:100B430012087A4D590012087A5C590012087AE9A2
:100B5300590012087A315A0012087AAE5A00120864
:100B63007A285D0012087A815E0012087A365F00E7
:100B730012087AC25F0012087AF85F0012087AAA94
:100B8300600012087A6E610012087A24630012086A
:100B93007A62630012087AD9630012087ACA640081
:100BA30012087A8B650012087ACC650012087AE481
:100BB300650012087A8D660012087A186900120817
:100BC3007AB16A0012087ACF6A0012087AED6A00D5
:100BD30012087AE06B0012087A9A6F0012087A0002
:100BE300800212087A12800212087A6480021208C4
:100BF3007AC4800212087A51810212087AFF8102B4
:100C030012087A6A820212087A83820212087AA987
:100C1300820212087AC8820212087A068302120834
:100C23007A5B830212087A84830212087AD68302DB
:100C330012087A99840212087A1A850212087AD560
:100C4300850212087AAD860212087A7F870212089B
:100C53007A8E870212087A99870212087ADC880250
:100C630012087AED880212087A67890212087AF567
:100C7300890212087A508A0212087A1F8B0212081C
:100C83007A418B0212087A828B0212087A8F8B02C6
:100C930012087A988B0212087AB48D0212087A0627
:100CA3008F0212087A848F0212087AA8900212081F
:100CB3007A25930212087A30930212087A3A930241
:100CC30012087A45930212087A4F930212087A594E
:100CD300930212087A64930212087A6F930212083D
:100CE3007AA0930212087AAB930212087ACF930286
:100CF30012087AF3930212087A5E940212087AA217
:100D0300940212087ABE940212087A3995021208E4
:100D13007A80950212087ACC950212087A369602E6
:100D230012087A29980212087AC0980212087A885F
:100D3300990212087AB59C0212087A0A9D021208D7
:100D43007A369D0212087A4A9E0212087A8E9E0211
:100D530012087AF79E0212087AF49F0212087A7F29
:100D6300A00212087A1CA10212087ABCA10212087E
:100D73007A67A20212087AF9810112087A35820190
:100D830012087A2B840112087A6A840112087AB451
:100D9300840112087A48850112087AAC8501120889
:100DA3007AEC850112087A3F860112087A87870157
:100DB30012087A94880112087A2A890112087A980B
:100DC3008C0112087A378D0112087A398E011208C4
:100DD3007A9C8E0112087AD78F0112087AC8910182
:100DE30012087A60920112087A6A920112087A9DB7
:100DF300920112087A74930112087A0A9401120874
:100E03007ACE940112087AF7940112087A24950194
:100E130012087A64970112087A37980112087A76D1
:100E2300980112087AEA980112087AA69901120821
:100E33007AD8990112087A1F9A0112087A579A01EF
:100E430012087AAC9A0112087A009B0112087A9070
:100E53009B0112087AF59B0112087A5B9C01120828
:100E63007AEA9D0112087AE59E0112087A1AA00116
:100E730012087A78A20112087A33A30112087A8A37
:100E8300A50112087A2DA60112087A74A601120888
:100E93007A45A80112087A59A80112087A63A801B1
:100EA30012087A89A80112087A95A80112087AB45F
:100EB300A80112087A5FA90112087AB4A9011208DD
:100EC3007ABEA90112087A67AA0112087A1DAB013A
:100ED30012087A10AC0112087A48AD0112087ADCC4
:100EE300AD0112087A45AE0112087A5CAE01120810
:100EF3007A99AE0112087AB7AE0112087AF9AE01F7
:100F030012087A1EAF0112087AB4AF0112087A9C54
:100F1300B00112087A1FB10112087AA3B1011208B5
:100F23007A4BB20112087A7BB30112087A7FB401BB
:100F330012087AE5B40112087A9AB50112087ABD4B
:100F4300B50112087A6BB60112087AB9B601120814
:100F53007AFBB60112087A55B70112087A79B701FC
:100F630012087AA4B70112087AE0B70112087A05C9
:100F7300B80112087A8DB80112087AA7BA011208CB
:100F83007AE8BA0112087A73BB0112087AFFBB012F
:100F930012087A6DBC0112087AA8BC0112087AB54E
:100FA300BD0112087A00800312087A388003120800
:100FB3007A59800312087A9B800312087AFD800312
:100FC30012087A07810312087A17810312087A4EEE
:100FD300810312087A10850312087AD18603120856
:100FE3007AF3880312087AB2890312087A7F8A0394
:100FF30012087A23BF0112087A7DBF0112087ADA38
:10100300BF0112087A24C00112087A3FC0011208F6
:101013007A66C00112087A83C00112087A8FC00170
:1010230012087AAFC20112087AC8C20112087A51B3
:10103300C30112087A64C30112087A76C301120845
:101043007A2CC40112087A36C50112087ADAC6016D
:1010530012087A65C70112087A68C70112087AD0A4
:10106300C70112087AE1C70112087A73C80112088E
:101073007AA1C80112087AA3C80112087ADBC80151
:1010830012087A38C90112087A5CC90112087A7AFF
:10109300C90112087AC8C90112087AE8CA011208FC
:1010A3007A40CB0112087A99CB0112087A28CC0135
:1010B30012087A50CC0112087A86CC0112087A956C
:1010C300CC0112087AF3CC0112087A63CD0112081D
:1010D3007AA0CD0112087ADBCD0112087A06CE017F
:1010E30012087A20CE0112087A3ACE0112087AF455
:1010F300CE0112087AFECE0112087A3ACF01120805
:101103007A4ACF0112087A53CF0112087AB3CF017A
:1011130012087AC7CF0112087AD0D00112087AE5F3
:10112300D00112087A87D10112087A06D201120877
:101133007AA9D20112087AB5D20112087AE7D3014B
:1011430012087A03D40112087A57D40112087A904C
:10115300D40112087AA5D40112087AE7D40112083F
:101163007A40D70112087AECD70112087A19D9010B
:1011730012087AADD90112087ADBDB0112087AF37F
:10118300DB0112087AF6DB0112087A02DC0112088D
:101193007A16DC0112087A1EDC0112087A5BDC0184
:1011A30012087A79DD0112087AF8DD0112087A7AD9
:1011B300DE0112087AF4DE0112087AAFDF011208A9
:1011C3007AD1DF0112087A6DE00112087A79E00121
:1011D30012087AA4E00112087AA7E00112087A0C37
:1011E300E10112087A6EE20112087AF7E3011208AC
:1011F3007A82E40112087AAAE50112087A75E601F7
:1012030012087AA6E60112087AD2E60112087AAF2A
:10121300E70112087ADEE70112087A9DE801120855
:101223007A45E90112087AB9E90112087A54EA0108
:1012330012087ADAEA0112087A10EB0112087A51DD
:10124300EB0112087A2D8B0312087A7C8B031208A8
:101253007AB98B0312087A098C0312087A8D8C03EE
:1012630012087AD58E0312087ACF900312087A3FB8
:10127300940312087A7A940312087A989403120852
:101283007AF8940312087A20950312087A51950389
:1012930012087A7E950312087ADA950312087AB84F
:1012A3006F0012087A36700012087A6C7000120808
:1012B3007AD4700012087A47720012087A637200B7
:1012C30012087AA8720012087A35730012087A8C11
:1012D300730012087AAF740012087AD275001208EC
:1012E3007A2F760012087A9B760012087A447700E8
:1012F30012087AA5770012087AEE770012087A9B13
:10130300780012087AA5790012087AE879001208A1
:101313007A317A0012087A687A0012087A0B7B0015
:1013230012087ABA7B0012087AD4F70212087A7E7E
:10133300F80212087ADBFA0212087A46FB02120854
:101343007A84FB0212087A43FD0212087A9BFD029B
:1013530012087ACEFD0212087A5DFE0212087A6C38
:10136300FE0212087A84840412087ACEFC0312085F
:101373007ADFFC0312087A44FD0312087AECFD03BA
:1013830012087A17820412087A3EFA0312087A6660
:10139300FA0312087A5AFB0312087A8EF50312082D
:1013A3007AE6F60312087A26960312087AD596038C
:1013B30012087AF5960312087A15970312087A2908
:1013C300970312087A89970312087AB997031208C8
:1013D3007A40990312087AE9990312087ACB9A039F
:1013E30012087A1A9B0312087A5E9B0312087AC3C7
:1013F3009B0312087A2F9C0312087A509C0312084D
:101403007AD39C0312087A089D0312087A789D0305
:1014130012087A1E9F0312087AEF9F0312087A318B
:10142300A00312087A8BA00312087A0EF2031208A3
:101433007A2FF20312087A65F30312087A8FF30303
:1014430012087A35F70312087AA8F70312087AB359
:10145300F70312087AD4F70312087A7BEB02120817
:101463007A7EEB0212087A40EC0212087A6BEC02E5
:1014730012087AB1EC0212087AD6EC0212087AF753
:10148300EC0212087A2BED0212087A63ED021208BD
:101493007A8CEE0212087ABAEE0212087ADAEE02B7
:1014A30012087A45EF0212087AF9EF0212087A2E2F
:1014B300F00212087AA7F00212087A0FF202120859
:1014C3007AB2F20212087AAAF30212087ADFF3025E
:1014D30012087A3FF40212087A38480012087A2D6B
:1014E300F50212087AB4F60212087A35F7021208E6
:1014F3007A68F70212087A9FA00312087AA9A00358
:1015030012087AF5A00312087A63A10312087A84F9
:10151300A10312087A9BA10312087A4BA2031208B3
:101523007A08A50312087A11A50312087A64A503A1
:1015330012087A8DA50312087AE14C0012087A0B7F
:10154300A60312087A9CA60312087AD8A6031208E7
:101553007A24A70312087A8BA70312087AC4A70375
:1015630012087A4AA80312087A89A80312087ACAC9
:10157300A80312087A01A90312087A13A90312080F
:101583007A25A90312087A44A90312087A4DA903FC
:1015930012087A05AA0312087A45AA0312087A30B8
:1015A300B90312087A73BA0312087A99BA031208B4
:1015B3007AAABA0312087AC3BC0312087AE2BC03FC
:1015C30012087A52850412087A03EE0312087A3954
:1015D300EE0312087A84EE0312087AD2EF0312089C
:1015E3007A9EA20212087AE9A30212087A25A402BB
:1015F30012087ADCA50212087A05A60212087A9D5F
:10160300A80212087ADDA80212087A7EAA0212083A
:101613007A18AB0212087A80AB0212087A0DAC0278
:1016230012087A45AC0212087A85AC0212087A18BD
:10163300AE0212087AB7AF0212087A06B202120893
:101643007A34B20212087A60B20212087A69B202DC
:1016530012087AC4B20212087A5AB30212087A83C1
:10166300B60212087A08B70212087AE5FF031208D5
:101673007A39CC0312087A52CC0312087AF7CC03D6
:1016830012087A37CD0312087A50CD0312087A8BE9
:10169300CD0312087AD8CD0312087A0ACE031208B2
:1016A3007A4CCE0312087A5AD00312087A8BFB03C2
:1016B30012087AC1FB0312087ADDFB0312087A1FB2
:1016C300FC0312087A2FFC0312087AC4FC031208E5
:1016D3007A86EB0112087ADEEB0112087A73EC01C9
:1016E30012087A2FED0112087A94ED0112087A3666
:1016F300EE0112087A80EE0112087AC7EE01120891
:101703007A40EF0112087A54EF0112087AD3F101FB
:1017130012087A4DF20112087A84F20112087ABC97
:10172300F20112087A6EF40112087A09F50112081F
:101733007A9AF50112087AD3F50112087AF2F501C3
:1017430012087A3DF60112087A53F60112087A60FC
:10175300F60112087A90F60112087AA6F601120829
:101763007A2CF70112087A40F70112087A9CF701E4
:1017730012087AF6F70112087A4DF80112087A5B1B
:10178300F90112087AC4FB0112087A8BFC011208D2
:101793007ACDFC0112087A99FD0112087ABBFD018A
:1017A30012087ABEFD0112087AC8FD0112087ACB2D
:1017B300FD0112087A59FE0112087A92FE011208FD
:1017C3007ABEFE0112087AF9FE0112087A04FF01BB
:1017D30012087A17FF0112087A3EFF0112087A6E87
:1017E300FF0112087A7AFF0112087AB6FF01120884
:1017F3007AFCDA0212087A27DB0212087AFCDB028F
:1018030012087A82DC0212087AEBDC0212087A3CB4
:10181300DD0212087AC3DD0212087A58DE021208CA
:101823007AE9DE0212087A2ADF0212087AC1E30299
:1018330012087A4BE50212087A84E50212087ACE7E
:10184300E50212087ABEE60212087A72E70212086B
:101853007A07E90212087AB5E90212087AD6C902B0
:1018630012087A92CA0212087A0FCB0212087A1E61
:10187300CB0212087AA7CB0212087AFECB02120817
:101883007A0DCD0212087A36CD0212087ADECD0225
:1018930012087A31CE0212087A9CCE0212087AFB21
:1018A300CE0212087A39D00212087ADAD00212086C
:1018B3007A42D10212087AD7D20212087A8BD30263
:1018C30012087A28D40212087A89D40212087A03F9
:1018D300D50212087A08D60212087A98D70212089B
:1018E3007A32D80212087AA3D80212087A7DD90272
:1018F30012087A65B70212087AE7B70212087A5714
:10190300B80212087AA7B80212087AEFB8021208CE
:101913007A8CB90212087AAEBA0212087AFCBA02B9
:1019230012087A47BB0212087A80BB0212087A4275
:10193300BC0212087AB4BC0212087A70BD02120803
:101943007AE1BD0212087AFCBD0212087A5EBE0279
:1019530012087A3BBF0212087A15C10212087A2CC8
:10196300C10212087A6DC20212087A02C302120877
:101973007A71C30212087A80C40212087A8BC502F4
:1019830012087A96C60212087AC6C60212087AC5E7
:10199300C70212087A8FC80212087A12C902120803
:1019A3007A2AC90212087ADBDA0312087A16DB03F1
:1019B30012087AD6DB0312087A3CDC0312087AADEC
:1019C300DC0312087A41DD0312087AF9E6031208F0
:1019D3007A85E80312087A11830412087A228304B1
:1019E30012087AC2830412087ACD830412087ADFBC
:1019F300F30312087AEDF30312087A4587041208F9
:101A03007AE7830412087AF7830412087A128404AB
:101A130012087A7A840412087A13810412087A98D5
:101A2300810412087AFE810412087A7BFE021208EE
:101A33007A9DFE0212087A00FF0212087A20FF0242
:101A430012087A66FF0212087AC1FF0212087A6747
:101A5300D00312087A7CD00312087A9ED1031208AD
:101A63007AE1D10312087AFBD10312087A8FD203E9
:101A730012087A03D30312087A1DD30312087A34A7
:101A8300D30312087A47D30312087A61D3031208E7
:101A93007A78D30312087A9ED30312087AEFD3031A
:101AA30012087A24D40312087A32D40312087AACC7
:101AB300D40312087A90D50312087A54D703120874
:101AC3007A65860412087AF9B30312087A66B403B6
:101AD30012087A27B50312087A97B50312087AA277
:101AE300B60312087A1AB80312087A7EB8031208EA
:101AF3007AD3B80312087ADCB80312087AEBB80376
:101B030012087AFEB80312087A14B90312087A1D70
:101B1300B90312087A39BE0312087A8EBE0312087B
:101B23007A8AC00312087ABCC00312087ADEC003A3
:101B330012087AF7C00312087A10C10312087A1A3E
:101B4300C20312087AB5C20312087AD3F803120843
:101B53007AF7F80312087A10F90312087A4FF90397
:101B630012087A82F90312087AB2F90312087A1A70
:101B7300FA0312087A1DFA0312087A27FA031208E5
:101B83007A34FA0312087AC6E00312087AEEE00305
:101B930012087A2FE10312087A41E10312087A5CF2
:101BA300E10312087AC4E10312087AD0E1031208B0
:101BB3007A2FE20312087A5BE20312087A6AE203DD
:101BC30012087A8EE20312087A4FE30312087A5C52
:101BD300E30312087A6DE30312087A2786041208D6
:101BE3007A3F860412087A38C30312087A98C4032A
:101BF30012087A9EC40312087AB5C40312087AD66F
:101C0300C40312087AECC40312087A00C50312084D
:101C13007A7FC50312087AE4C50312087A7AC603E9
:101C230012087A53C70312087A63C70312087A7239
:101C3300C70312087A4CFF0312087A70FF031208D5
:101C43007A98FF0312087AC0FF0312087A34E90373
:101C530012087A5BE90312087A7CE90312087AEE28
:101C6300E90312087AA0EB0312087AB9EB0312080E
:101C73007AD0EB0312087AD9EB0312087AF7EB0355
:101C830012087A01EC0312087A0BEC0312087A1E8D
:101C9300EC0312087A73EC0312087AACEC03120813
:101CA3007ADAEC0312087A2BED0312087A7CED033F
:101CB30012087A97ED0312087AA1ED0312087AB29B
:101CC300ED0312087AF8ED0312087A01850412086D
:101CD3007A6EAA0312087A9AAA0312087AB8AA0398
:101CE30012087ACBAA0312087AE6AA0312087A45E5
:101CF300AB0312087A73AB0312087A95AF03120889
:101D03007ACBB00312087AFDB00312087A65B103E7
:101D130012087AE2B20312087A0AB30312087A1F8E
:101D2300B30312087A2FB30312087A6FB3031208AE
:101D33007ABBB30312087ACBB30312087A0DFE03FE
:101D430012087A1DFE0312087A3BFE0312087A5624
:101D5300FE0312087A7DFE0312087A9EFE03120820
:101D63007AB8FE0312087AF0FE0312087A13FF030F
:101D730012087AE3850412087A317C0012087A3853
:101D83007C0012087A8E7D0012087ABE7D0012084C
:101D93007AEE7D0012087A217E0012087A337E00E3
:101DA30012087A6F7E0012087AD57E0012087A1123
:101DB3007F0012087A587F0012087A857F00120884
:101DC3007AA67F0012087AD7DD0312087ABEDE03F3
:101DD30012087A8ADF0312087A67E00312087A3559
:101DE300F00312087A47F00312087A34F103120859
:101DF3007AC1F10312087AC4F10312087A9BE30350
:101E030012087AEBE30312087A50E40312087ABC4F
:101E1300E50312087A00800412087A72800412081B
:101E23007AB0800412087AF1800412087AB9D703D1
:101E330012087AD5D70312087A19D80312087A350B
:101E4300D80312087A66D80312087A7ED8031208D8
:101E53007A24D90312087A2ED90312087A47D903B0
:101E630012087A5ADA0312087A6EDA0312087A77BA
:101E7300DA0312087AA3C70312087ACACB0312083B
:101E83007ACFCB0312087A9D850412087AD386048D
:101E930012087A9D860412087AFF860412087A27AC
:101EA300870412087A79470012087A1E470012083D
:101EB3007A86450012087AEC440012087AC144007D
:101EC30012087A5D440012087AFA420012087A7CFA
:101ED300420012087A56420012087A93410012080F
:101EE3007ADA3F0012087A7A3F0012087A4C3F00F0
:101EF30012087A493F0012087A093E0012087AFC58
:101F03003C0012087ABB3B0012087AF33A0012082D
:101F13007A683A0012087A76390012087AD43800BF
:101F230012087A1E380012087ADC370012087A8801
:101F33004C0012087AF24B0012087AC94B001208BF
:101F43007A7F4B0012087A724A0012087A19370016
:101F530012087AD8360012087AB1480012087A7B40
:101F6300360012087A3F360012087A8148001208B8
:101F73007AE0350012087AAF350012087A5A320037
:101F830012087A80310012087A55480012087AA2A2
:101F9300A50312087A5C300012087ADD2F001208BC
:101FA3007AA22F0012087A502F0012087A442F00C9
:101FB30012087AA32E0012087A692D0012087A18E3
:101FC3002B0012087A8C280012087A4A280012087B
:101FD3007A01270012087A9E260012087AD025007B
:101FE30012087A34240012087AD0230012087A0ADD
:101FF300240012087A4B480012087AFFF40200000A
:102003000080FB00013636010100010201000103DB
:10201300010001040106060502000007010034085F
:1020230001000F090401010D0100FF0E0800001754
:10203300020000190100FF1A0100011B0100FE1C30
:102043000100081D0200001F010001200100012101
:102053000200002301000F240200002601000127D3
:10206300010008280200FF2A0100072B0102402C6F
:102073000100002D0100012E0100012F0100FF309E
:10208300010B1C310800003A0100083B01000F2F2F
:102093000100000300710030016000110070003185
:1020A300022003500480001000610000001400634C
:1020B300007300720062004300000013000600007A
:1020C30000000004001200000000000000000004F3
:1020D300000400370037003C024400000000000009
:1020E30000000065000000350081000000050000CD
:1020F300008300000066000000000003027102304C
:102103000160021102700201020202020280021047
:102113000261023A004100630273027202620243E7
:10212300020002130238000002000204021202003D
:102133000200020002000204020402370037003CDE
:102143000244020002390000020002650200023567
:10215300028102000205028202830200026602007B
:1021630002000201037103010301030103010301DF
:10217300032203020301031003000300030003000F
:1021830003000300030003420300032403060300C8
:10219300030003040312032503230325032303047A
:1021A30003040300030003000344030003000323A9
:1021B30003000365032100350381030003050300C6
:1021C300030003000300032503230301017101013D
:1021D300010101110101013101010101018001101E
:1021E3000161013B00140063017301720162014349
:1021F300010001130106013D013500040112010034
:102203000100010001000104010401330133013C19
:10221300014401320136000001000165010001356E
:1022230000810100010501820183010001660100B3
:1022330001000136000100060000000F000000004D
:1022430000000000000000000003FFFF0000040383
:10225300FFFF0000FFFF0FF4010005C4040320008B
:102263000100000B000000000000000003010F014B
:10227300009F180200091803000F18040015180521
:10228300001B18060027181100451814004B1815D9
:102293000039181F003F18FFFF000003EAF5E5D5DA
:1022A300D5C5B5A59595858575756565555545451B
:1022B300353525251515059510C5109B10A110BFA3
:1022C30010B310AD10CB10D110D710E310A7108F9F
:1022D3001089100AFB0D02C50D05D70D07CB0D0C98
:1022E300A70D0DB90DFF000000160F00000B150B15
:1022F300020002220F33000007000000000000006C
:10230300008967452301EFCDAB01030507090B0DD9
:102313000F00020406080A0C0D5A696742656541FD
:102323006C6C69616E636530397F11911197115936
:10233300109D1153105F10DF11FD110312E511F110
:1023430011EB11003C40423A3F3F392F4730663092
:102353003017181921301B1D1F3033303016181950
:1023630020231A1C1E3032000119161816161823C2
:1023730003000C0E020B040B0A0708000F00034DA9
:102383004C4651181A250502B910DD10F711E91052
:10239300EF10D311A311A911B511AF11020402015A
:1023A300010101090200000000000000BE040A3C14
:1023B3000004001500E8030E0028003C00030A0C8B
:1023C30004FF1E1E050C0508040409080F74F71208
:1023D300038FE9FE12129FEE900D61F090030C74CF
:1023E300D7F0A3741FF090030E74D1F0A3741FF001
:1023F30090031074CBF0A3741FF090031274C5F014
:10240300A3741FF002367674F712038FE9FE90036C
:1024130002E4F0EE900301F07C0D7D067A037B036A
:10242300121E27900DE8E090030BF0121FA1023655
:102433007674F212038F8A088B09EB5480700302BF
:10244300250F900301E0F912153F8A0A8B0BAE0AA0
:10245300AF0BEE4F7003022505124F63E0F9124AEA
:102463000DEAFCEBFD90031A125F30A3A3A3A3A311
:10247300A3E06402703B8C828D8312631A80078A07
:10248300828B83124A1EEA4B60208A828B83E06C24
:102493007003A3E06D70E88A828B83A3A3E0697065
:1024A300DE900DEC12379CF08051ECFAEDFB121F1D
:1024B300838E828F83E064017035EE2413126BD315
:1024C3001206B8EE2412125F14F50A780A1208B63F
:1024D3001225C31208B2EE240B126BD31206BCEE04
:1024E30024171259CC12125D74091208DF800CE014
:1024F30064027007EEFAEFFB121EB7EEFAEFFB125F
:10250300152DAA08E5096480FB0225C0EA54026080
:102513000B900D607401F0EA64028008EA540460D1
:1025230007EA6404FA0225C0EA54086009121F9BF3
:10253300E5086408807EEA5410607E750C00750D12
:102543000090031A124A22750A00750B00801012BC
:102553004F7590031A1244591215DBEEFAEFFBEA9A
:102563004B603BEA2403F582EB125F1714F0701AF9
:102573008A828B83125FEEE50A450B8A828B83A3E3
:10258300A3A3A360CA122D4980CB126F4A8A0A8B78
:102593000B8A828B83A3A3A3A3124C5680C0E50CA2
:1025A300450D700C7A107B00900301E0F91216952B
:1025B300E5086410FAAB0980047A007B0002325507
:1025C300EE240FF50AEF3400F50B780A2274F412A7
:1025D300038F8A088B098A828B83125E361258B75F
:1025E300E8125F172409FA7B001215278A0A8B0B5E
:1025F300AE0AAF0BEE4F700302268F8E828F837469
:1026030002F0A3E4124B4EA3A3A3A3E8F0A3E912A1
:1026130047DAA3A3A3A3A3A3A3F0E5082403F8E540
:1026230009123ED41258B7EA126BD612283DA3F012
:10263300EE2409122692124416F5838882E0A2E55D
:102643008E828F83A3A3A3A3A3500474018001E408
:10265300F0E5082403F888828983124A22125CB0C9
:10266300EB126BD6124B6E1208AE1258B6EB124435
:10267300B98E828F83124A201214FD74031208DF6D
:10268300EEFAEFFB900301E0F9121533022F9DFAE6
:10269300EF3400FB8E828F83A3A32274F212038F85
:1026A3008A088B09ECFAEDFB740E120B0CE0FC129A
:1026B30012CF8A0C8B0DAE0CAF0DEE4F6031AC0810
:1026C300AD091212BDE96027AC08AD09EEFAEFFBC4
:1026D3001212C3E970158E828F831226F7EEFAEF7A
:1026E300FB1212B7AA08AB091212E779008002792C
:1026F300B4023255A3A3E0F508A3E0F5092274EE72
:1027030012038F74F71209408A0A8B0BECFEEDFF5C
:10271300750FB3750E00750C00750D008003126FF5
:102723004A9023B4E493F8740193F9C3E50C98E554
:102733000D994003022828AA0CAB0D1213238A0813
:102743008B09EA450960D78A828B83A3A3A3A3A33A
:10275300E0250EF50EF510C3E50A9510E50B940080
:1027630050BC7C157D007900EEFAEFFB121509854C
:102773000882850983A3A3A3A3A3E0F8E50AC3956D
:102783000E28C333F8E433F9E50828F582E509395F
:10279300F583124447120E91EAFCEBFDEEFAEFFBD0
:1027A300121E27850882850983A3E06401700BEE5E
:1027B30024131228341237C880468518828519835A
:1027C300AC82AD83850882850983124A2012130BDC
:1027D300E960387408120B0CE0C0E0EE2413126BAE
:1027E300D3D0E0F07408120B0CE0640385188285E3
:1027F3001983700CAC82AD83124F47121E27800BD6
:102803001238CF240B126BD31244598508828509E1
:102813008312283D124B0FC0E0EE2414126BD3D069
:10282300E0F0750F00A90F74091208DF7F0A020593
:10283300A9F582EF124F6D74012212284122E08E16
:10284300828F83A3A3A32274F712038FE9FE8A82E4
:102853008B83A3A3A3A3A3A3E0540860298A828B39
:1028630083A3A3A3A3A3A3E0540260178A828B8349
:10287300A3A3A3A3A3A3A3A3A3E06406600574E98E
:102883006E7003121FB902367674E812038F74F761
:102893001209407407120B0C12481CE98518828533
:1028A3001983F0ECFEEDFF7423120B0CE0F51775A2
:1028B3001500122AF21212DB8A0A8B0BEA450B70FF
:1028C30003022AACEE241012512DA90A120CF38A2A
:1028D300128B13EA45137003022AACEE2403F50CA2
:1028E300EF126F52EE2406F508EF1255D27C0085E5
:1028F30008821258FA1212E18A108B11850C828514
:102903000D83E0851282851383A3A3A3123CF48570
:102913001282851383A3A3A3A3E8F0A3E912317B57
:10292300851282851383A3A3A3A3A3A3A312515642
:10293300851282851383A3A3A3A3A3A3F0EE125C42
:10294300B1EF122B071208AEEE1258B7EF1244B9CB
:10295300851282851383A3124A1A1214FD7403127B
:1029630008DF7514007421120B0C124F75742112B9
:102973000B0C1244597424120B0CE0F51674251237
:102983000B0C780C120AC0022A368510828511833B
:10299300124A20121311850882850983A3EAF0A342
:1029A300EB122B13A3A31247F0122D64A2E6500FD0
:1029B300850882850983A3A3A3A3A3E0D2E1F0E55D
:1029C30015705F850882850983A3124F7590035C98
:1029D300E0687003A3E0697049850882850983A3D1
:1029E300A3A3125141780C1208AAE516F51078102A
:1029F3001208B67426120B0C1206BC900369120659
:102A0300BC79007410120B0C1247D2121F597409AF
:102A13001208DF850882850983A3A3A3A3A3E04447
:102A230005F074012514FC122AF21212E18A108BAC
:102A3300110514E5104511604B851408C3E508958D
:102A43000AE4950B503EE51475F006A4F8A9F0E5E9
:102A53001228F8E51339F9E8240CF508E9123B9834
:102A6300E41255FB6401600302298D751501850885
:102A7300828509837401122B13123EF8A3E8F0A395
:102A8300E90229A4AA12AB13120CF978121208B2A4
:102A9300AD16AC177402120B0CE0F9EEFAEFFB1251
:102AA3001FBF74021208DF80418E828F83A3A3A30A
:102AB300E0C0E07404120B0CD0E012317BC0E07470
:102AC30005120B0CD0E0F0E50A450B7009740612F1
:102AD3000B0C74B980077406120B0C7410F074019C
:102AE300120B0CAA82AB83121F6B7409026AA28EAB
:102AF300828F83A3A3A3A3124C4F8E828F83A3A39E
:102B0300A3E0F922124F6D123588750E00780C225E
:102B1300125600A32274E912038F74F31209408A38
:102B23000A8B0B89168C148D157424120B0C123519
:102B330084AA0CFB120CE7E9F513AA0CAB0D120CDB
:102B4300EDE5137003022D2B750E00800F8E828F1F
:102B530083A3A3A3A3A3E0D2E3F0050EE50C1247DE
:102B6300EBE50D122F3FE50EC3984003022D22E53E
:102B7300137003022D22E50E75F006A4F8A9F0E503
:102B83000C28F8E50D39F9E8240CFEE9126904A3D1
:102B9300A3A3A3E0A2E040C2750F0075080875095E
:102BA30000E5156003750F207C087D00790085180A
:102BB30082851983AA82AB831215098E828F83E0E3
:102BC30060339003ACE064017017E50FD2E3F50FB7
:102BD3007509108E828F83122D3E1242E274FF809C
:102BE30024430F0C75080C8E828F83A3122D491278
:102BF30062FCA38010E5166009E50FD2E6F50F75B8
:102C0300080A122D57F07402120B0CE50F1256200E
:102C1300C0E07404120B0CD0E0F07405120B0C121C
:102C23004495121EB1740C120B0CE06003022D05C7
:102C33007408120B0C123CEF8E828F83A3A3A3A301
:102C4300F07408120B0C125A7A125E30E9126BD62A
:102C5300E514122D6460119003ACE0C0E074081217
:102C63000B0C123590D0E0F0850C82850D83A3A365
:102C7300A3E0C0E07408120B0C12592ED0E01248E6
:102C830013C0E07408120B0C12359BD0E0F07408EB
:102C9300120B0C122D49125E5C12562DE0125E428D
:102CA300EAF0A3EB125616C0E0E8242EF582E912EF
:102CB3006BD6D0E0F07408120B0C122E8F122D3548
:102CC3002424F582EB12560D125CB1E50B125F174B
:102CD300F510A3E0F51175120078101208AE124436
:102CE300B1EA242BF582EB126BD6124A221214FDA1
:102CF30074031208DF851882851983AA82AB8312B5
:102D03001EAB8E828F83A3A3A3A3A3E0D2E0F074B0
:102D13000C120B0CE06003022B501513022B5D7990
:102D230000AA0CAB0D121FB3740D1208DF7F0F0244
:102D330005A9A3A3A3A3124F79EA22A3124F79856E
:102D4300188285198322124F79850A82850B83A302
:102D5300A3A3A322A3122D5C221247B9E8F0A3E98F
:102D630022124803E02274F012038F74E91209401F
:102D7300EAFEEBFF89088E828F83A3A3A3A3A3A3F9
:102D8300A3A3E0F9120D118A0C8B0DEA450D700314
:102D9300022E8AE50870157C048E828F83A3A3A379
:102DA300A3A3A3A3A3E0F9120D17804F7C088E827F
:102DB3008F83A3A3A3A3A3A3A3A3E0F9120D178A4D
:102DC3000A8B0BEA450B6033E508F509780912080D
:102DD300B6850C82850D83A3A3A3A3A3A3A3E0FDC0
:102DE3008A828B83A3A3A3E0FC8A828B83A3122E04
:102DF3008FE0F912125774011208DF1268FEEF1206
:102E03004C717003022E8A88828983124A1E7406CB
:102E1300120B0C122E99124A227408120B0C122E4A
:102E230099A3A3E0C0E07410120B0CD0E0F0850C62
:102E330082850D83A3124A1A740E120B0C12481CBE
:102E43007411120B0CE4122D64FAA3E0CA241FF5CB
:102E530082EA126BD6123EE2E0C413135403FC70F1
:102E6300027C0488828983E0F9780C1208B274200A
:102E730059FD744059F97402120B0CAA82AB8312E8
:102E83001FBF74021208DF7417023AEB124C51850C
:102E93000A82850B8322EAF0A3EB1242C0A3A3228A
:102EA30074F712038F74FA120940E9FE7F018F0849
:102EB3007D0080047508000D1247EAEB122F3FEDE9
:102EC300C3985025ED75F006A4F8A9F0EA28F8EBAD
:102ED30039F9E8126155E9124F5D50D8540C60D4AA
:102EE300E0A2E250D27F0080CE8A828B83A3A3A389
:102EF300A3A3A3E0703EE508A2E0400574016E7051
:102F0300338A828B83A3A3A3A3A3A37401125CF1CB
:102F1300E0C0E07403120B0CD0E0125CE9E0C0E007
:102F23007404120B0CD0E0F07405120B0CEF124476
:102F330097121F6B7406023673F582EF125348F82B
:102F430022C082C0837901121FB30237B674F41210
:102F5300038FEA4B602D9003A8E064027025900D67
:102F630060E4F08A088B09F50AF50B78081208AAC1
:102F73007A027B00900301E0F912168974041208A7
:102F8300DF8012900D607401F07A027B00900301E0
:102F9300E0F912169580031208DF7F040205A9C029
:102FA30082C083900DFAE075F005A4FCADF07900C2
:102FB3007AFD7B0C1215097B008012EB75F005A4DA
:102FC300F8A9F012317074FEF0A304F00B900DFA1F
:102FD300E0F8EBC39840E40237B6C082C0837C00BC
:102FE3007B0080037C010B900DFAE0F8EBC3985053
:102FF30049EB75F005A4F8AAF0EAF91231697003F8
:10300300A3E0F460E1123160E82403F8E912440616
:1030130024FFF0A3E034FF123F42F9E84970C5EB07
:1030230075F005A4F8EAF91231608882898374FE89
:10303300F0A30412315BE4F080ACECA2E0501790F3
:1030430081D71206B87A087B00900301E0F91216C3
:103053008974041208DF0237B674F712038FEAFE8D
:10306300EBFF900DFAE07003023152EE2411125F70
:103073001470030231528E828F83A3124A1A120EE6
:10308300F7E96402600F8E828F83A3A3A3A3A3E057
:1030930070030231527C008041EE1247EBEF124F76
:1030A30072EC75F005A4FAABF074FD2AF582740C8A
:1030B3003BF583E0687003A3E069701DEE241212F0
:1030C3005F14FBEC75F005A4F8A9F074FF28F582F2
:1030D300740C39F583E06B607B0C900DFAE0F8EC2F
:1030E300C39840B57C0080010C900DFAE0F8ECC366
:1030F300985061EC75F005A4F8A9F01231697003DA
:10310300A3E0F470E3123160EE240B126BD312468A
:10311300C9EAF0A3EB12317B88828983A3A312311E
:103123005BA3740C1251567A08FB900301E0F91269
:10313300169BEA4B4C4D70179081D71206B87A084C
:103143007B00900301E0F912168974041208DF79F9
:1031530001023676790080F9125D06A32274FD28F8
:10316300F8740C39F922123170E064FE2274FD28E0
:10317300F582740C39F58322124A2FE02274F2127D
:10318300038F8A0A8B0BE9FE7A007B0090031A12E5
:1031930026F990031A124C7460210A850882850966
:1031A30083A3A3A3A3124C746011EA24010AEB3492
:1031B30000FB88088909E8450970E0900DED124F7E
:1031C30075C3EA98EB9940030232507A067B0012EA
:1031D30015D58A0C8B0DA80CA90DE849606F888260
:1031E3008983E50AF0A3E50BF0EE88828983A3A324
:1031F300F0900DEC124168A3A31242BBE4F0A3F0DC
:1032030090031A124C49600C850882850983A3A395
:10321300A3A3800390031A1244597A107B009003EE
:1032230001E0F912169BEA4B4C4D7021900DEA1206
:1032330026F9E4F50AF50B78081208AA7A107B0040
:10324300900301E0F912168F74041208DF80031251
:1032530008DF7F060205A974F212038F74F31209C3
:1032630040EAFEEBFF8E828F83A3A3A3A3A3A3A3B2
:10327300A3A3A3E0F50A900D60E0700579BA0235C7
:1032830077750801750900750C00750D007C087DC4
:10329300007900851882851983AA82AB83121509E8
:1032A3007405120B0C74011235A7540460127402D6
:1032B300120B0CE0D2E61235A7540870037508030D
:1032C300E05410600674404508F508E05408602295
:1032D3007402120B0CE044C01235A75420600A7428
:1032E30003120B0CE0D2E080087403120B0CE0D243
:1032F300E1F08E828F83A3A3A3A3A3A3A3A3E07070
:1033030016120E9785188285198312481C740212AF
:103313000B0CE0D2E28031640F70157402120B0CB7
:10332300E0D2E312480312480D4508F5080233C002
:103333008E828F83A3A3A3A3A3A3A3A3E064028E7C
:10334300828F837006122D58F08072A3A3A3A3A3C8
:10335300A3A3A3E064037013851882851983AC8249
:10336300AD83EEFAEFFB121F5380528E828F83A33D
:10337300A3A3A3A3A3A3A3E0640170419003ACE0C0
:10338300601C7402120B0CE0D2E3124BB985188255
:10339300851983124459750910750AFF8018740240
:1033A300120B0CE0440C125E7574FDF0A374FFF075
:1033B30074044508F5088E828F83123584124F58A2
:1033C300503A7402120B0CE0540C701B8E828F83E4
:1033D300124A22121965E9700579BB023577740226
:1033E300120B0CE0D2E5F0124F5850107402120B7E
:1033F3000CE0540C64047004E0D2E5F0EE241112E6
:103403005F14C0E07404120B0CD0E0124497121E38
:10341300B1740C120B0CE060030235707408120BCC
:103423000C125A7AEE2418125F14C0E0125E30E9CF
:10343300126BD6D0E0F0EE2419125F14C0E07408CA
:10344300120B0C125E391258BEE8126BD6D0E01282
:1034530042E7640170119003ACE0C0E07408120B02
:103463000C123590D0E0F07408120B0C1238CF24F4
:1034730017FAEF3400FB8A828B83E0FCE8241C12EA
:10348300357C1251568E828F83A3A3A3A3A3A3A338
:10349300A3A3E0C0E0E82422F582E9126BD6D0E0D2
:1034A300F07408120B0C12359BE50AF07408120B2A
:1034B3000C12414D2424F582E91258CDA3E50D12D7
:1034C3005945FCA3E0FDE8242612357CF0A3ED1258
:1034D300396E12631AE82428F582E9125A8DC0E086
:1034E300E8242FF582E9126BD6D0E0F0EE241B120C
:1034F3005F14C0E07408120B0C125E50D0E0F0EEC3
:10350300241A125F14C0E07408120B0C125E3924E3
:103513002EF582E8126BD6D0E0125E6D124B60126C
:1035230008AEEE2411126BD312631A740B120B0C38
:103533001242C71214FD74031208DFEE2415125F42
:10354300145440601B900326124C74601385188238
:10355300851983AA82AB83900327123EF412050ACE
:10356300851882851983AA82AB83121EAB740C1251
:103573000B0CE0F9740D023252F582E9124F6DEC37
:103583002212358822E0F50CA3E0F50D22125E3DF0
:103593001255ABE8124F6D22125E3D2423F582E8EB
:1035A300124F6D22F0EE24151253452274F71203C5
:1035B3008F7E638A828B83E0600C7905120BC7E9E7
:1035C300F87456C398FE900354E0600CF9120BC7CD
:1035D300E9F8EEC39824F2FEEEF902367674F61299
:1035E300038F74FE12094085188285198312481CC3
:1035F300E9FEECFAEDFB740C120B0CE0FC90046F8B
:10360300124C7460328518828519838582088583FC
:103613000978081208B27D01EEF990046F123EF1A9
:1036230012050A74021208DF8B09EA45096004795E
:1036330000800679B2800279B6023BB174F71203B7
:103643008FE9FE7409120B0CE0FF90030C124C740B
:10365300601AEFF50878081208B6EEF990030C1219
:103663003EF112050A74011208DF800279B6800365
:103673001208DF7F010205A974F212038F8A088BF7
:1036830009ECFEEDFF750A0190035CE06508700428
:10369300A3E065097010120E91EAFCEBFDEEFAEF60
:1036A300FB121E27802A120E9D8A0C8B0DE50865DE
:1036B3000C7004E509650D7009EEFAEFFB120EA319
:1036C300800EEEFCEFFDAA08AB09120C15E9F50A12
:1036D300A90A02325574F512038FEAFEEBFF8C0838
:1036E3008D09750A01120E91EAFCEBFDEEFAEFFB70
:1036F300121E21E96401700B90035C123EF8124420
:1037030059800EAC08AD09EEFAEFFB120C1BE9F57C
:103713000AA90A02483374F612038FEAFEEBFF7A12
:103723000C7B001215D5EA4B6063EE24201237930D
:10373300F0EE2421123793A3F0EE2422123793A341
:10374300A3F0EE2423126BD312379C124A4A12378A
:10375300A51237BD2428126BD31237A5A3A3E8F013
:10376300A3E91251488A828B83A3A3A3A3A3A3A390
:10377300A3F0EE242F125F14C0E01247EAEB126BA2
:10378300D6D0E01248228A828B83124450023BB681
:10379300124F6AE08A828B8322E08A828B83A3A3FF
:1037A300A322124F798A828B83A3A3A3A322EAF0D5
:1037B300A3EBF0D083D0820208771247B3EE221234
:1037C30037C8A3E0221237CC221237D022124B463D
:1037D300A3A3221247E2A3E02274F612038FECFEA6
:1037E300EDFF79B3900353E0702E900385E06401FD
:1037F3007026EE126155EF1258DF120BAF8A088B59
:1038030009A808A909EE240F126BD3124459E849F9
:1038130060047900800279A1023BB674F412038F2D
:1038230074FE120940ECFEEDFFEE2416125F1464E1
:10383300057011EE2406FCEF3400FD121F5FE970E2
:10384300030238C8851882851983AC82AD83126060
:103853009C12196B851882851983124C746062E877
:1038630075F009A4F8AAF075F009E9A42AF974D649
:1038730028F874F339F9E8FAE9FB8A828B8378082C
:10388300120AC0EE2412126BD37808120A52402D8A
:103893008518828519831238CF1255B1EF1255BF9F
:1038A300124A2B7808120AC09081CB78081209A912
:1038B3008A828B837808120AA27900800A79A2800F
:1038C3000679A1800279C87402022F9A124F79EE09
:1038D3002274F412038F74FF120940EAFEEBFF9087
:1038E3000353E07075900385E06401706D75083AC9
:1038F30075090078081208B27402120B0C8582084D
:1039030085830978081208B27C017D007A007B0068
:10391300120F9974041208DFE9703CEE240E12288A
:10392300341247A4C0E0EE2411126BD3D0E0123955
:103933006E743A12515690032E120AE9EE241212B3
:103943006BD3120AF59081CB7808120AC090032E2C
:1039530078081209BC80031239627401022F9A128B
:1039630055B0EF124F6DE4F0A3F022F01255B012F0
:103973004F6C2274F012038F74F6120940ECFEEDC3
:10398300FF7402120B0CAC82AD83121F5FE970034C
:10399300023A5B851882851983AC82AD8374021267
:1039A3000B0CAA82AB8312196B85188285198312BB
:1039B3004C747003023A5BE875F009A4F8AAF07539
:1039C300F009E9A42AF974D228F874F339F98808BC
:1039D3008909EE240E123A601247A4F8A3E0F9EE27
:1039E300240F124B37120AE9EE2412126BD3120A78
:1039F300F59081CB780C120AC085088285098378FB
:103A03000C1209BC8508828509837808120AC090C4
:103A130081D3780C120AC07808790C12031FE50CC5
:103A2300450D450E450F7030851882851983124167
:103A33004D75F009A4F8AAF075F009E9A42AF97400
:103A4300DA28F58274F339F5837401F07A007B1078
:103A5300900532E0F9121569740A023AEBF582EF28
:103A6300124F6DE42274F012038F8A088B09ECFE67
:103A7300EDFF12396290819B780C120AC0EE24127A
:103A8300123AD61209566047123ADF7005121F29FF
:103A9300803FE07015121F23E960368E828F83A367
:103AA300A3125F2C5403700C802764027013121F3F
:103AB30023E9601DEEFCEFFDAA08AB09121977801C
:103AC30010E064037005121F23800679A180027938
:103AD300A38018F582EF124F6D780C22EE240EF5B9
:103AE30082EF1253486401221208DF7F080205A9FE
:103AF30074F612038FEAFEEBFF123B9212631AEC89
:103B0300240F123B891247FB121F17850882850970
:103B130083124C69704F123CA37003A3E0696017D2
:103B2300120E978A088B09A808A9099005FFE06877
:103B33007003A3E069702E8E828F831263108E82CE
:103B43008F83124A2212197DE960158E828F83A317
:103B5300A3A3A3A3A3A3125E361255B1E812396639
:103B6300123F22E4F0124C5B701A123BA2124A225B
:103B7300121F1D850882850983124C697006126B1A
:103B8300D074A1F0802DF582ED124F6DE4F022EE9A
:103B9300240AF508EF3400F509850882F58322EE3F
:103BA300240A123BA922123C998882F583227402CB
:103BB3001208DF7F020205A974F612038FEAFEEBF7
:103BC300FFEE240A123C997A187B001215D585085A
:103BD30082850983EAF0A3EB123CF4E849700302FF
:103BE3003C90EEFAEFFB121F0B124C5B7003023C8E
:103BF30079123CE164018E828F83A3A3A3A3A3A3C1
:103C03007007123CD1740E8032124C747021123C36
:103C1300A37003A3E0696017120E978A088B09A8A3
:103C230008A9099005FFE0687003A3E06970071213
:103C33003CC7740D8005123CC774051244AB540392
:103C430064017007123CB07405800B900354E0C00C
:103C5300E0123CB0D0E0F0123B92123CBEE0F9120D
:103C63000BC7850882850983125E392417F582E81C
:103C7300126BD6E9801C850882850983124A2212B9
:103C830015DB850882850983E4F0A38005126BD0D8
:103C93007410F0023BB6F8EF3400F9880889092262
:103CA3008E828F83124F799005FFE068228E828F78
:103CB30083A3A3A3A3A3A3A3A3A3A3123CC22212DC
:103CC3003F19A3228E828F83A3A3A3A3A3A3A3A39A
:103CD300A3A3125E3D2416F582E8124F6D228E8255
:103CE3008F83A3A3A3A3A3A3A3A3A3A3123F34E0FC
:103CF30022124A56F8A3E0F92274F112038F8A0ABA
:103D03008B0B8C088D097A187B001215D58A0C8BC6
:103D13000DAE0CAF0DEE4F7003023DF28E828F831A
:103D23007401F0E508240DF8E5091260A5C3E49ACF
:103D3300FA95E0FB12615A123DFAFB8E828F83A340
:103D4300A3A3A312440A8E828F83A3A3F0EEFAEFF8
:103D5300FB120B79850882850983125CB670098E84
:103D6300828F83A374058007900354126579A3F0AF
:103D7300EE2417F8EF3400F9880C890D8E828F83B7
:103D8300A3E0F9120BC7E9850C82850D83F0EE24BD
:103D930016F8EF3400F9E508240EFAE5093400FBC0
:103DA300888289831246D8E5082410FAE50934008D
:103DB300FB850C82850D83E0FC88828983E0F88A89
:103DC300828B83E0C398C39C125A9BF0EEFCEFFDF9
:103DD300AA0AAB0B121F11E9F508700AEEFAEFFB02
:103DE300120B85E9F508EEFAEFFB1215DB8003757C
:103DF3000810A908026586124F6DE02AFAA3E03B7A
:103E030022790102087774F412038FEAFEEBFF8E26
:103E1300828F83A3A3A3A3A3A3A3A31258F1126B1B
:103E2300D6125CB6702F123CE1702A123F06E06492
:103E3300057022123F06A3E0F8740168600A740655
:103E43006860057405687007123F227402800512CA
:103E53003F227403F0123BA2123EF1E4F0EE240879
:103E6300F8EF123ED4242DF582EA125F17C0E01258
:103E73003EDCA3A3D0E012535EFAA3E0CA242AF5E2
:103E830082EA125F17C0E0123EDCA3A3A3D0E012C4
:103E93003F42C81247EBE8126BD6123EF8123EE2DD
:103EA300124455120E918A0A8B0BAC0AAD0B85088E
:103EB30082850983E024061246D1121E27850882D3
:103EC300850983124A22120B85126BD0E9F0022F67
:103ED3009D124439124C56CA2285088285098312E1
:103EE3004C56F5838A8222EEFAEFFB90031EE0F82C
:103EF300A3123F1C22123EFC22124BC4850882856A
:103F03000983228E828F83A3A3A3A3A3A3A3A312B4
:103F130042CF123F1A22E0F8A3E0F5838882228E73
:103F2300828F83A3A3A3A3A3A3A3A3A3A3123F3417
:103F3300221242ECC8240EF582E83400F5832212E3
:103F43005362F8A3E022023E04C082C08390031CA4
:103F53007405F0A3741FF090031E74F9F0A3741E8C
:103F6300F090032074F3F0A3741EF090032274FF07
:103F7300F0A3741E0237B574F412038FEAFEEBFF4D
:103F8300123FD0F508120E978A0A8B0BA80AA90BC9
:103F93008E828F83123EE2E0687003A3E069602A99
:103FA300E508A2E550248E828F83A3E0FB90031CD7
:103FB300123EF112050A8E828F83125E39240A1291
:103FC3004C6E7006123FD0C2E5F0022F9D8E828F99
:103FD30083123CC2A3E02274F412038FEA2408FC88
:103FE300EB3400FD8C828D8312414D2420F582E950
:103FF300125F17FE74035EF5091246C2126BD612E6
:1040030038CF88828983F0A3A882A983E509600950
:104013007402650960030240B2740C5EF508601710
:1040230074086508601174046508701374026509E7
:104033007005EEA2E4402C12413B242312416E741E
:104043000C6508701812412D2424124156FCA3E07C
:10405300CC2424F582EC126BD6A31241747402654E
:10406300097005EEA2E4404712412D242612415661
:10407300FFA3E0CF2426126BD3A312417412413164
:1040830024281241832428F582EC126BD6A3124113
:1040930074E508601274086508600C740C650860A8
:1040A3000674046508700812413B242212416E1203
:1040B300413B12411A7005EEA2E1500D12413B241F
:1040C3002EF582EC124125801090030212412890B4
:1040D3000302E004F088828983A3A882A983EEA265
:1040E300E7503112412D242112418312411A6024D9
:1040F30012413B243012416EEEA2E150178A828BAB
:1041030083A3A3A3A3A3A3A3A3123ED72431F5821E
:10411300EA124125022F9D2421F582EC12534854C3
:104123000322124F6D124168F022EA2408FC8C82AC
:104133008D83E0FFA3E0CF228A828B83A3A3A3A373
:10414300A3A3A3A3E0FCA3E0CC2212415122124B70
:10415300C4E822124F6A124168F0A3A882A9838C93
:10416300828D83E022E08882898322F582EC124FDC
:104173006D12417822E088828983F0A308A9832203
:10418300124F6A1241788C828D83E0FCA3E0CC222B
:10419300C082C0838A828B83123FD4F8740358F998
:1041A3008A828B83A3A37401F0E9600574026970AA
:1041B30061740C58FC601474086C600F74046C70A8
:1041C300137402697005E8A2E4401D8A828B83A3FD
:1041D300A37402F0740C6C700A8A828B83A3A3E02D
:1041E3002402F07402697005E8A2E440258A828BF8
:1041F30083A3A3E02404F0EC600F74086C600A74DA
:104203000C6C600574046C70098A828B83A3A3E031
:1042130004F0E8A2E750318A828B83A3A3E004125F
:104223005A94F9A3E0F5838982A3A3A3E05403601E
:10423300178A828B83A3A3E004F0E8A2E150098AE2
:10424300828B83A3A3E004F08A828B83A3A3E0047D
:104253000237B5C082C0838A828B83A3A3A3A3A39F
:10426300A3A3A3A3A3124C74600C8A828B83A3A37E
:10427300124A1A1215DB0237B674F712038FEAFEDD
:10428300EBFF8E828F83124F7588828983A3A3A34A
:10429300A3A3A3A3A3E4F01242BBA3A3A3A3A3A337
:1042A300F0A3F0E8125FBDE9123B8C121EDBEEFABD
:1042B300EFFB121EE7023676A31242C022125D06FE
:1042C300A3A3A3221242CFFAA3E0FB221242D322DA
:1042D3001242ECC8242BF582E83400F583E0221265
:1042E30047C9A322124708E022E0F8A3E022F50819
:1042F300A3E03400F5092274F612038F74F4120953
:104303004012441DFCA3E0F5838C82A3E0FC7402FD
:10431300120B0CEC12535E24021247A97404120B05
:104323000C124459EC600A7402120B0CE064047022
:1043330017EA240212440424121246D17406120B03
:104343000C12440A241A8039E06401600AE064060E
:104353006005E064057038EA2402F8EB123ED412DB
:104363005E31EA125F17C0E07403120B0CD0E01247
:10437300535E24131246D17406120B0C12440A2402
:104383001B1247A97408120B0CE8F0A3E9802A74E6
:1043930006120B0CE4F0A312442A24121246D17421
:1043A30008120B0C124416C8241AF582E8125F1780
:1043B300C0E0740A120B0CD0E0F07406120B0C125E
:1043C3004C74602B7406120B0C124A22120C09E96E
:1043D3006401701B120E918A088B09AC08AD097435
:1043E30006120B0C124A22121E21E96401700D857C
:1043F3001882851983AA82AB83121F47740C023B70
:10440300B3F8EB1244342212440E22EAF0A3EB1267
:1044130053622212440EF8A3E0228A828B83A3A361
:10442300A3A3A3A3122D5CF0EA2402F8EB124434F5
:1044330022124439E0223400F98882898322120847
:10444300DF0237B6A3A3A3A3A3A3124F81A3A3A3FE
:10445300A3A3A3A3A3A31247B322C082C08374FD63
:1044630012094012447DC0E07402120B0CD0E0121A
:104473004497121F4174030244418A828B83A3A38E
:10448300A3A3A3A31247B08A828B83A3A3123CC224
:10449300E0227401125E79AA82AB83221247B390A1
:1044A300032E22124F6D74011259E0A3E022E50A94
:1044B3002410F582E50B124F6DE0FC7D0022C082D3
:1044C300C0831244DB600624FC60078008121EC907
:1044D3008003121EC30237B61244E124FB228A82F0
:1044E3008B83A3A3123F19E022C082C083900DEFF8
:1044F300E0701E900617E070188A828B83A3A3A333
:10450300A3A3E0700C1245806065124575640760D3
:104513005E8A828B83A3A3A3A3A3A3A3A3E0704672
:10452300125F286401603F124575640260381245CA
:1045330075640360311245756404602A124575641D
:10454300056023124575640A601C124575640B608F
:1045530015124575640C600E124575640D6007797C
:1045630004121DF18009900324123EF112050A0280
:1045730037B68A828B83A3A3123F1BE0221244E146
:1045830064062274F612038F74FA120940EAFEEBF2
:10459300FF7403120B0C1246F47403120B0CAA8261
:1045A300AB83121ECF125F1160030246BD851882D2
:1045B3008519837432F07405120B0C1262EAC0E0A1
:1045C3007401120B0CD0E0124713C0E07402120BFB
:1045D3000CD0E0124701F8A3E0F9E849601CE82495
:1045E30017F582E9125130E82416F582E9125F17B4
:1045F3002AF87401120B0CE028F0851882851983C0
:10460300AA82AB83120C698A088B09A808A909E856
:104613004970030246B08E828F831246C9A3A31248
:1046230046FA125E31E91244A6C0E0E82420F5827E
:10463300E9126BD6D0E0124813C0E0E82421F582DA
:10464300E9126BD6D0E012470EC0E0E8242AF582C7
:10465300E9126BD6D0E0F07405120B0CE0FCFA12F1
:1046630046C2125F172A1246D1E8242BF582E912BB
:104673006BD61246FA242D12357C124701FAA3E0B9
:10468300FBEA4B6016E8242BFAE912269412413F09
:104693002416F582EC126BD61246D88E828F83A332
:1046A300A3A3A3A3A3A3A3E8F0A3E9800CEEFAEFCB
:1046B300FB121ED5126BD07410F07406023BB3E8E4
:1046C300240BF582E922124C518882898322FAA3B2
:1046D300E03400FB22E0FC8A828B83E02CFCA3E025
:1046E3003400FD8A828B83ECF0A3EDF022A3A3A315
:1046F300A3EEF0A3EFF022EAF0A3EBF0E8221247D7
:1047030008A3A3E022124C81A3A322124719E0229B
:10471300124719A3E022125AA3A32274F612038F9D
:10472300EAFEEBFF125F117043121EE18E828F834C
:10473300A3A3A3A3A3A3A3A3A3A3124C74600612CE
:104743003EEA12050A125F11700C124A16120C632C
:10475300126BD0E98015EE2408123BA5124A2212EF
:1047630015DB850882850983E4F0A3F0EEFAEFFBFD
:10477300121ED5023BB674F612038FEAFEEBFF8CD2
:10478300088D09121965E9700479018011AC08AD2F
:1047930009EEFAEFFB900322123EF112050A023BE7
:1047A300B6125E79E022F8A3E03400F9221247B989
:1047B300E8F0A3E9F0221242ECF985188285198307
:1047C300221247C9E022E8F0A3E91259E4A3221216
:1047D300631EEEFAEFFB221237C812657DA3221285
:1047E3004A6BA3A3A3A322EA240BF58222E0850844
:1047F30082850983A3A3A322A3124803124C512247
:1048030012480722F08E828F83221247B07404224B
:10481300125A9FE0228E828F83EAF0A3EBF02212DA
:104823004826221259E4A3124BC422740D1208DF46
:104833007F030205A9C082C083121EED9003247476
:10484300BDF0A3741E0237B5C082C0839005FF027A
:1048530037B174F712038FE9FE125CA9124C716031
:104863001A88828983A3E054037010EEFB1246C2B8
:10487300126BD61248A8E0F9121251023676C082A2
:10488300C083EAF8EBF988828983A3A3A3A3A3E0F7
:10489300FB88828983A3A3A3A31248A8A3E0F912E8
:1048A30012510237B6E0FA88828983A3A32274E8FF
:1048B30012038F8A088B098C148D15890B741812B7
:1048C3000B0CE0F516A3E0F517741C120B0CE0F5C6
:1048D3000A741D120B0C780C120AC01258B6EB1294
:1048E3005F17242FFA7B001215278A108B11AE1045
:1048F300AF11EE4F7003024A088E828F837401F06A
:1049030085081085091175120078101208AE7C17FE
:104913007D00EE2418FAEF3400FB1214FD74031229
:1049230008DF85141085151178101208AE7C091262
:104933004A0B1214FD74031208DFEE240B126BD31F
:10494300E516F0A3E517F0741A120B0C1255DFC02D
:10495300E0EE240F126BD3D0E01255F6C0E0EE2444
:1049630011126BD3D0E0124A26C0E0EE2410126B72
:10497300D3D0E0124A2BE50A124A4AE4F0A3F0EE40
:104983002413123AD6120AA2EE2417126BD3E50BA4
:104993001237D6F8A3E0F9EE240D126BD3124A4472
:1049A300126309125F176029EE2426124F50242F39
:1049B300124A3B12615C122B071208AE12630712F4
:1049C30044B98A828B83124A221214FD740312089B
:1049D300DFEE2419F582EF12411F601D90031812B8
:1049E3004C74600CEEFAEFFB123EF412050A8015CC
:1049F300EEFAEFFB12152D800CEEFAEFFB9003019C
:104A0300E0F9121533026AA57D00EE2402FAEF34B1
:104A130000FB228E828F83A3A3A3A3A3A3A3A3122A
:104A23004C5122125D02E022124A2F22F0EE241290
:104A3300F582EF3400F58322F8EF3400F98A828B94
:104A4300831247B3E50822F0EE2426124F6A22129E
:104A53004A5622124A5A22124B46E022F50CA3E090
:104A6300F50D750E00780C221237D0A3A3A3227480
:104A7300F112038F8A088B097A207B001215278A8B
:104A83000A8B0BAE0AAF0BEE4F60748E828F83746A
:104A930006124B648E828F83A3A3A3A31237C28E05
:104AA300828F83124B0F124A5F1208AE7C107D0077
:104AB30012609C1214FD74031208DF8508828509B5
:104AC30083A3A3A3124B052416FAEF3400FB120CA5
:104AD30003850882850983A3A3A3A3A3A3A3A3A3F5
:104AE300A3E0C0E0EE241E126BD3D0E0124B1FC034
:104AF300E0EE241F126BD3D0E0124B2C12153302BD
:104B03006586A3A3A3A3A312631EEE22A3A3A3A359
:104B1300A3124B18221237CCA3A3E022F0E50824FA
:104B23000BF582E50912534822F0EEFAEFFB9005EC
:104B330032E0F922124F6A124B3E22E8F0A3E91247
:104B43004B4622F085088285098322124B5222129A
:104B53004A5AF8A3E0F98E828F83A3A322124B73E0
:104B630022124B52124B3EA3A3E022E0124B7322BC
:104B7300F508A3E0F509750A0078082274F6120314
:104B83008FEAFEEBFF7A057B00121527EA4B6023C1
:104B93008A828B83740A124BB98A828B83A3A312F2
:104BA30047C48A828B83A3A3A3A3F0900532E0F9C1
:104BB300121533023BB6124BBD22124807124BC4E7
:104BC300221242ECF922C082C083E9900D62F09078
:104BD3000314741FF0A3740BF09003167431F0A345
:104BE300740BF09003187443F0A3740B0237B5747D
:104BF300F712038FEAFEEBFF8908EE4F70031219D9
:104C0300EF900328124C7470089003288022124FEF
:104C13007588828983A3A3A3A3A3A3A3A3A3124CED
:104C23004988828983A3A3A3A3A3A3A3A3A370DE19
:104C3300EEF0A3EF124C79A3A3A3E4F0A3124C79F3
:104C4300E508F0023676124C51EA4B22A3A3124C2C
:104C530056FB22E0FAA3E0228E828F83A3A3A3A3B1
:104C6300A3A3A3A3A3A3125E3D240FF582E8124FCF
:104C73006D1241514922124C7D22124C8122125A4B
:104C8300A7A3A3A32274F712038F900328800D8E8A
:104C9300828F83A3A3A3A3A3A3A3A3A3125FF2EE71
:104CA3004F60348E828F83A3A3A3A3A3A3A3E0693E
:104CB30070DD8E828F83A3A3A3A3E06A7003A3E0B6
:104CC3006B70CC8E828F83A3A3A3A3A3A3E06C708A
:104CD300BEEEFAEFFB80047A007B0002367674F7AF
:104CE30012038F900328125FF2900328122D396864
:104CF3007002EB69701BE0C82409F582E8124F7259
:104D0300900328124459900328125FF28024125F03
:104D1300E5EE4F601D8E828F83A3A3A3A3A3122D61
:104D230035687002EB6970E68A828B83A3A3A312B2
:104D330044471215DBEEFAEFFB02367674F01203EA
:104D43008F74FA1209408A088B098A828B83A3A382
:104D5300A3A3A3A3A3A3E06037640160338A828B78
:104D630083124A22120EF7E9702685088285098389
:104D7300A3A3A3A3A3A3A3A3E064037018740412BF
:104D83000B0CAC82AD83AA08AB09121F53E9701652
:104D93007902024F42850882850983124F75740494
:104DA300120B0C12445912614B125F172432124634
:104DB300D11215D58A0A8B0BAE0AAF0BEE4F7003D7
:104DC300024F407C327D0079001215097402120BE8
:104DD3000CAA82AB83850882850983A3A3A3A3A31B
:104DE300A3A3A3A3E0F91212997402120B0CE0C05F
:104DF300E0EE242D126BD3D0E0F0EE242CF50AEF75
:104E03003400F50B7403120B0CE0850A82850B83C7
:104E1300F07901EEFAEFFB121F3585080C85090DB9
:104E2300750E00780C1208AE7C1C7D00124F4712E1
:104E330014FD74031208DFEE2430124F5024321293
:104E43004A3B2411F8E5091253358C828D831238BD
:104E5300CF242E126BD3124A441258BEE509126BAB
:104E6300D6126BDA1208AE8C828D8312631A8A8291
:104E73008B83124A221214FD74031208DF74041286
:104E83000B0C124F7D124455900302124F89F09080
:104E93000302E004F01216A7124F9D242A1258C3EE
:104EA300750D00850A82850B83E0780C120A1B8A34
:104EB300828B83E50CF0124F63E50C125E75E4F010
:104EC3001255A9E509124F5D74015007120B0C74BA
:104ED300018004120B0CE4F0EE2427123C99851890
:104EE30082851983AA82AB83121281E924FE850885
:104EF30082850983F0EE242E125333124F9112024E
:104F030046E88E828F83A3A3A3A3A3A3A3A3F01234
:104F13004F911202468B09EA4509600F8E828F83F7
:104F2300A3A3A3A3A3A3A3A3E004F0EE2420125FEF
:104F330014440812593A12156979008002791074E1
:104F430006023AEBEE240BFAEF3400FB22126AAAB4
:104F5300FAE9FBEE22EE1255ABEF125348A2E02220
:104F6300EE2429124F6A22F582EF3400F5832212D0
:104F73004F6D124F7922124BC422124F8122124BD2
:104F8300C48E828F8322122841A3A3A3A3228C82DF
:104F93008D83123EFCE0FA7B00228E828F83EAF03F
:104FA300A3EBF0EE2274F412038FEAFEEBFF12166A
:104FB300A7124818900DE4E0F8EE242B125F14C3F7
:104FC3009840030251151251397012EE242B125FCF
:104FD3001404125148C0E0124F63D0E0F0EE2428CD
:104FE300125F14FC7900800109EE242C122F3CE996
:104FF300C3985026750801750900E97808120A1B41
:10500300125139550860E1E92CFC75080175090056
:10501300E97808120A1BE04508F0EE242712512D07
:10502300EE242EF582EF12357F8A088AF0A4F8ABBE
:10503300F0E42BF9E098F8A3E099F9C3E89508E9BF
:105043009400EE40392427122F3C1251396035EE7B
:10505300242D126BD3125141A3E4F0EC7052EE24D1
:1050630020125F1444201242E7C0E0EE2426126BA4
:10507300D3D0E0F0EE243012512DA3E08056124F2E
:105083006474FFF090034CE0FA900DE7E0F508EA52
:105093008508F0A4ABF075F064A4FAADF075F06484
:1050A300EBA42DFB8E828F83A3A3EAF0A3EB80AA4C
:1050B300EE2420125F1454DF124A4AECF08C08EEFF
:1050C3002427F582EF1255D7FAABF0EE2430F582A0
:1050D300EF123DFAFBEE241E126BD3EAF0A3EB12A0
:1050E3005150C0E0EE2425126BD3D0E0F0EE241C27
:1050F300126BD3E812515690032A124C74600BECD6
:10510300F9123EF412050AE9701D124F47121F7D72
:1051130080157BE9EE2422F582EF12534C121251D3
:10512300EEFAEFFB121539022F9DF582EF1251347F
:1051330022125928FA22EE2429125345F422126529
:105143007DA3A3F022F0EE242A12534522124C7DB4
:10515300A3E022F0A3E4F02274F412038F90032857
:10516300125FF21216A78A0A8B0B78FF79FF802051
:10517300E0C39AFCA3E09BFDC3EC98ED99500E8E1F
:10518300828F83A3A3E0C39AF8A3E09BF9125FE5A0
:10519300EE4F605C8E828F83124A22E50AC39AFA2D
:1051A300E50B9BFB8E828F83126318C3EA9CEB9DF6
:1051B3008E828F83A3A340B8A3A3A3A3E06402704A
:1051C3001A1258D4600CEE2410126BD3124A221216
:1051D300152DEEFAEFFB1215398007EEFAEFFB12ED
:1051E3000B257A017B00900D62E0F9121569802985
:1051F30074FF68700374FF69601F88088909E4F508
:105203000AF50B78081208AA7A017B00900D62E078
:10521300F912168974041208DF022F9D74F0120329
:105223008F8A088B09ECFAEDFB890A7C0112614B2A
:105233001258DF121F2F8A0C8B0DAE0CAF0DEE4FE1
:105243007003025327E50A6003025327E508125847
:10525300BEE509126BD612533C686003025327EE76
:10526300242C12512DE82AF8E43400F98E828F831E
:10527300A3A3A3A3A3A3A3A3E0FAE89AE99400C377
:1052830065D033401D1255B61258DA70157B0012E3
:10529300532A12534C121251EEFAEFFB1215390234
:1052A30053271255B61258DA703CEE2429124F5088
:1052B300242C1253337508FF7509008C828D83E00B
:1052C3007808120A1B8A828B83E508F0EE242A12DF
:1052D3006BD3E508F08C828D8312533C28F0EE24C7
:1052E3002B123A60801FE5082414F8E5093400F90D
:1052F300E0C0E0EE242A126BD3D0E012535EC0E08C
:10530300124F63D0E0F01216A7124F9D242DF582A1
:10531300EF126576A3A31251567A01FB900D62E05A
:10532300F9121569023AEEE5082412F582E509221D
:10533300F8EF126AACFCE9FD22E0F8EE24281253E0
:105343004522F582EF12592822125134EE24141209
:10535300535622F582EF125928F92212536222F092
:1053630088828983E02274E912038F74FE12094054
:105373008A0A8B0B8C128D138916741B120B0C78F3
:105383000C120AC08A828B83A3A3E0F91212758AD6
:10539300108B11EA451170077A007B000255A47A3D
:1053A300127B001215D58A088B09AE08AF09EE4FA0
:1053B30070030255A07C127D00790012150985182F
:1053C30082851983AA82AB83850A82850B83A3A373
:1053D300E0F9121299EE240FF508EF1255D2740179
:1053E300120B0CE0850882850983F07902EEFAEF4F
:1053F300FB121F358512828513831255EEE8F0A345
:10540300E91256168E828F83A3A3A3A3A3A3A3F0AB
:105413007514FF751500850882850983E0781412D9
:105423000A1B126BD0E5141255FBF812457BC0E042
:10543300EE240B126BD3D0E0125620F508EE240DA8
:10544300126BD3E508F01258BCE50B1255D724268E
:10545300FAE5F03400FB1215278A088B09EE2410B5
:10546300126BD312481CEA450970030255958A82D0
:105473008B83741A1251568A828B83A3A3F0A312CF
:105483005633124F758A828B83124455AC12AD1377
:10549300EA2406FAEB3400FB121293850A82850B89
:1054A30083A3A3A3E0C0E0E5081255B1E509126B9D
:1054B300D6D0E0F09003691255E824101256091271
:1054C30055ABE50B126BD61255E82424F582E5099A
:1054D3001255BF12562DA3A31255E812532C126B6B
:1054E300D6124459850A82850B83A3A3E0C0E01238
:1054F30055B6126BD6D0E0F0E50A125FBDE50B128C
:105503005F17C0E01255A9E509126BD6D0E0F0741D
:1055130019120B0C1255DFC0E0E5082416F582E5DD
:1055230009126BD6D0E0124A26C0E0E5082417F52D
:1055330082E509126BD6D0E01255F6C0E0E50824E7
:1055430018F582E509126BD6D0E0F0E5082419F5C9
:1055530082E509126BD6E516F0E508241AF582E513
:1055630009123AD9120AA2E5082426F8E5093400FB
:10557300F9E5082422125609125E31E50B125F1772
:10558300C0E0E508241FF582E509126BD6D0E0F0F0
:10559300800BEEFAEFFB1215397E007F00EEFAEF77
:1055A300FB7402022D2DE5082415F58222EE240F4B
:1055B300F58222E5082414F582E50922124F6DE8ED
:1055C300F0A3E922850F0CE508250CF508E509345D
:1055D30000F509221253488508F0A422124F798856
:1055E300828983E022124F79E50822124F81A3A317
:1055F300A3A32212315BE022125600E022F08510B1
:1056030082851183A322F582E509124F6D1247B3F8
:10561300E50A22F0126153E50B12534822F0E50A22
:105623002410F582E50B12534822125633A3A3220A
:10563300F0850A82850B83A3A3A3A3A3A32274E803
:1056430012038F8A0A8B0B8C108D11891474181214
:105653000B0CE0F516A3E0F517741A120B0C780C7B
:10566300120AC0750900EA1258BEEB125F17F5085B
:1056730090032A124C746011A90890032A123EF178
:1056830012050AE960030258B37C02851082851172
:1056930083124A22126153E50B1258DF121F2F8A1D
:1056A300128B13AE12AF13EE4F704E850A82850B29
:1056B30083A3E0A2E040030258B3780C1208AA784F
:1056C300161208B2A914AC10AD11AA0AAB0B120B37
:1056D3003774061208DF8A0C8B0DAE0CAF0DEE4F3C
:1056E30070030258B38E828F83A3A3A3A3A3A3A3A0
:1056F300A3E50812593A12156985080C8E828F8327
:10570300A3A3A3A3A3A3A3A3E024FFF8E434FFF973
:10571300E8650C7001E970037509011258D4700330
:10572300025861850A82850B83A3E0A2E0500375CA
:105733000800125908E50C98E499C365D033401E5C
:10574300E0F8EE240E125F1428F0750CFF750D00BF
:10575300E8780C120A1BEE125FBDEF1258CDE50A72
:10576300125CB1E50B122B071208AE1244B1850887
:105773000CEE240D125F14850CF0A4FAABF0EE24AA
:1057830010126BD312592E123DFDFB1214FD74033C
:105793001208DF750C011258E3780C120A1B125F12
:1057A30011450CF0E509A2E05063EE240C1258C336
:1057B3001258E304780C120A1B8A828B83E0450C8F
:1057C30012594585080C850CF0A4F8E50A1258B760
:1057D300E50B125F17FCE82CFCE5F03400FDEE242A
:1057E30010126BD31258F1125A8DF47020EE240B61
:1057F300F50CEF126F52EE1258B7EF34001258FA4D
:10580300121533850C82850D8374FF80501216A701
:1058130012481890034CE0FA900DE7E0F50CEA8586
:105823000CF0A4FAABF0F8EBF9900DE4E0F50CE81A
:10583300850CF0A4F8ACF0850CF0E9A42CF9EA2867
:10584300F8EB39F9E875F064A4F8AAF075F064E9A7
:10585300A42AF98E828F83A3A3E8F0A3E9F0125957
:1058630008125FDCE8650C7001E9600EEE240C128F
:1058730058D76006E509A2E05036EE240E125F14F5
:10588300C0E01258BCE50B126BD6D0E0F0125F11EA
:10589300C0E0E50A2414F582E50B126BD6D0E0F0E4
:1058A300AC0AAD0B851082851183124A22120B615B
:1058B300026AA5EA2410F58222E50A2413F582225E
:1058C300126AAAFAE9FB750CFF22124F6DE50CF080
:1058D30022EE240BF582EF125348F422125359227D
:1058E300750D0012591EF5F0E50884E5F022125EED
:1058F3003D2420F582E822F583124C51850C8285E4
:105903000D83E0F92285080CEE240E125345F8129C
:10591300591EFAE82AF8E43400F922EE240FF5823E
:10592300EF125928223400F583E022125E3D24222F
:10593300F582E8124F6D22F07A017B00900D62E050
:10594300F922F0EE240D12534522C082C083900D3C
:1059530062E0F91215330237B674F412038F8A0822
:105963008B09EB5480703EEAA2E05056120B2BE5F4
:10597300086401FAAB09804E8E828F83E064017064
:105983001DEE2413126BD31206B81225C31208B2EC
:10599300EE24121259CC120B3D74061208DFEEFAF4
:1059A300EFFB12152D900D62E0F912153F8A0A8B59
:1059B3000BAE0AAF0BEE4F70BFAA08E5096480FB7C
:1059C30080047A007B00022F9D125356EE2402FCC2
:1059D300EF3400FDEE2418FAEF3400FB221259E4F1
:1059E30022124807A322C082C08390032C80048C18
:1059F300828D83125A2B60298C828D83A3A3E06945
:105A0300600574FF6970E88C828D83A3A3A3E06AA9
:105A13007003A3E06B70D8EC2403FAED3400FB8031
:105A2300047A007B000237B612631EEC4D2274F732
:105A330012038FE9FC74FE6C70047D0180027D000B
:105A430090032C80096C70027D0188828983124C3B
:105A530074601F88828983A3A3A3E06A7003A3E011
:105A63006B70E7EDA2E088828983A3A3E050D6F9A7
:105A7300800279FE0236761241511255B1E93400A3
:105A8300F583E508F0A3E509F022124F6DECF0A3CE
:105A9300EDF08A828B83E022125A9F22125AA322AC
:105AA300125AA722124807A3A3A32274F612038F44
:105AB3008C828D83A3A3125CDBF0EA2417F582EBBF
:105AC300125F17C0E0EC1258B7ED126BD6D0E0F0BE
:105AD300EA241DF582EB124F72EC1268FFED126B94
:105AE300D6125CDBA3F0A3F0EA241FF582EB126B62
:105AF300D6125FF2EC1255ABED126BD61246F412CE
:105B03005CA9126BD6125CBCA3A3A3A3A3A31246E6
:105B1300F088828983E0FE8C828D83125CFA7403A1
:105B23005EFEC394034003025C9AEE600574026E4A
