:020000040000FA
:06000000020A920201E277
:03002B000207D2F7
:0300330002065B67
:0300430002076B46
:0300530002012186
:03006B0002063555
:1000830002017E0101FF0503017F117F117F117FB3
:100093001135102F107F11A22000000000722100E3
:1000A300000000FF000000FF0001436F6E6E6563F8
:1000B3007420617320456E644465766963650A0044
:1000C30059135F130000B3130000000000006D1408
:1000D3000000000000009513000000000000000075
:1000E300FFFF010101003205000000E8038505E878
:1000F3000364006400B8010202000800000502075F
:1001030004051E02051E0A03B80B020102E8030AD6
:10011300050001FFFF020020FD0002020612C0E0FD
:1001230074F21203FBA2AFE433FED2AFE5A7FFE5FF
:10013300A1F5085F54106006121B8175A1EFE50855
:100143005F54086008121B8775A1F78024E508A295
:10015300E092F0EFA2E082F05017906198E0F890FF
:10016300088BE0C398A2D265D0335002E8F075A1A2
:10017300FEEEA2E092AF7F0102045AC0E074F212D5
:1001830003FBA2AFE433FED2AF9061A4E0F8759B0A
:1001930000E59158540860087591F7121BDB802322
:1001A300E59158541060087591EF121BE18014E536
:1001B30091A2E092F0E8A2E082F05007E0C2E0F002
:1001C300121D259061A3E0F8E5E9585404600E126E
:1001D3001CFB75E9FB906193E0A2E640F28092C0BC
:1001E300E074F21203FBA2AFE433FED2AF9061A539
:1001F300E0F8E5BF585404600675BFFB121D3D02CD
:100203000174C3E498F8E499F91202468026C3E422
:100213009AFAE49BFBE920E7E9120246E498F8E442
:1002230099F922C3E498F8E499F9120246E498F89C
:10023300E499F9C3E49AFAE49BFB22EB20E7CFE9C4
:1002430020E7E0B90010BB0008E88AF084F8AAF0C0
:1002530022E4FBC8FA22EB70227B10C833C8C933EF
:10026300C9335007C39AC3DBF280069A50012ADBD5
:10027300EAC833F4C8C933F4C9FA2275F008E4C8EC
:1002830033C8C933C933C99AC99B5004C92AC93B66
:10029300D5F0ECFBC833F4C8E4C9FA22080808EA2D
:1002A300C0E0EBC0E086F0E7A4FA180986F0E7A403
:1002B3002AFA180986F0E7A42AFA180986F0E7A4AF
:1002C3002AFA1986F0E7A4FBE5F02AFA190886F062
:1002D300E7A42BFBE5F03AFA190886F0E7A42BFB19
:1002E300E5F03AFA18180986F0E7A4C5F02BFBE409
:1002F3003AFA1908E7C5F0C6A426F6E5F03BFBE495
:100303003AFA1886F0E7A4F6E5F00826F6E43B0887
:10031300F6E43A08F6D0E0FBD0E0FA22E4CFC0E0FE
:10032300E4CEC0E0E4CDC0E0E4CCC0E075F020C38F
:10033300E633F608E633F608E633F608E633F6184E
:100343001818EC33FCED33FDEE33FEEF33FFC3EC53
:100353009709ED9709EE9709EF97191919400FFFC0
:10036300EC97FC09ED97FD09EE97FE191906D5F0F8
:10037300BEECF709EDF709EEF709EFF7191919D0F4
:10038300E0FCD0E0FDD0E0FED0E0FF222518C582DE
:10039300C0E0E51934FFC583C0E0E518C3958224A6
:1003A300F810AF088583198582188008858319851D
:1003B3008218D2AFCEF0A3E520F0A37808E608F0C8
:1003C300A3DEFAEFF0A3E58124FAF8E608F0A3E64A
:1003D30008F0A3E608F0A30808E608F0A3E608F08F
:1003E300A315811581D0E0FED0E0F81581158115A4
:1003F30081E8C0E0EEC0E022C0D02518C582C0E08D
:10040300E51934FFC583C0E0E518C3958224F310D2
:10041300AF0885831985821880088583198582181A
:10042300D2AFC8F0A3E9F0A3EAF0A3EBF0A37908F5
:10043300E709F0A3D8FAECF0A3EDF0A3EEF0A3EFF5
:10044300F0A3D0E0F0A3D0E0F0A3D0E0F0A3E52048
:10045300F0A3E5F0F0A322851983851882E0C0E0BC
:10046300A3E0F9A3E0FAA3E0FBA37808E0F608A36E
:10047300DFFAE0FCA3E0FDA3E0FEA3E0FFA3E0C0FE
:10048300E0A3E0C0E0A3E0F5D0A3E0F520A3E0A360
:10049300F5F010AF088583198582188008858319C4
:1004A300858218D2AFD082D083D0E0F8D0E0321268
:1004B3000B01B900030204F4E49003017860790BA3
:1004C3008002F0A3D8FCD9FA900D60AA82AB839086
:1004D3000086789C79018015E493A3AC82AD838A6E
:1004E300828B83F0A3AA82AB838C828D83D8E9D9D4
:1004F300E775827B7583E6740312087175820D7547
:1005030083207400120871E47375F0108E1A8F1B28
:1005130085821F85831E851882851983E0CEA3E01B
:10052300CF851F82851E83EBC9EAC8EDCBECCAC316
:10053300E833C8E933C9EA33CAEB33CBC3EA9EF5E0
:100543001DEB9FF51CB35004AB1CAA1DEC33CCED83
:1005530033CDD5F0DAAE1AAF1B22D083D082ECC0F4
:10056300E0EDC0E0E493A3FCE493A3FDED4C600D48
:10057300120679EC24FFFCED34FFFD80EFE493A336
:10058300FCE493A3FDED4C600D120716EC24FFFC75
:10059300ED34FFFD80EFD0E0FDD0E0FCE493A3C099
:1005A300E0E493C0E022851983851882E0A3FEE08E
:1005B300A3F5207808E0A3F608DFFAE0A3FFE0A3A1
:1005C300C0E0E0A3C0E0E0A3C0E0E0A3C0E0E0A39C
:1005D300C0E010AF088582188583198008858218CA
:1005E300858319D2AFD083D082020877D083D0829B
:1005F300E9C0E0E493A3C386F0C5F095F0F908E4FD
:1006030093A386F0C5F095F0700BE493A3C39940D0
:1006130005E9048002A3E475F002A42582F582E5CE
:10062300F03583F583D0E0F9E493A3C0E0E493C00D
:10063300E022C0E074F21203FBA2AFE433FED2AFB8
:10064300E589A2E45003121A55758900C2C5EEA2CA
:10065300E092AF7F0102045AC0E074F21203FBA2DE
:10066300AFE433FED2AFE58BA2E05003121A557507
:100673008B00C2E880D8C0E0C3E49396087401936A
:100683009618400FE4936670080874019366187017
:10069300007019A3A3C3E49396087401939618A357
:1006A300A3400DD0E0D0E0D0E0020599A3A3A3A31B
:1006B300A3A3D0E0227404800474028000CCC0E0C1
:1006C300EDC0E0E518C39CCCAD1950011D10AF0679
:1006D3008C188D1980068C188D19D2AF1207F3D0A0
:1006E300E0FDD0E0FC2274028000CCC0E0EDC0E06D
:1006F300E518C39CCCAD1950011D10AF068C188DA5
:100703001980068C188D19D2AF12078ED0E0FDD058
:10071300E0FC22C0E0C0F088F0E49366700808743F
:10072300019366187000A8F0A3A3700BD0F0D0E07B
:10073300D0E0D0E0020599A3A3D0F0D0E022D0838B
:10074300D082CCC0E0E493A360061208521470FA7E
:10075300E493A3600612092A1470FAD0E0FCE49330
:10076300A3C0E0E493C0E022C0E074F21203FBA252
:10077300AFE433FED2AFC2C0E5D1A2E45003121AF4
:10078300F7EEA2E092AF7F0102045ACAC0E0E493FD
:10079300A3C582CCC582C583CDC583F0A3C582CC56
:1007A300C582C583CDC583DAE5D0E0CA22A2E7922C
:1007B300D65002F40430F70663F0FF05F0B34003AC
:1007C30084800384F40430D60563F0FF05F022C06F
:1007D300E0C0D0E8C0E0E9C0E0E5A8D2AFC2C7A25C
:1007E300E7A2E792AFD0E0F9D0E0F8D0D0D0E03282
:1007F300CAC0E0E0A3C582CCC582C583CDC583F062
:10080300A3C582CCC582C583CDC583DAE6D0E0CA51
:1008130022C008C3E096F50808A3E096420808A39F
:10082300E096420808A3E09645087001D3D0082259
:100833007009080808226016181818C6C333C608BA
:10084300C633C608C633C608C633C6D5E0EA22C0D7
:10085300E0E493A3D39C5010E493A3C39C400AD039
:10086300E0D0E0D0E002075EA3A3A3D0E022C09FC4
:10087300F59FE473D09F22D083D082C09FE493C0BE
:10088300E0740193C0E0740293F59F222518F5826A
:1008930010AF08F518400215198008F51840021525
:1008A30019D2AF851983227404800A7403800674F5
:1008B3000280027401C0E0F40412088FD0E0120A2F
:1008C300DC22BB0102E722C082C08389828A83BB08
:1008D3000003E08002E493D083D08222C0D02518A5
:1008E30010AF08F518500205198008F518500205D5
:1008F30019D2AFD0D0226016080808C6C313C61891
:10090300C613C618C613C618C613C6D5E0EA22C353
:10091300E0C696F608A3E0C696F608A3E0C696F6E8
:1009230008A3E0C696F622C0E0E493A36C7009D056
:10093300E0D0E0D0E002075EA3A3D0E022251810A8
:10094300AF08F518400215198008F518400215196B
:10095300D2AF22E066701008A3E066700A08A3E035
:1009630066700408A3E06622E76670100809E7666C
:10097300700A0809E76670040809E76622C3E0966F
:1009830008A3E09608A3E09608A3E096A2D265D058
:100993003322C3E096F008A3E096F008A3E096F0B4
:1009A30008A3E096F022E026F608A3E036F608A3B3
:1009B300E036F608A3E036F622E026F008A3E03698
:1009C300F008A3E036F008A3E036F022E657F60875
:1009D30009E657F60809E657F60809E657F622E04E
:1009E30056F608A3E056F608A3E056F608A3E05629
:1009F300F622E056F008A3E056F008A3E056F0080C
:100A0300A3E056F022E627F60809E637F60809E6DA
:100A130037F60809E637F622700422600D18C6C3BC
:100A230033C608C633C6D5E0F41822E647F60809EC
:100A3300E647F60809E647F60809E647F622E4C35F
:100A430096F608E496F608E496F608E496F622C3CA
:100A5300E09608A3E09608A3E09608A3E096226038
:100A63000D08C6A2E713C618C613C6D5E0F322C6FF
:100A7300F4C608C6F4C608C6F4C608C6F4C622C33C
:100A8300E7960809E7960809E7960809E7962275A5
:100A9300D000758140751801751903000204B2E690
:100AA300F008A3E6F008A3E6F008A3E6F022600C42
:100AB30008C6C313C618C613C6D5E0F422E0F60869
:100AC300A3E0F608A3E0F608A3E0F622C58224FD1E
:100AD300C582C58334FFC58322CAC0E0E6F0A308FC
:100AE300DAFAD0E0FA22E0FAA3E0FBA3E0FCA3E009
:100AF300FD22EAF0A3EBF0A3ECF0A3EDF022E5C7AF
:100B030054F84401F5C77901222518F582E4351913
:100B1300F58322C2AF75D69F0200002212087A4BDA
:100B23004D0012087AB44F0012087A675100120878
:100B33007A2B520012087A75530012087A4D560028
:100B430012087A59590012087A68590012087AF57E
:100B5300590012087A3D5A0012087ABA5A0012084C
:100B63007A345D0012087A8D5E0012087A425F00C3
:100B730012087ACE5F0012087A04600012087AB66F
:100B8300600012087A7A610012087A306300120852
:100B93007A6E630012087AE5630012087AD664005D
:100BA30012087A97650012087AD8650012087AF05D
:100BB300650012087A99660012087A2469001208FF
:100BC3007ABD6A0012087ADB6A0012087AF96A00B1
:100BD30012087AEC6B0012087AA66F0012087A00EA
:100BE300800212087A12800212087A6480021208C4
:100BF3007AC4800212087A51810212087AFF8102B4
:100C030012087A6A820212087A83820212087AA987
:100C1300820212087AC8820212087A068302120834
:100C23007A5B830212087A84830212087AD68302DB
:100C330012087A99840212087A1A850212087AD560
:100C4300850212087AAD860212087A7F870212089B
:100C53007A8E870212087A99870212087ADC880250
:100C630012087AED880212087A67890212087AF567
:100C7300890212087A508A0212087A1F8B0212081C
:100C83007A418B0212087A828B0212087A8F8B02C6
:100C930012087A988B0212087AB48D0212087A0627
:100CA3008F0212087A848F0212087AA8900212081F
:100CB3007A25930212087A30930212087A3A930241
:100CC30012087A45930212087A4F930212087A594E
:100CD300930212087A64930212087A6F930212083D
:100CE3007AA0930212087AAB930212087ACF930286
:100CF30012087AF3930212087A5E940212087AA217
:100D0300940212087ABE940212087A3995021208E4
:100D13007A80950212087ACC950212087A369602E6
:100D230012087A29980212087AC0980212087A885F
:100D3300990212087AB59C0212087A0A9D021208D7
:100D43007A369D0212087A4A9E0212087A8E9E0211
:100D530012087AF79E0212087AF49F0212087A7F29
:100D6300A00212087A1CA10212087ABCA10212087E
:100D73007A67A20212087A05820112087A41820177
:100D830012087A37840112087A76840112087AC02D
:100D9300840112087A54850112087AB88501120871
:100DA3007AF8850112087A4B860112087A93870133
:100DB30012087AA0880112087A36890112087AA4E7
:100DC3008C0112087A438D0112087A458E011208AC
:100DD3007AA88E0112087AE38F0112087AD491015E
:100DE30012087A6C920112087A76920112087AA993
:100DF300920112087A80930112087A16940112085C
:100E03007ADA940112087A03950112087A3095016F
:100E130012087A70970112087A43980112087A82AD
:100E2300980112087AF6980112087AB29901120809
:100E33007AE4990112087A2B9A0112087A639A01CB
:100E430012087AB89A0112087A0C9B0112087A9C4C
:100E53009B0112087A019C0112087A679C0112080F
:100E63007AF69D0112087AF19E0112087A26A001F2
:100E730012087A84A20112087A3FA30112087A9613
:100E8300A50112087A39A60112087A80A601120870
:100E93007A51A80112087A65A80112087A6FA8018D
:100EA30012087A95A80112087AA1A80112087AC03B
:100EB300A80112087A6BA90112087AC0A9011208C5
:100EC3007ACAA90112087A73AA0112087A29AB0116
:100ED30012087A1CAC0112087A54AD0112087AE8A0
:100EE300AD0112087A51AE0112087A68AE011208F8
:100EF3007AA5AE0112087AC3AE0112087A05AF01D2
:100F030012087A2AAF0112087AC0AF0112087AA830
:100F1300B00112087A2BB10112087AAFB10112089D
:100F23007A57B20112087A87B30112087A8BB40197
:100F330012087AF1B40112087AA6B50112087AC927
:100F4300B50112087A77B60112087AC5B6011208FC
:100F53007A07B70112087A61B70112087A85B701D7
:100F630012087AB0B70112087AECB70112087A11A5
:100F7300B80112087A99B80112087AB3BA011208B3
:100F83007AF4BA0112087A7FBB0112087A0BBC010A
:100F930012087A79BC0112087AB4BC0112087AC12A
:100FA300BD0112087A00800312087A388003120800
:100FB3007A59800312087A9B800312087AFD800312
:100FC30012087A07810312087A17810312087A4EEE
:100FD300810312087A10850312087AD18603120856
:100FE3007AF3880312087AB2890312087A7F8A0394
:100FF30012087A2FBF0112087A89BF0112087AE614
:10100300BF0112087A30C00112087A4BC0011208DE
:101013007A72C00112087A8FC00112087A9BC0014C
:1010230012087ABBC20112087AD4C20112087A5D8F
:10103300C30112087A70C30112087A82C30112082D
:101043007A38C40112087A42C50112087AE6C60149
:1010530012087A71C70112087A74C70112087ADC80
:10106300C70112087AEDC70112087A7FC801120876
:101073007AADC80112087AAFC80112087AE7C8012D
:1010830012087A44C90112087A68C90112087A86DB
:10109300C90112087AD4C90112087AF4CA011208E4
:1010A3007A4CCB0112087AA5CB0112087A34CC0111
:1010B30012087A5CCC0112087A92CC0112087AA148
:1010C300CC0112087AFFCC0112087A6FCD01120805
:1010D3007AACCD0112087AE7CD0112087A12CE015B
:1010E30012087A2CCE0112087A46CE0112087A0031
:1010F300CF0112087A0ACF0112087A46CF011208EB
:101103007A56CF0112087A5FCF0112087ABFCF0156
:1011130012087AD3CF0112087ADCD00112087AF1CF
:10112300D00112087A93D10112087A12D20112085F
:101133007AB5D20112087AC1D20112087AF3D30127
:1011430012087A0FD40112087A63D40112087A9C28
:10115300D40112087AB1D40112087AF3D401120827
:101163007A4CD70112087AF8D70112087A25D901E7
:1011730012087AB9D90112087AE7DB0112087AFF5B
:10118300DB0112087A02DC0112087A0EDC01120874
:101193007A22DC0112087A2ADC0112087A67DC0160
:1011A30012087A85DD0112087A04DE0112087A86B4
:1011B300DE0112087A00DF0112087ABBDF01120890
:1011C3007ADDDF0112087A79E00112087A85E001FD
:1011D30012087AB0E00112087AB3E00112087A1813
:1011E300E10112087A7AE20112087A03E401120893
:1011F3007A8EE40112087AB6E50112087A81E601D3
:1012030012087AB2E60112087ADEE60112087ABB06
:10121300E70112087AEAE70112087AA9E80112083D
:101223007A51E90112087AC5E90112087A60EA01E4
:1012330012087AE6EA0112087A1CEB0112087A5DB9
:10124300EB0112087A2D8B0312087A7C8B031208A8
:101253007AB98B0312087A098C0312087A8D8C03EE
:1012630012087AD58E0312087ACF900312087A3FB8
:10127300940312087A7A940312087A989403120852
:101283007AF8940312087A20950312087A51950389
:1012930012087A7E950312087ADA950312087AC443
:1012A3006F0012087A42700012087A7870001208F0
:1012B3007AE0700012087A53720012087A6F720093
:1012C30012087AB4720012087A41730012087A98ED
:1012D300730012087ABB740012087ADE75001208D4
:1012E3007A3B760012087AA7760012087A507700C4
:1012F30012087AB1770012087AFA770012087AA7EF
:10130300780012087AB1790012087AF47900120889
:101313007A3D7A0012087A747A0012087A177B00F1
:1013230012087AC67B0012087AD4F70212087A9B55
:10133300F80212087ADEFA0212087A49FB0212084E
:101343007A87FB0212087A60FD0212087AC5FD0251
:1013530012087AEFFD0212087AB6FE0212087AC565
:10136300FE0212087AD4FE0212087A07FF0212085C
:101373007A6AFF0212087A6AFE0312087A7BFE0376
:1013830012087AE0FE0312087A88FF0312087A4FE4
:10139300830412087ADAFB0312087A02FC031208A8
:1013A3007AF6FC0312087AA6F50312087AFEF6030E
:1013B30012087A26960312087AD5960312087AF54C
:1013C300960312087A15970312087A2997031208CD
:1013D3007A89970312087AB9970312087A40990316
:1013E30012087AE9990312087ACB9A0312087A1A37
:1013F3009B0312087A5E9B0312087AC39B031208AD
:101403007A2F9C0312087A509C0312087AD39C0308
:1014130012087A089D0312087A789D0312087A1E2F
:101423009F0312087AEF9F0312087A31A003120870
:101433007A8BA00312087A26F20312087A47F20382
:1014430012087A7DF30312087AA7F30312087A4D80
:10145300F70312087AC0F70312087ACBF7031208CE
:101463007AECF70312087A7BEB0212087A7EEB021E
:1014730012087A40EC0212087A6BEC0212087AB175
:10148300EC0212087AD6EC0212087AF7EC02120880
:101493007A2BED0212087A63ED0212087A8CEE02BF
:1014A30012087ABAEE0212087ADAEE0212087A45C4
:1014B300EF0212087AF9EF0212087A2EF0021208EC
:1014C3007AA7F00212087A0FF20212087AB2F20235
:1014D30012087AAAF30212087ADFF30212087A4496
:1014E300480012087AFFF40212087A2DF502120856
:1014F3007AB4F60212087A35F70212087A68F7020C
:1015030012087A9FA00312087AA9A00312087AF599
:10151300A00312087A63A10312087A84A1031208B4
:101523007A9BA10312087A4BA20312087A08A50337
:1015330012087A11A50312087A64A50312087AED3A
:101543004C0012087AA2A50312087A0BA60312080C
:101553007A9CA60312087AD8A60312087A24A70352
:1015630012087A8BA70312087AC4A70312087A4ACF
:10157300A80312087A89A80312087ACAA8031208D2
:101583007A01A90312087A13A90312087A25A90379
:1015930012087A44A90312087A4DA90312087A059E
:1015A300AA0312087A45AA0312087A30B90312086B
:1015B3007A73BA0312087A99BA0312087AAABA0399
:1015C30012087AC3BC0312087AE2BC0312087A5CDD
:1015D300860412087A16EE0312087A4CEE031208F8
:1015E3007A97EE0312087AE5EF0312087A9EA202B5
:1015F30012087AE9A30212087A25A40212087ADCF7
:10160300A50212087A05A60212087A9DA8021208FA
:101613007ADDA80212087A7EAA0212087A18AB02AF
:1016230012087A80AB0212087A0DAC0212087A45CE
:10163300AC0212087A85AC0212087A18AE021208BC
:101643007AB7AF0212087A06B20212087A34B202EB
:1016530012087A60B20212087A69B20212087AC4D6
:10166300B20212087A5AB30212087A83B602120837
:101673007A08B70212087AE7FF0212087A39CC0314
:1016830012087A52CC0312087AF7CC0312087A377D
:10169300CD0312087A50CD0312087A8BCD031208BA
:1016A3007AD8CD0312087A0ACE0312087A4CCE03F5
:1016B30012087A5AD00312087A27FD0312087A5DBA
:1016C300FD0312087A79FD0312087ABBFD031208A1
:1016D3007ACBFD0312087A60FE0312087A92EB01BB
:1016E30012087AD7EB0112087A6CEC0112087A28F7
:1016F300ED0112087A8DED0112087A2FEE0112081E
:101703007A79EE0112087AC0EE0112087A39EF01F4
:1017130012087A4DEF0112087ACCF10112087A46C9
:10172300F20112087A7DF20112087AB5F201120869
:101733007A67F40112087A02F50112087A93F50127
:1017430012087ACCF50112087AEBF50112087A3601
:10175300F60112087A4CF60112087A59F6011208BA
:101763007A89F60112087A9FF60112087A25F701A1
:1017730012087A39F70112087A95F70112087AEFFD
:10178300F70112087A46F80112087A54F90112088F
:101793007ABDFB0112087A84FC0112087AC6FC01A7
:1017A30012087A92FD0112087AB4FD0112087AB781
:1017B300FD0112087AC1FD0112087AC4FD01120865
:1017C3007A52FE0112087A8BFE0112087AB7FE01E3
:1017D30012087AF2FE0112087AFDFE0112087A104D
:1017E300FF0112087A37FF0112087A67FF01120816
:1017F3007A73FF0112087AAFFF0112087AFCDA024A
:1018030012087A27DB0212087AFCDB0212087A82BA
:10181300DC0212087AEBDC0212087A3CDD021208C1
:101823007AC3DD0212087A58DE0212087AE9DE0270
:1018330012087A2ADF0212087AC1E30212087A4BED
:10184300E50212087A84E50212087ACEE50212084C
:101853007ABEE60212087A72E70212087A07E902F0
:1018630012087AB5E90212087AD6C90212087A92E6
:10187300CA0212087A0FCB0212087A1ECB02120890
:101883007AA7CB0212087AFECB0212087A0DCD0298
:1018930012087A36CD0212087ADECD0212087A31A6
:1018A300CE0212087A9CCE0212087AFBCE021208EC
:1018B3007A39D00212087ADAD00212087A42D102B7
:1018C30012087AD7D20212087A8BD30212087A2826
:1018D300D40212087A89D40212087A03D5021208B4
:1018E3007A08D60212087A98D70212087A32D802F6
:1018F30012087AA3D80212087A7DD90212087A65EF
:10190300B70212087AE7B70212087A57B802120828
:101913007AA7B80212087AEFB80212087A8CB902D1
:1019230012087AAEBA0212087AFCBA0212087A478F
:10193300BB0212087A80BB0212087A42BC02120868
:101943007AB4BC0212087A70BD0212087AE1BD02B1
:1019530012087AFCBD0212087A5EBE0212087A3BB4
:10196300BF0212087A15C10212087A2CC1021208AA
:101973007A6DC20212087A02C30212087A71C30294
:1019830012087A80C40212087A8BC50212087A966A
:10199300C60212087AC6C60212087AC5C70212081E
:1019A3007A8FC80212087A12C90212087A2AC90267
:1019B30012087AE8DA0312087A23DB0312087AE3BF
:1019C300DB0312087A49DC0312087ABADC03120833
:1019D3007A4EDD0312087A0CE70312087A98E803BB
:1019E30012087A49840412087A5A840412087AFA8B
:1019F300840412087A05850412087AF7F30312089F
:101A03007A05F40312087AECFF0112087ABF850401
:101A130012087ACF850412087AEA850412087A52EA
:101A2300860412087A4B820412087AD082041208C0
:101A33007A36830412087AEBF80312087A0DF90355
:101A430012087A70F90312087A90F90312087AD609
:101A5300F90312087A31FA0312087A3D7C0012085E
:101A63007A527C0012087A747D0012087AB77D00DE
:101A730012087AD17D0012087A657E0012087AD99D
:101A83007E0012087AF37E0012087A0A7F00120899
:101A93007A1D7F0012087A377F0012087A4E7F0082
:101AA30012087A747F0012087AC57F0012087A310F
:101AB300D40312087A3FD40312087AB9D403120864
:101AC3007A9DD50312087A61D70312087A6F8704C7
:101AD30012087AF9B30312087A66B40312087A2754
:101AE300B50312087A97B50312087AA2B60312084F
:101AF3007A1AB80312087A7EB80312087AD3B803A5
:101B030012087ADCB80312087AEBB80312087AFEDB
:101B1300B80312087A14B90312087A1DB90312081C
:101B23007A39BE0312087A8EBE0312087A8AC0037A
:101B330012087ABCC00312087ADEC00312087AF7CF
:101B4300C00312087A10C10312087A1AC2031208DA
:101B53007AB5C20312087A6FFA0312087A93FA036A
:101B630012087AACFA0312087AEBFA0312087A1E07
:101B7300FB0312087A4EFB0312087AB6FB03120822
:101B83007AB9FB0312087AC3FB0312087AD0FB036A
:101B930012087AD3E00312087AFBE00312087A3CB6
:101BA300E10312087A4EE10312087A69E10312088D
:101BB3007AD1E10312087ADDE10312087A3CE203E9
:101BC30012087A68E20312087A77E20312087A9B12
:101BD300E20312087A5CE30312087A69E30312084A
:101BE3007A7AE30312087A31870412087A49870460
:101BF30012087A38C30312087A98C40312087A9E2B
:101C0300C40312087AB5C40312087AD6C4031208AF
:101C13007AECC40312087A00C50312087A7FC5035D
:101C230012087AE4C50312087A7AC60312087A53B3
:101C3300C70312087A63C70312087A72C70312082C
:101C43007A26850412087A4A850412087A72850472
:101C530012087A9A850412087A47E90312087A6E01
:101C6300E90312087A8FE90312087A01EA031208DA
:101C73007AB3EB0312087ACCEB0312087AE3EB0393
:101C830012087AECEB0312087A0AEC0312087A14AE
:101C9300EC0312087A1EEC0312087A31EC031208E3
:101CA3007A86EC0312087ABFEC0312087AEDEC0390
:101CB30012087A3EED0312087A8FED0312087AAA0E
:101CC300ED0312087AB4ED0312087AC5ED03120886
:101CD3007A0BEE0312087AA9FF0312087A6EAA039D
:101CE30012087A9AAA0312087AB8AA0312087ACBBE
:101CF300AA0312087AE6AA0312087A45AB0312086C
:101D03007A73AB0312087A95AF0312087ACBB00348
:101D130012087AFDB00312087A65B10312087AE259
:101D2300B20312087A0AB30312087A1FB303120824
:101D33007A2FB30312087A6FB30312087ABBB30383
:101D430012087ACBB30312087A00800412087A10BF
:101D5300800412087A2E800412087A49800412083B
:101D63007A70800412087A91800412087AAB800496
:101D730012087AE3800412087A06810412087AEDC5
:101D8300860412087A67D00312087A6ED003120809
:101D93007AC4D10312087AF4D10312087A24D20345
:101DA30012087A57D20312087A69D20312087AA565
:101DB300D20312087A0BD30312087A47D30312080B
:101DC3007A8ED30312087ABBD30312087ADCD303C7
:101DD30012087AE4DD0312087ACBDE0312087A973D
:101DE300DF0312087A74E00312087A48F00312083A
:101DF3007A5AF00312087A47F10312087AD9F103E9
:101E030012087ADCF10312087AA8E30312087AF8BD
:101E1300E30312087A5DE40312087AC9E5031208A2
:101E23007A38810412087AAA810412087AE88104B4
:101E330012087A29820412087AC6D70312087AE2B2
:101E4300D70312087A26D80312087A42D803120855
:101E53007A73D80312087A8BD80312087A31D9031C
:101E630012087A3BD90312087A54D90312087A6705
:101E7300DA0312087A7BDA0312087A84DA03120887
:101E83007AA3C70312087ACACB0312087ACFCB030B
:101E930012087AA7860412087ADD870412087AA743
:101EA300870412087A09880412087A318804120810
:101EB3007A85470012087A2A470012087A92450069
:101EC30012087AF8440012087ACD440012087A699D
:101ED300440012087A06430012087A884200120866
:101EE3007A62420012087A9F410012087AE63F00A4
:101EF30012087A863F0012087A583F0012087A5572
:101F03003F0012087A153E0012087A083D001208B5
:101F13007AC73B0012087AFF3A0012087A743A0033
:101F230012087A82390012087AE0380012087A2AF5
:101F3300380012087AE8370012087A944C00120825
:101F43007AFE4B0012087AD54B0012087A8B4B00AD
:101F530012087A7E4A0012087A25370012087AE4BA
:101F6300360012087ABD480012087A873600120834
:101F73007A4B360012087A8D480012087AEC350045
:101F830012087ABB350012087A66320012087A8C7E
:101F9300310012087A61480012087A8DA5031208ED
:101FA3007A68300012087AE92F0012087AAE2F00FF
:101FB30012087A5C2F0012087A502F0012087AAFA9
:101FC3002E0012087A752D0012087A242B001208AD
:101FD3007A98280012087A56280012087A0D2700EA
:101FE30012087AAA260012087ADC250012087A4021
:101FF300240012087ADC230012087A16240012083F
:102003007A57480012087A3FF40200000080FB0070
:102013000136360101000102010001030100010440
:1020230001060605020000070100340801000F093C
:102033000401010D0100FF0E080000170200001942
:102043000100FF1A0100011B0100FE1C0100081D15
:102053000200001F010001200100012102000023F2
:1020630001000F24020000260100012701000828B7
:102073000200FF2A0100072B0102402C0100002D62
:102083000100012E0100012F0100FF30010B1C3163
:102093000800003A0100083B01000F2F0100000374
:1020A3000071003001600011007000310220035004
:1020B30004800010006100000014006300730072CC
:1020C300006200430000001300060000000000044B
:1020D30000120000000000000000000400040037AC
:1020E3000037003C024400000000000000000065CF
:1020F300000000350081000000050000008300009F
:10210300006600000000000302710230016002114A
:102113000270020102020202028002100261023A0C
:10212300004100630273027202620243020002135F
:102133000238000002000204021202000200020040
:1021430002000204020402370037003C024402008A
:10215300023900000200026502000235028102001A
:1021630002050282028302000266020002000201EB
:1021730003710301030103010301030103220302AA
:102183000301031003000300030003000300030023
:1021930003000342030003240306030003000304B4
:1021A300031203250323032503230304030403006A
:1021B3000300030003440300030003230300036538
:1021C300032100350381030003050300030003001B
:1021D300030003250323030101710101010101111F
:1021E3000101013101010101018001100161013B84
:1021F30000140063017301720162014301000113C2
:102203000106013D01350004011201000100010036
:1022130001000104010401330133013C0144013293
:102223000136000001000165010001350081010054
:1022330001050182018301000166010001000136ED
:10224300000100060000000F000000000000000075
:10225300000000000003FFFF00000403FFFF000075
:10226300FFFF0FF4010005C4040320000100000B6D
:10227300000000000000000003010F0100AB180282
:1022830000151803001B1804002118050027180661
:102293000033181100511814005718150045181F62
:1022A300004B18FFFF000003EAF5E5D5D5C5B5A53A
:1022B300959585857575656555554545353525254B
:1022C3001515059510C5109B10A110BF10B310ADC7
:1022D30010CB10D110D710E310A7108F1089100A5C
:1022E300FB0D02C50D05D70D07CB0D0CA70D0DB9C1
:1022F3000DFF000000160F00000B150B0200022259
:102303000F3300000700000000000000008967454C
:102313002301EFCDAB01030507090B0D0F000204E9
:1023230006080A0C0D5A6967426565416C6C696160
:102333006E636530397F119111971159109D1153B7
:10234300105F10DF11FD110312E511F111EB110004
:102353003C40423A3F3F392F473066303017181917
:1023630021301B1D1F3033303016181920231A1C3F
:102373001E303200011916181616182303000C0E0E
:10238300020B040B0A0708000F00034D4C465118BB
:102393001A250502B910DD10F711E910EF10D3115A
:1023A300A311A911B511AF11020402010101010921
:1023B3000200000000000000BE040A3C00040015F7
:1023C30000E8030E0028003C00030A0C04FF1E1E55
:1023D300050C0508040409080F74F712038FE9FEBE
:1023E30012129FEE900D61F090030C74E3F0A3744E
:1023F3001FF090030E74DDF0A3741FF090031074AC
:10240300D7F0A3741FF090031274D1F0A3741FF0DC
:1024130002368274F712038FE9FE900302E4F0EEB2
:10242300900301F07C0D7D067A037B03121E33902B
:102433000DE8E090030BF0121FAD02368274F21226
:10244300038F8A088B09EB5480700302251B9003CA
:1024530001E0F912154B8A0A8B0BAE0AAF0BEE4F54
:102463007003022511124F6FE0F9124A19EAFCEBCF
:10247300FD90031A125F3CA3A3A3A3A3A3E06402EA
:10248300703B8C828D8312632680078A828B831232
:102493004A2AEA4B60208A828B83E06C7003A3E0B4
:1024A3006D70E88A828B83A3A3E06970DE900DECE4
:1024B3001237A8F08051ECFAEDFB121F8F8E828F3A
:1024C30083E064017035EE2413126BDF1206B8EE5D
:1024D3002412125F20F50A780A1208B61225CF12C9
:1024E30008B2EE240B126BDF1206BCEE241712594E
:1024F300D812125D74091208DF800CE064027007C1
:10250300EEFAEFFB121EC3EEFAEFFB121539AA081F
:10251300E5096480FB0225CCEA5402600B900D6050
:102523007401F0EA64028008EA54046007EA640470
:10253300FA0225CCEA54086009121FA7E5086408CB
:10254300807EEA5410607E750C00750D0090031AAE
:10255300124A2E750A00750B008010124F819003EA
:102563001A1244651215E7EEFAEFFBEA4B603BEAF9
:102573002403F582EB125F2314F0701A8A828B8393
:10258300125FFAE50A450B8A828B83A3A3A3A36098
:10259300CA122D5580CB126F568A0A8B0B8A828BF7
:1025A30083A3A3A3A3124C6280C0E50C450D700C5A
:1025B3007A107B00900301E0F91216A1E50864107C
:1025C300FAAB0980047A007B00023261EE240FF536
:1025D3000AEF3400F50B780A2274F412038F8A0889
:1025E3008B098A828B83125E421258C3E8125F23DF
:1025F3002409FA7B001215338A0A8B0BAE0AAF0B40
:10260300EE4F700302269B8E828F837402F0A3E445
:10261300124B5AA3A3A3A3E8F0A3E91247E6A3A38B
:10262300A3A3A3A3A3F0E5082403F8E509123EE05E
:102633001258C3EA126BE2122849A3F0EE240912DE
:10264300269E124422F5838882E0A2E58E828F8340
:10265300A3A3A3A3A3500474018001E4F0E5082419
:1026630003F888828983124A2E125CBCEB126BE258
:10267300124B7A1208AE1258C2EB1244C58E828FE7
:1026830083124A2C12150974031208DFEEFAEFFBCA
:10269300900301E0F9121F9B022FA9FAEF3400FB0C
:1026A3008E828F83A3A32274F212038F8A088B096D
:1026B300ECFAEDFB740E120B0CE0FC1212CF8A0C39
:1026C3008B0DAE0CAF0DEE4F6031AC08AD0912129D
:1026D300BDE96027AC08AD09EEFAEFFB1212C3E9BE
:1026E30070158E828F83122703EEFAEFFB1212B757
:1026F300AA08AB091212E77900800279B4023261A9
:10270300A3A3E0F508A3E0F5092274EE12038F7486
:10271300F71209408A0A8B0BECFEEDFF750FB375B8
:102723000E00750C00750D008003126F569023C0C8
:10273300E493F8740193F9C3E50C98E50D9940030C
:10274300022834AA0CAB0D1213238A088B09EA451D
:102753000960D78A828B83A3A3A3A3A3E0250EF5E5
:102763000EF510C3E50A9510E50B940050BC7C15DB
:102773007D007900EEFAEFFB1215158508828509B5
:1027830083A3A3A3A3A3E0F8E50AC3950E28C33349
:10279300F8E433F9E50828F582E50939F5831244AD
:1027A30053120E91EAFCEBFDEEFAEFFB121E33859A
:1027B3000882850983A3E06401700BEE24131228B9
:1027C300401237D48046851882851983AC82AD8345
:1027D300850882850983124A2C12130BE960387429
:1027E30008120B0CE0C0E0EE2413126BDFD0E0F014
:1027F3007408120B0CE06403851882851983700C2E
:10280300AC82AD83124F53121E33800B1238DB247C
:102813000B126BDF124465850882850983122849F0
:10282300124B1BC0E0EE2414126BDFD0E0F0750FE7
:1028330000A90F74091208DF7F0A0205A9F582EFC8
:10284300124F7974012212284D22E08E828F83A3C6
:10285300A3A32274F712038FE9FE8A828B83A3A3B7
:10286300A3A3A3A3E0540860298A828B83A3A3A311
:10287300A3A3A3E0540260178A828B83A3A3A3A319
:10288300A3A3A3A3A3E06406600574E96E70031217
:102893001FC502368274E812038F74F7120940745D
:1028A30007120B0C124828E9851882851983F0EC6E
:1028B300FEEDFF7423120B0CE0F517751500122AB9
:1028C300FE1212DB8A0A8B0BEA450B7003022AB84D
:1028D300EE2410125139A90A120CF38A128B13EA4F
:1028E30045137003022AB8EE2403F50CEF126F5E52
:1028F300EE2406F508EF1255DE7C00850882125996
:10290300061212E18A108B11850C82850D83E085F6
:102913001282851383A3A3A3123D0085128285131C
:1029230083A3A3A3A3E8F0A3E912318785128285C9
:102933001383A3A3A3A3A3A3A31251628512828526
:102943001383A3A3A3A3A3A3F0EE125CBDEF122BE7
:10295300131208AEEE1258C3EF1244C585128285D6
:102963001383A3124A2612150974031208DF751480
:10297300007421120B0C124F817421120B0C1244A0
:10298300657424120B0CE0F5167425120B0C780CED
:10299300120AC0022A42851082851183124A2C1220
:1029A3001311850882850983A3EAF0A3EB122B1F79
:1029B300A3A31247FC122D70A2E6500F850882854F
:1029C3000983A3A3A3A3A3E0D2E1F0E515705F8578
:1029D3000882850983A3124F8190035CE06870032A
:1029E300A3E0697049850882850983A3A3A31251D3
:1029F3004D780C1208AAE516F51078101208B67473
:102A030026120B0C1206BC9003691206BC790074E3
:102A130010120B0C1247DE121F6574091208DF85B2
:102A23000882850983A3A3A3A3A3E04405F074014B
:102A33002514FC122AFE1212E18A108B110514E5EB
:102A4300104511604B851408C3E508950AE4950BFE
:102A5300503EE51475F006A4F8A9F0E51228F8E550
:102A63001339F9E8240CF508E9123BA4E4125607DC
:102A7300640160030229997515018508828509831C
:102A83007401122B1F123F04A3E8F0A3E90229B03B
:102A9300AA12AB13120CF978121208B2AD16AC17C6
:102AA3007402120B0CE0F9EEFAEFFB121FCB740267
:102AB3001208DF80418E828F83A3A3A3E0C0E0745A
:102AC30004120B0CD0E0123187C0E07405120B0C1A
:102AD300D0E0F0E50A450B70097406120B0C74B9CB
:102AE30080077406120B0C7410F07401120B0CAAFD
:102AF30082AB83121F777409026AAE8E828F83A31F
:102B0300A3A3A3124C5B8E828F83A3A3A3E0F9221A
:102B1300124F79123594750E00780C2212560CA3BD
:102B23002274E912038F74F31209408A0A8B0B890A
:102B3300168C148D157424120B0C123590AA0CFBF1
:102B4300120CE7E9F513AA0CAB0D120CEDE51370AB
:102B530003022D37750E00800F8E828F83A3A3A3EC
:102B6300A3A3E0D2E3F0050EE50C1247F7E50D123F
:102B73002F4BE50EC3984003022D2EE5137003027D
:102B83002D2EE50E75F006A4F8A9F0E50C28F8E55E
:102B93000D39F9E8240CFEE9126910A3A3A3A3E0FD
:102BA300A2E040C2750F00750808750900E51560BD
:102BB30003750F207C087D007900851882851983B1
:102BC300AA82AB831215158E828F83E06033900344
:102BD300ACE064017017E50FD2E3F50F7509108EB1
:102BE300828F83122D4A1242EE74FF8024430F0C0E
:102BF30075080C8E828F83A3122D55126308A38050
:102C030010E5166009E50FD2E6F50F75080A122DD7
:102C130063F07402120B0CE50F12562CC0E074041F
:102C2300120B0CD0E0F07405120B0C1244A1121E0F
:102C3300BD740C120B0CE06003022D117408120B0F
:102C43000C123CFB8E828F83A3A3A3A3F074081200
:102C53000B0C125A86125E3CE9126BE2E514122D3C
:102C63007060119003ACE0C0E07408120B0C1235D5
:102C73009CD0E0F0850C82850D83A3A3A3E0C0E084
:102C83007408120B0C12593AD0E012481FC0E074BA
:102C930008120B0C1235A7D0E0F07408120B0C12BB
:102CA3002D55125E68125639E0125E4EEAF0A3EB20
:102CB300125622C0E0E8242EF582E9126BE2D0E03E
:102CC300F07408120B0C122E9B122D412424F58252
:102CD300EB125619125CBDE50B125F23F510A3E04E
:102CE300F51175120078101208AE1244BDEA242BB8
:102CF300F582EB126BE2124A2E12150974031208C5
:102D0300DF851882851983AA82AB83121EB78E8250
:102D13008F83A3A3A3A3A3E0D2E0F0740C120B0C44
:102D2300E06003022B5C1513022B697900AA0CAB3C
:102D33000D121FBF740D1208DF7F0F0205A9A3A395
:102D4300A3A3124F85EA22A3124F85851882851902
:102D53008322124F85850A82850B83A3A3A3A32213
:102D6300A3122D68221247C5E8F0A3E92212480FE7
:102D7300E02274F012038F74E9120940EAFEEBFFBC
:102D830089088E828F83A3A3A3A3A3A3A3A3E0F99C
:102D9300120D118A0C8B0DEA450D7003022E96E578
:102DA3000870157C048E828F83A3A3A3A3A3A3A37C
:102DB300A3E0F9120D17804F7C088E828F83A3A3A3
:102DC300A3A3A3A3A3A3E0F9120D178A0A8B0BEA0B
:102DD300450B6033E508F50978091208B6850C82BE
:102DE300850D83A3A3A3A3A3A3A3E0FD8A828B835F
:102DF300A3A3A3E0FC8A828B83A3122E9BE0F91288
:102E0300125774011208DF12690AEF124C7D700326
:102E1300022E9688828983124A2A7406120B0C1298
:102E23002EA5124A2E7408120B0C122EA5A3A3E092
:102E3300C0E07410120B0CD0E0F0850C82850D837A
:102E4300A3124A26740E120B0C1248287411120B8B
:102E53000CE4122D70FAA3E0CA241FF582EA126B68
:102E6300E2123EEEE0C413135403FC70027C0488A8
:102E7300828983E0F9780C1208B2742059FD7440FA
:102E830059F97402120B0CAA82AB83121FCB740282
:102E93001208DF7417023AF7124C5D850A82850B1C
:102EA3008322EAF0A3EB1242CCA3A32274F712030A
:102EB3008F74FA120940E9FE7F018F087D008004B8
:102EC3007508000D1247F6EB122F4BEDC3985025F2
:102ED300ED75F006A4F8A9F0EA28F8EB39F9E81241
:102EE3006161E9124F6950D8540C60D4E0A2E250FA
:102EF300D27F0080CE8A828B83A3A3A3A3A3A3E064
:102F0300703EE508A2E0400574016E70338A828B3F
:102F130083A3A3A3A3A3A37401125CFDE0C0E07485
:102F230003120B0CD0E0125CF5E0C0E07404120B4A
:102F33000CD0E0F07405120B0CEF1244A3121F77B0
:102F4300740602367FF582EF125354F822C082C012
:102F5300837901121FBF0237C274F412038FEA4B45
:102F6300602D9003A8E064027025900D60E4F08A60
:102F7300088B09F50AF50B78081208AA7A027B0078
:102F8300900301E0F912169574041208DF80129081
:102F93000D607401F07A027B00900301E0F91216D0
:102FA300A180031208DF7F040205A9C082C08390B9
:102FB3000DFAE075F005A4FCADF079007AFD7B0C09
:102FC3001215157B008012EB75F005A4F8A9F01219
:102FD300317C74FEF0A304F00B900DFAE0F8EBC320
:102FE3009840E40237C2C082C0837C007B00800328
:102FF3007C010B900DFAE0F8EBC3985049EB75F0A8
:1030030005A4F8AAF0EAF91231757003A3E0F4609D
:10301300E112316CE82403F8E912441224FFF0A30F
:10302300E034FF123F4EF9E84970C5EB75F005A493
:10303300F8EAF912316C8882898374FEF0A30412D2
:103043003167E4F080ACECA2E050179081F31206F4
:10305300B87A087B00900301E0F912169574041204
:1030630008DF0237C274F712038FEAFEEBFF900DFD
:10307300FAE0700302315EEE2411125F2070030246
:10308300315E8E828F83A3124A26120EF7E9640201
:10309300600F8E828F83A3A3A3A3A3E070030231E7
:1030A3005E7C008041EE1247F7EF124F7EEC75F025
:1030B30005A4FAABF074FD2AF582740C3BF583E0AA
:1030C300687003A3E069701DEE2412125F20FBEC0D
:1030D30075F005A4F8A9F074FF28F582740C39F58E
:1030E30083E06B607B0C900DFAE0F8ECC39840B57D
:1030F3007C0080010C900DFAE0F8ECC3985061EC71
:1031030075F005A4F8A9F01231757003A3E0F4700B
:10311300E312316CEE240B126BDF1246D5EAF0A3F7
:10312300EB12318788828983A3A3123167A3740CBE
:103133001251627A08FB900301E0F91216A7EA4BD9
:103143004C4D70179081F31206B87A087B009003F8
:1031530001E0F912169574041208DF790102368230
:10316300790080F9125D12A32274FD28F8740C39DA
:10317300F92212317CE064FE2274FD28F582740C7E
:1031830039F58322124A3BE02274F212038F8A0A32
:103193008B0BE9FE7A007B0090031A12270590033C
:1031A3001A124C8060210A850882850983A3A3A390
:1031B300A3124C806011EA24010AEB3400FB880857
:1031C3008909E8450970E0900DED124F81C3EA9833
:1031D300EB99400302325C7A067B001215E18A0CFC
:1031E3008B0DA80CA90DE849606F88828983E50AD5
:1031F300F0A3E50BF0EE88828983A3A3F0900DEC96
:10320300124174A3A31242C7E4F0A3F090031A126D
:103213004C55600C850882850983A3A3A3A380036F
:1032230090031A1244657A107B00900301E0F912AF
:1032330016A7EA4B4C4D7021900DEA122705E4F5D1
:103243000AF50B78081208AA7A107B00900301E0B4
:10325300F912169B74041208DF80031208DF7F063D
:103263000205A974F212038F74F3120940EAFEEB0C
:10327300FF8E828F83A3A3A3A3A3A3A3A3A3A3E0EC
:10328300F50A900D60E0700579BA0235837508017F
:10329300750900750C00750D007C087D00790085AB
:1032A3001882851983AA82AB831215157405120B34
:1032B3000C74011235B3540460127402120B0CE047
:1032C300D2E61235B354087003750803E054106056
:1032D3000674404508F508E0540860227402120B96
:1032E3000CE044C01235B35420600A7403120B0C73
:1032F300E0D2E080087403120B0CE0D2E1F08E827E
:103303008F83A3A3A3A3A3A3A3A3E07016120E9773
:103313008518828519831248287402120B0CE0D297
:10332300E28031640F70157402120B0CE0D2E312C9
:10333300480F1248194508F5080233CC8E828F8353
:10334300A3A3A3A3A3A3A3A3E064028E828F83708A
:1033530006122D64F08072A3A3A3A3A3A3A3A3E0E7
:1033630064037013851882851983AC82AD83EEFAEA
:10337300EFFB121F5F80528E828F83A3A3A3A3A3AD
:10338300A3A3A3E0640170419003ACE0601C74024A
:10339300120B0CE0D2E3124BC585188285198312F8
:1033A3004465750910750AFF80187402120B0CE04E
:1033B300440C125E8174FDF0A374FFF0740445089D
:1033C300F5088E828F83123590124F64503A74023F
:1033D300120B0CE0540C701B8E828F83124A2E1238
:1033E3001971E9700579BB0235837402120B0CE085
:1033F300D2E5F0124F6450107402120B0CE0540C1F
:1034030064047004E0D2E5F0EE2411125F20C0E002
:103413007404120B0CD0E01244A3121EBD740C12E0
:103423000B0CE0600302357C7408120B0C125A86F5
:10343300EE2418125F20C0E0125E3CE9126BE2D06A
:10344300E0F0EE2419125F20C0E07408120B0C1296
:103453005E451258CAE8126BE2D0E01242F36401EF
:1034630070119003ACE0C0E07408120B0C12359C91
:10347300D0E0F07408120B0C1238DB2417FAEF3487
:1034830000FB8A828B83E0FCE8241C1235881251EE
:10349300628E828F83A3A3A3A3A3A3A3A3A3E0C04A
:1034A300E0E82422F582E9126BE2D0E0F07408121E
:1034B3000B0C1235A7E50AF07408120B0C124159D4
:1034C3002424F582E91258D9A3E50D125951FCA31E
:1034D300E0FDE82426123588F0A3ED12397A126351
:1034E30026E82428F582E9125A99C0E0E8242FF54A
:1034F30082E9126BE2D0E0F0EE241B125F20C0E001
:103503007408120B0C125E5CD0E0F0EE241A125F0A
:1035130020C0E07408120B0C125E45242EF582E8DD
:10352300126BE2D0E0125E79124B6C1208AEEE24FD
:1035330011126BDF126326740B120B0C1242D3129F
:10354300150974031208DFEE2415125F205440603E
:103553001B900326124C806013851882851983AA59
:1035630082AB83900327123F0012050A85188285D8
:103573001983AA82AB83121EB7740C120B0CE0F9E9
:10358300740D02325EF582E9124F79EC2212359402
:1035930022E0F50CA3E0F50D22125E491255B7E8BF
:1035A300124F7922125E492423F582E8124F7922C1
:1035B300F0EE24151253512274F712038F7E638A9F
:1035C300828B83E0600C7905120BC7E9F87456C34C
:1035D30098FE900354E0600CF9120BC7E9F8EEC3B0
:1035E3009824F2FEEEF902368274F612038F74FE0B
:1035F300120940851882851983124828E9FEECFADE
:10360300EDFB740C120B0CE0FC90046F124C806009
:103613003285188285198385820885830978081283
:1036230008B27D01EEF990046F123EFD12050A7493
:10363300021208DF8B09EA450960047900800679E4
:10364300B2800279B6023BBD74F712038FE9FE74B0
:1036530009120B0CE0FF90030C124C80601AEFF57B
:103663000878081208B6EEF990030C123EFD120515
:103673000A74011208DF800279B680031208DF7F23
:10368300010205A974F212038F8A088B09ECFEED7F
:10369300FF750A0190035CE065087004A3E0650907
:1036A3007010120E91EAFCEBFDEEFAEFFB121E33E3
:1036B300802A120E9D8A0C8B0DE508650C7004E5BB
:1036C30009650D7009EEFAEFFB120EA3800EEEFCF6
:1036D300EFFDAA08AB09120C15E9F50AA90A023293
:1036E3006174F512038FEAFEEBFF8C088D09750AEE
:1036F30001120E91EAFCEBFDEEFAEFFB121E2DE92F
:103703006401700B90035C123F04124465800EAC9D
:1037130008AD09EEFAEFFB120C1BE9F50AA90A0240
:10372300483F74F612038FEAFEEBFF7A0C7B00121C
:1037330015E1EA4B6063EE242012379FF0EE24215B
:1037430012379FA3F0EE242212379FA3A3F0EE2497
:1037530023126BDF1237A8124A561237B11237C938
:103763002428126BDF1237B1A3A3E8F0A3E91251A7
:10377300548A828B83A3A3A3A3A3A3A3A3F0EE24BE
:103783002F125F20C0E01247F6EB126BE2D0E0127B
:10379300482E8A828B8312445C023BC2124F76E02E
:1037A3008A828B8322E08A828B83A3A3A322124F74
:1037B300858A828B83A3A3A3A322EAF0A3EBF0D091
:1037C30083D0820208771247BFEE221237D4A3E0D8
:1037D300221237D8221237DC22124B52A3A3221211
:1037E30047EEA3E02274F612038FECFEEDFF79B3EC
:1037F300900353E0702E900385E064017026EE126F
:103803006161EF1258EB120BAF8A088B09A808A964
:1038130009EE240F126BDF124465E8496004790056
:10382300800279A1023BC274F412038F74FE120961
:1038330040ECFEEDFFEE2416125F2064057011EEDE
:103843002406FCEF3400FD121F6BE970030238D429
:10385300851882851983AC82AD831260A81219770B
:10386300851882851983124C806062E875F009A47B
:10387300F8AAF075F009E9A42AF974D628F874F3C4
:1038830039F9E8FAE9FB8A828B837808120AC0EED9
:103893002412126BDF7808120A52402D8518828594
:1038A30019831238DB1255BDEF1255CB124A377804
:1038B30008120AC09081E778081209A98A828B83CB
:1038C3007808120AA27900800A79A2800679A18079
:1038D3000279C87402022FA6124F85EE2274F412E5
:1038E300038F74FF120940EAFEEBFF900353E0706D
:1038F30075900385E06401706D75083A7509007869
:10390300081208B27402120B0C85820885830978A9
:10391300081208B27C017D007A007B00120F9974B3
:10392300041208DFE9703CEE240E1228401247B05F
:10393300C0E0EE2411126BDFD0E012397A743A1230
:10394300516290032E120AE9EE2412126BDF120A5F
:10395300F59081E77808120AC090032E78081209BF
:10396300BC800312396E7401022FA61255BCEF12EC
:103973004F79E4F0A3F022F01255BC124F78227471
:10398300F012038F74F6120940ECFEEDFF7402127D
:103993000B0CAC82AD83121F6BE97003023A67858F
:1039A3001882851983AC82AD837402120B0CAA8230
:1039B300AB83121977851882851983124C807003A3
:1039C300023A67E875F009A4F8AAF075F009E9A4CA
:1039D3002AF974D228F874F339F988088909EE248E
:1039E3000E123A6C1247B0F8A3E0F9EE240F124B13
:1039F30043120AE9EE2412126BDF120AF59081E7F3
:103A0300780C120AC0850882850983780C1209BCD8
:103A13008508828509837808120AC09081A7780CEB
:103A2300120AC07808790C12031FE50C450D450EE8
:103A3300450F703085188285198312415975F00935
:103A4300A4F8AAF075F009E9A42AF974DA28F58232
:103A530074F339F5837401F07A007B10900532E03A
:103A6300F9121575740A023AF7F582EF124F79E4E9
:103A73002274F012038F8A088B09ECFEEDFF1239D2
:103A83006E908183780C120AC0EE2412123AE2126D
:103A930009566047123AEB7005121F35803FE070FC
:103AA30015121F2FE960368E828F83A3A3125F380E
:103AB3005403700C802764027013121F2FE9601DDA
:103AC300EEFCEFFDAA08AB091219838010E0640332
:103AD3007005121F2F800679A1800279A38018F543
:103AE30082EF124F79780C22EE240EF582EF1253F7
:103AF300546401221208DF7F080205A974F6120339
:103B03008FEAFEEBFF123B9E126326EC240F123B5F
:103B130095124807121F23850882850983124C7565
:103B2300704F123CAF7003A3E0696017120E978ABF
:103B3300088B09A808A9099005FFE0687003A3E0B2
:103B430069702E8E828F8312631C8E828F83124A3A
:103B53002E121989E960158E828F83A3A3A3A3A3D1
:103B6300A3A3125E421255BDE8123972123F2EE42E
:103B7300F0124C67701A123BAE124A2E121F29859F
:103B83000882850983124C757006126BDC74A1F0F0
:103B9300802DF582ED124F79E4F022EE240AF50828
:103BA300EF3400F509850882F58322EE240A123BDF
:103BB300B522123CA58882F5832274021208DF7FA6
:103BC300020205A974F612038FEAFEEBFFEE240A44
:103BD300123CA57A187B001215E1850882850983BA
:103BE300EAF0A3EB123D00E8497003023C9CEEFAB5
:103BF300EFFB121F17124C677003023C85123CED5A
:103C030064018E828F83A3A3A3A3A3A37007123C93
:103C1300DD740E8032124C807021123CAF7003A30E
:103C2300E0696017120E978A088B09A808A9099002
:103C330005FFE0687003A3E0697007123CD3740DBD
:103C43008005123CD374051244B754036401700712
:103C5300123CBC7405800B900354E0C0E0123CBCE2
:103C6300D0E0F0123B9E123CCAE0F9120BC7850864
:103C730082850983125E452417F582E8126BE2E917
:103C8300801C850882850983124A2E1215E7850850
:103C930082850983E4F0A38005126BDC7410F002C3
:103CA3003BC2F8EF3400F988088909228E828F839A
:103CB300124F859005FFE068228E828F83A3A3A312
:103CC300A3A3A3A3A3A3A3123CCE22123F25A32203
:103CD3008E828F83A3A3A3A3A3A3A3A3A3A3125EF1
:103CE300492416F582E8124F79228E828F83A3A38B
:103CF300A3A3A3A3A3A3A3A3123F40E022124A6258
:103D0300F8A3E0F92274F112038F8A0A8B0B8C0853
:103D13008D097A187B001215E18A0C8B0DAE0CAF5E
:103D23000DEE4F7003023DFE8E828F837401F0E52A
:103D330008240DF8E5091260B1C3E49AFA95E0FB93
:103D4300126166123E06FB8E828F83A3A3A3A31286
:103D530044168E828F83A3A3F0EEFAEFFB120B7946
:103D6300850882850983125CC270098E828F83A3C2
:103D730074058007900354126585A3F0EE2417F8A9
:103D8300EF3400F9880C890D8E828F83A3E0F9123A
:103D93000BC7E9850C82850D83F0EE2416F8EF340A
:103DA30000F9E508240EFAE5093400FB88828983CB
:103DB3001246E4E5082410FAE5093400FB850C8279
:103DC300850D83E0FC88828983E0F88A828B83E017
:103DD300C398C39C125AA7F0EEFCEFFDAA0AAB0BE3
:103DE300121F1DE9F508700AEEFAEFFB120B85E9C5
:103DF300F508EEFAEFFB1215E78003750810A90822
:103E0300026592124F79E02AFAA3E03B227901027C
:103E1300087774F412038FEAFEEBFF8E828F83A37D
:103E2300A3A3A3A3A3A3A31258FD126BE2125CC224
:103E3300702F123CED702A123F12E06405702212BB
:103E43003F12A3E0F8740168600A740668600574A1
:103E530005687007123F2E74028005123F2E74030B
:103E6300F0123BAE123EFDE4F0EE2408F8EF123EF2
:103E7300E0242DF582EA125F23C0E0123EE8A3A3FB
:103E8300D0E012536AFAA3E0CA242AF582EA125F49
:103E930023C0E0123EE8A3A3A3D0E0123F4EC81212
:103EA30047F7E8126BE2123F04123EEE124461122E
:103EB3000E918A0A8B0BAC0AAD0B850882850983A8
:103EC300E024061246DD121E33850882850983121B
:103ED3004A2E120B85126BDCE9F0022FA91244451E
:103EE300124C62CA22850882850983124C62F583CB
:103EF3008A8222EEFAEFFB90031EE0F8A3123F281A
:103F030022123F0822124BD0850882850983228E14
:103F1300828F83A3A3A3A3A3A3A3A31242DB123F72
:103F23002622E0F8A3E0F5838882228E828F83A382
:103F3300A3A3A3A3A3A3A3A3A3123F40221242F8C4
:103F4300C8240EF582E83400F5832212536EF8A3D9
:103F5300E022023E10C082C08390031C7411F0A3C0
:103F6300741FF090031E7405F0A3741FF0900320D8
:103F730074FFF0A3741EF0900322740BF0A3741F5C
:103F83000237C174F412038FEAFEEBFF123FDCF534
:103F930008120E978A0A8B0BA80AA90B8E828F83AD
:103FA300123EEEE0687003A3E069602AE508A2E52B
:103FB30050248E828F83A3E0FB90031C123EFD12DC
:103FC300050A8E828F83125E45240A124C7A70068C
:103FD300123FDCC2E5F0022FA98E828F83123CCE02
:103FE300A3E02274F412038FEA2408FCEB3400FDEF
:103FF3008C828D831241592420F582E9125F23FEBE
:1040030074035EF5091246CE126BE21238DB888226
:104013008983F0A3A882A983E5096009740265096D
:1040230060030240BE740C5EF508601774086508EF
:104033006011740465087013740265097005EEA2BB
:10404300E4402C124147242312417A740C65087012
:10405300181241392424124162FCA3E0CC2424F534
:1040630082EC126BE2A3124180740265097005EEC3
:10407300A2E440471241392426124162FFA3E0CF54
:104083002426126BDFA312418012413D24281241E2
:104093008F2428F582EC126BE2A3124180E50860BD
:1040A3001274086508600C740C6508600674046576
:1040B300087008124147242212417A1241471241E3
:1040C300267005EEA2E1500D124147242EF582EC35
:1040D3001241318010900302124134900302E00434
:1040E300F088828983A3A882A983EEA2E7503112C4
:1040F3004139242112418F12412660241241472461
:104103003012417AEEA2E150178A828B83A3A3A3D4
:10411300A3A3A3A3A3123EE32431F582EA12413100
:10412300022FA92421F582EC125354540322124F77
:1041330079124174F022EA2408FC8C828D83E0FF1B
:10414300A3E0CF228A828B83A3A3A3A3A3A3A3A3C6
:10415300E0FCA3E0CC2212415D22124BD0E82212F4
:104163004F76124174F0A3A882A9838C828D83E0D9
:1041730022E08882898322F582EC124F79124184EE
:1041830022E088828983F0A308A98322124F761242
:1041930041848C828D83E0FCA3E0CC22C082C08367
:1041A3008A828B83123FE0F8740358F98A828B83E7
:1041B300A3A37401F0E960057402697061740C587B
:1041C300FC601474086C600F74046C7013740269DF
:1041D3007005E8A2E4401D8A828B83A3A37402F0D6
:1041E300740C6C700A8A828B83A3A3E02402F0749C
:1041F30002697005E8A2E440258A828B83A3A3E0C9
:104203002404F0EC600F74086C600A740C6C600595
:1042130074046C70098A828B83A3A3E004F0E8A280
:10422300E750318A828B83A3A3E004125AA0F9A337
:10423300E0F5838982A3A3A3E0540360178A828BEA
:1042430083A3A3E004F0E8A2E150098A828B83A34D
:10425300A3E004F08A828B83A3A3E0040237C1C0E6
:1042630082C0838A828B83A3A3A3A3A3A3A3A3A3B1
:10427300A3124C80600C8A828B83A3A3124A26125A
:1042830015E70237C274F712038FEAFEEBFF8E8243
:104293008F83124F8188828983A3A3A3A3A3A3A39C
:1042A300A3E4F01242C7A3A3A3A3A3A3F0A3F0E83C
:1042B300125FC9E9123B98121EE7EEFAEFFB121EDA
:1042C300F3023682A31242CC22125D12A3A3A322CD
:1042D3001242DBFAA3E0FB221242DF221242F8C8A9
:1042E300242BF582E83400F583E0221247D5A3227C
:1042F300124714E022E0F8A3E022F508A3E034001B
:10430300F5092274F612038F74F41209401244293A
:10431300FCA3E0F5838C82A3E0FC7402120B0CEC8B
:1043230012536A24021247B57404120B0C1244652B
:10433300EC600A7402120B0CE064047017EA2402A6
:1043430012441024121246DD7406120B0C1244168A
:10435300241A8039E06401600AE064066005E064C1
:10436300057038EA2402F8EB123EE0125E3DEA12D1
:104373005F23C0E07403120B0CD0E012536A2413C2
:104383001246DD7406120B0C124416241B1247B599
:104393007408120B0CE8F0A3E9802A7406120B0CC4
:1043A300E4F0A312443624121246DD7408120B0CF7
:1043B300124422C8241AF582E8125F23C0E0740A6B
:1043C300120B0CD0E0F07406120B0C124C80602B15
:1043D3007406120B0C124A2E120C09E96401701BAD
:1043E300120E918A088B09AC08AD097406120B0CE6
:1043F300124A2E121E2DE96401700D85188285194B
:1044030083AA82AB83121F53740C023BBFF8EB12D7
:1044130044402212441A22EAF0A3EB12536E2212F2
:10442300441AF8A3E0228A828B83A3A3A3A3A3A3A2
:10443300122D68F0EA2402F8EB124440221244459C
:10444300E0223400F988828983221208DF0237C20E
:10445300A3A3A3A3A3A3124F8DA3A3A3A3A3A3A324
:10446300A3A31247BF22C082C08374FD1209401266
:104473004489C0E07402120B0CD0E01244A3121F53
:104483004D740302444D8A828B83A3A3A3A3A3A3E6
:104493001247BC8A828B83A3A3123CCEE022740111
:1044A300125E85AA82AB83221247BF90032E22128B
:1044B3004F7974011259ECA3E022E50A2410F58226
:1044C300E50B124F79E0FC7D0022C082C0831244C9
:1044D300E7600624FC60078008121ED58003121EC5
:1044E300CF0237C21244ED24FB228A828B83A3A31B
:1044F300123F25E022C082C083900DEFE0701E9032
:104503000617E070188A828B83A3A3A3A3A3E0708A
:104513000C12458C60651245816407605E8A828B4C
:1045230083A3A3A3A3A3A3A3A3E07046125F34644E
:1045330001603F1245816402603812458164036063
:10454300311245816404602A124581640560231297
:104553004581640A601C124581640B601512458114
:10456300640C600E124581640D60077904121DFD11
:104573008009900324123EFD12050A0237C28A8283
:104583008B83A3A3123F27E0221244ED6406227417
:10459300F612038F74FA120940EAFEEBFF7403125A
:1045A3000B0C1247007403120B0CAA82AB83121E6E
:1045B300DB125F1D60030246C98518828519837467
:1045C30032F07405120B0C1262F6C0E07401120B88
:1045D3000CD0E012471FC0E07402120B0CD0E012A3
:1045E300470DF8A3E0F9E849601CE82417F582E9D0
:1045F30012513CE82416F582E9125F232AF874016C
:10460300120B0CE028F0851882851983AA82AB83EC
:10461300120C698A088B09A808A909E849700302E2
:1046230046BC8E828F831246D5A3A3124706125E21
:104633003DE91244B2C0E0E82420F582E9126BE2BE
:10464300D0E012481FC0E0E82421F582E9126BE2B2
:10465300D0E012471AC0E0E8242AF582E9126BE29F
:10466300D0E0F07405120B0CE0FCFA1246CE125F98
:10467300232A1246DDE8242BF582E9126BE2124766
:1046830006242D12358812470DFAA3E0FBEA4B608E
:1046930016E8242BFAE91226A012414B2416F582C0
:1046A300EC126BE21246E48E828F83A3A3A3A3A32F
:1046B300A3A3A3E8F0A3E9800CEEFAEFFB121EE13B
:1046C300126BDC7410F07406023BBFE8240BF58216
:1046D300E922124C5D8882898322FAA3E03400FB2D
:1046E30022E0FC8A828B83E02CFCA3E03400FD8A69
:1046F300828B83ECF0A3EDF022A3A3A3A3EEF0A39C
:10470300EFF022EAF0A3EBF0E822124714A3A3E0B0
:1047130022124C8DA3A322124725E022124725A380
:10472300E022125AAFA32274F612038FEAFEEBFFC4
:10473300125F1D7043121EED8E828F83A3A3A3A36A
:10474300A3A3A3A3A3A3124C806006123EF61205F3
:104753000A125F1D700C124A22120C63126BDCE901
:104763008015EE2408123BB1124A2E1215E7850874
:1047730082850983E4F0A3F0EEFAEFFB121EE10257
:104783003BC274F612038FEAFEEBFF8C088D09120D
:104793001971E9700479018011AC08AD09EEFAEFE3
:1047A300FB900322123EFD12050A023BC2125E85F4
:1047B300E022F8A3E03400F9221247C5E8F0A3E9A8
:1047C300F0221242F8F9851882851983221247D5FF
:1047D300E022E8F0A3E91259F0A32212632AEEFAC9
:1047E300EFFB221237D4126589A322124A77A3A3BF
:1047F300A3A322EA240BF58222E08508828509839C
:10480300A3A3A322A312480F124C5D221248132222
:10481300F08E828F83221247BC740422125AABE0BB
:10482300228E828F83EAF0A3EBF022124832221207
:1048330059F0A3124BD022740D1208DF7F03020537
:10484300A9C082C083121EF990032474C9F0A37413
:104853001E0237C1C082C0839005FF0237BD74F7C3
:1048630012038FE9FE125CB5124C7D601A888289AF
:1048730083A3E054037010EEFB1246CE126BE212D8
:1048830048B4E0F9121251023682C082C083EAF8BA
:10489300EBF988828983A3A3A3A3A3E0FB8882897E
:1048A30083A3A3A3A31248B4A3E0F91212510237BE
:1048B300C2E0FA88828983A3A32274E812038F8A51
:1048C300088B098C148D15890B7418120B0CE0F5E9
:1048D30016A3E0F517741C120B0CE0F50A741D12F5
:1048E3000B0C780C120AC01258C2EB125F23242F50
:1048F300FA7B001215338A108B11AE10AF11EE4FF5
:104903007003024A148E828F837401F08508108528
:10491300091175120078101208AE7C177D00EE2481
:1049230018FAEF3400FB12150974031208DF85141B
:104933001085151178101208AE7C09124A1712154A
:104943000974031208DFEE240B126BDFE516F0A3E4
:10495300E517F0741A120B0C1255EBC0E0EE240F9E
:10496300126BDFD0E0125602C0E0EE2411126BDFAF
:10497300D0E0124A32C0E0EE2410126BDFD0E01216
:104983004A37E50A124A56E4F0A3F0EE2413123A2A
:10499300E2120AA2EE2417126BDFE50B1237E2F8DC
:1049A300A3E0F9EE240D126BDF124A5012631512C5
:1049B3005F236029EE2426124F5C242F124A4712EC
:1049C3006168122B131208AE1263131244C58A8254
:1049D3008B83124A2E12150974031208DFEE241971
:1049E300F582EF12412B601D900318124C80600C6E
:1049F300EEFAEFFB123F0012050A8015EEFAEFFB09
:104A0300121539800CEEFAEFFB900301E0F9121F47
:104A13009B026AB17D00EE2402FAEF3400FB228E82
:104A2300828F83A3A3A3A3A3A3A3A3124C5D2212E8
:104A33005D0EE022124A3B22F0EE2412F582EF349F
:104A430000F58322F8EF3400F98A828B831247BF83
:104A5300E50822F0EE2426124F7622124A62221231
:104A63004A6622124B52E022F50CA3E0F50D750EB7
:104A730000780C221237DCA3A3A32274F112038F54
:104A83008A088B097A207B001215338A0A8B0BAEB6
:104A93000AAF0BEE4F60748E828F837406124B70D5
:104AA3008E828F83A3A3A3A31237CE8E828F83120A
:104AB3004B1B124A6B1208AE7C107D001260A812C9
:104AC300150974031208DF850882850983A3A3A34C
:104AD300124B112416FAEF3400FB120C03850882E3
:104AE300850983A3A3A3A3A3A3A3A3A3A3E0C0E0D4
:104AF300EE241E126BDFD0E0124B2BC0E0EE241F1E
:104B0300126BDFD0E0124B38121F9B026592A3A3F6
:104B1300A3A3A312632AEE22A3A3A3A3A3124B244A
:104B2300221237D8A3A3E022F0E508240BF582E58F
:104B33000912535422F0EEFAEFFB900532E0F9220A
:104B4300124F76124B4A22E8F0A3E9124B5222F09D
:104B530085088285098322124B5E22124A66F8A3D6
:104B6300E0F98E828F83A3A322124B7F22124B5E26
:104B7300124B4AA3A3E022E0124B7F22F508A3E0E5
:104B8300F509750A0078082274F612038FEAFEEB22
:104B9300FF7A057B00121533EA4B60238A828B83ED
:104BA300740A124BC58A828B83A3A31247D08A82CD
:104BB3008B83A3A3A3A3F0900532E0F9121F9B02FA
:104BC3003BC2124BC922124813124BD0221242F895
:104BD300F922C082C083E9900D62F0900314741F20
:104BE300F0A3740BF09003167431F0A3740BF090E0
:104BF30003187443F0A3740B0237C174F712038FC5
:104C0300EAFEEBFF8908EE4F70031219FB900328AD
:104C1300124C8070089003288022124F8188828969
:104C230083A3A3A3A3A3A3A3A3A3124C55888289FD
:104C330083A3A3A3A3A3A3A3A3A370DEEEF0A3EF75
:104C4300124C85A3A3A3E4F0A3124C85E508F0025C
:104C53003682124C5DEA4B22A3A3124C62FB22E084
:104C6300FAA3E0228E828F83A3A3A3A3A3A3A3A368
:104C7300A3A3125E49240FF582E8124F7912415D16
:104C83004922124C8922124C8D22125AB3A3A3A398
:104C93002274F712038F900328800D8E828F83A3D3
:104CA300A3A3A3A3A3A3A3A3125FFEEE4F60348E1B
:104CB300828F83A3A3A3A3A3A3A3E06970DD8E8242
:104CC3008F83A3A3A3A3E06A7003A3E06B70CC8ECE
:104CD300828F83A3A3A3A3A3A3E06C70BEEEFAEF1A
:104CE300FB80047A007B0002368274F712038F90F4
:104CF3000328125FFE900328122D45687002EB69AA
:104D0300701BE0C82409F582E8124F7E9003281235
:104D13004465900328125FFE8024125FF1EE4F601A
:104D23001D8E828F83A3A3A3A3A3122D41687002B8
:104D3300EB6970E68A828B83A3A3A31244531215F3
:104D4300E7EEFAEFFB02368274F012038F74FA1265
:104D530009408A088B098A828B83A3A3A3A3A3A3F5
:104D6300A3A3E06037640160338A828B83124A2EE7
:104D7300120EF7E97026850882850983A3A3A3A3EE
:104D8300A3A3A3A3E0640370187404120B0CAC82F6
:104D9300AD83AA08AB09121F5FE970167902024FAF
:104DA3004E850882850983124F817404120B0C12FD
:104DB3004465126157125F2324321246DD1215E156
:104DC3008A0A8B0BAE0AAF0BEE4F7003024F4C7C7B
:104DD300327D0079001215157402120B0CAA82ABF6
:104DE30083850882850983A3A3A3A3A3A3A3A3A362
:104DF300E0F91212997402120B0CE0C0E0EE242DBC
:104E0300126BDFD0E0F0EE242CF50AEF3400F50B43
:104E13007403120B0CE0850A82850B83F07901EE93
:104E2300FAEFFB121F4185080C85090D750E0078FA
:104E33000C1208AE7C1C7D00124F5312150974032B
:104E43001208DFEE2430124F5C2432124A47241139
:104E5300F8E5091253418C828D831238DB242E121C
:104E63006BDF124A501258CAE509126BE2126BE665
:104E73001208AE8C828D831263268A828B83124A38
:104E83002E12150974031208DF7404120B0C124F4F
:104E930089124461900302124F95F0900302E004DB
:104EA300F01216B3124FA9242A1258CF750D00859C
:104EB3000A82850B83E0780C120A1B8A828B83E5B6
:104EC3000CF0124F6FE50C125E81E4F01255B5E55C
:104ED30009124F6974015007120B0C7401800412FC
:104EE3000B0CE4F0EE2427123CA585188285198368
:104EF300AA82AB83121281E924FE85088285098385
:104F0300F0EE242E12533F124F9D120246E88E827A
:104F13008F83A3A3A3A3A3A3A3A3F0124F9D120262
:104F2300468B09EA4509600F8E828F83A3A3A3A34F
:104F3300A3A3A3A3E004F0EE2420125F20440812ED
:104F430059461215757900800279107406023AF7F2
:104F5300EE240BFAEF3400FB22126AB6FAE9FBEEF9
:104F630022EE1255B7EF125354A2E022EE24291277
:104F73004F7622F582EF3400F58322124F79124FD8
:104F83008522124BD022124F8D22124BD08E828F4C
:104F9300832212284DA3A3A3A3228C828D83123FC5
:104FA30008E0FA7B00228E828F83EAF0A3EBF0EE17
:104FB3002274F412038FEAFEEBFF1216B312482495
:104FC300900DE4E0F8EE242B125F20C39840030217
:104FD30051211251457012EE242B125F20041251FD
:104FE30054C0E0124F6FD0E0F0EE2428125F20FC93
:104FF3007900800109EE242C122F48E9C39850262A
:10500300750801750900E97808120A1B1251455504
:105013000860E1E92CFC750801750900E9780812BC
:105023000A1BE04508F0EE2427125139EE242EF531
:1050330082EF12358B8A088AF0A4F8ABF0E42BF9DF
:10504300E098F8A3E099F9C3E89508E99400EE40E5
:10505300392427122F481251456035EE242D126B47
:10506300DF12514DA3E4F0EC7052EE2420125F20C6
:1050730044201242F3C0E0EE2426126BDFD0E0F0AE
:10508300EE2430125139A3E08056124F7074FFF0B2
:1050930090034CE0FA900DE7E0F508EA8508F0A4E8
:1050A300ABF075F064A4FAADF075F064EBA42DFBDE
:1050B3008E828F83A3A3EAF0A3EB80AAEE242012AF
:1050C3005F2054DF124A56ECF08C08EE2427F58259
:1050D300EF1255E3FAABF0EE2430F582EF123E0601
:1050E300FBEE241E126BDFEAF0A3EB12515CC0E06F
:1050F300EE2425126BDFD0E0F0EE241C126BDFE808
:1051030012516290032A124C80600BECF9123F009B
:1051130012050AE9701D124F53121F8980157BE98E
:10512300EE2422F582EF125358121251EEFAEFFBDE
:1051330012153F022FA9F582EF1251402212593462
:10514300FA22EE2429125351F422126589A3A3F003
:1051530022F0EE242A12535122124C89A3E022F0AA
:10516300A3E4F02274F412038F900328125FFE125B
:1051730016B38A0A8B0B78FF79FF8020E0C39AFC71
:10518300A3E09BFDC3EC98ED99500E8E828F83A311
:10519300A3E0C39AF8A3E09BF9125FF1EE4F605CC2
:1051A3008E828F83124A2EE50AC39AFAE50B9BFB84
:1051B3008E828F83126324C3EA9CEB9D8E828F833E
:1051C300A3A340B8A3A3A3A3E06402701A1258E0F8
:1051D300600CEE2410126BDF124A2E121539EEFA10
:1051E300EFFB12153F8007EEFAEFFB120B257A0156
:1051F3007B00900D62E0F9121575802974FF6870C9
:105203000374FF69601F88088909E4F50AF50B78C0
:10521300081208AA7A017B00900D62E0F912169534
:1052230074041208DF022FA974F012038F8A088B0B
:1052330009ECFAEDFB890A7C011261571258EB1253
:105243001F3B8A0C8B0DAE0CAF0DEE4F7003025358
:1052530033E50A6003025333E5081258CAE509121D
:105263006BE2125348686003025333EE242C12514D
:1052730039E82AF8E43400F98E828F83A3A3A3A329
:10528300A3A3A3A3E0FAE89AE99400C365D033404B
:105293001D1255C21258E670157B00125336125375
:1052A30058121251EEFAEFFB12153F025333125507
:1052B300C21258E6703CEE2429124F5C242C125380
:1052C3003F7508FF7509008C828D83E07808120A08
:1052D3001B8A828B83E508F0EE242A126BDFE50834
:1052E300F08C828D8312534828F0EE242B123A6CF3
:1052F300801FE5082414F8E5093400F9E0C0E0EE66
:10530300242A126BDFD0E012536AC0E0124F6FD031
:10531300E0F01216B3124FA9242DF582EF12658225
:10532300A3A31251627A01FB900D62E0F912157585
:10533300023AFAE5082412F582E50922F8EF126A27
:10534300B8FCE9FD22E0F8EE242812535122F5823D
:10535300EF12593422125140EE241412536222F5F3
:1053630082EF125934F92212536E22F08882898314
:10537300E02274E912038F74FE1209408A0A8B0B30
:105383008C128D138916741B120B0C780C120AC025
:105393008A828B83A3A3E0F91212758A108B11EA18
:1053A300451170077A007B000255B07A127B001218
:1053B30015E18A088B09AE08AF09EE4F7003025559
:1053C300AC7C127D0079001215158518828519832E
:1053D300AA82AB83850A82850B83A3A3E0F9121209
:1053E30099EE240FF508EF1255DE7401120B0CE051
:1053F300850882850983F07902EEFAEFFB121F41DB
:105403008512828513831255FAE8F0A3E912562216
:105413008E828F83A3A3A3A3A3A3A3F07514FF7505
:105423001500850882850983E07814120A1B126B24
:10543300DCE514125607F8124587C0E0EE240B1280
:105443006BDFD0E012562CF508EE240D126BDFE56E
:1054530008F01258C8E50B1255E32426FAE5F03498
:1054630000FB1215338A088B09EE2410126BDF122E
:105473004828EA450970030255A18A828B83741A6E
:105483001251628A828B83A3A3F0A312563F124F59
:10549300818A828B83124461AC12AD13EA2406FA2B
:1054A300EB3400FB121293850A82850B83A3A3A31B
:1054B300E0C0E0E5081255BDE509126BE2D0E0F06B
:1054C3009003691255F424101256151255B7E50BC3
:1054D300126BE21255F42424F582E5091255CB121E
:1054E3005639A3A31255F4125338126BE2124465D2
:1054F300850A82850B83A3A3E0C0E01255C2126B19
:10550300E2D0E0F0E50A125FC9E50B125F23C0E0C9
:105513001255B5E509126BE2D0E0F07419120B0CC9
:105523001255EBC0E0E5082416F582E509126BE29B
:10553300D0E0124A32C0E0E5082417F582E50912EB
:105543006BE2D0E0125602C0E0E5082418F582E5CC
:1055530009126BE2D0E0F0E5082419F582E509129F
:105563006BE2E516F0E508241AF582E509123AE53F
:10557300120AA2E5082426F8E5093400F9E508240F
:1055830022125615125E3DE50B125F23C0E0E508BB
:10559300241FF582E509126BE2D0E0F0800BEEFAEE
:1055A300EFFB12153F7E007F00EEFAEFFB74020261
:1055B3002D39E5082415F58222EE240FF58222E524
:1055C300082414F582E50922124F79E8F0A3E922B1
:1055D300850F0CE508250CF508E5093400F50922CB
:1055E3001253548508F0A422124F8588828983E0E0
:1055F30022124F85E50822124F8DA3A3A3A32212E3
:105603003167E02212560CE022F085108285118367
:10561300A322F582E509124F791247BFE50A22F06A
:1056230012615FE50B12535422F0E50A2410F58250
:10563300E50B1253542212563FA3A322F0850A828C
:10564300850B83A3A3A3A3A3A32274E812038F8AC6
:105653000A8B0B8C108D1189147418120B0CE0F546
:1056630016A3E0F517741A120B0C780C120AC07506
:105673000900EA1258CAEB125F23F50890032A12B5
:105683004C806011A90890032A123EFD12050AE915
:1056930060030258BF7C02851082851183124A2E53
:1056A30012615FE50B1258EB121F3B8A128B13AE8C
:1056B30012AF13EE4F704E850A82850B83A3E0A2CF
:1056C300E040030258BF780C1208AA78161208B2F9
:1056D300A914AC10AD11AA0AAB0B120B3774061246
:1056E30008DF8A0C8B0DAE0CAF0DEE4F7003025822
:1056F300BF8E828F83A3A3A3A3A3A3A3A3E50812AF
:10570300594612157585080C8E828F83A3A3A3A314
:10571300A3A3A3A3E024FFF8E434FFF9E8650C7026
:1057230001E970037509011258E0700302586D8591
:105733000A82850B83A3E0A2E05003750800125987
:1057430014E50C98E499C365D033401EE0F8EE24C9
:105753000E125F2028F0750CFF750D00E8780C120F
:105763000A1BEE125FC9EF1258D9E50A125CBDE5B8
:105773000B122B131208AE1244BD85080CEE240D38
:10578300125F20850CF0A4FAABF0EE2410126BDF4D
:1057930012593A123E09FB12150974031208DF75F8
:1057A3000C011258EF780C120A1B125F1D450CF006
:1057B300E509A2E05063EE240C1258CF1258EF040F
:1057C300780C120A1B8A828B83E0450C125951858F
:1057D300080C850CF0A4F8E50A1258C3E50B125F18
:1057E30023FCE82CFCE5F03400FDEE2410126BDF03
:1057F3001258FD125A99F47020EE240BF50CEF1297
:105803006F5EEE1258C3EF3400125906121F9B85C8
:105813000C82850D8374FF80501216B312482490B6
:10582300034CE0FA900DE7E0F50CEA850CF0A4FADE
:10583300ABF0F8EBF9900DE4E0F50CE8850CF0A47F
:10584300F8ACF0850CF0E9A42CF9EA28F8EB39F967
:10585300E875F064A4F8AAF075F064E9A42AF98E57
:10586300828F83A3A3E8F0A3E9F0125914125FE82F
:10587300E8650C7001E9600EEE240C1258E3600633
:10588300E509A2E05036EE240E125F20C0E0125864
:10589300C8E50B126BE2D0E0F0125F1DC0E0E50A31
:1058A3002414F582E50B126BE2D0E0F0AC0AAD0BE9
:1058B300851082851183124A2E120B61026AB1EAA6
:1058C3002410F58222E50A2413F58222126AB6FA1D
:1058D300E9FB750CFF22124F79E50CF022EE240B45
:1058E300F582EF125354F42212536522750D001200
:1058F300592AF5F0E50884E5F022125E492420F5E3
:1059030082E822F583124C5D850C82850D83E0F9D4
:105913002285080CEE240E125351F812592AFAE884
:105923002AF8E43400F922EE240FF582EF125934F9
:10593300223400F583E022125E492422F582E81224
:105943004F7922F07A017B00900D62E0F922F0EEAC
:10595300240D12535122C082C083900D62E0F912CC
:105963001F9B0237C274F412038F8A088B09EB540E
:1059730080703EEAA2E05056120B2BE5086401FA50
:10598300AB09804E8E828F83E06401701DEE241379
:10599300126BDF1206B81225CF1208B2EE241212D0
:1059A30059D8120B3D74061208DFEEFAEFFB1215FD
:1059B30039900D62E0F912154B8A0A8B0BAE0AAFD0
:1059C3000BEE4F70BFAA08E5096480FB80047A00E0
:1059D3007B00022FA9125362EE2402FCEF3400FD78
:1059E300EE2418FAEF3400FB221259F02212481366
:1059F300A322C082C08390032C80048C828D8312E7
:105A03005A3760298C828D83A3A3E069600574FFF4
:105A13006970E88C828D83A3A3A3E06A7003A3E07B
:105A23006B70D8EC2403FAED3400FB80047A007B1E
:105A3300000237C212632AEC4D2274F712038FE976
:105A4300FC74FE6C70047D0180027D0090032C8049
:105A5300096C70027D0188828983124C80601F88E3
:105A6300828983A3A3A3E06A7003A3E06B70E7EDCD
:105A7300A2E088828983A3A3E050D6F9800279FE4D
:105A830002368212415D1255BDE93400F583E50803
:105A9300F0A3E509F022124F79ECF0A3EDF08A822E
:105AA3008B83E022125AAB22125AAF22125AB3222C
:105AB300124813A3A3A32274F612038F8C828D833F
:105AC300A3A3125CE7F0EA2417F582EB125F23C06D
:105AD300E0EC1258C3ED126BE2D0E0F0EA241DF5BE
:105AE30082EB124F7EEC12690BED126BE2125CE754
:105AF300A3F0A3F0EA241FF582EB126BE2125FFE20
:105B0300EC1255B7ED126BE2124700125CB5126B43
:105B1300E2125CC8A3A3A3A3A3A31246FC888289B1
:105B230083E0FE8C828D83125D0674035EFEC39454
