:020000040000FA
:10000000020D9E022003FFFFFFFFFF02200BFFFFF8
:10001000FFFFFF020523FFFFFFFFFF02201BFFFF83
:10002000FFFFFF022023FFFFFFFFFF02202BFFFF48
:10003000FFFFFF022033FFFFFFFFFF020577FFFFF7
:10004000FFFFFF022043FFFFFFFFFF02204BFFFFE8
:10005000FFFFFF022053FFFFFFFFFF02205BFFFFB8
:10006000FFFFFF022063FFFFFFFFFF02206BFFFF88
:10007000FFFFFF022073FFFFFFFFFF02207BFFFF58
:10008000FFFFFF022083FFFFFFFFFF02208B002006
:10009000000090200000932000000100000000C834
:1000A0000300380000000000260000000000FFFFF1
:1000B000FFFF0000040074F8120B1B780079008029
:1000C0001A74922EF58274031201F4900412120134
:1000D000FE4005900412E4F01201EB900412E0FEE1
:1000E000A3E06E6007C3E89CE99D40D5806D74F87D
:1000F000120B1B120153C398120153FEE8500B124E
:1001000002CB700B7800790080141202E050F57A6F
:10011000007B00803CE004F0439A041201EBC3E84A
:100120009CE99D50288A828B83E0C0E0900497E090
:10013000FE74162E120308D0E01202BC900498E45C
:10014000F0900497E0C3947F40CBE480CAE8FAE9DA
:10015000FB800C900496E0F8A3E022E8FAE9FB7F2C
:1001600001020C8074F8120B1B7800790090051BBB
:10017000E0705AA3E0705675F900C28FC284A28362
:1001800040FCA28F4004A28350F8E5F9C28FA283FD
:100190005004D2848037C0E0E0FE749B2EF5827458
:1001A0000412030CD0E0F090051C1202F440D3E4DA
:1001B000F080CF749B2EF58274041201F490051B1D
:1001C0001201FE400590051BE4F01201EB90051BA7
:1001D000E0FEA3E06E6007C3E89CE99D40D5E849D6
:1001E0007006E4F090051BF002015BE8240108E9C9
:1001F0003400F92212030CE08A828B83F022E0049F
:100200001202C0C394802274F8120B1B90059D1239
:100210000156C39890059D120156FEE85007120240
:10022000CB700B80051202E04004EC4D70077A00A1
:100230007B000202B98A828B83E0F5F9A3AA82AB24
:1002400083780179008006E004F01201EBC3E89C9A
:10025000E99D50278A828B83E0C0E090059EE0FEF6
:10026000741D2EF582740512030CD0E01202BC90AE
:10027000059EE0C3947F40CFE480CEC28FA283402E
:10028000FCC284A28F4004A28350F890059D120204
:10029000FBE0F5F9C28F90059DE0FAA3E06A9005B6
:1002A0009D70051202FB80051202F44002E4F0A2E8
:1002B0008350D0D284E8FAE9FB02015F1202C02227
:1002C000F08A828B83A3AA82AB8322C39EF895E037
:1002D000F91202D522E824FF18E934FFF9E849228F
:1002E000C39EF895E0F9E8247FF8E93400F9C3E803
:1002F0009CE99D22E004F0C3948022E0FA741D2A58
:10030000F582740512030C22F58274043400F5831F
:100310002274FF120D2D1203FA1206D8E97003029F
:1003200003D77E00900390E06401700DC2849003B7
:10033000917401F09005B38005D2AF9005B77808AD
:10034000120D8F7C017D00851882851983AA82ABEE
:10035000831204DF8B0DEA450D6012E064F8602C17
:10036000E0640770089005BB7808120D8F85080CB3
:1003700085090D850A0E850B0F9005BF7808120DB3
:100380006BE50C450D450E450F70B80E900390E0DF
:1003900064017009D284900391E4F08002C2AFEE50
:1003A000A2E05033900390E06401700C75F800C235
:1003B000AB539AF7D2EA800C758600C2AAC28B535F
:1003C0009AFBC2E990000174CDF0022000C2AF7523
:1003D000C9AB75C95B80FE1204A4C2AF75C9AB7509
:1003E000C95B80FE781075B60FE5B4A2E750FAE558
:1003F000BBC39940F118E870ED22C082C083A2927D
:1004000050047A0080027A8053BEFBE59DA2E6503C
:10041000FA0078F87901001202D570FA8AC6E59ED2
:100420006A70FB43BE049062707408F0794A12034C
:10043000E490000174F5F07403F5D575D488A2A09A
:10044000E433900390F0A2E05029D28453F3F753A1
:10045000F3EF53FDF743FD10538FF753F7DF43FCE2
:100460002043F10253F5DF75F82043F4F0D2FED2B9
:10047000AB802C53FF3F85FFFF53F1FE43F30C533A
:10048000F2F375868075C480900499E4F0A3F0754A
:10049000C2D875C50B75C402438640D2AAD2E9D032
:1004A00083D0822274F5120B1B794E1203E4900361
:1004B00090E07002D2AF1205C8E960FAE0701B90BC
:1004C00005C37808120D8F009005BF7808120D6BD8
:1004D000E5084509450A450B70ED7F04020C80C014
:1004E00082C083900390E070051200B6801E9003D6
:1004F00091E06015A28F500DE5F98A828B83F07A26
:10050000017B0080077A0080F81201648091C0822C
:10051000C083900390E070051200EE800312020782
:1005200002049FC0E074F2120B81900001E064CDE0
:100530007005122013803BE064F57035E5C1C0E022
:10054000900413E0F8749228F582740312030CD01F
:10055000E0F0900412120156687006E595900415BB
:10056000F09004131202F44002E4F0A374C6F08089
:1005700001007F01020BE0C0E074F1120B819000DA
:1005800001E064CD700512203B8038E064F57032E4
:10059000120153687009539AFBA37401F08024C2BE
:1005A000E9900496E0F50874012508F07416250812
:1005B000120308E0F5C1900496E0C394804004E47F
:1005C00080DA007F02020BE074F7120B1B74FF123B
:1005D0000D2D7E008033900384E0F8851882851904
:1005E00083E068700D900382E0644D700512081B73
:1005F000E9FE900385E4F0900387F0851882851961
:1006000083E0F8900384E068F07C017D0085188227
:10061000851983AA82AB831204DF8B09EA4509702E
:10062000030206CCE0C0E0900387E0F8900385E089
:10063000FAE82AF8E434001209D3D0E0F0900387F6
:10064000E0601114602014603E14604E1460641465
:10065000608480A7851882851983E064FE709C9071
:10066000038774018094900384E4F08518828519CF
:1006700083E0900386F0C394809003874004E402F3
:1006800005FA74020205FA851882851983E0900341
:1006900082F090038774030205FA85188285198316
:1006A000E0900383F0900386E06019900387740460
:1006B0000205FA900385E004F0F8900386E0686094
:1006C000030205FB90038774050205FAEEF9740135
:1006D000120CFA7F02020C8074ED120B1B74FB12D9
:1006E0000D2D7508047509007808120D7E7402122C
:1006F0000DC91209C0120CFA851882E0F47003A328
:10070000E0F4600F851882851983E0F8A3E0F9E82A
:1007100049700302080F7402120DC9E0687003A348
:10072000E06970030207E975080090059F781012D0
:100730000D8F800A9005A37810120D43604A750A48
:1007400001750B00780A120D7E7406120DC9AC8279
:10075000AD8385100A85110BAA0AE50B5407FB8AA5
:100760000C85110D85120E85130F740B780C120D6C
:1007700014A90C1209CA120CFAE0F9AA08AB091262
:1007800009DF8A088B0980089005A77810120D8F61
:100790009005AB7810120D6B9005AF7810120CC05D
:1007A0005092E4F91209DFE4F91209DF7402120D24
:1007B000C9EAF0A3EBF07508017509007808120D7D
:1007C0007E7402120DC9AC82AD837A247B08120AB2
:1007D000A07402120CFA7508047808120D7E7402D7
:1007E000120DC91209C0120CFA1209B2120DC9E099
:1007F000687003A3E0697017851882851983E0F497
:100800007003A3E0F46008E849600479018002798C
:10081000007405120CFA7F0C020C8074F3120B1B8F
:1008200074FC120D2D900306E0FAA3E0F9EA24000F
:10083000F8F508E93408F509750A017F007E009093
:100840000383E014600C1460401470030208E20299
:10085000095FE5095401F9E8497011880C85090D13
:100860007409780C120DADA90C120B04750C108EC6
:100870000D780C120D7E7C087D03AA08AB09120AC4
:10088000A07402120CFA02095F880C85090D740924
:10089000780C120DADE50CC3947940040F02095F8A
:1008A000750A408E0B780A120D7E7C097D03EAF5ED
:1008B0000AE5095401F50B7402780A120D58AA0AC8
:1008C000AB0B74097808120DADA9081209CA120CF5
:1008D000FA900307E0A3F0900306E0A3F0750A4343
:1008E000807D7508048E097808120D7E7402120D41
:1008F000C91209C0120CFA7402120DC9E0F8A3E083
:10090000F9851882851983E0687003A3E069603B6C
:100910001209B2120DC9E8F0A3E9F07508017808D0
:10092000120D7E7402120DC9AC82AD837A247B084D
:10093000120AA07402120CFA7508047808120D7ECF
:100940007402120DC91209C0120CFA1209B2120D6A
:10095000C9E0687003A3E06970030E80027F07900E
:100960000305E0D2E7F0EFA3F0E50A900303F0748B
:100970004D650AF5087404250AFB7A0380071209FD
:10098000D0E062080AEAC39BA2D265D033EAF840FD
:10099000ED1209D0E508F074012AFC3395E0FD7AE8
:1009A000027B0312050EEEF97404120CFA7F0602A4
:1009B0000C80851882851983E0F8A3E0F97402227F
:1009C000AC82AD837A907B007904120A1B740222F8
:1009D0003395E0F9740228F582740339F58322C057
:1009E00008C0097C088A088B09740F7808120DADBD
:1009F000EAC333FAEB33FBE9A2E7500474014AFA85
:100A0000E508A2E0500874216AFA74106BFBE9C390
:100A100033F91CEC70CFD009D0082274F5120B1BEF
:100A20008908740B120DC9E0FEA3E0FF740F55088E
:100A3000F50A750B00740B780A120D58EA2400F8B9
:100A4000EB3480F9E82400E9350BF9E5C7F509A294
:100A5000AFE433F50AC2AFE508C4540FFAE5C75452
:100A6000F84AF5C7801C88828983E08C828D83F0E8
:100A700088828983A3A882A9838C828D83A3AC8278
:100A8000AD83EEFAEFFBEA24FF1EEB34FFFFEA4BE7
:100A900070D48509C7E50AA2E092AF7F04020C80FA
:100AA00074F7120B1B7409120DC9E0F508A3E0F5E9
:100AB00009ED900388F0ECA3F0A37462F0A37473C3
:100AC000F0A3E0541FF0E508333354FCA3F07406A0
:100AD0007808120DADE50890038CF090038E741227
:100AE000F0A37442F075D1FE75D601EA906271F000
:100AF000EBA3F0906270E0D2E1F0E0A2E740FB7F70
:100B000002020C80C082C083E9C333906272F0900D
:100B10006270E0D2E0F0D083D082222518C582C076
:100B2000E0E51934FFC583C0E0E518C3958224F9D8
:100B300010AF0885831985821880088583198582FE
:100B400018D2AFCEF0A3E520F0A37808E608F0A312
:100B5000DEFAEFF0A3E58124FBF8E608F0A3E6084F
:100B6000F0A30808E608F0A3E608F0A315811581B4
:100B7000D0E0FED0E0F815811581E8C0E0EEC0E0DD
:100B800022C0D02518C582C0E0E51934FFC583C056
:100B9000E0E518C3958224F310AF08858319858298
:100BA000188008858319858218D2AFC8F0A3E9F0B0
:100BB000A3EAF0A3EBF0A37908E709F0A3D8FAECD5
:100BC000F0A3EDF0A3EEF0A3EFF0A3D0E0F0A3D0FC
:100BD000E0F0A3D0E0F0A3E520F0A3E5F0F0A3223D
:100BE000851983851882E0C0E0A3E0F9A3E0FAA3A9
:100BF000E0FBA37808E0F608A3DFFAE0FCA3E0FD41
:100C0000A3E0FEA3E0FFA3E0C0E0A3E0C0E0A3E018
:100C1000F5D0A3E0F520A3E0A3F5F010AF0885839D
:100C2000198582188008858319858218D2AFD082F1
:100C3000D083D0E0F8D0E032120DD8B90003020C16
:100C40007AE4900302789E79038002F0A3D8FCD95D
:100C5000FA90059FAA82AB8390008E782979018053
:100C600015E493A3AC82AD838A828B83F0A3AA821E
:100C7000AB838C828D83D8E9D9E7120311120DD38F
:100C8000851983851882E0A3FEE0A3F5207808E0AB
:100C9000A3F608DFFAE0A3FFE0A3C0E0E0A3C0E012
:100CA000E0A3C0E0E0A3C0E010AF08858218858310
:100CB000198008858218858319D2AFD083D082220B
:100CC000C008C3E096F50808A3E096420808A3E030
:100CD00096420808A3E09645087001D3D008222563
:100CE00018F58210AF08F518400215198008F5189C
:100CF00040021519D2AF85198322C0D0251810AF34
:100D000008F518500205198008F51850020519D287
:100D1000AFD0D0226016080808C6C313C618C61381
:100D2000C618C613C618C613C6D5E0EA2225181081
:100D3000AF08F518400215198008F518400215197A
:100D4000D2AF22E066701008A3E066700A08A3E044
:100D500066700408A3E06622700422600D18C6C302
:100D600033C608C633C6D5E0F41822E026F608A339
:100D7000E036F608A3E036F608A3E036F622740261
:100D80008000C0E0F404120CDFD0E0120DBC22E0C1
:100D9000F608A3E0F608A3E0F608A3E0F62275D073
:100DA00000758140751802751903020C38600C0833
:100DB000C6C313C618C613C6D5E0F422CAC0E0E6FF
:100DC000F0A308DAFAD0E0FA222518F582E4351902
:100DD000F5832200000080FB790122FFFFFFFFFF67
:100DE000FFFFFFFFFFFFFFFFFFFFFFFFFFFFFFFF13
:100DF000FFFFFFFFFFFFFFFFFFFFFFFFFFFFFFFF03
:100E0000FFFFFFFFFFFFFFFFFFFFFFFFFFFFFFFFF2
:100E1000FFFFFFFFFFFFFFFFFFFFFFFFFFFFFFFFE2
:10200000022AA30221E9FFFFFFFFFFFFFFFFFFFFFF
:10201000FFFFFFFFFFFFFFFFFFFFFFFFFFFFFFFFD0
:10202000FFFFFFFFFFFFFFFFFFFFFF0227AAFFFFEA
:10203000FFFFFFFFFFFFFFFFFFFFFFFFFFFFFFFFB0
:10204000FFFFFF02264DFFFFFFFFFFFFFFFFFFFF28
:10205000FFFFFF022125FFFFFFFFFFFFFFFFFFFF45
:10206000FFFFFFFFFFFFFFFFFFFFFF022782FFFFD2
:10207000FFFFFFFFFFFFFFFFFFFFFFFFFFFFFFFF70
:10208000FFFFFF02218501FFFFFFFFFFFFFFFFFFB3
:10209000102010200101FF01010503010F10FEFFB8
:1020A0002D362D362D362D36CB34C5342D36924A6D
:1020B00000000000FA4A00000000FF000000FF00DE
:1020C000010000CD38000000001F38E13967386397
:1020D00039000055380000000000000000FF010139
:1020E000002B07000000E803A50703E80364006471
:1020F00000B8010202000800000502070401051EE5
:1021000002051E020A0A0103B80B02803E0102FE0C
:10211000FFE8030A050001FFFF0A01E096511800DD
:10212000020206FFFFC0E074F212246DA2AFE43396
:10213000FED2AFE5A7FFE5A1F5085F5410600612D7
:10214000432375A1EFE5085F540860081243297521
:10215000A1F78024E508A2E092F0EFA2E082F0501F
:1021600017906198E0F8900D0CE0C398A2D265D06A
:10217000335002E8F075A1FE751A00EEA2E092AFAE
:102180007F010224CCC0E074F212246DA2AFE433CC
:10219000FED2AF9061A4E0F8759B00E59158540819
:1021A00060087591F712437D8023E59158541060C3
:1021B000087591EF1243838014E591A2E092F0E854
:1021C000A2E082F05007E0C2E0F01244D39061A395
:1021D000E0F8E5E9585404600E1244A975E9FB9053
:1021E0006193E0A2E640F2808FC0E074F212246DA9
:1021F000A2AFE433FED2AF9061A5E0F8E5BF58543A
:1022000004600675BFFB1244EB022178C3E498F822
:10221000E499F912224D8026C3E49AFAE49BFBE983
:1022200020E7E912224DE498F8E499F922C3E498F2
:10223000F8E499F912224DE498F8E499F9C3E49A84
:10224000FAE49BFB22EB20E7CFE920E7E0B900109E
:10225000BB0008E88AF084F8AAF022E4FBC8FA225E
:10226000EB70227B10C833C8C933C9335007C39AF7
:10227000C3DBF280069A50012ADBEAC833F4C8C9EE
:1022800033F4C9FA2275F008E4C833C8C933C93336
:10229000C99AC99B5004C92AC93BD5F0ECFBC83385
:1022A000F4C8E4C9FA22080808EAC0E0EBC0E086F6
:1022B000F0E7A4FA180986F0E7A42AFA180986F0CC
:1022C000E7A42AFA180986F0E7A42AFA1986F0E7A3
:1022D000A4FBE5F02AFA190886F0E7A42BFBE5F049
:1022E0003AFA190886F0E7A42BFBE5F03AFA181839
:1022F0000986F0E7A4C5F02BFBE43AFA1908E7C514
:10230000F0C6A426F6E5F03BFBE43AFA1886F0E7BF
:10231000A4F6E5F00826F6E43B08F6E43A08F6D021
:10232000E0FBD0E0FA22E4CFC0E0E4CEC0E0E4CDB0
:10233000C0E0E4CCC0E075F020C3E633F608E63335
:10234000F608E633F608E633F6181818EC33FCED19
:1023500033FDEE33FEEF33FFC3EC9709ED9709EE43
:102360009709EF97191919400FFFEC97FC09ED97A2
:10237000FD09EE97FE191906D5F0BEECF709EDF749
:1023800009EEF709EFF7191919D0E0FCD0E0FDD0FC
:10239000E0FED0E0FF222518C582C0E0E51934FF39
:1023A000C583C0E0E518C3958224F810AF08858383
:1023B000198582188008858319858218D2AFCEF0DE
:1023C000A3E520F0A37808E608F0A3DEFAEFF0A377
:1023D000E58124FAF8E608F0A3E608F0A3E608F0A1
:1023E000A30808E608F0A3E608F0A315811581D03C
:1023F000E0FED0E0F8158115811581E8C0E0EEC05F
:10240000E022122B05B90003022457E49004D1788E
:102410008379108002F0A3D8FCD9FA781A9020862C
:102420007A01BA00028007E493A3F608DAF990145F
:1024300053AA82AB83902094789279018015E4931B
:10244000A3AC82AD838A828B83F0A3AA82AB838CF8
:10245000828D83D8E9D9E77582D675839A7406127E
:10246000286E7582C9758348740012286EC0D02505
:1024700018C582C0E0E51934FFC583C0E0E518C384
:10248000958224F310AF088583198582188008850A
:102490008319858218D2AFC8F0A3E9F0A3EAF0A3AC
:1024A000EBF0A37908E709F0A3D8FAECF0A3EDF07C
:1024B000A3EEF0A3EFF0A3D0E0F0A3D0E0F0A3D020
:1024C000E0F0A3E520F0A3E5F0F0A32285198385D1
:1024D0001882E0C0E0A3E0F9A3E0FAA3E0FBA37850
:1024E00008E0F608A3DFFAE0FCA3E0FDA3E0FEA30A
:1024F000E0FFA3E0C0E0A3E0C0E0A3E0F5D0A3E0EC
:10250000F520A3E0A3F5F010AF08858319858218A4
:102510008008858319858218D2AFD082D083D0E01D
:10252000F8D0E03275F0108E218F228582268583C7
:1025300025851882851983E0CEA3E0CF8526828584
:102540002583EBC9EAC8EDCBECCAC3E833C8E9334D
:10255000C9EA33CAEB33CBC3EA9EF524EB9FF523DC
:10256000B35004AB23AA24EC33CCED33CDD5F0DA51
:10257000AE21AF2222D083D082ECC0E0EDC0E0E4F7
:1025800093A3FCE493A3FDED4C600D122690EC2484
:10259000FFFCED34FFFD80EFE493A3FCE493A3FD87
:1025A000ED4C600D12272DEC24FFFCED34FFFD8077
:1025B000EFD0E0FDD0E0FCE493A3C0E0E493C0E002
:1025C00022851983851882E0A3FEE0A3F520780810
:1025D000E0A3F608DFFAE0A3FFE0A3C0E0E0A3C0B9
:1025E000E0E0A3C0E0E0A3C0E0E0A3C0E010AF08DB
:1025F0008582188583198008858218858319D2AF52
:10260000D083D082022874D083D082E9C0E0E493E2
:10261000A3C386F0C5F095F0F908E493A386F0C54E
:10262000F095F0700BE493A3C3994005E904800290
:10263000A3E475F002A42582F582E5F03583F583E5
:10264000D0E0F9E493A3C0E0E493C0E022C0E074DA
:10265000F212246DA2AFE433FED2AFC2C090134B8E
:10266000E0700BE5D1A2E4501D1242878018E5D13D
:10267000A2E3500675D1F712425DE5D1A2E45006FF
:1026800075D1EF124263EEA2E092AF7F010224CC3B
:10269000C0E0C3E49396087401939618400FE49346
:1026A00066700808740193661870007019A3A3C3BC
:1026B000E49396087401939618A3A3400DD0E0D03C
:1026C000E0D0E00225B1A3A3A3A3A3A3D0E022748A
:1026D00004800474028000CCC0E0EDC0E0E518C3C3
:1026E0009CCCAD1950011D10AF068C188D198006B9
:1026F0008C188D19D2AF1227F0D0E0FDD0E0FC226B
:1027000074028000CCC0E0EDC0E0E518C39CCCAD05
:102710001950011D10AF068C188D1980068C188D6C
:1027200019D2AF1227CED0E0FDD0E0FC22C0E0C02D
:10273000F088F0E4936670080874019366187000DE
:10274000A8F0A3A3700BD0F0D0E0D0E0D0E0022539
:10275000B1A3A3D0F0D0E022D083D082CCC0E0E4FB
:1027600093A3600612284F1470FAE493A360061234
:1027700029271470FAD0E0FCE493A3C0E0E493C0EE
:10278000E022C0E074F212246D758900C2C5901376
:102790004BE0700E7A007B109006A4E0F9123B43E8
:1027A000800312475B7F010224CCC0E0C0D0E8C0A8
:1027B000E0E9C0E0E5A8D2AFC2C7751A00A2E7A25F
:1027C000E792AFD0E0F9D0E0F8D0D0D0E032CAC084
:1027D000E0E493A3C582CCC582C583CDC583F0A3B5
:1027E000C582CCC582C583CDC583DAE5D0E0CA22D7
:1027F000CAC0E0E0A3C582CCC582C583CDC583F045
:10280000A3C582CCC582C583CDC583DAE6D0E0CA34
:10281000227009080808226016181818C6C333C6A3
:1028200008C633C608C633C608C633C6D5E0EA2292
:10283000C008C3E096F50808A3E096420808A3E0A4
:1028400096420808A3E09645087001D3D00822C03C
:10285000E0E493A3D39C5010E493A3C39C400AD01C
:10286000E0D0E0D0E0022775A3A3A3D0E022C09F70
:10287000F59FE473D09F22D083D082C09FE493C0A1
:10288000E0740193C0E0740293F59F222518F5824D
:1028900010AF08F518400215198008F51840021508
:1028A00019D2AF851983227404800A7403800674D8
:1028B0000280027401C0E0F40412288CD0E0122AD5
:1028C000E022C0D0251810AF08F518500205198075
:1028D00008F51850020519D2AFD0D022BB0102E78B
:1028E00022C082C08389828A83BB0003E08002E425
:1028F00093D083D082226016080808C6C313C61876
:10290000C613C618C613C618C613C6D5E0EA22C336
:10291000E0C696F608A3E0C696F608A3E0C696F6CB
:1029200008A3E0C696F622C0E0E493A36C7009D039
:10293000E0D0E0D0E0022775A3A3D0E02225181054
:10294000AF08F518400215198008F518400215194E
:10295000D2AF22E76670100809E766700A0809E737
:102960006670040809E76622C3E09608A3E09608AB
:10297000A3E09608A3E096A2D265D03322E0667069
:102980001008A3E066700A08A3E066700408A3E0DC
:102990006622C3E096F008A3E096F008A3E096F064
:1029A00008A3E096F022C3E697F60809E697F60832
:1029B00009E697F60809E697F622E026F008A3E074
:1029C00036F008A3E036F008A3E036F022E627F65A
:1029D0000809E637F60809E637F60809E637F62269
:1029E000700422600D18C6C333C608C633C6D5E0CE
:1029F000F41822E647F60809E647F60809E647F61E
:102A00000809E647F622E657F60809E657F60809E8
:102A1000E657F60809E657F622E056F608A3E05610
:102A2000F608A3E056F608A3E056F622E056F008B2
:102A3000A3E056F008A3E056F008A3E056F022E029
:102A400026F608A3E036F608A3E036F608A3E0363B
:102A5000F622E4C396F608E496F608E496F608E44F
:102A600096F622600D08C6A2E713C618C613C6D58F
:102A7000E0F322C6F4C608C6F4C608C6F4C608C603
:102A8000F4C622C3E7960809E7960809E7960809FD
:102A9000E79622C3E09608A3E09608A3E09608A371
:102AA000E0962275D0007581407518D17519040023
:102AB000022402E0F608A3E0F608A3E0F608A3E08B
:102AC000F622600C08C6C313C618C613C6D5E0F4B8
:102AD00022E6F008A3E6F008A3E6F008A3E6F02259
:102AE000CAC0E0E6F0A308DAFAD0E0FA22E0FAA3DE
:102AF000E0FBA3E0FCA3E0FD22EAF0A3EBF0A3ECF3
:102B0000F0A3EDF022E5C754F84401F5C77901229E
:102B10002518F582E43519F58322C2AF75D69F02D8
:102B200000002212287781A802122877ACA802128E
:102B3000287786A90212287715AC02122877E6AC0E
:102B40000212287771AD021228779EAE0212287702
:102B5000B1AE02122877C4AE02122877E3AE021299
:102B60002877EDAE0212287719AF0212287749AF05
:102B70000212287711B102122877DCB102122877ED
:102B800082B202122877D5B20212287756B3021207
:102B90002877A0B302122877C9B30212287744B469
:102BA000021228779DB402122877FEB40212287709
:102BB00070B7021228772BB902122877EFB90212E8
:102BC00028772CBB02122877FBBD02122877F7C0AA
:102BD0000212287706C10212287794C102122877C0
:102BE0004BC20212287793C20212287709C302123D
:102BF000287725C30212287759C30212287798C371
:102C00000212287784C4021228773BC50212287763
:102C1000D7C7021228772DC902122877E2C90212FB
:102C200028776ECA0212287791CA0212287743CBFE
:102C30000212287707CC02122877C5CD0212287716
:102C400058CE0212287796CE021228770DCF0212A4
:102C50002877FECF02122877C8D00212287709D130
:102C60000212287721D102122877CAD102122877BE
:102C70005FD402122877F8D50212287716D60212EE
:102C8000287734D60212287721D702122877E1DA82
:102C900002122877008003122877388003122877E1
:102CA000728003122877948003122877A68003127B
:102CB0002877F88003122877588103122877E58156
:102CC00003122877938203122877DB820312287776
:102CD000158303122877328303122877598303124E
:102CE0002877AF8303122877C88303122877EE83EF
:102CF000031228770D84031228774B840312287758
:102D0000A08403122877C984031228771B85031235
:102D10002877DE85031228775F86031228771987C4
:102D200003122877E487031228772888031228776C
:102D3000518803122877938803122877C7880312D3
:102D400028774E8A03122877108B03122877368B48
:102D5000031228775C8B031228777E8B0312287767
:102D60008D8B03122877988B03122877518C0312CE
:102D70002877B18C03122877778D031228777F8DFF
:102D8000031228770E8E031228777D8E0312287780
:102D9000BD8E031228770E91031228770A92031230
:102DA00028777892031228777593031228775D9419
:102DB0000312287798940312287721950312287715
:102DC000469503122877579503122877D195031259
:102DD00028775F9603122877BA9603122877899787
:102DE00003122877AB9703122877B6980312287737
:102DF000D49803122877E798031228773F99031293
:102E000028774E9903122877D699031228771F9AAC
:102E1000031228772C9A03122877359A0312287701
:102E2000519C03122877B69D03122877CF9D031279
:102E300028770D9F031228778A9F03122877D3A043
:102E40000312287715A10312287751A103122877BE
:102E500075A203122877E6A403122877F1A40312BF
:102E60002877FCA40312287707A50312287711A559
:102E7000031228771CA50312287736A5031228779A
:102E800040A5031228774AA50312287755A50312F7
:102E9000287760A50312287788A503122877E3A571
:102EA00003122877EDA503122877F8A503122877D7
:102EB0001CA60312287740A603122877ABA603129C
:102EC0002877EFA6031228770BA70312287786A787
:102ED00003122877CDA70312287719A803122877A1
:102EE00083A80312287746A90312287740AB031260
:102EF0002877A9AB03122877DFAC0312287705AD3A
:102F00000312287760AE0312287703B203122877E2
:102F1000D6B3031228779DB50312287744B603125F
:102F20002877C1B70312287757B803122877A9B8B2
:102F3000031228770DB9031228771CB903122877DA
:102F4000AABB03122877ECBC0312287768BE0312D1
:102F50002877BABE03122877AFBF0312287794C12F
:102F60000312287721C30312287740C3031228775E
:102F700095C30312287796C403122877BEC40312A0
:102F8000287712C503122877F8C50312287736C6AA
:102F90000312287781C603122877E2C60312287726
:102FA00028C80312287799C803122877C3C90312C7
:102FB000287763CC0312287794CC0312287725CF87
:102FC000031228778ECF0312287796D00312287722
:102FD0001ED10312287791D10312287750D2031201
:102FE0002877F5D20312287795D30312287727D4B0
:102FF0000312287770D403122877A1D403122877FC
:1030000062D603122877D980011228772581011210
:1030100028770B84011228774A8401122877948438
:1030200001122877958501122877F98501122877F2
:103030003986011228777D8601122877CF87011201
:103040002877088B011228774A8C01122877E08CA8
:1030500001122877A597011228773B98011228774B
:10306000389B01122877749C01122877EF9C01127B
:1030700028771D9E01122877719F011228775AA088
:103080000112287722A20112287732A40112287790
:10309000BBA4011228778FA50112287727A6011259
:1030A000287731A6011228775FA6011228771DA77D
:1030B00001122877FBA701122877D2A801122877DE
:1030C0006AA901122877FEA90112287714AA011211
:1030D000287775AA011228779EAA01122877CBAA11
:1030E0000112287710AD01122877F8AD0112287768
:1030F0003CAE01122877A9AE0112287762AF011207
:10310000287794AF01122877DBAF0112287711B02E
:10311000011228777EB001122877D3B001122877E8
:10312000D8B0011228772CB10112287776B101129C
:10313000287777B201122877DCB20112287738B3EA
:1031400001122877B6B301122877AEB6011228779C
:10315000A4B70112287737B90112287785BB01126D
:10316000287736BC01122877DDBC011228771FBFF3
:1031700001122877C2BF0112287700C001122877F8
:10318000DFC101122877FCC10112287705C20112A4
:10319000287729C20112287734C20112287753C236
:1031A0000112287782C401122877D7C40112287728
:1031B000E1C401122877EBC40112287746C5011239
:1031C0002877A2C501122877D5C60112287736C7FD
:1031D000011228778BC801122877DCC801122877E2
:1031E00072C9011228777FCA0112287734CB0112E5
:1031F000287733CC0112287766CD01122877FACDD3
:103200000112287773CE011228778ACE011228770F
:10321000C7CE01122877D1CE01122877DBCE01125A
:103220002877E6CE0112287704CF0112287746CFFF
:1032300001122877A3CF01122877C8CF011228776F
:10324000E2CF0112287768D0011228779ED00112B0
:103250002877CDD10112287716D20112287703D30F
:103260000112287739D301122877CDD3011228779C
:103270005FD401122877D8D5011228770BD7011215
:103280002877BDD70112287784D80112287723D94F
:103290000112287787D90112287765DA0112287779
:1032A000B7DA011228771DDB01122877E8DB01125B
:1032B00028770BDC0112287794DC01122877B8DC20
:1032C00001122877DADC011228773BDD011228771A
:1032D00088DF0112287765E00112287710E10112DA
:1032E00028773BE30112287789E301122877D6E398
:1032F0000112287718E40112287772E40112287766
:10330000A0E401122877C4E40112287707E501122E
:10331000287731E5011228776DE501122877CCE591
:103320000112287739E60112287784E701122877FD
:10333000A2E901122877E3E9011228770CEA0112C9
:10334000287797EA0112287723EB0112287759EBA7
:103350000112287794EB01122877B8EB0112287735
:103360000DEC0112287728EC01122877E1EC01120C
:1033700028771CED0112287774ED0112287793F05D
:1033800001122877C6F0011228776FF10112287711
:103390006CF201122877FEAC0512287736AD0512C3
:1033A000287757AD0512287799AD05122877FBAD20
:1033B0000512287705AE0512287715AE0512287775
:1033C0004CAE051228770EB205122877CFB305123E
:1033D0002877F1B505122877B0B6051228777DB7A2
:1033E00005122877648004122877A78004122877B2
:1033F0006181041228776A82041228778683041276
:103400002877388504122877AC85041228776286DD
:1034100004122877718704122877D8870412287736
:10342000148804122877808804122877B988041237
:103430002877098904122877928904122877368A16
:1034400004122877098B04122877D58B0412287769
:103450005F8C04122877858C04122877B28C0412B2
:103460002877E38C04122877878D04122877968EAC
:1034700004122877A68E04122877F68E0412287775
:10348000038F04122877188F04122877218F0412D3
:1034900028777B8F04122877D88F04122877229000
:1034A000041228773D90041228776490041228773C
:1034B0008190041228778D9004122877AD9204121F
:1034C0002877C692041228774F93041228776293C4
:1034D000041228777493041228772A940412287708
:1034E000349504122877D89604122877639704122B
:1034F0002877669704122877CE9704122877DF97EB
:10350000041228777198041228779F98041228775C
:10351000A19804122877D9980412287736990412B2
:1035200028775A9904122877789904122877C6992F
:1035300004122877E69A041228773E9B0412287713
:10354000979B04122877269C041228774E9C04121D
:103550002877849C04122877939C04122877F19C86
:1035600004122877619D041228779E9D0412287703
:10357000D99D04122877049E041228771E9E0412F7
:103580002877389E04122877F29E04122877FC9E32
:1035900004122877389F04122877489F041228774E
:1035A000519F04122877B19F04122877C59F0412F7
:1035B0002877CEA004122877E1A004122877F8A07B
:1035C000041228770DA104122877AFA104122877DE
:1035D0002EA204122877D1A204122877DDA20412A9
:1035E00028770FA4041228772BA40412287783A429
:1035F00004122877BCA404122877D1A404122877D7
:1036000033A504122877D2A5041228771DA6041228
:10361000287776A80412287722A90412287752AABC
:1036200004122877E6AA0412287714AD041228772A
:103630002CAD041228772FAD041228773BAD04126D
:1036400028774FAD0412287757AD0412287797AD2D
:1036500004122877B5AE0412287738AF0412287701
:10366000BAAF0412287734B004122877EFB00412EE
:10367000287711B104122877ADB104122877B9B1B7
:1036800004122877E4B104122877E7B104122877EE
:1036900014B20412287729B2041228778EB20412C9
:1036A0002877F0B30412287779B50412287704B686
:1036B000041228772CB704122877F9B70412287758
:1036C0002AB80412287756B80412287738B9041299
:1036D000287767B90412287726BA04122877CEBA59
:1036E0000412287742BB04122877DDBB0412287726
:1036F00063BC0412287799BC04122877DABC041240
:1037000028770FBD04122877C794051228771695DD
:1037100005122877539505122877A3950512287767
:103720002796051228776F9805122877609A051258
:1037300028770F9E05122877B39E05122877EE9EF4
:10374000051228770C9F051228776C9F05122877A1
:10375000949F05122877C49F05122877F59F0512BC
:1037600028772CA0051228777DA005122877C9A0FC
:1037700005122877F5F20112287773F301122877E2
:10378000A9F30112287711F40112287784F50112A8
:103790002877A0F501122877E5F50112287772F64F
:1037A00001122877C9F601122877ECF70112287761
:1037B0000FF9011228776CF901122877D8F9011254
:1037C000287781FA01122877E2FA011228772BFB79
:1037D00001122877D8FB01122877E2FC0112287722
:1037E00025FD011228776EFD01122877A5FD011233
:1037F000287748FE01122877F7FE0112287700800B
:10380000061228771180061228777680061228770C
:103810002381061228775C8106122877E7ED0412CF
:10382000287792EE0412287740EF04122877CDEF24
:1038300004122877A5F20412287758F40412287786
:103840000FF5041228776DF5041228778DF804120D
:10385000287723FA04122877EA9F0612287712A005
:103860000612287706A106122877E1DE05122877CE
:1038700066DF051228777DDF05122877F2DF051253
:10388000287750E00512287779E005122877F6E0CE
:103890000512287799E105122877FEE105122877AD
:1038A00062E20512287783E205122877B4E2051256
:1038B0002877D2E205122877F9E20512287729E362
:1038C000051228776FE305122877D5E305122877CC
:1038D00001A105122877B0A105122877D0A1051201
:1038E0002877F0A10512287704A20512287764A290
:1038F0000512287794A2051228771BA405122877B1
:10390000C4A405122877A6A505122877F5A50512E7
:10391000287739A6051228779EA6051228770AA7C8
:10392000051228772BA705122877AEA7051228774E
:1039300063A905122877D3A90512287779AB051258
:1039400028774AAC05122877EDA302122877EAAC53
:10395000051228777296061228777C960612287729
:103960009D96061228772BB80512287725BA0512DE
:1039700028775BBB0512287742BD051228779ABDD0
:103980000512287769BE05122877A9BE0512287787
:10399000F3BE05122877AEBF0512287721C00512A5
:1039A000287723C00512287726A80212287727C077
:1039B0000512287744C00512287764C005122877BD
:1039C0008EC005122877AAC0051228772EC10512CD
:1039D000287780C105122877FBC105122877CDD73B
:1039E00004122877F3D70412287751D904122877C4
:1039F0007CD904122877FBD9041228771FDA041225
:103A000028773FDA0412287789DA04122877B3DAA4
:103A100004122877CBDB0412287701DC0412287704
:103A200030DC0412287763DC041228772CDD0412C2
:103A300028774CDD0412287794DD04122877EEDE17
:103A40000412287770DF0412287764E004122877C4
:103A50002EE10412287760E104122877B9E10412FC
:103A600028771DE2041228778EE204122877F2E20A
:103A70000412287730E3041228776EE404122877C2
:103A8000A3E40412287700E504122877B7E50412AE
:103A90002877E5E50412287778E704122877ECE721
:103AA000041228771FE8041228775BE804122877AD
:103AB00074E80412287730E904122877FAE904122E
:103AC0002877AEEA0412287743EB04122877F6EB46
:103AD000041228777EEC0412287725ED041228774B
:103AE000CCD20512287718D30512287786D3051271
:103AF0002877A7D305122877BED3051228776ED46E
:103B00000512287777D405122877CAD405122877AA
:103B1000F3D40512287708D50512287771D5051238
:103B2000287702D6051228773ED6051228778AD63E
:103B300005122877F1D6051228772AD7051228779B
:103B4000B0D705122877EFD70512287730D805129D
:103B5000287767D80512287779D8051228778BD867
:103B600005122877BED805122877FED805122877C7
:103B7000B2E905122877F5EA051228771BEB051242
:103B800028772CEB0512287745ED0512287764ED90
:103B900005122877CDFD0312287703FE031228773C
:103BA0004EFE031228779CFF03122877008005122F
:103BB00028774B81051228778781051228773E8365
:103BC00005122877678305122877FF850512287765
:103BD0003F8605122877E087051228777A88051234
:103BE0002877E288051228776F8905122877A78938
:103BF00005122877E789051228777A8B051228772E
:103C0000198D05122877688F05122877968F05126F
:103C10002877C28F05122877CB8F05122877269038
:103C200005122877BC9005122877E59305122877AE
:103C30006A9405122877B9AA06122877CFAA061225
:103C40002877D9AA0612287729AB0612287763FBB2
:103C5000041228777CFB0412287721FC04122877B1
:103C600061FC041228777AFC04122877B3FC041252
:103C7000287700FD0412287732FD0412287774FD9E
:103C80000412287777FF04122877E1FF04122877BF
:103C9000B3A30612287708A40612287761A4061297
:103CA00028776AA906122877BDA906122877FFA9E6
:103CB000061228770FAA06122877FFDA0212287751
:103CC00054DB0212287706DC021228770DDD02127F
:103CD000287728DE02122877FADE021228770FDF13
:103CE0000212287759DF02122877AFDF02122877F5
:103CF0001BE0021228772EE00212287786E00212DB
:103D00002877FFE00212287796E302122877ABE4C7
:103D10000212287706E5021228775AE50212287760
:103D200076E70212287711E802122877A1E802123A
:103D30002877E3E80212287702E9021228774DE992
:103D40000212287763E90212287770E902122877B5
:103D5000A9E902122877BBE902122877B5EA021214
:103D60002877C0EA0212287726EB021228777EEB2A
:103D700002122877DBEB021228770BED021228776C
:103D800033ED02122877B3EF02122877DBEF02122D
:103D9000287760F002122877DCF002122877AAF167
:103DA00002122877E6F10212287754F202122877DD
:103DB00025F3021228775EF30212287768F30212C5
:103DC00028776BF30212287775F30212287791F3A4
:103DD000021228770CF40212287745F40212287791
:103DE00061F4021228778DF402122877C8F40212C7
:103DF0002877E3F402122877EEF4021228772FF5E1
:103E00000212287742F50212287769F50212287704
:103E1000EDA606122877FEA60612287787A70612B7
:103E2000287746CB0512287795CB0512287752CDF7
:103E30000512287730CF0512287774CF051228771E
:103E400069D0051228779AD105122877BCD10512BE
:103E5000287718D2051228779CD2051228778D4E24
:103E600000122877BB4E001228770B5000122877DB
:103E7000545000122877A9500012287725510012BB
:103E800028778E5100122877D651001228775C527D
:103E900000122877FF5200122877875300122877E4
:103EA000C85300122877275800122877AB59001200
:103EB0002877E45900122877305A00122877505B8F
:103EC000001228775C5E00122877FF5E00122877C8
:103ED000AF6000122877F86100122877FC620012A8
:103EE00028777663001228773E6400122877A96449
:103EF00000122877B96400122877766500122877B7
:103F0000B16600122877F06800122877A76B0012BC
:103F10002877856C00122877B96D001228774371D5
:103F2000001228775371001228778D7200122877BB
:103F30003273001228774D7400122877E87400124B
:103F400028771076001228778F760012287777BDB1
:103F50000412287734BE04122877B1BE04122877E1
:103F6000C0BE0412287749BF04122877A0BF0412EC
:103F70002877ABC004122877D4C0041228777CC1FC
:103F800004122877CFC1041228773AC20412287786
:103F900099C2041228779EC5041228774EC60412CF
:103FA0002877BDC6041228774DC80412287705C9A2
:103FB00004122877A2C90412287703CA04122877AA
:103FC0007DCA0412287776CB0412287760CC0412BD
:103FD0002877A6CC04122877DFCC04122877F3CCFC
:103FE000041228773CCD04122877C0CD041228771C
:103FF00036CF041228770CD10412287701D204128C
:10400000287740D30412287755D404122877FAD49D
:10401000041228776BD50412287739D60412287732
:1040200099D6031228771BD7031228778BD7031250
:104030002877DBD70312287723D803122877C5D82F
:1040400003122877E7D9031228773EDA031228777C
:1040500089DA03122877C2DA0312287762DB0312A7
:104060002877B2DB0312287732DD03122877A5DD2B
:104070000312287707DE031228779CDE03122877C5
:10408000D2DE03122877CFDF0312287744E0031231
:10409000287754E10312287766E20312287782E238
:1040A00003122877BEE20312287753E3031228771E
:1040B0005DE40312287781E40312287797E4031262
:1040C000287719E5031228774CE5031228771EE6B6
:1040D0000312287757E6031228777AE60312287727
:1040E00094E603122877D3E603122877F4E6031246
:1040F00028771BE70312287733E7031228771CE899
:10410000031228773CE9031228775AEA031228772A
:1041100059EC03122877DEEC0312287702ED031224
:1041200028773DED0312287767ED03122877A8EE74
:10413000031228773DEF0312287782EF03122877C6
:10414000E6EF0312287750F00312287739F10312B3
:10415000287720F303122877E7F3031228773BF53B
:1041600003122877BCF60312287765F80312287724
:1041700095F803122877A5F90312287774FA031229
:104180002877C7FA03122877DFFA03122877D4FBBF
:1041900003122877ECFC0312287718FD0312287706
:1041A000B78B06122877F28B06122877BB8C061283
:1041B0002877218D06122877928D06122877268E71
:1041C00006122877509B0612287720FF02122877C4
:1041D00031FF02122877D1FF02122877EE7F0012FA
:1041E0002877EBFF02122877E0A706122877F0A7BE
:1041F0000612287705A80612287796A806122877AF
:10420000E9A5061228776EA606122877D4A606120C
:104210002877F4FF01122877F7FF01122877A8FF0B
:1042200005122877B8FF05122877BBFF05122877FB
:10423000BEFF05122877F87F00122877BF98061274
:104240002877E198061228774F9A06122877D39A92
:1042500006122877CBFF01122877D4FF01122877A6
:10426000DDFF01122877EBFF0112287727D905120D
:10427000287793D9051228775ADA0512287766DB52
:104280000512287751DD05122877ACDD0512287755
:1042900001DE0512287712DE0512287724DE0512CA
:1042A00028778EDE05122877A2DE05122877ADDE8C
:1042B00005122877BBDE05122877CDDE0512287798
:1042C000BBEE0512287710EF051228770CF10512C6
:1042D00028773EF10512287760F10512287779F1E9
:1042E0000512287792F1051228779CF2051228779B
:1042F00037F305122877759E06122877999E0612C5
:104300002877B29E06122877F19E06122877249FFE
:1043100006122877549F061228775E9F0612287788
:10432000C69F06122877C99F06122877D39F0612C8
:104330002877E09F06122877C68E06122877EE8E21
:10434000061228772F8F06122877418F06122877BA
:104350005C8F06122877C48F06122877D08F06123A
:1043600028772F90061228775B90061228776A909C
:10437000061228778E90061228774F91061228771A
:104380005C91061228776D91061228776AFF051254
:10439000287782FF05122877CDE4051228773CE6BE
:1043A0000512287742E60512287759E60512287784
:1043B0007AE60512287790E605122877A4E605121A
:1043C000287723E70512287788E70512287710E871
:1043D0000512287789E80512287762E905122877FF
:1043E00072E90512287781E90512287720AA0612BA
:1043F000287744AA061228776CAA0612287794AA6E
:10440000061228779B9106122877C2910612287708
:10441000E391061228775592061228770794061220
:10442000287720940612287737940612287740942C
:10443000061228775E940612287768940612287769
:10444000729406122877859406122877DA94061259
:1044500028771395061228774195061228779295AA
:1044600006122877E39506122877FE95061228771C
:104470000896061228771996061228775F96061274
:1044800028776EFF01122877BFFF0112287799F570
:1044900002122877C5F502122877E3F50212287771
:1044A000F6F50212287711F60212287770F602123A
:1044B00028779EF602122877BCFA02122877F2FBC0
:1044C0000212287724FC021228778CFC021228772B
:1044D00009FE0212287731FE0212287746FE0212E8
:1044E000287756FE0212287796FE02122877E2FEFF
:1044F00002122877F2FE021228777BA20612287792
:104500008BA206122877A9A206122877C4A2061247
:104510002877EBA2061228770CA30612287726A389
:10452000061228775EA30612287781A30612287741
:10453000A6A806122877FCA806122877ED8706128F
:104540002877F487061228774A89061228777A890D
:1045500006122877AA8906122877DD89061228779D
:10456000EF89061228772B8A06122877918A06127D
:104570002877CD8A06122877148B06122877418B6C
:1045800006122877628B06122877DC9C06122877A1
:10459000FE9C06122877259E06122877289E061272
:1045A00028772B9E06122877D6A40612287748A5CE
:1045B0000612287786A506122877C7A5061228773F
:1045C00012C30512287718C30512287765C3051290
:1045D000287789C505122877C1C5051228772DC609
:1045E00005122877FAC6051228773FC705122877E3
:1045F00072C705122877FCC70512287714C8051260
:104600002877B7C905122877AFCA051228770DCBCE
:10461000051228771F770012287735770012287740
:10462000E77700122877E27800122877DA7900120B
:104630002877727A00122877B17A00122877297BBE
:10464000001228778B7B001228779B7B001228773B
:10465000C27B00122877147C00122877A77D0012F5
:104660002877AC7D00122877CE7D0012287723F8BA
:104670000512287742F80512287786F80512287760
:10468000A2F805122877D3F805122877EBF805125F
:10469000287703F9051228771BF905122877C1F945
:1046A00005122877FFF90512287709FA05122877ED
:1046B00022FA0512287730FB0512287742FB0512F3
:1046C00028774DFB051228775FFB0512287768FBDA
:1046D0000512287772FB05122877D6FB051228777A
:1046E00076F3051228779DF705122877B9F705129A
:1046F00028771884061228772E8406122877CD850D
:1047000006122877188606122877838606122877DD
:104710008D8706122877BC8706122877CE87061267
:10472000287737A1061228773DFC0512287799FCD7
:1047300005122877D9FC05122877E1FD05122877A4
:10474000F9FD051228770EFE051228773AFE0512AC
:10475000287771FE0512287781FE0512287797FECB
:1047600005122877BCFE0512287747FF0512287727
:10477000C27F0012287763A30212287709A20212CF
:10478000287773A102122877BAA002122877B59F62
:1047900002122877699F02122877439F0212287716
:1047A000809E02122877C39C021228775F9C021217
:1047B0002877319C021228772E9C02122877FF9AC4
:1047C00002122877F29902122877AD980212287700
:1047D000E597021228775A970212287768960212F4
:1047E0002877BF9502122877069502122877C4947D
:1047F00002122877E5930212287751930212287744
:104800009BA60212287701A602122877D6A50212CB
:104810002877AAA5021228778EA50212287724935A
:10482000021228778992021228774892021228777A
:10483000EB9102122877D2A4021228776991021212
:104840002877359102122877DC9002122877AB90F6
:10485000021228776CA40212287725C00512287747
:104860006F8D02122877958C02122877438C0212E2
:104870002877378C02122877908B021228775A8A71
:1048800002122877A087021228772D850212287736
:10489000EB8402122877A28302122877498302123E
:1048A00028777B82021228773782021228776A8063
:1048B000021228770080021228773A8002122877A5
:1048C0002DA40212287790AC0500000080FBE47351
:1048D0008F000100C30887000100C2082400020005
:1048E000AA1425000200AC1426000200AE14270012
:1048F0000200B01428000100B21429000100B31412
:1049000084000400B41486000100B8142A000100D9
:10491000B9142B000100BA142C000100BE142D00A4
:104920000800AA082E000100BF142F000100C014C7
:1049300030000100C11431000100C2143200010036
:10494000B20833000100B30834000100C31436007C
:104950000100B40838000100C41439000100BD147E
:1049600083000200D61463000100BF086400010048
:10497000BB1465000100BC146D000100C0086E008E
:104980000200A80866000100D51443000100C61407
:1049900044000200C71445000100C914460002008B
:1049A000CA1447000800B70848000100CC144B00A7
:1049B0000100CD1404000100D814A1000100DA1494
:1049C00037000100D91488000100C4083C00010030
:1049D000B5083D000100C51449000200CE1467006F
:1049E0000100C1084D000200D0144E000100D21495
:1049F0004F000200D3143E000100B6080000000082
:104A0000000000013636010100010201000103012E
:104A10000001040106060502000007010034080138
:104A2000000F090401010D0100FF0E08000017022C
:104A30000000190100FF1A0100011B0100FE1C010A
:104A400000081D0200001F010001200100012102D9
:104A500000002301000F24020000260100012701AD
:104A60000008280200FF2A0100072B0102402C0148
:104A700000002D0100012E0100012F0100FF300177
:104A80000B1C310800003A0100083B01000F2F0108
:104A9000000003007100300160001100700031025D
:104AA0002003500480001000610000001400630027
:104AB0007300720062004300000013000600000053
:104AC00000000400120000000000000000000400CC
:104AD0000400370037003C024400000000000000E2
:104AE00000006500000035008100000005000000A6
:104AF0008300000066000000000001037103010351
:104B00000103010301030103220302030103100354
:104B1000000300030003000300030003000342033B
:104B20000003240306030003000304031203250308
:104B300023032503230304030403000300030003EA
:104B4000440300030003230300036503210035032E
:104B50008103000305030003000300030003250392
:104B60002303010171010101010111010101310161
:104B7000010101018001100161013B00140063018A
:104B800073017201620143010001130106013D013D
:104B900035000401120100010001000100010401BF
:104BA0000401330133013C014401320136000001AC
:104BB000000165010001350081010001050182014C
:104BC0008301000166010001000103047104020475
:104BD00060041104700402040204010402041004BD
:104BE0006104000414046304730472046204430443
:104BF0000004130406040004000404041204000466
:104C000000040004000451046400000400040004D3
:104C10004404000400040004000465040004350496
:104C20008104640005040004830400046604000495
:104C300000040302710230016002110270020102DD
:104C4000020202028002100261023A004100630285
:104C50007302720262024302000213023800000271
:104C6000000204021202000200020002000204021A
:104C70000402370037003C024402000239000002FF
:104C80000002650200023502810200020502820272
:104C90008302000266020002000200008D3F130042
:104CA000FD3E01008D3F02007F3E0300853E040073
:104CB0008B3E0500913E06009D3E3000C13E310016
:104CC000BB3E3200CD3E3300D33E3500D93E3400EA
:104CD000DF3E3600E53E1100F13E1400F73E1500C0
:104CE000AF3E1F00B53EFFFF00003600010006008A
:104CF00000000F00000000000000000000000000A5
:104D000003FFFF00000403FFFF0000FFFF0FF4019B
:104D10000005C4040320000100000B000000000097
:104D200000000003010F015730068D300887300B5B
:104D3000A53010B52F0ABD30025D30057B3007630A
:104D4000300C39300D4B3064B12DFF000003EAF513
:104D5000E5D5D5C5B5A59595858575756565555513
:104D60004545353525251515052B355B3531353749
:104D700035553549354335613567356D3579353DBF
:104D80003525351F3500160F00000B150B020002EC
:104D9000220F3300000700000000000000008967B8
:104DA000452301EFCDAB01030507090B0D0F0002F1
:104DB0000406080A0C0D5A6967426565416C6C6906
:104DC000616E636530392D363F364536EF344B36EC
:104DD000E934F53423341D345934653453340B34F9
:104DE0005F34003C40423A3F3F392F473066303015
:104DF00017181921301B1D1F30339936B736BD36B1
:104E00009F36AB36A536303016181920231A1C1ED3
:104E1000303200011916181616182303000C0E0262
:104E20000B040B0A0708000F00034D4C4651181ADB
:104E30002505024F357335B1367F358535813651BD
:104E400036573663365D360204020101010109025C
:104E50002F34353429346B3400BE040A3B344D34CE
:104E60000E00150004003C003C000000000028007B
:104E70000C007F00E8030C0A03080900040010FF7F
:104E80001E1E0805090301040510080F0CC082C08E
:104E90008390079DE4F0A3F07CD57D047A157B0711
:104EA0001245B7122DB79008C2E070047900800255
:104EB00079011248B1122DBD026C2874F3122396A9
:104EC00074F512293D89098A088B0AE9705F74021A
:104ED0006508703E90072E7408F0750C00780C126F
:104EE00028B3ECF50C780C1228B3EBF50C780C1207
:104EF00028B39014B41226CF9014B8E0F97CB77D93
:104F0000089014D6126C39122DE174071228C202CF
:104F10004FCB740165086003024FCE90072E7408D2
:104F2000F07B00AA0AA90A122E23024FCB74016556
:104F3000096009740265096003024FCEEA600674D5
:104F4000036508704090072E7402124FEF122AED8D
:104F5000122DCF900735E0A2E34010E9700D9007C5
:104F6000A1E004F064047003124FF9740365087043
:104F70005A9007A2E0F8740128F0E8C39405404B6A
:104F8000124FF980467401650870437401650990F9
:104F9000072E702C740AF07401122B10E4F07402C6
:104FA000122B107403F004122B10E4F0A3F0A3F002
:104FB000A3F07408122B10E4125EF1123069802500
:104FC000740A124FEF122AED122E05E96017908035
:104FD000681226CF7A017B0090072BE0F9123C6320
:104FE00074041228C2740B1228C27F050225C1F076
:104FF0009014B8E0F99014B4229014B4E4F0A374BF
:10500000F8F0A374FFF0A37407F02274F61223964D
:10501000E9FFEAFE7AD1F9123B1F8A828B83E5828F
:105020004583702A7A027B00123B01EA4B700E7AAC
:10503000107B0090072BE0F9123B4380148A828B8F
:105040008374D1F0EFA3F0EEF9123B0D8003EFA3D0
:10505000F002525774F7122396890890068D127544
:105060006C80288E828F83A3A31261EA60168E82E1
:105070008F83A3A3A3E0F5838882A31261EAFAA930
:1050800008123E678E828F83127648FFEE4F70D3F0
:105090009006A4E0FAA908123E671231839006FD3B
:1050A0001257D712317D02744874F1122396890A7F
:1050B0008C08750900750B00740F122B10125EE737
:1050C0007411122B101257FF804AE50E125176F51B
:1050D0000CA3E0F50DE50BC333FEE433FFEA2EF538
:1050E00082EB3FF583E0650C7004A3E0650D701959
:1050F000E509C333FEE433FFEC2EF582ED3FF58383
:10510000E50CF0A3E50DF00509050EE50EC39508C5
:1051100040B8050BE50BC3950A5005750E0080EBF2
:10512000A90902669B74F4122396890B7D00740C06
:10513000122B10125EE780010DEDC3950B503275F6
:105140000A008002050AE50AC39C50ECEDC333FE59
:10515000E433FFEA2EF582EB3F125186F509E50AAA
:1051600012517665087004A3E0650970D779018053
:10517000027900026556C333FEE433FFE82EF58260
:10518000E93FF583E022F583E0F508A3E02274F619
:1051900012239612522A7003A3E06D70177508331C
:1051A00075090778081228AFEEFA123F93740212BD
:1051B00028C2801F75080275098078081228AF8CF4
:1051C000088D0978081228AF12521D123FB77404D7
:1051D0001228C202525774F612239612522A7003F2
:1051E000A3E06D701775084075090778081228AF9D
:1051F000EEFA123F9974021228C2801F75080375D7
:10520000098078081228AF8C088D0978081228AF19
:1052100012521D123FB774041228C2803A12741B36
:10522000127102FD7C8012655F22EAFEEBFF1252D2
:1052300042FAA3E0F9EA2400FCE439FD9006FDE01F
:105240006C22126358127125F8A3E0F988828983D1
:10525000E02274021228C27F020225C174F61223D2
:105260009674FE12293DEAFEEBFF851882851983AC
:10527000E4F0A3F01266A8FA88828983A3A3E0F978
:10528000750900750800600574FF6970057508826E
:1052900080439006FDE06A7003A3E06B70208518E0
:1052A00082851983AA82AB83123741E9F5098518F3
:1052B00082851983126B70701C75088380179008A3
:1052C000C2E06004640170057508818008E0640232
:1052D00070037508808518828519831257FFA90805
:1052E000EEFAEFFB123F9FE50960118518828519E0
:1052F00083126B706006126C33123BA3025252741D
:10530000F2122396EAFEEBFF750A00750B001253AA
:1053100073123183EA65087003EB65097012123766
:1053200053E914F50A79017A697B0712375980032A
:10533000750B80127404F50C780C1228B3750C6987
:10534000750D07780C1228AF780A1228B378081266
:1053500028AFE50BF50878081228B312636AF582C6
:10536000EF1270647A057B80123FA574071228C281
:105370000260AA12759D125EEB888289831276788C
:10538000F508E439F5092274F6122396E9FE7F0048
:10539000802E8A828B83125188F9E5082400E43933
:1053A000F509EF33F8E433F9EC28F582ED39F583AC
:1053B000E508F0A3E509F0EA2402FAEB3400FB0F5C
:1053C000EFC39E40CD02525774E812239674FB122D
:1053D000293D8A168B17851882851983E4F074039A
:1053E000122B10E4F0A3F004122B10E4F0127284DC
:1053F000F50AA3E0F50B850A82F583127674FEE4C4
:1054000039FF850A82850B83A3A3E0FA850A82858A
:105410000B83A3A3A3E0F9EAF508E439F509E50A4B
:105420002404F50AE50B3400F50BEEFAEFFB12321B
:1054300025E964016016EEFAEFFB123225E9703DB2
:105440009006FDE06E7003A3E06F6031125B4012C6
:1054500028B3E4F508F50978081228AF780812286F
:10546000B39006FD1226D375088078081228B3126F
:1054700057DD123FA574071228C20257CD125805F6
:105480008810602EC333FAE433FB123B9D74031281
:105490002B101257D77403122B10126B70601374F9
:1054A00003122B101257F7A910123E978A0A8B0B82
:1054B0008003751000125805880F602AC333FAE480
:1054C00033FB123B9D7401122B101257D77401123B
:1054D0002B10126B70600F7401122B101257F7A96A
:1054E0000F123E978003750F0090068D805D850A30
:1054F00082850B83A3A3A3A3A3A3A3A3E4F0A3F098
:10550000AA0AAB0B851482851583A3A31258151222
:1055100061EAF9123B0D851282851383E0C0E085B4
:105520001882851983E0F8746928F582740712756A
:1055300095D0E01268EB04F0E511A2E05007AA1242
:10554000AB13123BA3851482851583E0F514A3E009
:10555000F515E5144515700302573A851482851533
:1055600083A3A31261EA60DD851482851583A3A35A
:10557000A3A3A3A3A3A3E0A2E050CA851482851528
:1055800083A3A3A3A3126B70851482851583A3A3A1
:10559000601F1261EAFA7901851482851583A3A33D
:1055A000A3A31261EF1248CE8A128B1375110180EA
:1055B0000F125815A3A3E0F512A3E0F5137511001F
:1055C000E51245137003025538851282851383A3B3
:1055D000E065087004A3E06509600F74FF6508705A
:1055E0000474FF65096003025538851282851383B0
:1055F000A3A3A3A3A3A3A31226D3851282851383F7
:10560000A3A3A3A3A3A3E0FC7405122B10126C396F
:10561000A910123E7974021228C2E9703C851282E8
:10562000851383A3A3A3A3A3A3A3A3A3A31226D3F6
:10563000851282851383A3A3A3A3A3A3A3A3A3E09B
:10564000FC7403122B10126C39A90F123E797402EC
:105650001228C2E97003025538E50F2510C3332420
:105660000AFA7B00123B018A0A8B0BEA450B700396
:105670000255168A828B8374D2F085168285178331
:10568000A3A3125EE78A828B83A3A3125EF98A82A8
:105690008B83A3A3A3A3E51012767EE50FF0E5109C
:1056A000603DEA2405FAEB3400FBE50A240AF8E53C
:1056B0000B3400F98A828B83125EF97403122B106B
:1056C00012581A1228ABE510C333FCE433FD8A826A
:1056D0008B83126C39123ADD74031228C2800D8A52
:1056E000828B83A3A3A3A3A3E4F0A3F0E50F70032D
:1056F0000254EEE510C333F8E433F9E50A28F8E57F
:105700000B39F9E8240AFAE93400FB850A82850B93
:1057100083A3A3A3A3A3A3A3A31257D77401122BFC
:105720001012581A1228ABE50FC333FCE433FD12F4
:105730003ADD74031228C202550085188285198348
:10574000E06027125B401228B37508697509077875
:10575000081228AF7403122B10125B4A1228B39060
:1057600006FD1226D37508008029EEFAEFFB1232EF
:1057700025E9702F125B401228B375086975090777
:1057800078081228AF75080078081228B39006FD33
:105790001226D378081228B31257DD123FA57407DA
:1057A0001228C27403122B10126B70600B74031258
:1057B0002B10126C39123BA37401122B10126B7058
:1057C000600B7401122B10126C39123BA37405127A
:1057D00028C27F100225C1EAF0A3EBF022E51624CF
:1057E00002FCE5173400FDE516126571E51712712C
:1057F00003F97A067B80221257FFAA0AAB0B22E03C
:10580000FCA3E0FD22850A82850B83E0F8A3858254
:105810000A85830B221261EFA322E0F50CA3E0F5C9
:105820000D750E00780C2274F412239674F412296C
:105830003D8A088B09ECFEEDFF740B122B107403EC
:10584000F0122B10AA82AB831245B712317DEAFC0D
:10585000EBFD7403122B10AA82AB831245B1E960F1
:105860000A1259756010E06401600B851882851971
:105870008374840259268E828F83A3A3A3A3A3A338
:10588000A3A3E06013F460101259757016EE24148F
:105890001274076003F4700B851882851983748273
:1058A000025926E508240CF582E50912740A6421E0
:1058B0007002A3E0704D851882851983748CF012F4
:1058C00059681228B312598412484574011228C22B
:1058D000E97054851882851983E4F0123DE9125964
:1058E0007570447401122B10AC82AD8312609D124E
:1058F0004827E970327D007C00790012609D123FDC
:105900005D80241259681228B312598412483F74DA
:10591000011228C2E98518828519837007E4F01204
:105920003DE980037488F0E50812741CE5091259FA
:105930006D1228B37401122B1085820A85830B78AF
:105940000A1228AFE508240CF582E50912597B44B8
:1059500080F50B780A1228AF126427123F517405A4
:105960001228C2740C026553EE126B53EF127103CE
:10597000F50A780A221270FD6403221275A3E0F57D
:105980000AA3E022EE240BFCEF3400FD8E828F830D
:10599000A3A3A3A3A3A3A3A3A3126C768E828F8336
:1059A000A3A3A3A3A3A3A3A3E0F922C082C08374EB
:1059B000F312293D851882851983E4F004122B1017
:1059C0001257D77403122B10AA82AB83122CDF85D7
:1059D0001882851983AA82AB83122D1B740D12289D
:1059E000C2026C2874F6122396125A201273249065
:1059F000073BE058F508A3E059F509E508450960BB
:105A00001C78081228AF9006FD1226D3127404FDEC
:105A10007C0012655B123FB174041228C202525717
:105A2000EAFEEBFF1270FDF8A3E0F9888289832279
:105A300074F412239674FF12293DEAFEEBFF8518D9
:105A400082851983E4F09008B6E07003025B2DEEC6
:105A5000240B12740764017003025B2D8E828F8306
:105A6000A3A3125EE7EE2415127407687003A3E087
:105A7000696003025B2D126358125EE4E8FAE9FBE9
:105A800088828983A3A3A3A3A3A3A3A3E0FC888202
:105A90008983A3A3A3A3A3A3A3A3A3E0F9EC240056
:105AA000F508E439F509EC45096010EC9471E994C6
:105AB0000850089008C2E06402700A8518828519AF
:105AC0008374808037122D5D8A0A8B0BA80AA90B7C
:105AD000E849602088828983A3A3A3A3E014C39428
:105AE000025011E82412125B32E82414125B3212C5
:105AF0003DE980098518828519837481F012741B31
:105B0000EF125B471228B37401122B1085820885AF
:105B1000830978081228AF75081F75098078081264
:105B200028AF12635F123F5174051228C27401023C
:105B30006553F582E91275A3E508F0A3E509F022A3
:105B4000E51612741CE5171275A3E0F50878082213
:105B500074EA12239674DB12293D8A148B15751290
:105B6000007513001261E4F50E851882851983AC67
:105B700082AD837A007B00799C122E357A047900FD
:105B8000122D2DEAF50C851882851983E0250CF07D
:105B9000F8E50EC3984003025D95E0C3950EF50944
:105BA000C394044003750903E50975F01AA4FAAB20
:105BB000F0123B9D8A128B13EA45137003025D9825
:105BC000750D00AE12AF13850E08025C57125DEC26
:105BD000123AE9850A82850B83A3A3A3A3E0703957
:105BE000850A82850B83126B707012126097127394
:105BF000FEEE2418F582EF127595E48016125DFB17
:105C0000F0900562E014C0E0EE2418F582EF127502
:105C100095D0E0125E34E4803B900562E004C0E081
:105C2000EE2418F582EF127595D0E0125E2CC39425
:105C300003EE4003025CF3126098126B5B125E2C61
:105C400064017003025D00EE2415125DFEF0EE2487
:105C500016125DFE125E07E50DC395094003025D55
:105C600025E508C3950C4003025D0A85080AAA0AC7
:105C70007B00122D998A0A8B0B050890054F125E46
:105C8000131245B7850A82850B83125EE7125DDE2B
:105C9000127309125E41850A82850B83A3A3A3A315
:105CA000A3A3A3A3A3A3E0C0E0EE2419F582EF12FF
:105CB0007595D0E0F07401122B10E4F0850A82850E
:105CC0000B83125EE77402122B10125EF97401123C
:105CD0002B10AA82AB83122D09E964016003025BD9
:105CE000CD7404122B10AC82AD83125DF21245B755
:105CF000025BD3125DFC125E2C64036003025C47FE
:105D0000125DE5127595E4025C4DE50CC3950E40FD
:105D1000057508008016E50EC3950CF508800D1278
:105D20005DFB125E07E50DC39509506C740E122BD6
:105D300010AC82AD8385080AAA0A7B007987122EEF
:105D40003505087418122B10125E131245B7125D38
:105D5000EC123AE9EE2412F8EF3400F9740E122B2B
:105D600010126C3988828983EAF0A3EB125E3474D6
:105D700003125E41741D122B10E0C0E0EE2419F5F1
:105D800082EF127595D0E0126B98709312609712A3
:105D90007595E4808D750900750A00780A1228B39C
:105DA00078121228AF78091228B3E50EF5097809A0
:105DB0001228B37405122B10E0FD7C0012705312F0
:105DC0003FED74051228C2E51245136007AA12AB15
:105DD00013123BA374251228C27F0E0225C1EE24A4
:105DE00012F582EF22EE2415F582EF227C087D0069
:105DF00079FFEE240AFAEF3400FB22EE2414F58238
:105E0000EF1275A3740122F0EE241AFEEF3400FFA6
:105E1000050D22125EEB8E828F83E8F0A3E9F07C01
:105E2000637D05EE2402FAEF3400FB221275B8A35D
:105E3000A3A3E022F0EE2415125E5124161275A0E1
:105E400022F0EE2417125E5124181275A074FFF090
:105E500022F582EF1275A77402F0EE2274F6122377
:105E60009674F912293D8A088B091276FD123AF5CB
:105E7000851882851983122AF9125ED2C0E0740453
:105E8000122B10D0E01274DDE0FA7405122B10749E
:105E900001F07406122B107401F0900707F09007C0
:105EA00010041275CCA3125EE7900708125EF9EA9F
:105EB000900711F0E508126571E50912740A900760
:105EC00006125EF1122DD5E96003122DDB74070274
:105ED0005254EE2404FEEF3400FF8E828F83E022C2
:105EE000126B52E91275A3125EEB22E0F8A3E0F9FF
:105EF000221266A0AA82AB8322E8F0A3E9F0227402
:105F0000F212239674FF12293D7508007E007F006F
:105F10001230998A0A8B0B1230998A0C8B0DA80CBF
:105F2000A90D80050508125EE0E84970F79008C2E7
:105F3000E06007640160030260141230998A0C8BE0
:105F40000DA80CA90D8003125EE0E8496037888235
:105F50008983126C3990054FE06A7003A3E06B608F
:105F60000E126B52E9127595126C39EA4B70D88893
:105F7000828983125EE790054FE0687003A3E069B1
:105F800070030260147A167B00123B9D8A0C8B0D05
:105F9000AE0CAF0DEE4F607C90054F125EE78E8227
:105FA0008F83125EF9900544E08E828F83A3A3F065
:105FB00012320DE98E828F83A3A3A3A3A3F09014C2
:105FC000B91275ACF07C637D0512609D1245B785F2
:105FD0001882851983AA82AB837941124677851886
:105FE00082851983E060089006FD125EE7800478E0
:105FF000FE79FF8E828F83A3A3A3A3A3A3A3125E24
:10600000F9126097127595E50AF0A3E50BF08E0A78
:106010008F0B0508900711E0F8E508C39850047A43
:10602000008022E508C398FAC3940640027A0579F5
:1060300000800DE50A126B53E50B12597BF50B0935
:10604000E9C39840EE75090078091228B3780A125E
:1060500028AFEAF50978091228B3900711E0F5098D
:1060600078091228B3AD087C007A087B07900706F0
:10607000E0F9123FE774051228C29008C2E06004FC
:106080006401700BEE4F6007EEFAEFFB123BA312B8
:106090002DDB740102536DEE126B53EF22EE240BD5
:1060A000FAEF3400FB22EEFAEFFB7F060225C17403
:1060B000EC12239674FF12293D8A0A8B0B7E008E08
:1060C0000E8E0F1261E4FF851882851983AC82ADB4
:1060D000837A007B00799D122E358518828519837D
:1060E000E0F8EFC398400302618BE0C39FFEC394C6
:1060F0000B40027E0AEE75F007A4FAABF0123B9D4E
:106100008A088B098A0E8B0FEA450F607C750C009C
:106110008017850882850983A3A3A3A3A37403F032
:10612000E508240712752B050CE50CC39E505CACEA
:1061300008AD09850C108F12E5102512FAE4340021
:10614000FB798B122E35850882850983A3A3A3A32F
:10615000A3E014600814601314601F80B5850882E2
:10616000850983A3A3A3A3A3E480B485088285093A
:1061700083A3A3A3A3A3740180A5850882850983B3
:10618000A3A3A3A3A3740280967E007508007808D9
:106190001228B3780E1228AFEEF50878081228B34B
:1061A000EFF50878081228B37405122B10E0FD7C77
:1061B00000E50A2402FAE50B3400FBE50A126571DA
:1061C000E50B127064123FF374051228C2E50E4508
:1061D0000F6007AA0EAB0F123BA374011228C27FF7
:1061E0000C0225C11275C51275A31261EFE022E001
:1061F000F8A3E0F58388822274EA12239674FE12D3
:10620000293D8A148B15750A00750B001261E4F59F
:1062100008851882851983AC82AD837A007B00796A
:10622000A312483985080C851882851983125EE708
:10623000C3E50C98E499507F851882851983E0C3E3
:10624000950CFEA3E09400FFC3EE9404EF9400408D
:10625000067E037F008004EE4F605CEEFAEFFBEAFF
:1062600075F015A4FAA8F075F015EBA428FB123B05
:106270009D8A0C8B0D8A0A8B0BEA450B60397509D8
:1062800000750E00850E10C3E5109EE49F502DACE6
:106290000CAD0D850E12850810E5122510FAE434B8
:1062A00000FB79A2124839E50C2415F50CE50D34F4
:1062B00000F50D050E80CD75098B7E00750C0078FC
:1062C0000C1228B3780A1228AFEEF50C780C1228BD
:1062D000B378081228B37405122B10E0FDAC091234
:1062E0007053123FF974051228C2E50A450B600786
:1062F000AA0AAB0B123BA37402025DD674F61223FA
:106300009674FF12293DEAFEEBFF126358127440A7
:10631000A3A3A3A3A3A3A3A3E0F9122DF9E98518CE
:1063200082851983F075080078081228B374011269
:106330002B1085820885830978081228AF750835E7
:1063400075098078081228AF12635F123F517405F7
:106350001228C27401025254EE2413F582EF2279FE
:106360000112636AFAEF3400FB22EE2402FCEF34E0
:1063700000FDEE240F2274F412239674FA12293DC4
:106380008A088B0912731EFAEFFB122CE5E96013E1
:1063900012317DEAFCEBFDEEFAEFFB1245B1E96448
:1063A00001700A7401122B10E4F0A3800974011229
:1063B0002B10EEF0A3EF126B74A3A3A3A3A3A3E08F
:1063C000F8A2E650087403122B107401F0E8A2E75B
:1063D00050087404122B107401F07405122B10E491
:1063E000F004122B10AA82AB83122E29E9851882A1
:1063F000851983F0750A00780A1228B37401122BEC
:106400001085820A85830B780A1228AF750A3475C5
:106410000B80780A1228AF126427123F51740512BC
:1064200028C274060265537901E5082402FCE509D7
:106430003400FDE508240FFAE5093400FB2274F668
:1064400012239674FF12293D125A20E0F509A3E0A9
:10645000F508A909122DE7E9851882851983F090BE
:1064600008C2E0700B740165087005A9091240E9C3
:10647000EE240B127407702E75080078081228B3EA
:106480007401122B1085820885830978081228AFC1
:1064900075083675098078081228AF12635F123FBD
:1064A0005174051228C2026353C082C0839008C28F
:1064B000E070031240EF026C2874F412239674EF1C
:1064C00012293DEAFEEBFF1253739006FDE06508CA
:1064D0007004A3E065097058851882851983858248
:1064E0000A85830B780A1228AF750A11750B00789C
:1064F0000A1228AF7C007D007A817B00123C277451
:10650000041228C2E97029750A00780A1228B374A7
:1065100001122B1085820A85830B780A1228AFACF2
:1065200008AD0912655B123FAB74031228C28021CB
:10653000750A11750B80780A1228AF78081228AFF7
:10654000127404FD7C8412655B123FB77404122838
:10655000C274111228C27F040225C112655F22EEA7
:106560002402FAEF3400FBEE126571EF127125F987
:1065700022240FF5822274F112239674EB12293D26
:10658000EAFEEBFF1266A82400F508E43BF509904B
:1065900006FDE065087004A3E0650960030266403B
:1065A00088828983A3A3E09410500F88828983A3F3
:1065B000A3E0851882851983800885188285198350
:1065C0007410F0E0C0E07404122B10D0E0127421BB
:1065D000A3A3A982AA83890C8A0D750E00780C12D8
:1065E00028AB7407122B10E0FC7D007408122B10EE
:1065F000AA82AB83123ADD74031228C27404122BF0
:106600001085820A85830B780A1228AF750A1175E6
:106610000B00780A1228AF7C007D007A817B001283
:106620003C2174041228C27404122B10E09007332A
:106630006005E0D2E48003E0C2E41266A0E48008D2
:106640008518828519837484F0E0C0E07401122BF0
:1066500010D0E0F07402122B10E508F07403122B36
:1066600010E508F012741BEF125B471228B3740296
:10667000122B1085820885830978081228AF7508C7
:106680001475098078081228AF7903126361123FEC
:106690005174051228C274151228C27F070225C141
:1066A000F085188285198322125242FCA3E0FBEC8C
:1066B0002274F412239674E012293D8A088B09850E
:1066C0001882851983AC82AD83123F3F9008C2E0E7
:1066D000640270337402122B10AE82AF8312317DCC
:1066E000EEFCEFFD1245B1E9601D1231838A0A8B81
:1066F0000BA80AA90B851882851983E0687003A38B
:10670000E06970030268E612334B7402122B101218
:106710006C2F123255E9640170030268E674181296
:106720002B10AA82AB8312318F7402122B10AC8211
:10673000AD837418122B10AA82AB831245B1E960A5
:10674000321231898A0A8B0BA80AA90B8518828517
:106750001983E0687003A3E06960188518828519C1
:1067600083125EE7900545125EF97A457B05794B09
:1067700012467D9008C2E060076401600302680C65
:1067800012758DC082C0831231838A088B09D08331
:10679000D082E065087004A3E065096044740212C9
:1067A0002B10AA82AB83122D5D8A088B09A808A939
:1067B00009E849602688828983A3A3A3A3E0640132
:1067C000600D88828983A3A3A3A3E06402700C7484
:1067D00002122B10AA82AB83122D69126C33123372
:1067E0008D1231838A088B09A808A909851882852A
:1067F0001983E0687003A3E06960117402122B1022
:10680000126C2F122D3FE96003123DE97402122B26
:1068100010126C2F12332D7900126C33122F7374F7
:106820000B122B10E41268EBF8A3E0F9740C122B96
:1068300010125EF9740B122B10AA82AB83122D0971
:10684000E9604B7C087D0079007418122B10AA8235
:10685000AB83123AE9740E122B10AC82AD8374181C
:10686000122B10AA82AB831245B1E9602174021287
:106870002B10AC82AD83740E122B10AA82AB831244
:106880002CDF740B122B10AA82AB83122D1B740207
:10689000122B10AC82AD83740E122B10AA82AB8324
:1068A000122CDF740B122B10AA82AB83122D0FE96E
:1068B0006034740C122B10125EE7851882851983E0
:1068C000E0687003A3E069601D8518828519831252
:1068D0005EE7740C122B10125EF9740B122B10AAC7
:1068E00082AB83122D1B74200265531266A0E02236
:1068F00074F112239674F612293DEAFEEBFF750837
:106900000090079F126B7070537A377B00123B9D8B
:1069100090079FEAF0A3EB12712B60197C377D0082
:106920007900123AE9EEFCEFFD90079F126C3912E4
:106930003F0FE9700B8518828519837488026AAC51
:1069400012740E242EF582E8125E01F07C1B7D3F4E
:106950009004D3126C391248A5026B4DE0C8242E66
:10696000126B58F0EEFCEFFD127069123F0FE970E8
:106970000C8518828519837488F0750801750A6979
:10698000750B07780A1228AF126C491226D31274BD
:106990000E2428F582E812740AFC126C7C12740E24
:1069A000126B53E8127064123E7374041228C21200
:1069B0006B61126B792431F582E812740A6043121C
:1069C0007110FAE433FB123B9D90079FE0243212D2
:1069D0006B8E6022750C69750D07750E00780C12B0
:1069E00028AB127110FCE433FD126C67123ADD74AF
:1069F000031228C2800C8518828519837488F0756B
:106A00000801780A1228AF126C3D1226D312740EB8
:106A10002411F582E812740AFC126C5E12740E24C2
:106A20002BF582E8127064123E7374041228C212AD
:106A3000740E2434126B792434F582E812740A60DF
:106A400035127107FAE433FB123B9D90079FE02457
:106A500035126B8E6045750C69750D07750E0078E3
:106A60000C1228AB127107FCE433FD126C55123A7C
:106A7000DD74031228C2E508A2E04028126B61F51C
:106A800082E812740A700890079F1270CE60157B1E
:106A9000007A007900123F15026B4D851882851926
:106AA000837488F08518828519837486F0740912BE
:106AB0002B107402126B741270C8122B10125EF934
:106AC0008E828F83A3125B4A1228B37401122B109B
:106AD00085820885830978081228AF750820750912
:106AE0008078081228AF79017406122B10AC82ADA1
:106AF00083EEFAEFFB123F5174051228C21270ABFD
:106B000070487409122B107402F01270C0122B100E
:106B10001271321228B37401122B108582088583FA
:106B20000978081228AF750820750980780812289E
:106B3000AF79017406122B10AC82AD8390079F12BF
:106B40006C39123F5174051228C2123F09740A02AF
:106B50006698E82414F58222F582E81275A374027F
:106B60002290079F127085243122F582E81275A3C6
:106B7000126DB1221274DDA322F582E81275A31200
:106B80006B84C822E9F090079FE0F8A3E022F8A305
:106B9000E0126B9FEAF0A3EB12743A126DB122344B
:106BA00000F98882898322C082C08390079F126B7C
:106BB000706075E0C82435126B6A6006126C55125D
:106BC0003BA312740E2432126B6A6006126C6712B9
:106BD0003BA312740E2412126B6A6009126C3D12F0
:106BE0006C39123BA312740E2415126B6A600612E4
:106BF0006C7C123BA312740E2429126B6A6009127A
:106C00006C49126C39123BA312740E242C126B6A5D
:106C10006006126C5E123BA390079F126C39123B08
:106C2000A390079FE4F0A3F0D083D082022874AC35
:106C300082AD83851882851983126C762212708248
:106C40002412F582E81275A3221270822429F5829B
:106C5000E81275A3221270822435126C7022127011
:106C600082242C126C70221270822432126C7022D8
:106C7000F582E81275A7E0FAA3E0FB2212708224E5
:106C800015126C702274F1122396EAFEEBFF8C0849
:106C90008D09750A018C0C8D0D750E00780C12286B
:106CA000AB7C177D00123ADD74031228C2125DDE40
:106CB00012724F125DE512725B2411F582E5091222
