:020000040000FA
:10000000021BC6022003FFFFFFFFFF02200BFFFFC2
:10001000FFFFFF022013FFFFFFFFFF02201BFFFF78
:10002000FFFFFF022023FFFFFFFFFF02202BFFFF48
:10003000FFFFFF021305FFFFFFFFFF02203BFFFF53
:10004000FFFFFF022043FFFFFFFFFF02204BFFFFE8
:10005000FFFFFF022053FFFFFFFFFF02205BFFFFB8
:10006000FFFFFF022063FFFFFFFFFF02206BFFFF88
:10007000FFFFFF022073FFFFFFFFFF02207BFFFF58
:10008000FFFFFF022083FFFFFFFFFF02208B002006
:10009000000090200000932000000100000000C834
:1000A00003000000000000000400FFFFFFFF00C28B
:1000B000010000002600FFFFFFFFFFFFFFFF04031A
:1000C00009042403540065007800610073002000D7
:1000D00049006E0073007400720075006D006500C9
:1000E0006E00740073002403540049002000430094
:1000F000430032003500330031002000550053002A
:100100004200200043004400430000035F005F0002
:100110003000580000000000000000000000000057
:1001200000000000000000000000000000000000CF
:10013000000000003031323334353637383941422F
:10014000434445467F18D418D418D418D418DC1862
:1001500074F71217BA1207A3700FA3A3E0700AA3D3
:10016000E064027002A3E060089005A47404020237
:10017000119005B6E02480600814602D14603A8068
:10018000E89005BAE070E29005B0E0600478018084
:100190000278009005BEE8F0A3E4F09005AFE060BF
:1001A000559005BEE04402804990059DE0640470CE
:1001B000B89005BEE4F0A3803C9005BAE0547FF50A
:1001C0000890059DE0640470A0E508C3940650996A
:1001D0009005BAE05480600C1202FBE06403700CDE
:1001E0007801800A1202EEE0640360F47800900562
:1001F000BEE8F0A3E4F09005A4E064046014900568
:10020000B174BEF0A37405F0A3E4F0A37402120865
:1002100002F07F02021A2674F71217BAE9FE90055F
:10022000BC1207A6701090059DE064046010900554
:10023000BA1207A660089005A474040202E89005AB
:10024000B6E0541F600814600D14602380E8900528
:10025000B8E06401600579000202EBEE9005AFF0B2
:1002600060047905800279067A001217B8807A90C6
:1002700005BAE0547FFA9005B8E070DAEAC3940654
:1002800050B4EA90620EF09005BAE05480602AEE15
:100290006004741080027440906211F0EE60047487
:1002A000038001E4C0E08A081202FBD0E0F0EE60B7
:1002B000047908802C79078028EE6004742080027D
:1002C0007480906214F0EE600474038001E4C0E076
:1002D0008A081202EED0E0F0EE6004790A8002791A
:1002E000091217B890620EE4F0790102021274A9A3
:1002F0002508F58274053400F5832274A42508F5D9
:100300008274053400F583227900120217E9700324
:100310001217A7227901120217E970031217B622E9
:10032000C082C0839005BA1207A67014A31207A654
:10033000700E9005B8E05480F8A3E0F9E849600732
:100340009005A47404801D9005B8E0906200F090C0
:10035000059D6009E06402700C74038007E064038B
:1003600070037402F0D083D0822274F51217BA9011
:1003700005B9E014600814601914604C806412130D
:100380009C120527A37B80121AEEA3F0A3E4F002CF
:1003900004DE9005B8E0FA79001213BE1205277B3F
:1003A00080E924020909EA3400FA121AEEFC19194C
:1003B000E0FAA3E92403090909EA3400FA121AEE63
:1003C000F9ECA3F0A3E980C69005B8E0F912142C6B
:1003D0009005B1EAF0A3EBF0A3E4120536A37B008D
:1003E00080A59005B1E4F0A3F0A3F0FA0204B27581
:1003F000090074037808121B91120540E493C0E0D1
:100400009005B9E0F8D0E06860030204B18A08758D
:10041000090074037808121B91120540A3E493C0ED
:10042000E09005B8E0F8D0E06860030204B18A0803
:1004300075090074037808121B91120558E493C0E3
:10044000E09005BBE0F8D0E06870668A08750900A6
:1004500074037808121B91120558A3E493C0E0902E
:1004600005BAE0F8D0E06870488A0875090074039E
:100470007808121B9112054CF988828983A3A3A3E3
:10048000A3E493F508740193F5099005B1E508F02C
:10049000A3E509F0A37480F088828983A3A3A3A3B2
:1004A000A3A3E493F8740193F99005B4E8F0A3E9E9
:1004B000F00A8A0890067A1206AC75830675827C6B
:1004C000E0C398F50AA3E099F50B7403780A121BB0
:1004D000B7C3E508950AE4950B50030203EF9005B6
:1004E000B1E0FCA3E0FDA3E0FEEC4D4E9005A4704E
:1004F000047404802CE0640460289005B41206ACF7
:100500007583057582BCC3E098A3E099500E9005F1
:10051000BC1206AC9005B4E8F0A3E9F09005A47411
:1005200001F07F04021A269005B1EAF0A3EBF0A3D4
:10053000748012053622F09005B1E0F9A3E0FA22AA
:100540001205442212054C8882F5832290067AE037
:100550002508F8A3E0350922120544A3A32274EF6D
:100560001217BA8A088B098A828B83A3A3A3A3E4F8
:1005700093602690067E1206ACE8FEE98007EE2422
:1005800004FEEF3400FF8E828F83E493F8740193AE
:10059000F9EA687002EB6970E5750C00804A9062B8
:1005A000147490F0741012069C70027940750A0160
:1005B000750B00E50E780A121B918E828F83A3A320
:1005C000A393550A6004E9D2E0F9E9906215F0EAD4
:1005D000906213F074A9250EF58274053400F5833A
:1005E000E4F090620EF0050C850882850983A3A3D0
:1005F000A3A3E493F8E50CC39840030206977A009E
:10060000790512132E8A0A8B0BEA450B60D8EA246F
:1006100002F8EB3400F9E8FCE9FD8C828D83E49369
:10062000540FF50E90620EF079008A828B83A3A39B
:10063000A3A3E4932407F510A3E4933400F5117405
:10064000037810121BB7AA108C828D8393A2E74007
:100650000302059E9062117448F0740812069C70A3
:10066000027940750A01750B00E50E780A121B919C
:100670008E828F83A3A393550A6004E9D2E0F9E93F
:10068000906212F0EA906210F0850E0A74A4250AB6
:10069000F58274050205DC7F0A021A26F0850A82BB
:1006A0008B83A3A3A3E4935403640122E0F8A3E0A3
:1006B000F922C082C0831207A37010A31207A6708C
:1006C0000AA3E064017002A3E060079005A474042B
:1006D000800C9005B1749EF0A374051207F8F00227
:1006E000036574F61217BA90059DE06402601490D9
:1006F00005BA1207A6700CA31207A670069005B9DA
:10070000E060099005A47404F00207917A00790171
:100710001217B89005B8E060637A00F91213BE8A28
:10072000088B09AE08AF09EE4F604990059D74042F
:10073000F09005B8E090059EF0750A008E828F83D8
:10074000A3A3A3A3E493F8E50AC398503D850A0840
:10075000120796E4F07A00790412132E8A828B83B2
:10076000A3A3A3E493F8120796E06870E812055E6D
:10077000050A80C89005A47404F0800E90059EF0D0
:1007800090059D7403F0F9120F5E7A00790212173A
:10079000B87F03021A26749F2508F5827405340079
:1007A000F583229005B8E0F8A3E0F9E8492274F651
:1007B0001217BA90059DE0640470199005B6E064C4
:1007C0008170111207A3700C9005BCE064017002E7
:1007D000A3E060079005A47404801A9005BAE02491
:1007E0009FF508A3E03405F5099005B1E508F0A3ED
:1007F000E5091207F8F08099F0A3E4F0A3041208C9
:100800000222F0A3E4F09005A4042274F71217BAB0
:1008100090059DE0640470109005B6E064017008D6
:100820009005BC1207A660089005A47404F08052DD
:100830009005B8E0FB9005BAE0FA90059EE0F91249
:1008400013F68A088B09AE08AF09EE4F60DA9005FF
:10085000BAE0FA79031217B89005B8E0C0E0900545
:10086000BAE0249FF8A3E03405F988828983D0E0B8
:10087000F0EEFAEFFB12055E9005BAE0FA79041289
:1008800017B802021274F81217BA74FF121B517EC5
:10089000008033900384E0F8851882851983E0682E
:1008A000700D900382E0644D7005120AD2E9FE904B
:1008B0000385E4F0900387F0851882851983E0F8BA
:1008C000900384E068F07901851882851983AA82F3
:1008D000AB831210D5E97003020983E0C0E09003F6
:1008E00087E0F8900385E0FAE82AF8E43400120C77
:1008F00086D0E0F0900387E0601114602014603E21
:1009000014604E14606414608A80AD851882851965
:1009100083E064FE70A29003877401809A90038440
:10092000E4F0851882851983E0900386F0C39480F3
:100930009003874004E40208B774020208B78518E0
:1009400082851983E0900382F09003877403020884
:10095000B7851882851983E0900383F0900386E0C1
:10096000601990038774040208B7900385E004F0CF
:10097000F8900386E06860030208B8900387740566
:100980000208B7EEF97401121B087F01021A2674DF
:10099000ED1217BA74FB121B517508047509007823
:1009A00008121B6B7402121C09120C73121B0885AF
:1009B0001882E0F47003A3E0F4600F8518828519B3
:1009C00083E0F8A3E0F9E8497003020AC674021252
:1009D0001C09E0687003A3E0697003020AA07508AF
:1009E000009005C07810121BD5800A9005C47810BD
:1009F000121B7C604A750A01750B00780A121B6B8A
:100A00007406121C09AC82AD8385100A85110BAAED
:100A10000AE50B5407FB8A0C85110D85120E851310
:100A20000F740B780C121B22A90C120C7D121B08E0
:100A3000E0F9AA08AB09120C928A088B0980089089
:100A400005C87810121BD59005CC7810121BA49005
:100A500005D07810121AB45092E4F9120C92E4F90D
:100A6000120C927402121C09EAF0A3EBF075080153
:100A70007509007808121B6B7402121C09AC82AD58
:100A8000837A247B081215D47402121B087508049B
:100A90007808121B6B7402121C09120C73121B08CB
:100AA000120C65121C09E0687003A3E069701785D9
:100AB0001882851983E0F47003A3E0F46008E84924
:100AC00060047901800279007405121B087F0C0212
:100AD0001A2674F31217BA74FC121B51900306E025
:100AE000FAA3E0F9EA2400F8F508E93408F50975F5
:100AF0000A017F007E00900383E014600C146040C4
:100B0000147003020B99020C16E5095401F9E84927
:100B10007011880C85090D7409780C121BB7A90C8B
:100B2000121638750C108E0D780C121B6B7C087D1C
:100B300003AA08AB091215D47402121B08020C1682
:100B4000880C85090D7409780C121BB7E50CC39449
:100B50007940040F020C16750A408E0B780A121B9E
:100B60006B7C097D03EAF50AE5095401F50B740273
:100B7000780A121B91AA0AAB0B74097808121BB7EA
:100B8000A908120C7D121B08900307E0A3F0900344
:100B900006E0A3F0750A43807D7508048E09780885
:100BA000121B6B7402121C09120C73121B087402C4
:100BB000121C09E0F8A3E0F9851882851983E06822
:100BC0007003A3E069603B120C65121C09E8F0A3F6
:100BD000E9F07508017808121B6B7402121C09AC4D
:100BE00082AD837A247B081215D47402121B087517
:100BF00008047808121B6B7402121C09120C731281
:100C00001B08120C65121C09E0687003A3E06970F0
:100C1000030E80027F07900305E0D2E7F0EFA3F018
:100C2000E50A900303F0744D650AF5087404250A7B
:100C3000FB7A038007120C83E062080AEAC39BA2D6
:100C4000D265D033EAF840ED120C83E508F0740168
:100C50002AF97A027B03121115EEF97404121B08AB
:100C60007F06021A26851882851983E0F8A3E0F929
:100C7000740222AC82AD837A907B00790412154F06
:100C80007402223395E0F9740228F582740339F571
:100C90008322C008C0097C088A088B09740F780871
:100CA000121BB7EAC333FAEB33FBE9A2E750047433
:100CB000014AFAE508A2E0500874216AFA74106B40
:100CC000FBE9C333F91CEC70CFD009D00822C082F5
:100CD000C0837A0079011213BE8A828B83A3A3A3F7
:100CE000A3A3A3A3E493A2E69005B05004740180EB
:100CF00001E4F09005AFE4F090620F7403F0E0A21D
:100D0000E750FB90620BE0D2E1F0D083D08222C0AA
:100D100082C08390059D7402F0A3E4F09005A4F0D6
:100D20007903120F5E75210075220080DD74F612C2
:100D300017BA90620EE0FEE4F0906211E0F50AA2AC
:100D4000E4501D7480F09005A47407F0E52145225D
:100D50006009852182852283121C1B9005A4E4F082
:100D6000E50AA2E2500B906211E4F09005A4F08035
:100D7000769005A4E064027057906216E0FF90053B
:100D8000B1121A66EFF97A207B62120F9674031281
:100D90001B088F089005B4120F33120F3EE0F8A322
:100DA000E0F9E8496004744080027448906211F0F0
:100DB000E8497014E5214522600985218285228356
:100DC000121C1B9005A4E4F0EE90620EF0020FDC02
:100DD000E064067009852182852283121C1B900520
:100DE000A4E06003020ECDE50AA2E050DB7508B670
:100DF000750905750A007808121B6779087A207B47
:100E000062120F967403121B087521007522009060
:100E100005B6E054E0601C24E07003020EA724E055
:100E2000606F24C0604524E07003020EB224E060CD
:100E30006B8030A3E014601C24FE601324FE600A63
:100E400024FC601524FE60168019120320806C12A9
:100E50000314806712030880621206E2805D1208A4
:100E60000B80589005A47404F08058A3E0600E2411
:100E7000FA600F24FE601024FE601180E61201501B
:100E8000803912036A80341206B2802F1207AE80B6
:100E90002A7521A37522171217A3801F7521A57526
:100EA00022171217A58014752140752217121740BA
:100EB000800975216E75221712176E9005A4E064E3
:100EC000047004746080027440906211F09005A474
:100ED000E06401704A750A029005B4C3E09420A34F
:100EE000E09400500A9005B4E0FF750A0A80027F82
:100EF000209005B1121A66EFF97A207B62120FBAC0
:100F00007403121B088F08120F3E120F33E50A906C
:100F10006211F0EFC394204003020DC8020DB4E04B
:100F200064056003020DC8852182852283121C1B83
:100F3000020DC8C3E09508F0A3E09400F0229005EC
:100F4000B1E0F9A3E0FAA3E0FBE92508F9EA3400EF
:100F5000FA9005B1E9F0A3EAF0A3EBF0A32274F74D
:100F60001217BA7800880874A52508F5827405124E
:100F70000F8A40F17800880874AA2508F582740564
:100F8000120F8A40F17F02021A263400F583E9F03D
:100F900008E8C394052274F61217BAEAFCEBFDE9DF
:100FA000F8740A121C09120FEC600D8C828D83E01C
:100FB000121B3B120FE170F3802274F61217BAEA8B
:100FC000FCEBFDE9F8740A121C09120FEC600D121B
:100FD0001AEE8C828D83F0120FE170F37F03021AF8
:100FE00026E9240109EA3400FA18E822E0F508A30A
:100FF000E0F509A3E0A908AA09FBE822C082C083A2
:10100000A823E8540460097823E654FBF6120D0F78
:10101000A823E8541060097823E654EFF6120D2D4A
:10102000A823E8A2E05005782354FCF690620EE075
:10103000FA7404F0906214E0A2E05042E5A8F8C20D
:10104000AF906216E0F9A3E0E9FBE8A2E792AF8077
:101050001F906228E0C0E0900391E0F8749228F5B8
:101060008274033400F583D0E0F0900391E004F043
:10107000EBFC74FF2C1B0470D8906214E4F0EA902F
:10108000620EF0E0FD7404F0906211E0A2E0403BDB
:10109000900493E0F8900492E068602F7A40900406
:1010A00092E0F8749428F58274043400F583E0909B
:1010B0006228F0900492E004F008900493E06860E5
:1010C000041AEA70D99062117401F0ED90620EF08A
:1010D000D083D0822274F81217BAE9FE7900801FFB
:1010E000900390E0FC74922CF58274033400F58335
:1010F000E08A828B83F0900390E0041211480990FB
:101100000390E0F8900391E0686005E9C39E40D049
:101110007F01021A26C082C08380228A828B83E0EC
:10112000C0E0900493E0FC74942CF58274043400C5
:10113000F583D0E0121148900493E004F0E9F874CC
:10114000FF28190470D58088F08A828B83A3AA8235
:10115000AB832212120112098FE9603112127AE96F
:10116000602B75AC00759A0053F4FEC29043FE01EB
:1011700090620FE4F0E0A2E740FB90000174CDF034
:10118000022000C2AF75C9AB75C95B80FE9005D463
:10119000780C121BD5794E1211EBD2AF850D099048
:1011A00005CC780C121BA4E5095440600AA28050BB
:1011B00004C2808002D280120FFC120885E960DC34
:1011C000C280D2919005D87808121BD5120FFC90DE
:1011D00005DC7808121BA4E5084509450A450B7093
:1011E000EBC2AF75C9AB75C95B80FE781075B60FE1
:1011F000E5B4A2E750FAE5BBC39940F118E870EDF9
:1012000022C082C08353BEFBE59DA2E650FA00785F
:10121000F8790100E824FF18E934FFF9E84970F390
:1012200075C6807480659E70FA43BE0490627074C7
:1012300008F0D28043FD01C29143FE02794A1211A7
:10124000EB90000174F5F07403F5D575D488900522
:10125000E0121BFD900594121BF1900598E4F0A399
:10126000F0A37408F0120CCE7AFF7BFF12164F53D6
:10127000F4FED29043FE010210D074F11217BA743A
:10128000FF121B519005E4780C121BD57E00D2AFE3
:101290008004C291C280120FFC79018518828519E1
:1012A00083AA82AB831210D5E96012E064F860343F
:1012B000E0640770089005D4780C121BD5A29250F8
:1012C00023A293501E850C08850D09850E0A850FF3
:1012D0000B9005DC780C121BA4E5084509450A456E
:1012E0000B70130EC2AFD280C291EEF97401121BC3
:1012F000087F08021A26850D09E50954207093D24B
:1013000080D2918091C0E074F2121820900001E028
:1013100064CD7005122033800BE064F57005121661
:101320009A8001007F010218DCD083D08222C08223
:10133000C083E9FCEAFD7A007B00800790059CE011
:1013400012138190059BE0F8A3E0F9900678E0681D
:101350007003A3E069601C1213756C700D90059BFF
:10136000E0FAA3E0FB12138180091213756D70CCB3
:10137000ED60C980B490059CE0F5838882A3E49376
:1013800022F5838882E493F890059BE028F8A3E097
:101390003400F990059BE8F0A3E9F022C082C083F5
:1013A0001213AD7A00790112132E021329900676DA
:1013B000E0F8A3E0F990059BE8F0A3E9F02274F7C8
:1013C0001217BAE9FEEAFF1213AD7A00790212137E
:1013D0002EEA4B601CEE60108A828B83A3A3A3A32A
:1013E000A3E4936E70E48009EFF874FF281F047083
:1013F000D97F02021A2674F51217BAEAFF8B087A0F
:10140000001213BE7A02790412132EEA4B60188A76
:10141000828B83A3A3E4936F70EA8A828B83A3A356
:10142000A3E493650870DD7F04021A2674F712178F
:10143000BA74F0121B51E97A007B00600C14601042
:101440001460141460180215377AF07B0502153702
:101450007AF47B050215377A187B06021537900659
:101460003CE060030215337408121C09AC82AD83A2
:101470007583057582E87408121A93750808F509D2
:101480007808121B6B7402121C09AC82AD837AE8D7
:101490007B07797F12154F7402121B087808121B04
:1014A0006B740A121C09AC82AD837402121C09AA67
:1014B00082AB831219347402121B088B09EA4509A6
:1014C000701D7509007808121B6B7C0C7D78740206
:1014D000121C09AA82AB831219E07402121B087C49
:1014E000287D008D08851882851983E5822508F5F9
:1014F00082E5833400F583E0FF8C08743C2508F80E
:1015000074063400F9EF12153F88828983F0EFC426
:1015100012153FC0E0E824FEF582E934FFF583D0E0
:10152000E0F00D74FC2CFCEDC3940840B690063C32
:10153000742AF07A3C7B067410121B080213F154D3
:101540000FFA74662AF58274063400F583E022747B
:10155000F51217BA8908740B121C09E0FEA3E0FF0C
:10156000740F5508F50A750B00740B780A121B915D
:10157000EA2400F8EB3480F9E82400E9350BF9E5BA
:10158000C7F509A2AFE433F50AC2AFE508C4540FAA
:10159000FAE5C754F84AF5C7801C88828983E08C35
:1015A000828D83F088828983A3A882A9838C828D0F
:1015B00083A3AC82AD83EEFAEFFBEA24FF1EEB348B
:1015C000FFFFEA4B70D48509C7E50AA2E092AF7F1E
:1015D00004021A2674F71217BA7409121C09E0F5EE
:1015E00008A3E0F509ED900388F0ECA3F0A3746282
:1015F000F0A37473F0A3E0541FF0E508333354FCF8
:10160000A3F074067808121BB7E50890038CF090DD
:10161000038E7412F0A37442F075D1FE75D601EA00
:10162000906271F0EBA3F0906270E0D2E1F0E0A282
:10163000E740FB7F02021A26C082C083E9C33390D1
:101640006272F0906270E0D2E0F0D083D0822274B7
:10165000F71217BA7523007524007525008A268BAA
:1016600027EA90620BF08A088B0974047808121B31
:10167000B7E508906207F08A088B097409780812A8
:101680001BB7E508543E906209F0758B00C2E84331
:10169000AC20439A027F02021A2674F71217BAE5A9
:1016A0009DA2E650FA906206E0FAA2E25035A82622
:1016B000E890620BF0F50885270974047808121B7E
:1016C000B7E508906207F085260885270974097830
:1016D00008121BB7E508543E906209F0906201E0E1
:1016E000D2E0F07823EA46F6906202E0F508750948
:1016F0000074047808121B917823E50846F608E583
:101700000946F6906204E0F5087509007409780846
:10171000121B917824E50946F6EAA2E050037525EC
:101720000174065A6003752500E58BA2E550067525
:101730008BDF7525001217B9758B00C2E80216956C
:10174000C082C0839005B7E06422700A9005A4E0CF
:10175000701A74028015E064209005A4700BE0708C
:101760000B1217959005A480E97404F08043C082A1
:10177000C0839005B7E064219005A47013E0701356
:10178000121795A37407F0A3E4F09005A404800257
:101790007404F0801C9005B17494F0A37405F0A358
:1017A000E4F02280028000C082C0839005A474040B
:1017B000F0D083D0822280EF22222518C582C0E09B
:1017C000E51934FFC583C0E0E518C3958224F910FC
:1017D000AF0885831985821880088583198582184A
:1017E000D2AFCEF0A3E520F0A37808E608F0A3DEA0
:1017F000FAEFF0A3E58124FBF8E608F0A3E608F091
:10180000A30808E608F0A3E608F0A315811581D027
:10181000E0FED0E0F815811581E8C0E0EEC0E022DE
:10182000C0D02518C582C0E0E51934FFC583C0E0EB
:10183000E518C3958224F310AF08858319858218B3
:101840008008858319858218D2AFC8F0A3E9F0A378
:10185000EAF0A3EBF0A37908E709F0A3D8FAECF0DB
:10186000A3EDF0A3EEF0A3EFF0A3D0E0F0A3D0E05F
:10187000F0A3D0E0F0A3E520F0A3E5F0F0A322125E
:10188000010002020000205104A816090001020311
:10189000010902430002010080190904000001024D
:1018A00002010005240010010424020205240600A0
:1018B00001052401000107058203400040090401DD
:1018C00000020A000000070584024000000705042A
:1018D000024000009A180000BD1800008519838599
:1018E0001882E0C0E0A3E0F9A3E0FAA3E0FBA3784C
:1018F00008E0F608A3DFFAE0FCA3E0FDA3E0FEA306
:10190000E0FFA3E0C0E0A3E0C0E0A3E0F5D0A3E0E7
:10191000F520A3E0A3F5F010AF08858319858218A0
:101920008008858319858218D2AFD082D083D0E019
:10193000F8D0E03274F81217BA7408121C09E0F8F3
:10194000A3E08015A3AA82AB838C828D83A3AC8293
:10195000AD83E824FF18E934FFF9E84960238A825F
:101960008B83E0FE8C828D83E06E8A828B8360D4D1
:10197000E0F88C828D83E0FAE8C39AFA95E0FB8068
:10198000047A007B007F01021A26121C18B900039A
:101990000219DAE479217807B800028004F709D83F
:1019A000FCE490030278BF79038002F0A3D8FCD94D
:1019B000FA9005C0AA82AB8390008E78C37901802B
:1019C00015E493A3AC82AD838A828B83F0A3AA82B1
:1019D000AB838C828D83D8E9D9E7121153121C1383
:1019E00074F71217BA7409121C09E0FEA3E0FFEAAB
:1019F000F8EBF980188C828D83E088828983F0A3CC
:101A0000A882A9838C828D83A3AC82AD838E088F3C
:101A100009E50824FF1EE50934FFFFE508450970C4
:101A2000D47F02021A26851983851882E0A3FEE07E
:101A3000A3F5207808E0A3F608DFFAE0A3FFE0A30F
:101A4000C0E0E0A3C0E0E0A3C0E0E0A3C0E010AFCE
:101A5000088582188583198008858218858319D2A4
:101A6000AFD083D0822274038000CCC0E0EDC0E010
:101A7000E518C39CCCAD1950011D10AF068C188D14
:101A80001980068C188D19D2AF121A93D0E0FDD0B0
:101A9000E0FC22CAC0E0E0A3C582CCC582C583CDEC
:101AA000C583F0A3C582CCC582C583CDC583DAE6E4
:101AB000D0E0CA22C008C3E096F50808A3E0964229
:101AC0000808A3E096420808A3E09645087001D3F1
:101AD000D008222518F58210AF08F5184002151914
:101AE0008008F51840021519D2AF85198322BB0171
:101AF00002E722C082C08389828A83BB0003E08020
:101B000002E493D083D08222C0D0251810AF08F50C
:101B100018500205198008F51850020519D2AFD0E7
:101B2000D0226016080808C6C313C618C613C61804
:101B3000C613C618C613C6D5E0EA22BB000EC08283
:101B4000C0838A838982F0D083D08222BB0101F7CF
:101B500022251810AF08F518400215198008F5184D
:101B600040021519D2AF227403800474028000C0B1
:101B7000E0F404121AD3D0E0121BE422E0667010E5
:101B800008A3E066700A08A3E066700408A3E06694
:101B900022700422600D18C6C333C608C633C6D5EA
:101BA000E0F41822E026F608A3E036F608A3E036B3
:101BB000F608A3E036F622600C08C6C313C618C6A2
:101BC00013C6D5E0F42275D00075814075180275F2
:101BD000190302198AE0F608A3E0F608A3E0F60864
:101BE000A3E0F622CAC0E0E6F0A308DAFAD0E0FAF1
:101BF00022EAF0A3EBF0A3ECF0A3EDF022E0FAA3CD
:101C0000E0FBA3E0FCA3E0FD222518F582E43519F2
:101C1000F5832200000080FB790122E473FFFFFFBF
:101C2000FFFFFFFFFFFFFFFFFFFFFFFFFFFFFFFFC4
:101C3000FFFFFFFFFFFFFFFFFFFFFFFFFFFFFFFFB4
:101C4000FFFFFFFFFFFFFFFFFFFFFFFFFFFFFFFFA4
:101C5000FFFFFFFFFFFFFFFFFFFFFFFFFFFFFFFF94
:10200000022C0902221EFFFFFFFFFFFFFFFFFFFF61
:10201000FFFFFFFFFFFFFFFFFFFFFFFFFFFFFFFFD0
:10202000FFFFFFFFFFFFFFFFFFFFFF0228FAFFFF99
:10203000FFFFFF022241FFFFFFFFFFFFFFFFFFFF48
:10204000FFFFFFFFFFFFFFFFFFFFFFFFFFFFFFFFA0
:10205000FFFFFF02215AFFFFFFFFFFFFFFFFFFFF10
:10206000FFFFFFFFFFFFFFFFFFFFFF0228D2FFFF81
:10207000FFFFFFFFFFFFFFFFFFFFFF022799FFFFAB
:10208000FFFFFF0221BA01FFFFFFFFFFFFFFFFFF7E
:10209000102010200101FF01010503010F10FEFFB8
:1020A000F736F736F736F73695358F35F7367E4BF8
:1020B00000000000E64B00000000FF000000FF00F1
:1020C000010000973900000000E938B73A31392D96
:1020D0003A00001F390000000000000000FF01016D
:1020E000002707000000E803A107E803640064007C
:1020F000B8010202000800000502070101051E02E6
:10210000051E020A0A0103B80B02803E0102FEFF0F
:10211000E8030A050001FFFF0A01E00020FD0002BC
:102120000206FFFF00035F005F0030005800000060
:10213000000000000000000000000000000000009F
:102140000000000000000000000000000000B925B1
:102150000E260E260E260E261626C0E074F2122536
:102160005AA2AFE433FED2AFE5A7FFE5A1F5085FC1
:102170005410600612439375A1EFE5085F540860A0
:102180000812439975A1F78024E508A2E092F0EFC8
:10219000A2E082F05017906198E0F89008A7E0C3A1
:1021A00098A2D265D0335002E8F075A1FE751A00EE
:1021B000EEA2E092AF7F01022616C0E074F2122573
:1021C0005AA2AFE433FED2AF9061A4E0F8759B0051
:1021D000E59158540860087591F71243ED8023E5A6
:1021E0009158541060087591EF1243F38014E591F3
:1021F000A2E092F0E8A2E082F05007E0C2E0F01224
:1022000045439061A3E0F8E5E9585404600E124597
:102210001975E9FB906193E0A2E640F2808FC0E07F
:1022200074F212255AA2AFE433FED2AF9061A5E05A
:10223000F8E5BF585404600675BFFB12455B0221E8
:10224000ADC0E074F112255AE59DA2E650FA906205
:1022500006E0FAA2E25035A82CE890620BF0F508EF
:10226000852D0974047808122C28E508906207F07F
:10227000852C08852D0974097808122C28E5085446
:102280003E906209F0906201E0D2E0F07829EA46DF
:10229000F6906202E0F50875090074047808122BC4
:1022A0007F7829E50846F608E50946F6906204E0DD
:1022B000F50875090074097808122B7F782AE5095A
:1022C00046F6EAA2E05003752B0174065A600375C6
:1022D0002B00E58BA2E55006758BDF752B001247AE
:1022E00005758B00C2E87F02022616C3E498F8E465
:1022F00099F912232C8026C3E49AFAE49BFBE92087
:10230000E7E912232CE498F8E499F922C3E498F859
:10231000E499F912232CE498F8E499F9C3E49AFAC1
:10232000E49BFB22EB20E7CFE920E7E0B90010BBFC
:102330000008E88AF084F8AAF022E4FBC8FA22EB4D
:1023400070227B10C833C8C933C9335007C39AC33E
:10235000DBF280069A50012ADBEAC833F4C8C9339D
:10236000F4C9FA2275F008E4C833C8C933C933C9BF
:102370009AC99B5004C92AC93BD5F0ECFBC833F479
:10238000C8E4C9FA22080808EAC0E0EBC0E086F019
:10239000E7A4FA180986F0E7A42AFA180986F0E7F4
:1023A000A42AFA180986F0E7A42AFA1986F0E7A405
:1023B000FBE5F02AFA190886F0E7A42BFBE5F03AD2
:1023C000FA190886F0E7A42BFBE5F03AFA18180989
:1023D00086F0E7A4C5F02BFBE43AFA1908E7C5F04C
:1023E000C6A426F6E5F03BFBE43AFA1886F0E7A42B
:1023F000F6E5F00826F6E43B08F6E43A08F6D0E005
:10240000FBD0E0FA22122C6BB90003022468E479B5
:1024100021780DB800028004F709D8FCE49004D1BB
:102420007849790B8002F0A3D8FCD9FA781A902069
:10243000867A01BA00028007E493A3F608DAF990DD
:102440000F19AA82AB8390209478C779018015E494
:1024500093A3AC82AD838A828B83F0A3AA82AB83E1
:102460008C828D83D8E9D9E77582107583827406D2
:102470001229BE7582B775834974001229BEE4CF54
:10248000C0E0E4CEC0E0E4CDC0E0E4CCC0E075F054
:1024900020C3E633F608E633F608E633F608E633FB
:1024A000F6181818EC33FCED33FDEE33FEEF33FF76
:1024B000C3EC9709ED9709EE9709EF9719191940A1
:1024C0000FFFEC97FC09ED97FD09EE97FE19190631
:1024D000D5F0BEECF709EDF709EEF709EFF719199A
:1024E00019D0E0FCD0E0FDD0E0FED0E0FF222518BE
:1024F000C582C0E0E51934FFC583C0E0E518C39587
:102500008224F810AF088583198582188008858396
:1025100019858218D2AFCEF0A3E520F0A37808E6A3
:1025200008F0A3DEFAEFF0A3E58124FAF8E608F05C
:10253000A3E608F0A3E608F0A30808E608F0A3E67F
:1025400008F0A315811581D0E0FED0E0F8158115C3
:10255000811581E8C0E0EEC0E022C0D02518C58218
:10256000C0E0E51934FFC583C0E0E518C3958224B7
:10257000F310AF0885831985821880088583198533
:102580008218D2AFC8F0A3E9F0A3EAF0A3EBF0A35E
:102590007908E709F0A3D8FAECF0A3EDF0A3EEF088
:1025A000A3EFF0A3D0E0F0A3D0E0F0A3D0E0F0A33D
:1025B000E520F0A3E5F0F0A32212010002020000E2
:1025C000205104A816090001020301090243000278
:1025D0000100801909040000010202010005240025
:1025E0001001042402020524060001052401000153
:1025F0000705820340004009040100020A000000B0
:102600000705840240000007050402400000D425AD
:102610000000F7250000851983851882E0C0E0A33B
:10262000E0F9A3E0FAA3E0FBA37808E0F608A3DF53
:10263000FAE0FCA3E0FDA3E0FEA3E0FFA3E0C0E01E
:10264000A3E0C0E0A3E0F5D0A3E0F520A3E0A3F56C
:10265000F010AF0885831985821880088583198555
:102660008218D2AFD082D083D0E0F8D0E032E473C9
:1026700075F0108E218F228582268583258518820C
:10268000851983E0CEA3E0CF852682852583EBC91B
:10269000EAC8EDCBECCAC3E833C8E933C9EA33CAA8
:1026A000EB33CBC3EA9EF524EB9FF523B35004AB89
:1026B00023AA24EC33CCED33CDD5F0DAAE21AF2212
:1026C00022D083D082ECC0E0EDC0E0E493A3FCE430
:1026D00093A3FDED4C600D1227DCEC24FFFCED34E0
:1026E000FFFD80EFE493A3FCE493A3FDED4C600DAC
:1026F00012287DEC24FFFCED34FFFD80EFD0E0FDDF
:10270000D0E0FCE493A3C0E0E493C0E022D083D007
:1027100082E9C0E0E493A3C386F0C5F095F0F90820
:10272000E493A386F0C5F095F0700BE493A3C399EE
:102730004005E9048002A3E475F002A42582F58235
:10274000E5F03583F583D0E0F9E493A3C0E0E493AA
:10275000C0E022851983851882E0A3FEE0A3F5205E
:102760007808E0A3F608DFFAE0A3FFE0A3C0E0E00A
:10277000A3C0E0E0A3C0E0E0A3C0E0E0A3C0E0109D
:10278000AF0885821885831980088582188583198A
:10279000D2AFD083D0820229C4C0E074F212255A8D
:1027A000A2AFE433FED2AFE58AA2E25007900867F9
:1027B000E0D2E0F0E58AA2E35007900867E0D2E1BA
:1027C000F0758A00C2EB7A107B00900863E0F91282
:1027D0003C19EEA2E092AF7F01022616C0E0C3E4EE
:1027E0009396087401939618400FE4936670080856
:1027F000740193661870007019A3A3C3E49396083C
:102800007401939618A3A3400DD0E0D0E0D0E0026D
:1028100026FDA3A3A3A3A3A3D0E02274048008747D
:1028200003800474028000CCC0E0EDC0E0E518C372
:102830009CCCAD1950011D10AF068C188D19800667
:102840008C188D19D2AF122940D0E0FDD0E0FC22C7
:1028500074028000CCC0E0EDC0E0E518C39CCCADB4
:102860001950011D10AF068C188D1980068C188D1B
:1028700019D2AF12291ED0E0FDD0E0FC22C0E0C08A
:10288000F088F0E49366700808740193661870008D
:10289000A8F0A3A3700BD0F0D0E0D0E0D0E00226E7
:1028A000FDA3A3D0F0D0E022D083D082CCC0E0E45E
:1028B00093A360061229611470FAE493A3600612D0
:1028C0002AA31470FAD0E0FCE493A3C0E0E493C020
:1028D000E022C0E074F212255A758900C2C5900F3B
:1028E00011E0700E7A007B109006A0E0F9123C19FE
:1028F00080031248437F01022616C0E0C0D0E8C022
:10290000E0E9C0E0E5A8D2AFC2C7751A00A2E7A20D
:10291000E792AFD0E0F9D0E0F8D0D0D0E032CAC032
:10292000E0E493A3C582CCC582C583CDC583F0A363
:10293000C582CCC582C583CDC583DAE5D0E0CA2285
:10294000CAC0E0E0A3C582CCC582C583CDC583F0F3
:10295000A3C582CCC582C583CDC583DAE6D0E0CAE3
:1029600022C0E0E493A3D39C5010E493A3C39C4003
:102970000AD0E0D0E0D0E00228C5A3A3A3D0E02293
:102980007009080808226016181818C6C333C6084C
:10299000C633C608C633C608C633C6D5E0EA22C069
:1029A00008C3E096F50808A3E096420808A3E0965D
:1029B000420808A3E09645087001D3D00822C09FC2
:1029C000F59FE473D09F22D083D082C09FE493C050
:1029D000E0740193C0E0740293F59F222518F582FC
:1029E00010AF08F518400215198008F518400215B7
:1029F00019D2AF851983227404800A740380067487
:102A00000280027401C0E0F4041229DCD0E0122C30
:102A10004622C0D0251810AF08F5185002051980BD
:102A200008F51850020519D2AFD0D022BB0102E739
:102A300022C082C08389828A83BB0003E08002E4D3
:102A400093D083D082226016080808C6C313C61824
:102A5000C613C618C613C618C613C6D5E0EA22C3E5
:102A6000E0C696F608A3E0C696F608A3E0C696F67A
:102A700008A3E0C696F622251810AF08F518400204
:102A800015198008F51840021519D2AF22BB000EA7
:102A9000C082C0838A838982F0D083D08222BB0126
:102AA00001F722C0E0E493A36C7009D0E0D0E0D03D
:102AB000E00228C5A3A3D0E022E066701008A3E0DE
:102AC00066700A08A3E066700408A3E06622C3E00B
:102AD0009608A3E09608A3E09608A3E096A2D26524
:102AE000D03322E76670100809E766700A0809E724
:102AF0006670040809E76622C3E697F60809E697B8
:102B0000F60809E697F60809E697F622C3E096F07C
:102B100008A3E096F008A3E096F008A3E096F02260
:102B2000E657F60809E657F60809E657F60809E6F3
:102B300057F622E026F608A3E036F608A3E036F6BC
:102B400008A3E036F622E056F008A3E056F008A30A
:102B5000E056F008A3E056F022E026F008A3E036A5
:102B6000F008A3E036F008A3E036F022E627F608E6
:102B700009E637F60809E637F60809E637F622705F
:102B80000422600D18C6C333C608C633C6D5E0F4A8
:102B90001822E647F60809E647F60809E647F60868
:102BA00009E647F622E056F608A3E056F608A3E049
:102BB00056F608A3E056F622E4C396F608E496F625
:102BC00008E496F608E496F622C6F4C608C6F4C6EB
:102BD00008C6F4C608C6F4C622600D08C6A2E713EC
:102BE000C618C613C6D5E0F322C3E7960809E796D0
:102BF0000809E7960809E79622C3E09608A3E0963D
:102C000008A3E09608A3E0962275D0007581407570
:102C100018D175190400022405E0F608A3E0F608AF
:102C2000A3E0F608A3E0F622600C08C6C313C6189A
:102C3000C613C6D5E0F422E6F008A3E6F008A3E642
:102C4000F008A3E6F022CAC0E0E6F0A308DAFAD062
:102C5000E0FA22E0FAA3E0FBA3E0FCA3E0FD22EA15
:102C6000F0A3EBF0A3ECF0A3EDF022E5C754F84499
:102C700001F5C77901222518F582E43519F583227B
:102C8000C2AF75D69F020000221229C7C4A8031242
:102C900029C70EA9031229C737A9031229C7B2A948
:102CA000031229C70BAA031229C76CAA031229C74A
:102CB000DEAC031229C799AE031229C75DAF031218
:102CC00029C79AB0031229C769B3031229C765B689
:102CD000031229C774B6031229C702B7031229C702
:102CE000B9B7031229C701B8031229C777B803126D
:102CF00029C793B8031229C7C7B8031229C706B951
:102D0000031229C7F2B9031229C7A9BA031229C7A6
:102D100045BD031229C79BBE031229C750BF03122A
:102D200029C7DCBF031229C760C0031229C79EC090
:102D3000031229C715C1031229C706C2031229C7E6
:102D4000D0C2031229C7E8C2031229C791C30312D4
:102D500029C726C6031229C7BFC7031229C7DDC763
:102D6000031229C70080021229C73880021229C71E
:102D70007280021229C79480021229C7A68002120B
:102D800029C7F880021229C75881021229C7E58194
:102D9000021229C79382021229C7DB82021229C7B5
:102DA0001583021229C73283021229C759830212DE
:102DB00029C7AF83021229C7C883021229C7EE832D
:102DC000021229C72C84021229C78184021229C742
:102DD000AA84021229C7FC84021229C7BF850212E5
:102DE00029C74086021229C7FA86021229C7C58759
:102DF000021229C70988021229C73288021229C77C
:102E00007488021229C7A888021229C72F8A0212C1
:102E100029C7F18A021229C7178B021229C73D8BD5
:102E2000021229C75F8B021229C76E8B021229C7B3
:102E3000798B021229C7328C021229C7928C021296
:102E400029C7588D021229C7608D021229C7EF8D3C
:102E5000021229C75E8E021229C79E8E021229C74E
:102E6000EF90021229C7EB91021229C75992021260
:102E700029C75693021229C73E94021229C7799492
:102E8000021229C70295021229C72795021229C7E3
:102E90003895021229C7B295021229C7409602122C
:102EA00029C79B96021229C76A97021229C78C97D5
:102EB000021229C79798021229C7B598021229C78A
:102EC000C898021229C72099021229C72F99021205
:102ED00029C7B799021229C7009A021229C70D9A69
:102EE000021229C7169A021229C7329C021229C758
:102EF000979D021229C7B09D021229C7EE9E0212A9
:102F000029C76B9F021229C7B4A0021229C7F6A0D5
:102F1000021229C732A1021229C756A2021229C7DA
:102F2000C7A4021229C7D2A4021229C7DDA4021223
:102F300029C7E8A4021229C7F2A4021229C7FDA4D6
:102F4000021229C717A5021229C721A5021229C7F3
:102F50002BA5021229C736A5021229C741A50212C4
:102F600029C769A5021229C7C4A5021229C7CEA57F
:102F7000021229C7D9A5021229C7FDA5021229C725
:102F800021A6021229C78CA6021229C7D0A60212B6
:102F900029C7ECA6021229C767A7021229C7AEA744
:102FA000021229C7FAA7021229C764A8021229C768
:102FB00027A9021229C721AB021229C78AAB021224
:102FC00029C7C0AC021229C7E6AC021229C741AE1C
:102FD000021229C7E4B1021229C7B7B3021229C7E6
:102FE0007EB5021229C725B6021229C7A2B702125E
:102FF00029C738B8021229C78AB8021229C7EEB801
:10300000021229C7FDB8021229C78BBB021229C7B9
:10301000CDBC021229C749BE021229C79BBE0212AB
:1030200029C790BF021229C775C1021229C702C35E
:10303000021229C721C3021229C776C3021229C767
:1030400077C4021229C79FC4021229C7F3C402120F
:1030500029C7D9C5021229C717C6021229C762C6D5
:10306000021229C7C3C6021229C709C8021229C7FA
:103070007AC8021229C7A4C9021229C744CC021275
:1030800029C775CC021229C706CF021229C76FCFF4
:10309000021229C777D0021229C7FFD0021229C70E
:1030A00072D1021229C731D2021229C7D6D2021216
:1030B00029C776D3021229C708D4021229C751D4CE
:1030C000021229C782D4021229C743D6021229C785
:1030D0002981011229C77581011229C75B84011258
:1030E00029C79A84011229C7E484011229C7E585FA
:1030F000011229C74986011229C78986011229C7E9
:10310000CD86011229C71F88011229C7588B0112C9
:1031100029C79A8C011229C7308D011229C7F5974A
:10312000011229C78B98011229C7889B011229C750
:10313000C49C011229C73F9D011229C76D9E01122F
:1031400029C7C19F011229C7AAA0011229C772A2CB
:10315000011229C782A4011229C70BA5011229C790
:10316000DFA5011229C777A6011229C781A601127E
:1031700029C7AFA6011229C76DA7011229C74BA8FD
:10318000011229C722A9011229C7BAA9011229C708
:103190004EAA011229C764AA011229C7C5AA0112A1
:1031A00029C7EEAA011229C71BAB011229C760ADBE
:1031B000011229C748AE011229C78CAE011229C7D6
:1031C000F9AE011229C7B2AF011229C7E4AF01124B
:1031D00029C72BB0011229C761B0011229C7CEB08F
:1031E000011229C723B1011229C728B1011229C729
:1031F0007CB1011229C7C6B1011229C7C7B2011299
:1032000029C72CB3011229C788B3011229C706B4F4
:10321000011229C7FEB6011229C7F4B7011229C746
:1032200087B9011229C7D5BB011229C786BC011273
:1032300029C72DBD011229C76FBF011229C712C0AE
:10324000011229C750C0011229C72FC2011229C774
:103250004CC2011229C755C2011229C779C20112F5
:1032600029C784C2011229C7A3C2011229C7D2C427
:10327000011229C727C5011229C731C5011229C763
:103280003BC5011229C796C5011229C7F2C5011213
:1032900029C725C7011229C786C7011229C7DBC85C
:1032A000011229C72CC9011229C7C2C9011229C795
:1032B000CFCA011229C784CB011229C783CC0112BE
:1032C00029C7B6CD011229C74ACE011229C7C3CEDC
:1032D000011229C7DACE011229C717CF011229C757
:1032E00021CF011229C72BCF011229C736CF0112D6
:1032F00029C754CF011229C796CF011229C7F3CF8E
:10330000011229C718D0011229C732D0011229C7CA
:10331000B8D0011229C7EED0011229C71DD201125F
:1033200029C766D2011229C753D3011229C789D3ED
:10333000011229C71DD4011229C7AFD4011229C710
:1033400028D6011229C75BD7011229C70DD801124F
:1033500029C7D4D8011229C773D9011229C7D7D9CF
:10336000011229C7B5DA011229C707DB011229C7E3
:103370006DDB011229C738DC011229C75BDC0112A1
:1033800029C7E4DC011229C708DD011229C72ADD9B
:10339000011229C78BDD011229C7D8DF011229C705
:1033A000B5E0011229C760E1011229C78BE30112C0
:1033B00029C7D9E3011229C726E4011229C768E405
:1033C000011229C7C2E4011229C7F0E4011229C77A
:1033D00014E5011229C757E5011229C781E5011239
:1033E00029C7BDE5011229C71CE6011229C789E6D4
:1033F000011229C7D4E7011229C7F2E9011229C72E
:1034000033EA011229C75CEA011229C7E7EA01126F
:1034100029C773EB011229C7A9EB011229C7E4EBF5
:10342000011229C708EC011229C75DEC011229C756
:1034300078EC011229C731ED011229C76CED011298
:1034400029C7C4ED011229C7E3F0011229C716F1FB
:10345000011229C7BFF1011229C7BCF2011229C705
:1034600092F4041229C7CAF4041229C7EBF4041217
:1034700029C72DF5041229C78FF5041229C799F51C
:10348000041229C7A9F5041229C7E0F5041229C7B7
:10349000A2F9041229C763FB041229C785FD04128F
:1034A00029C744FE041229C711FF041229C76480EA
:1034B000041229C7A780041229C76181041229C7F1
:1034C0006A82041229C78683041229C73885041228
:1034D00029C7AC85041229C76286041229C77187DF
:1034E000041229C7D887041229C71488041229C7CF
:1034F0008088041229C7B988041229C709890412CF
:1035000029C79289041229C7368A041229C7098B50
:10351000041229C7D58B041229C75F8C041229C74E
:10352000858C041229C7B28C041229C7E38C0412BB
:1035300029C7878D041229C7968E041229C7A68E23
:10354000041229C7F68E041229C7038F041229C753
:10355000188F041229C7218F041229C77B8F0412E8
:1035600029C7D88F041229C72290041229C73D9079
:10357000041229C76490041229C78190041229C734
:103580008D90041229C7AD92041229C7C692041265
:1035900029C74F93041229C76293041229C7749351
:1035A000041229C72A94041229C73495041229C782
:1035B000D896041229C76397041229C76697041284
:1035C00029C7CE97041229C7DF97041229C771981B
:1035D000041229C79F98041229C7A198041229C769
:1035E000D998041229C73699041229C75A99041286
:1035F00029C77899041229C7C699041229C7E69ADF
:10360000041229C73E9B041229C7979B041229C79D
:10361000269C041229C74E9C041229C7849C0412BC
:1036200029C7939C041229C7F19C041229C7619DE4
:10363000041229C79E9D041229C7D99D041229C7C7
:10364000049E041229C71E9E041229C7389E041224
:1036500029C7F29E041229C7FC9E041229C7389F6D
:10366000041229C7489F041229C7519F041229C771
:10367000B19F041229C7C59F041229C7CEA0041206
:1036800029C7E1A0041229C7F8A0041229C70DA177
:10369000041229C7AFA1041229C72EA2041229C7F8
:1036A000D1A2041229C7DDA2041229C70FA4041253
:1036B00029C72BA4041229C783A4041229C7BCA4B8
:1036C000041229C7D1A4041229C733A5041229C79B
:1036D000D2A5041229C71DA6041229C776A8041270
:1036E00029C722A9041229C752AA041229C7E6AA87
:1036F000041229C714AD041229C72CAD041229C71E
:103700002FAD041229C73BAD041229C74FAD0412D7
:1037100029C757AD041229C797AD041229C7B5AE02
:10372000041229C738AF041229C7BAAF041229C737
:1037300034B0041229C7EFB0041229C711B1041222
:1037400029C7ADB1041229C7B9B1041229C7E4B120
:10375000041229C7E7B1041229C714B2041229C7F9
:1037600029B2041229C78EB2041229C7F0B3041279
:1037700029C779B5041229C704B6041229C72CB782
:10378000041229C7F9B7041229C72AB8041229C795
:1037900056B8041229C738B9041229C767B90412E8
:1037A00029C726BA041229C7CEBA041229C742BBB8
:1037B000041229C7DDBB041229C763BC041229C740
:1037C00099BC041229C7DABC041229C70FBD041220
:1037D00029C758E8041229C7A7E8041229C7E4E852
:1037E000041229C734E9041229C7B8E9041229C709
:1037F00000EC041229C7F1ED041229C7A0F104124C
:1038000029C744F2041229C77FF2041229C79DF286
:10381000041229C7FDF2041229C725F3041229C78F
:1038200055F3041229C786F3041229C7BDF3041205
:1038300029C70EF4041229C75AF4041229C745F304
:10384000011229C7C3F3011229C7F9F3011229C7CD
:1038500061F4011229C7D4F5011229C7F0F501124C
:1038600029C735F6011229C7C2F6011229C719F76F
:10387000011229C73CF8011229C75FF9011229C7B3
:10388000BCF9011229C728FA011229C7D1FA01127D
:1038900029C732FB011229C77BFB011229C728FC6B
:1038A000011229C732FD011229C775FD011229C76E
:1038B000BEFD011229C7F5FD011229C798FE0112AC
:1038C00029C747FF011229C7A7DA051229C7B8DAA5
:1038D000051229C71DDB051229C7CADB051229C736
:1038E00003DC051229C711F1021229C7BCF102122B
:1038F00029C76AF2021229C7F7F2021229C7CFF5C7
:10390000021229C782F7021229C739F8021229C701
:1039100097F8021229C7B7FB021229C74DFD021200
:1039200029C78DFE021229C7B5FE021229C7A9FFB9
:10393000021229C729FA031229C7AEFA031229C7AE
:10394000C5FA031229C73AFB031229C798FB0312D1
:1039500029C7C1FB031229C73EFC031229C7E1FC9A
:10396000031229C746FD031229C7AAFD031229C75E
:10397000CBFD031229C7FCFD031229C71AFE03124F
:1039800029C741FE031229C771FE031229C7B7FEDA
:10399000031229C71DFF031229C7E88B051229C787
:1039A000978C051229C7B78C051229C7D78C051229
:1039B00029C7EB8C051229C74B8D051229C77B8DB2
:1039C000051229C7028F051229C7AB8F051229C717
:1039D0008D90051229C7DC90051229C72091051288
:1039E00029C78591051229C7F191051229C712929D
:1039F000051229C79592051229C7CA92051229C72F
:103A00003A93051229C7E094051229C7B19505120A
:103A100029C7F395051229C74D96051229C779FACA
:103A2000051229C783FA051229C7A4FA051229C766
:103A30000080051229C71882051229C74E83051276
:103A400029C73585051229C78D85051229C74E86D8
:103A5000051229C78E86051229C7C386051229C7F4
:103A60008D87051229C797A4031229C77C880512E0
:103A700029C7FC88051229C7FE88051229C70089B5
:103A8000051229C70289051229C71F89051229C7EE
:103A90003F89051229C76989051229C78589051239
:103AA00029C7098A051229C7568A051229C7D18A4A
:103AB000051229C777BD041229C79DBD041229C765
:103AC000FBBE041229C726BF041229C75EA8031231
:103AD00029C7C9BF041229C7E9BF041229C733C0C7
:103AE000041229C75DC0041229C775C1041229C771
:103AF000ABC1041229C7DAC1041229C70DC20412CE
:103B000029C7D6C2041229C7F6C2041229C73EC368
:103B1000041229C798C4041229C71AC5041229C758
:103B20000EC6041229C7D8C6041229C70AC7041230
:103B300029C763C7041229C7C7C7041229C738C8D1
:103B4000041229C79CC8041229C7DAC8041229C75D
:103B500018CA041229C74DCA041229C7AACA0412D6
:103B600029C761CB041229C78FCB041229C722CDE4
:103B7000041229C796CD041229C7C9CD041229C73A
:103B800005CE041229C71ECE041229C7DACE0412AC
:103B900029C7A4CF041229C758D0041229C7EDD0D1
:103BA000041229C7A0D1041229C728D2041229C798
:103BB000CFD2041229C71AB8051229C766B8051250
:103BC00029C7D4B8051229C7F5B8051229C70CB9F9
:103BD000051229C7BCB9051229C7C5B9051229C7DD
:103BE00018BA051229C741BA051229C756BA0512D3
:103BF00029C7BFBA051229C750BB051229C78CBBFC
:103C0000051229C7D8BB051229C73FBC051229C711
:103C100078BC051229C7FEBC051229C73DBD051297
:103C200029C77EBD051229C7B5BD051229C7C7BD65
:103C3000051229C7D9BD051229C70CBE051229C70F
:103C40004CBE051229C791C3051229C7D4C4051259
:103C500029C7FAC4051229C70BC5051229C724C7ED
:103C6000051229C743C7051229C7C6FC051229C773
:103C7000FCFC051229C747FD051229C795FE051250
:103C800029C791D3041229C7DCD4041229C718D537
:103C9000041229C7CFD6041229C7F8D6041229C79F
:103CA00090D9041229C7D0D9041229C771DB041294
:103CB00029C70BDC041229C773DC041229C700DDF5
:103CC000041229C738DD041229C778DD041229C778
:103CD0000BDF041229C7AAE0041229C7F9E2041273
:103CE00029C727E3041229C753E3041229C75CE359
:103CF000041229C7B7E3041229C74DE4041229C7E7
:103D000076E7041229C7FBE7041229C719920612A5
:103D100029C72F92061229C73992061229C78992FC
:103D2000061229C702D2051229C71BD2051229C7BC
:103D3000C0D2051229C700D3051229C719D305120D
:103D400029C752D3051229C79FD3051229C7D1D33A
:103D5000051229C713D4051229C716D6051229C77B
:103D600080D6051229C73B8B061229C7908B0612F5
:103D700029C7E98B061229C7B792061229C7F992FB
:103D8000061229C73B93061229C74B93061229C76F
:103D90007AD6021229C7D2D6021229C784D70212B4
:103DA00029C78BD8021229C794D9021229C766DA0B
:103DB000021229C77BDA021229C7C5DA021229C703
:103DC0001BDB021229C787DB021229C79ADB02120A
:103DD00029C7F2DB021229C76BDC021229C77FDC7C
:103DE000021229C716DF021229C72BE0021229C7C7
:103DF00086E0021229C7CCE0021229C7E8E20212CB
:103E000029C783E3021229C713E4021229C755E424
:103E1000021229C774E4021229C7BFE4021229C79B
:103E2000D5E4021229C7ECE4021229C71BE50212ED
:103E300029C72DE5021229C712E6021229C71DE67D
:103E4000021229C783E6021229C7DBE6021229C73C
:103E500038E7021229C768E8021229C799E8021256
:103E600029C719EB021229C74AEB021229C7D8EB5E
:103E7000021229C754EC021229C722ED021229C7E7
:103E80005EED021229C7CCED021229C79DEE021287
:103E900029C7D6EE021229C7E0EE021229C7E3EEC7
:103EA000021229C7EDEE021229C709EF021229C733
:103EB00084EF021229C7BDEF021229C7D9EF0212FF
:103EC00029C705F0021229C740F0021229C75BF08A
:103ED000021229C766F0021229C7A7F0021229C7E9
:103EE000BAF0021229C7E1F0021229C7718D061239
:103EF00029C7828D061229C70B8E061229C70B7897
:103F0000001229C75A78001229C7177A001229C748
:103F1000F57B001229C7397C001229C72E7D0012BB
:103F200029C75F7E001229C7817E001229C7DD7E66
:103F3000001229C7617F001229C7794F001229C7D3
:103F4000A74F001229C7F750001229C7405100128D
:103F500029C79551001229C71152001229C77A5258
:103F6000001229C7C252001229C74853001229C79C
:103F7000EB53001229C77354001229C7B45400121E
:103F800029C71359001229C7975A001229C7D05AB6
:103F9000001229C71C5B001229C73C5C001229C70C
:103FA000485F001229C7EB5F001229C79B6100120E
:103FB00029C7E462001229C7E863001229C76264B6
:103FC000001229C72A65001229C79565001229C762
:103FD000A565001229C76266001229C79D670012F5
:103FE00029C7DC69001229C7936C001229C7716DBB
:103FF000001229C7A56E001229C72F72001229C707
:104000003F72001229C77973001229C71E7400126B
:1040100029C73975001229C7D475001229C7FC7643
:10402000001229C77B77001229C718C8031229C7B5
:10403000D5C8031229C752C9031229C761C903127F
:1040400029C7EAC9031229C741CA031229C74CCBA1
:10405000031229C775CB031229C71DCC031229C728
:1040600070CC031229C7DBCC031229C73ACD031247
:1040700029C73FD0031229C7EFD0031229C75ED149
:10408000031229C7EED2031229C7A6D3031229C7E8
:1040900043D4031229C7A4D4031229C71ED503127F
:1040A00029C717D6031229C701D7031229C747D733
:1040B000031229C780D7031229C794D7031229C72F
:1040C000DDD7031229C761D8031229C7D7D9031234
:1040D00029C7ADDB031229C7A2DC031229C7E1DD22
:1040E000031229C7F6DE031229C79BDF031229C773
:1040F0000CE0031229C7DAE0031229C76EE20312AB
:1041000029C7F0E2031229C760E3031229C7B0E30D
:10411000031229C7F8E3031229C79AE4031229C737
:10412000CBE5031229C716E6031229C74FE603128F
:1041300029C79FE6031229C72FE8031229C7CAE837
:10414000031229C704E9031229C726EA031229C763
:1041500042EA031229C776EA031229C77BEB03124E
:1041600029C79FEB031229C7B5EB031229C737EC08
:10417000031229C76AEC031229C71FED031229C7CE
:1041800058ED031229C77BED031229C795ED0312E1
:1041900029C7C8ED031229C7E9ED031229C710EE9C
:1041A000031229C728EE031229C726EF031229C7D5
:1041B00009F0031229C746F1031229C7D5F10312EA
:1041C00029C705F2031229C738F2031229C73DF2A5
:1041D000031229C795F2031229C746F3031229C710
:1041E00026F4031229C754F5031229C764F60312F3
:1041F00029C72EF7031229C77FF7031229C797F79C
:10420000031229C7A7F8031229C748F9031229C7BF
:1042100074F9031229C709ED051229C744ED0512E7
:1042200029C70DEE051229C773EE051229C7E4EE62
:10423000051229C778EF051229C78C82061229C7F3
:104240004D8F061229C75E8F061229C7FE8F0612F0
:1042500029C7EE7F001229C7DAFF021229C7648E30
:10426000061229C7748E061229C78C8E061229C71A
:10427000408F061229C7F8FE051229C77DFF0512D7
:1042800029C7E3FF051229C7CC90061229C7CF9092
:10429000061229C70891061229C75B91061229C781
:1042A0006D91061229C77091061229C7BFDE05124B
:1042B00029C7CDDE051229C747DF051229C72BE024
:1042C000051229C7EFE1051229C754E2051229C7D3
:1042D000B7E2051229C7F87F001229C7008006122D
:1042E00029C73880061229C78981061229C70D827D
:1042F000061229C7EDF2051229C78EF3051229C748
:10430000CCF3051229C718F4051229C7DCF40512ED
:1043100029C70FF5051229C736F5051229C748F533
:10432000051229C75CF5051229C76AF5051229C7C8
:104330009AC8051229C7EFC8051229C7EBCA05128A
:1043400029C71DCB051229C73FCB051229C758CB5A
:10435000051229C771CB051229C77BCC051229C7C5
:1043600016CD051229C74A87061229C76E8706127D
:1043700029C78787061229C7C687061229C7F98762
:10438000061229C72988061229C73388061229C7A9
:104390009B88061229C79E88061229C7A88806127C
:1043A00029C7B588061229C718F0051229C740F099
:1043B000051229C781F0051229C793F0051229C7F4
:1043C000AEF0051229C716F1051229C722F1051210
:1043D00029C781F1051229C7ADF1051229C7BCF122
:1043E000051229C7E0F1051229C7A1F2051229C754
:1043F000AEF2051229C7BFF2051229C7BEFF01128E
:1044000029C7D6FF011229C7B9BE051229C71BC08B
:10441000051229C721C0051229C738C0051229C7AE
:1044200059C0051229C76FC0051229C783C00512DC
:1044300029C702C1051229C767C1051229C7EFC1E3
:10444000051229C768C2051229C741C3051229C729
:1044500051C3051229C760C3051229C780910612EE
:1044600029C7A491061229C7CC91061229C7F49135
:10447000061229C7A2F5051229C7C9F5051229C7D1
:10448000EAF5051229C75CF6051229C70EF80512D0
:1044900029C727F8051229C73EF8051229C747F88A
:1044A000051229C765F8051229C76FF8051229C733
:1044B00079F8051229C78CF8051229C7E1F8051209
:1044C00029C71AF9051229C748F9051229C799F908
:1044D000051229C7EAF9051229C705FA051229C7E5
:1044E0000FFA051229C720FA051229C766FA051224
:1044F00029C7917F001229C7E27F001229C7619660
:10450000051229C78D96051229C7AB96051229C732
:10451000BE96051229C7D996051229C738970512E4
:1045200029C76697051229C7849B051229C7BA9C1B
:10453000051229C7EC9C051229C7549D051229C7ED
:10454000D19E051229C7F99E051229C70E9F051293
:1045500029C71E9F051229C75E9F051229C7AA9F5A
:10456000051229C7BA9F051229C7038A061229C74F
:10457000138A061229C7318A061229C74C8A0612E5
:1045800029C7738A061229C7948A061229C7AE8AD8
:10459000061229C7E68A061229C7098B061229C7FF
:1045A0001890061229C75E90061229C7CBE20512A1
:1045B00029C7D2E2051229C728E4051229C758E401
:1045C000051229C788E4051229C7BBE4051229C7CB
:1045D000CDE4051229C709E5051229C76FE50512C3
:1045E00029C7ABE5051229C7F2E5051229C71FE661
:1045F000051229C740E6051229C7B185061229C749
:10460000D385061229C7FA86061229C7FD86061227
:1046100029C70087061229C75E8C061229C7D08CCD
:10462000061229C70E8D061229C74F8D061229C7FB
:104630008BA8051229C791A8051229C7DEA8051263
:1046400029C702AB051229C73AAB051229C7A6AB89
:10465000051229C773AC051229C7B8AC051229C7C2
:10466000EBAC051229C775AD051229C78DAD051232
:1046700029C730AF051229C728B0051229C786B04F
:10468000051229C7E89F051229C7FE9F051229C7F1
:10469000B0A0051229C7ABA1051229C7A3A2051214
:1046A00029C73BA3051229C77AA3051229C7F2A37C
:1046B000051229C754A4051229C764A4051229C7E5
:1046C0008BA4051229C7DDA4051229C770A60512FF
:1046D00029C775A6051229C797A6051229C755939C
:1046E000061229C78393061229C7B893061229C751
:1046F000BA93061229C7BC93061229C7CD93061296
:1047000029C7CF93061229C7D293061229C71F843F
:10471000061229C78D84061229C7AF84061229C73D
:10472000E784061229C71D85061229C7DAE9051292
:1047300029C71DEA051229C73BEA051229C76CECF7
:10474000051229C7A4EC051229C7C9EC051229C70F
:10475000D593061229C7BFB0051229C792B1051219
:1047600029C789B2051229C79AB2051229C7ABB267
:10477000051229C7F7B2051229C7E8B4051229C7DF
:1047800045B6051229C775B6051229C741B70512E6
:1047900029C79EB7051229C78DD6051229C7ACD6E1
:1047A000051229C7F0D6051229C70CD7051229C74B
:1047B0003DD7051229C755D7051229C76DD7051250
:1047C00029C785D7051229C72BD8051229C769D84B
:1047D000051229C773D8051229C78CD8051229C715
:1047E0009AD9051229C7ACD9051229C7B7D905121C
:1047F00029C7C9D9051229C7D2D9051229C7DCD9B9
:10480000051229C740DA051229C755CD051229C757
:104810007CD1051229C798D1051229C795E6051242
:1048200029C7ABE6051229C72DE8051229C757E8A5
:10483000051229C79FE8051229C7ABE9051229C748
:10484000BF88061229C74394061229C7D1FF031255
:1048500029C783A3031229C7F8A2031229C727A2D5
:10486000031229C7989F031229C7299F031229C73A
:10487000CE9E031229C7479D031229C7AD9C031280
:1048800029C7939C031229C75F9C031229C7509C18
:10489000031229C7DA9B031229C79A9B031229C75F
:1048A000109B031229C7B699031229C72E99031228
:1048B00029C77598031229C77097031229C724972F
:1048C000031229C7FE96031229C73B96031229C774
:1048D0007E94031229C71A94031229C7EC9303127A
:1048E00029C7E993031229C7B8A7031229C7F3A65A
:1048F000031229C742A5031229C712A5031229C70B
:10490000E6A4031229C7DB93031229C7A09303125D
:1049100029C78893031229C72C92031229C7DCA444
:10492000031229C7EB91031229C76991031229C702
:104930003591031229C7DC90031229C7BDA40312C5
:1049400029C7A5BF041229C7AB90031229C76F8DD1
:10495000031229C7958C031229C7438C031229C758
:10496000378C031229C7908B031229C75A8A031266
:1049700029C7A087031229C72D85031229C7EB84F5
:10498000031229C7A283031229C74983031229C727
:104990007B82031229C73782031229C700800312C2
:1049A00029C76A80031229C7AAA4031229C73A801B
:1049B000031229C709880500000080FB8F00010051
:1049C0003808870001003708240002006F0F250017
:1049D0000200710F26000200730F27000200750FFE
:1049E00028000100770F29000100780F84000400DF
:1049F000790F860001007D0F2A0001007E0F2B0039
:104A000001007F0F2C000100830F2D0008001F08FC
:104A10002E000100840F2F000100850F30000100DF
:104A2000860F31000100870F320001002708330094
:104A30000100280834000100880F36000100290811
:104A400038000100890F39000100820F8300020045
:104A50009B0F63000100340864000100800F6500B3
:104A60000100810F6D00010035086E0002001D0875
:104A7000660001009A0F430001008B0F4400020002
:104A80008C0F450001008E0F460002008F0F47007B
:104A900008002C0848000100910F4B000100920F04
:104AA000040001009D0FA10001009F0F37000100CD
:104AB0009E0F8800010039083C0001002A083D00D3
:104AC00001008A0F49000200930F670001003608B9
:104AD0004D000200950F4E000100970F4F0002009D
:104AE000980F3E0001002B080000000000000001AC
:104AF0003636010100010201000103010001040139
:104B0000060605020000070100340801000F090431
:104B100001010D0100FF0E0800001702000019013D
:104B200000FF1A0100011B0100FE1C0100081D020C
:104B300000001F01000120010001210200002301EB
:104B4000000F2402000026010001270100082802AE
:104B500000FF2A0100072B0102402C0100002D015B
:104B600000012E0100012F0100FF30010B1C310854
:104B700000003A0100083B01000F2F010000030074
:104B800071003001600011007000310220035004F8
:104B900080001000610000001400630073007200C8
:104BA0006200430000001300060000000000040043
:104BB00012000000000000000000040004003700A4
:104BC00037003C02440000000000000000006500C7
:104BD0000000350081000000050000008300000097
:104BE00066000000000001037103010301030103DB
:104BF0000103010322030203010310030003000366
:104C00000003000300030003000342030003240326
:104C100006030003000304031203250323032503F3
:104C200023030403040300030003000344030003FD
:104C30000003230300036503210035038103000300
:104C40000503000300030003000325032303010100
:104C50007101010101011101010131010101010194
:104C60008001100161013B001400630173017201B6
:104C7000620143010001130106013D0135000401F9
:104C800012010001000100010001040104013301CF
:104C900033013C014401320136000001000165018D
:104CA000000135008101000105018201830100013D
:104CB0006601000100010304710402046004110490
:104CC00070040204020401040204100461040004DC
:104CD00014046304730472046204430400041304A0
:104CE0000604000400040404120400040004000488
:104CF000000451046400000400040004440400049F
:104D00000004000400046504000435048104640008
:104D10000504000483040004660400040004030284
:104D200071023001600211027002010202020202ED
:104D30008002100261023A004100630273027202B3
:104D40006202430200021302380000020002040261
:104D500012020002000200020002040204023700F4
:104D600037003C02440200023900000200026502E2
:104D70000002350281020002050282028302000263
:104D8000660200020002000069401300D93F0100E2
:104D9000694002005B3F0300613F0400673F05007C
:104DA0006D3F0600793F30009D3F3100973F320054
:104DB000A93F3300AF3F3500B53F3400BB3F36005D
:104DC000C13F1100CD3F1400D33F15008B3F1F00A2
:104DD000913FFFFF000036000100060000000F00B9
:104DE00000000000000000000000000003FFFF00C2
:104DF000000403FFFF0000FFFF0FF4010005C404DF
:104E00000320000100000B00000000000000000370
:104E1000010F0121310657310851310B6F31107FDD
:104E2000300A8731022731054531072D310C033116
:104E30000D1531647B2EFF000003EAF5E5D5D5C5DD
:104E4000B5A5959585857575656555554545353582
:104E50002525151505F5352536FB3501361F361385
:104E6000360D362B363136373643360736EF35E9D1
:104E70003500160F00000B150B020002220F330045
:104E8000000700000000000000008967452301EFD3
:104E9000CDAB01030507090B0D0F00020406080A3C
:104EA0000C0D5A6967426565416C6C69616E63659A
:104EB0003039F73609370F37B9351537B335BF35C0
:104EC000ED34E73423352F351D35D5342935003CF5
:104ED00040423A3F3F392F4730663030171819218A
:104EE000301B1D1F3033633781378737693775377C
:104EF0006F37303016181920231A1C1E303200016B
:104F00001916181616182303000C0E020B040B0AB0
:104F10000708000F00034D4C4651181A25050219C9
:104F2000363D367B3749364F364B371B3721372DC9
:104F3000372737020402010101010902F934FF3465
:104F4000F334353500BE040A053517350E0015005B
:104F500004003C003C000000000028000C007F0022
:104F6000E8030C0A03080900040010FF1E1E0805D0
:104F7000090301040510080F0CC082C08390079933
:104F8000E4F0A3F07CD57D047A117B07124627124A
:104F90002E81900837E0700479008002790112496F
:104FA00099122E87026D1474F31224EE74F5122AEE
:104FB0007789098A088B0AE9705F74026508703E78
:104FC00090072A7408F0750C00780C122A03ECF58F
:104FD0000C780C122A03EBF50C780C122A03900FB4
:104FE0007912281B900F7DE0F97C2C7D08900F9B97
:104FF000126D25122EAB7407122A120250B77401DB
:10500000650860030250BA90072A7408F07B00AA72
:105010000AA90A122EED0250B774016509600974DD
:1050200002650960030250BAEA60067403650870FD
:105030004090072A74021250DB122C53122E9990C2
:105040000731E0A2E34010E9700D90079DE004F005
:10505000640470031250E574036508705A90079E4B
:10506000E0F8740128F0E8C39405404B1250E58045
:10507000467401650870437401650990072A702C15
:10508000740AF07401122C76E4F07402122C767417
:1050900003F004122C76E4F0A3F0A3F0A3F074085C
:1050A000122C76E4125FDD1231338025740A12501F
:1050B000DB122C53122ECFE960179080C412281BEC
:1050C0007A017B00900727E0F9123D397404122A17
:1050D00012740B122A127F05022753F0900F7DE005
:1050E000F9900F7922900F79E4F0A374F8F0A3748B
:1050F000FFF0A37407F02274F61224EEE9FFEAFE33
:105100007AD1F9123BF58A828B83E5824583702A36
:105110007A027B00123BD7EA4B700E7A107B00902C
:105120000727E0F9123C1980148A828B8374D1F02E
:10513000EFA3F0EEF9123BE38003EFA3F002534339
:1051400074F71224EE890890068912765880288E0A
:10515000828F83A3A31262D660168E828F83A3A34D
:10516000A3E0F5838882A31262D6FAA908123F430E
:105170008E828F83127734FFEE4F70D39006A0E0BB
:10518000FAA908123F4312324D9006F91258C31281
:10519000324702753474F11224EE890A8C087509BD
:1051A00000750B00740F122C76125FD37411122C41
:1051B000761258EB804AE50E125262F50CA3E0F528
:1051C0000DE50BC333FEE433FFEA2EF582EB3FF52A
:1051D00083E0650C7004A3E0650D7019E509C33325
:1051E000FEE433FFEC2EF582ED3FF583E50CF0A3F2
:1051F000E50DF00509050EE50EC3950840B8050B51
:10520000E50BC3950A5005750E0080EBA9090267EE
:105210008774F41224EE890B7D00740C122C761224
:105220005FD380010DEDC3950B5032750A008002EB
:10523000050AE50AC39C50ECEDC333FEE433FFEAF4
:105240002EF582EB3F125272F509E50A12526265A1
:10525000087004A3E0650970D77901800279000223
:105260006642C333FEE433FFE82EF582E93FF5835F
:10527000E022F583E0F508A3E02274F61224EE1292
:1052800053167003A3E06D701775082F7509077822
:10529000081229FFEEFA12406F7402122A12801FC0
:1052A00075080275098078081229FF8C088D097825
:1052B000081229FF1253091240937404122A120291
:1052C000534374F61224EE1253167003A3E06D706C
:1052D0001775083C75090778081229FFEEFA124085
:1052E000757402122A12801F7508037509807808E8
:1052F0001229FF8C088D0978081229FF1253091210
:1053000040937404122A12803A1275071271EEFD4E
:105310007C8012664B22EAFEEBFF12532EFAA3E0CA
:10532000F9EA2400FCE439FD9006F9E06C221264ED
:1053300044127211F8A3E0F988828983E022740292
:10534000122A127F0202275374F61224EE74FE1200
:105350002A77EAFEEBFF851882851983E4F0A3F033
:10536000126794FA88828983A3A3E0F9750900750E
:105370000800600574FF6970057508828043900617
:10538000F9E06A7003A3E06B7020851882851983A9
:10539000AA82AB8312380BE9F50985188285198337
:1053A000126C5C701C7508838017900837E06004ED
:1053B000640170057508818008E064027003750857
:1053C000808518828519831258EBA908EEFAEFFB45
:1053D00012407BE5096011851882851983126C5C87
:1053E0006006126D1F123C7902533E74F21224EED5
:1053F000EAFEEBFF750A00750B0012545F12324D86
:10540000EA65087003EB6509701212381DE914F59E
:105410000A79017A657B071238238003750B8012A5
:1054200074F0F50C780C122A03750C65750D07786D
:105430000C1229FF780A122A0378081229FFE50BBB
:10544000F5087808122A03126456F582EF1271509B
:105450007A057B801240817407122A12026196122B
:105460007689125FD788828983127764F508E439D8
:10547000F5092274F61224EEE9FE7F00802E8A825E
:105480008B83125274F9E5082400E439F509EF33EF
:10549000F8E433F9EC28F582ED39F583E508F0A35B
:1054A000E509F0EA2402FAEB3400FB0FEFC39E405B
:1054B000CD02534374E81224EE74FB122A778A1645
:1054C0008B17851882851983E4F07403122C76E417
:1054D000F0A3F004122C76E4F0127370F50AA3E046
:1054E000F50B850A82F583127760FEE439FF850AA1
:1054F00082850B83A3A3E0FA850A82850B83A3A38D
:10550000A3E0F9EAF508E439F509E50A2404F50A07
:10551000E50B3400F50BEEFAEFFB1232EFE9640114
:105520006016EEFAEFFB1232EFE9703D9006F9E0FB
:105530006E7003A3E06F6031125C2C122A03E4F555
:1055400008F50978081229FF7808122A039006F94D
:105550001228237508807808122A031258C91240AD
:10556000817407122A120258B91258F18810602E5D
:10557000C333FAE433FB123C737403122C761258D3
:10558000C37403122C76126C5C60137403122C76B5
:105590001258E3A910123F738A0A8B0B800375100F
:1055A000001258F1880F602AC333FAE433FB123C2F
:1055B000737401122C761258C37401122C76126C7B
:1055C0005C600F7401122C761258E3A90F123F731E
:1055D0008003750F00900689805D850A82850B83A4
:1055E000A3A3A3A3A3A3A3A3E4F0A3F0AA0AAB0BD2
:1055F000851482851583A3A31259011262D6F9126C
:105600003BE3851282851383E0C0E085188285190B
:1056100083E0F8746528F5827407127681D0E01271
:1056200069D704F0E511A2E05007AA12AB13123CAF
:1056300079851482851583E0F514A3E0F515E5144A
:1056400045157003025826851482851583A3A3127D
:1056500062D660DD851482851583A3A3A3A3A3A3CB
:10566000A3A3E0A2E050CA851482851583A3A3A357
:10567000A3126C5C851482851583A3A3601F12623C
:10568000D6FA7901851482851583A3A3A3A3126298
:10569000DB12266E8A128B13751101800F125901CD
:1056A000A3A3E0F512A3E0F513751100E51245136D
:1056B0007003025624851282851383A3E065087067
:1056C00004A3E06509600F74FF6508700474FF654A
:1056D000096003025624851282851383A3A3A3A322
:1056E000A3A3A3122823851282851383A3A3A3A3B4
:1056F000A3A3E0FC7405122C76126D25A910123FAD
:10570000557402122A12E9703C851282851383A314
:10571000A3A3A3A3A3A3A3A3A312282385128285D3
:105720001383A3A3A3A3A3A3A3A3A3E0FC740312C3
:105730002C76126D25A90F123F557402122A12E918
:105740007003025624E50F2510C333240AFA7B00A8
:10575000123BD78A0A8B0BEA450B70030256028A6A
:10576000828B8374D2F0851682851783A3A3125F80
:10577000D38A828B83A3A3125FE58A828B83A3A340
:10578000A3A3E51012776AE50FF0E510603DEA2467
:1057900005FAEB3400FBE50A240AF8E50B3400F9BE
:1057A0008A828B83125FE57403122C7612590612DB
:1057B00029FBE510C333FCE433FD8A828B83126D31
:1057C00025123BB37403122A12800D8A828B83A3A5
:1057D000A3A3A3A3E4F0A3F0E50F70030255DAE559
:1057E00010C333F8E433F9E50A28F8E50B39F9E892
:1057F000240AFAE93400FB850A82850B83A3A3A35C
:10580000A3A3A3A3A31258C37401122C76125906A2
:105810001229FBE50FC333FCE433FD123BB37403E1
:10582000122A120255EC851882851983E06027122E
:105830005C2C122A0375086575090778081229FF80
:105840007403122C76125C36122A039006F9122881
:10585000237508008029EEFAEFFB1232EFE9702F72
:10586000125C2C122A03750865750907780812293D
:10587000FF7508007808122A039006F91228237889
:1058800008122A031258C91240817407122A12748E
:1058900003122C76126C5C600B7403122C76126D62
:1058A00025123C797401122C76126C5C600B740129
:1058B000122C76126D25123C797405122A127F1073
:1058C000022753EAF0A3EBF022E5162402FCE517C9
:1058D0003400FDE51612665DE5171271EFF97A06E0
:1058E0007B80221258EBAA0AAB0B22E0FCA3E0FD5E
:1058F00022850A82850B83E0F8A385820A85830BC3
:10590000221262DBA322E0F50CA3E0F50D750E0078
:10591000780C2274F41224EE74F4122A778A088B1D
:1059200009ECFEEDFF740B122C767403F0122C764A
:10593000AA82AB83124627123247EAFCEBFD7403BE
:10594000122C76AA82AB83124621E9600A125A61B0
:105950006010E06401600B851882851983748402ED
:105960005A128E828F83A3A3A3A3A3A3A3A3E06051
:1059700013F46010125A617016EE24141274F3605E
:1059800003F4700B8518828519837482025A12E51C
:1059900008240CF582E5091274F664217002A3E074
:1059A000704D851882851983748CF0125A54122A0E
:1059B00003125A701249337401122A12E970548585
:1059C0001882851983E4F0123EC5125A617044743E
:1059D00001122C76AC82AD83126189124921E970E3
:1059E000327D007C007900126189124039802412D6
:1059F0005A54122A03125A7012492D7401122A1293
:105A0000E98518828519837007E4F0123EC580038A
:105A10007488F0E508127508E509125A59122A032C
:105A20007401122C7685820A85830B780A1229FF6D
:105A3000E508240CF582E509125A674480F50B78D5
:105A40000A1229FF12651312402D7405122A1274CE
:105A50000C02663FEE126C3FEF1271EFF50A780A06
:105A6000221271E964032212768FE0F50AA3E02284
:105A7000EE240BFCEF3400FD8E828F83A3A3A3A33F
:105A8000A3A3A3A3A3126D628E828F83A3A3A3A358
:105A9000A3A3A3A3E0F922C082C08374F3122A77E0
:105AA000851882851983E4F004122C761258C37489
:105AB00003122C76AA82AB83122DAF85188285192A
:105AC00083AA82AB83122DE5740D122A12026D1483
:105AD00074F61224EE125B0C127410900737E05823
:105AE000F508A3E059F509E5084509601C78081296
:105AF00029FF9006F91228231274F0FD7C0012662B
:105B00004712408D7404122A12025343EAFEEBFF3F
:105B10001271E9F8A3E0F9888289832274F41224CF
:105B2000EE74FF122A77EAFEEBFF8518828519834F
:105B3000E4F090082BE07003025C19EE240B127461
:105B4000F364017003025C198E828F83A3A3125F3A
:105B5000D3EE24151274F3687003A3E069600302A6
:105B60005C19126444125FD0E8FAE9FB88828983E9
:105B7000A3A3A3A3A3A3A3A3E0FC88828983A3A3D5
:105B8000A3A3A3A3A3A3A3E0F9EC2400F508E4399D
:105B9000F509EC45096010EC9471E99408500890FF
:105BA0000837E06402700A85188285198374808042
:105BB00037122E278A0A8B0BA80AA90BE849602006
:105BC00088828983A3A3A3A3E014C394025011E89D
:105BD0002412125C1EE82414125C1E123EC58009B9
:105BE0008518828519837481F0127507EF125C3372
:105BF000122A037401122C7685820885830978089D
:105C00001229FF75081F75098078081229FF126490
:105C10004B12402D7405122A12740102663FF58260
:105C2000E912768FE508F0A3E509F022E516127572
:105C300008E51712768FE0F50878082274EA122436
:105C4000EE74DB122A778A148B1575120075130017
:105C50001262D0F50E851882851983AC82AD837AE5
:105C6000007B00799C122EFF7A047900122DF7EA4E
:105C7000F50C851882851983E0250CF0F8E50EC334
:105C8000984003025E81E0C3950EF509C394044079
:105C900003750903E50975F01AA4FAABF0123C7319
:105CA0008A128B13EA45137003025E84750D00AEF1
:105CB00012AF13850E08025D43125ED8123BBF85FA
:105CC0000A82850B83A3A3A3A3E07039850A82858A
:105CD0000B83126C5C70121261831274EAEE24184A
:105CE000F582EF127681E48016125EE7F090055E91
:105CF000E014C0E0EE2418F582EF127681D0E012B5
:105D00005F20E4803B90055EE004C0E0EE2418F5DF
:105D100082EF127681D0E0125F18C39403EE400345
:105D2000025DDF126184126C47125F186401700318
:105D3000025DECEE2415125EEAF0EE2416125EEA25
:105D4000125EF3E50DC395094003025E11E508C339
:105D5000950C4003025DF685080AAA0A7B00122E04
:105D6000638A0A8B0B050890054B125EFF124627CB
:105D7000850A82850B83125FD3125ECA1273F512F5
:105D80005F2D850A82850B83A3A3A3A3A3A3A3A34B
:105D9000A3A3E0C0E0EE2419F582EF127681D0E0F3
:105DA000F07401122C76E4F0850A82850B83125F71
:105DB000D37402122C76125FE57401122C76AA823B
:105DC000AB83122DD3E964016003025CB974041241
:105DD0002C76AC82AD83125EDE124627025CBF12C7
:105DE0005EE8125F1864036003025D33125ED11235
:105DF0007681E4025D39E50CC3950E400575080017
:105E00008016E50EC3950CF508800D125EE7125E54
:105E1000F3E50DC39509506C740E122C76AC82AD6F
:105E20008385080AAA0A7B007987122EFF05087469
:105E300018122C76125EFF124627125ED8123BBF54
:105E4000EE2412F8EF3400F9740E122C76126D2540
:105E500088828983EAF0A3EB125F207403125F2D1E
:105E6000741D122C76E0C0E0EE2419F582EF127654
:105E700081D0E0126C847093126183127681E48089
