:020000040000FA
:10000000021BC6022003FFFFFFFFFF02200BFFFFC2
:10001000FFFFFF022013FFFFFFFFFF02201BFFFF78
:10002000FFFFFF022023FFFFFFFFFF02202BFFFF48
:10003000FFFFFF021305FFFFFFFFFF02203BFFFF53
:10004000FFFFFF022043FFFFFFFFFF02204BFFFFE8
:10005000FFFFFF022053FFFFFFFFFF02205BFFFFB8
:10006000FFFFFF022063FFFFFFFFFF02206BFFFF88
:10007000FFFFFF022073FFFFFFFFFF02207BFFFF58
:10008000FFFFFF022083FFFFFFFFFF02208B002006
:10009000000090200000932000000100000000C834
:1000A00003000000000000000400FFFFFFFF00C28B
:1000B000010000002600FFFFFFFFFFFFFFFF04031A
:1000C00009042403540065007800610073002000D7
:1000D00049006E0073007400720075006D006500C9
:1000E0006E00740073002403540049002000430094
:1000F000430032003500330031002000550053002A
:100100004200200043004400430000035F005F0002
:100110003000580000000000000000000000000057
:1001200000000000000000000000000000000000CF
:10013000000000003031323334353637383941422F
:10014000434445467F18D418D418D418D418DC1862
:1001500074F71217BA1207A3700FA3A3E0700AA3D3
:10016000E064027002A3E060089005A47404020237
:10017000119005B6E02480600814602D14603A8068
:10018000E89005BAE070E29005B0E0600478018084
:100190000278009005BEE8F0A3E4F09005AFE060BF
:1001A000559005BEE04402804990059DE0640470CE
:1001B000B89005BEE4F0A3803C9005BAE0547FF50A
:1001C0000890059DE0640470A0E508C3940650996A
:1001D0009005BAE05480600C1202FBE06403700CDE
:1001E0007801800A1202EEE0640360F47800900562
:1001F000BEE8F0A3E4F09005A4E064046014900568
:10020000B174BEF0A37405F0A3E4F0A37402120865
:1002100002F07F02021A2674F71217BAE9FE90055F
:10022000BC1207A6701090059DE064046010900554
:10023000BA1207A660089005A474040202E89005AB
:10024000B6E0541F600814600D14602380E8900528
:10025000B8E06401600579000202EBEE9005AFF0B2
:1002600060047905800279067A001217B8807A90C6
:1002700005BAE0547FFA9005B8E070DAEAC3940654
:1002800050B4EA90620EF09005BAE05480602AEE15
:100290006004741080027440906211F0EE60047487
:1002A000038001E4C0E08A081202FBD0E0F0EE60B7
:1002B000047908802C79078028EE6004742080027D
:1002C0007480906214F0EE600474038001E4C0E076
:1002D0008A081202EED0E0F0EE6004790A8002791A
:1002E000091217B890620EE4F0790102021274A9A3
:1002F0002508F58274053400F5832274A42508F5D9
:100300008274053400F583227900120217E9700324
:100310001217A7227901120217E970031217B622E9
:10032000C082C0839005BA1207A67014A31207A654
:10033000700E9005B8E05480F8A3E0F9E849600732
:100340009005A47404801D9005B8E0906200F090C0
:10035000059D6009E06402700C74038007E064038B
:1003600070037402F0D083D0822274F51217BA9011
:1003700005B9E014600814601914604C806412130D
:100380009C120527A37B80121AEEA3F0A3E4F002CF
:1003900004DE9005B8E0FA79001213BE1205277B3F
:1003A00080E924020909EA3400FA121AEEFC19194C
:1003B000E0FAA3E92403090909EA3400FA121AEE63
:1003C000F9ECA3F0A3E980C69005B8E0F912142C6B
:1003D0009005B1EAF0A3EBF0A3E4120536A37B008D
:1003E00080A59005B1E4F0A3F0A3F0FA0204B27581
:1003F000090074037808121B91120540E493C0E0D1
:100400009005B9E0F8D0E06860030204B18A08758D
:10041000090074037808121B91120540A3E493C0ED
:10042000E09005B8E0F8D0E06860030204B18A0803
:1004300075090074037808121B91120558E493C0E3
:10044000E09005BBE0F8D0E06870668A08750900A6
:1004500074037808121B91120558A3E493C0E0902E
:1004600005BAE0F8D0E06870488A0875090074039E
:100470007808121B9112054CF988828983A3A3A3E3
:10048000A3E493F508740193F5099005B1E508F02C
:10049000A3E509F0A37480F088828983A3A3A3A3B2
:1004A000A3A3E493F8740193F99005B4E8F0A3E9E9
:1004B000F00A8A0890067A1206AC75830675827C6B
:1004C000E0C398F50AA3E099F50B7403780A121BB0
:1004D000B7C3E508950AE4950B50030203EF9005B6
:1004E000B1E0FCA3E0FDA3E0FEEC4D4E9005A4704E
:1004F000047404802CE0640460289005B41206ACF7
:100500007583057582BCC3E098A3E099500E9005F1
:10051000BC1206AC9005B4E8F0A3E9F09005A47411
:1005200001F07F04021A269005B1EAF0A3EBF0A3D4
:10053000748012053622F09005B1E0F9A3E0FA22AA
:100540001205442212054C8882F5832290067AE037
:100550002508F8A3E0350922120544A3A32274EF6D
:100560001217BA8A088B098A828B83A3A3A3A3E4F8
:1005700093602690067E1206ACE8FEE98007EE2422
:1005800004FEEF3400FF8E828F83E493F8740193AE
:10059000F9EA687002EB6970E5750C00804A9062B8
:1005A000147490F0741012069C70027940750A0160
:1005B000750B00E50E780A121B918E828F83A3A320
:1005C000A393550A6004E9D2E0F9E9906215F0EAD4
:1005D000906213F074A9250EF58274053400F5833A
:1005E000E4F090620EF0050C850882850983A3A3D0
:1005F000A3A3E493F8E50CC39840030206977A009E
:10060000790512132E8A0A8B0BEA450B60D8EA246F
:1006100002F8EB3400F9E8FCE9FD8C828D83E49369
:10062000540FF50E90620EF079008A828B83A3A39B
:10063000A3A3E4932407F510A3E4933400F5117405
:10064000037810121BB7AA108C828D8393A2E74007
:100650000302059E9062117448F0740812069C70A3
:10066000027940750A01750B00E50E780A121B919C
:100670008E828F83A3A393550A6004E9D2E0F9E93F
:10068000906212F0EA906210F0850E0A74A4250AB6
:10069000F58274050205DC7F0A021A26F0850A82BB
:1006A0008B83A3A3A3E4935403640122E0F8A3E0A3
:1006B000F922C082C0831207A37010A31207A6708C
:1006C0000AA3E064017002A3E060079005A474042B
:1006D000800C9005B1749EF0A374051207F8F00227
:1006E000036574F61217BA90059DE06402601490D9
:1006F00005BA1207A6700CA31207A670069005B9DA
:10070000E060099005A47404F00207917A00790171
:100710001217B89005B8E060637A00F91213BE8A28
:10072000088B09AE08AF09EE4F604990059D74042F
:10073000F09005B8E090059EF0750A008E828F83D8
:10074000A3A3A3A3E493F8E50AC398503D850A0840
:10075000120796E4F07A00790412132E8A828B83B2
:10076000A3A3A3E493F8120796E06870E812055E6D
:10077000050A80C89005A47404F0800E90059EF0D0
:1007800090059D7403F0F9120F5E7A00790212173A
:10079000B87F03021A26749F2508F5827405340079
:1007A000F583229005B8E0F8A3E0F9E8492274F651
:1007B0001217BA90059DE0640470199005B6E064C4
:1007C0008170111207A3700C9005BCE064017002E7
:1007D000A3E060079005A47404801A9005BAE02491
:1007E0009FF508A3E03405F5099005B1E508F0A3ED
:1007F000E5091207F8F08099F0A3E4F0A3041208C9
:100800000222F0A3E4F09005A4042274F71217BAB0
:1008100090059DE0640470109005B6E064017008D6
:100820009005BC1207A660089005A47404F08052DD
:100830009005B8E0FB9005BAE0FA90059EE0F91249
:1008400013F68A088B09AE08AF09EE4F60DA9005FF
:10085000BAE0FA79031217B89005B8E0C0E0900545
:10086000BAE0249FF8A3E03405F988828983D0E0B8
:10087000F0EEFAEFFB12055E9005BAE0FA79041289
:1008800017B802021274F81217BA74FF121B517EC5
:10089000008033900384E0F8851882851983E0682E
:1008A000700D900382E0644D7005120AD2E9FE904B
:1008B0000385E4F0900387F0851882851983E0F8BA
:1008C000900384E068F07901851882851983AA82F3
:1008D000AB831210D5E97003020983E0C0E09003F6
:1008E00087E0F8900385E0FAE82AF8E43400120C77
:1008F00086D0E0F0900387E0601114602014603E21
:1009000014604E14606414608A80AD851882851965
:1009100083E064FE70A29003877401809A90038440
:10092000E4F0851882851983E0900386F0C39480F3
:100930009003874004E40208B774020208B78518E0
:1009400082851983E0900382F09003877403020884
:10095000B7851882851983E0900383F0900386E0C1
:10096000601990038774040208B7900385E004F0CF
:10097000F8900386E06860030208B8900387740566
:100980000208B7EEF97401121B087F01021A2674DF
:10099000ED1217BA74FB121B517508047509007823
:1009A00008121B6B7402121C09120C73121B0885AF
:1009B0001882E0F47003A3E0F4600F8518828519B3
:1009C00083E0F8A3E0F9E8497003020AC674021252
:1009D0001C09E0687003A3E0697003020AA07508AF
:1009E000009005C07810121BD5800A9005C47810BD
:1009F000121B7C604A750A01750B00780A121B6B8A
:100A00007406121C09AC82AD8385100A85110BAAED
:100A10000AE50B5407FB8A0C85110D85120E851310
:100A20000F740B780C121B22A90C120C7D121B08E0
:100A3000E0F9AA08AB09120C928A088B0980089089
:100A400005C87810121BD59005CC7810121BA49005
:100A500005D07810121AB45092E4F9120C92E4F90D
:100A6000120C927402121C09EAF0A3EBF075080153
:100A70007509007808121B6B7402121C09AC82AD58
:100A8000837A247B081215D47402121B087508049B
:100A90007808121B6B7402121C09120C73121B08CB
:100AA000120C65121C09E0687003A3E069701785D9
:100AB0001882851983E0F47003A3E0F46008E84924
:100AC00060047901800279007405121B087F0C0212
:100AD0001A2674F31217BA74FC121B51900306E025
:100AE000FAA3E0F9EA2400F8F508E93408F50975F5
:100AF0000A017F007E00900383E014600C146040C4
:100B0000147003020B99020C16E5095401F9E84927
:100B10007011880C85090D7409780C121BB7A90C8B
:100B2000121638750C108E0D780C121B6B7C087D1C
:100B300003AA08AB091215D47402121B08020C1682
:100B4000880C85090D7409780C121BB7E50CC39449
:100B50007940040F020C16750A408E0B780A121B9E
:100B60006B7C097D03EAF50AE5095401F50B740273
:100B7000780A121B91AA0AAB0B74097808121BB7EA
:100B8000A908120C7D121B08900307E0A3F0900344
:100B900006E0A3F0750A43807D7508048E09780885
:100BA000121B6B7402121C09120C73121B087402C4
:100BB000121C09E0F8A3E0F9851882851983E06822
:100BC0007003A3E069603B120C65121C09E8F0A3F6
:100BD000E9F07508017808121B6B7402121C09AC4D
:100BE00082AD837A247B081215D47402121B087517
:100BF00008047808121B6B7402121C09120C731281
:100C00001B08120C65121C09E0687003A3E06970F0
:100C1000030E80027F07900305E0D2E7F0EFA3F018
:100C2000E50A900303F0744D650AF5087404250A7B
:100C3000FB7A038007120C83E062080AEAC39BA2D6
:100C4000D265D033EAF840ED120C83E508F0740168
:100C50002AF97A027B03121115EEF97404121B08AB
:100C60007F06021A26851882851983E0F8A3E0F929
:100C7000740222AC82AD837A907B00790412154F06
:100C80007402223395E0F9740228F582740339F571
:100C90008322C008C0097C088A088B09740F780871
:100CA000121BB7EAC333FAEB33FBE9A2E750047433
:100CB000014AFAE508A2E0500874216AFA74106B40
:100CC000FBE9C333F91CEC70CFD009D00822C082F5
:100CD000C0837A0079011213BE8A828B83A3A3A3F7
:100CE000A3A3A3A3E493A2E69005B05004740180EB
:100CF00001E4F09005AFE4F090620F7403F0E0A21D
:100D0000E750FB90620BE0D2E1F0D083D08222C0AA
:100D100082C08390059D7402F0A3E4F09005A4F0D6
:100D20007903120F5E75210075220080DD74F612C2
:100D300017BA90620EE0FEE4F0906211E0F50AA2AC
:100D4000E4501D7480F09005A47407F0E52145225D
:100D50006009852182852283121C1B9005A4E4F082
:100D6000E50AA2E2500B906211E4F09005A4F08035
:100D7000769005A4E064027057906216E0FF90053B
:100D8000B1121A66EFF97A207B62120F9674031281
:100D90001B088F089005B4120F33120F3EE0F8A322
:100DA000E0F9E8496004744080027448906211F0F0
:100DB000E8497014E5214522600985218285228356
:100DC000121C1B9005A4E4F0EE90620EF0020FDC02
:100DD000E064067009852182852283121C1B900520
:100DE000A4E06003020ECDE50AA2E050DB7508B670
:100DF000750905750A007808121B6779087A207B47
:100E000062120F967403121B087521007522009060
:100E100005B6E054E0601C24E07003020EA724E055
:100E2000606F24C0604524E07003020EB224E060CD
:100E30006B8030A3E014601C24FE601324FE600A63
:100E400024FC601524FE60168019120320806C12A9
:100E50000314806712030880621206E2805D1208A4
:100E60000B80589005A47404F08058A3E0600E2411
:100E7000FA600F24FE601024FE601180E61201501B
:100E8000803912036A80341206B2802F1207AE80B6
:100E90002A7521A37522171217A3801F7521A57526
:100EA00022171217A58014752140752217121740BA
:100EB000800975216E75221712176E9005A4E064E3
:100EC000047004746080027440906211F09005A474
:100ED000E06401704A750A029005B4C3E09420A34F
:100EE000E09400500A9005B4E0FF750A0A80027F82
:100EF000209005B1121A66EFF97A207B62120FBAC0
:100F00007403121B088F08120F3E120F33E50A906C
:100F10006211F0EFC394204003020DC8020DB4E04B
:100F200064056003020DC8852182852283121C1B83
:100F3000020DC8C3E09508F0A3E09400F0229005EC
:100F4000B1E0F9A3E0FAA3E0FBE92508F9EA3400EF
:100F5000FA9005B1E9F0A3EAF0A3EBF0A32274F74D
:100F60001217BA7800880874A52508F5827405124E
:100F70000F8A40F17800880874AA2508F582740564
:100F8000120F8A40F17F02021A263400F583E9F03D
:100F900008E8C394052274F61217BAEAFCEBFDE9DF
:100FA000F8740A121C09120FEC600D8C828D83E01C
:100FB000121B3B120FE170F3802274F61217BAEA8B
:100FC000FCEBFDE9F8740A121C09120FEC600D121B
:100FD0001AEE8C828D83F0120FE170F37F03021AF8
:100FE00026E9240109EA3400FA18E822E0F508A30A
:100FF000E0F509A3E0A908AA09FBE822C082C083A2
:10100000A823E8540460097823E654FBF6120D0F78
:10101000A823E8541060097823E654EFF6120D2D4A
:10102000A823E8A2E05005782354FCF690620EE075
:10103000FA7404F0906214E0A2E05042E5A8F8C20D
:10104000AF906216E0F9A3E0E9FBE8A2E792AF8077
:101050001F906228E0C0E0900391E0F8749228F5B8
:101060008274033400F583D0E0F0900391E004F043
:10107000EBFC74FF2C1B0470D8906214E4F0EA902F
:10108000620EF0E0FD7404F0906211E0A2E0403BDB
:10109000900493E0F8900492E068602F7A40900406
:1010A00092E0F8749428F58274043400F583E0909B
:1010B0006228F0900492E004F008900493E06860E5
:1010C000041AEA70D99062117401F0ED90620EF08A
:1010D000D083D0822274F81217BAE9FE7900801FFB
:1010E000900390E0FC74922CF58274033400F58335
:1010F000E08A828B83F0900390E0041211480990FB
:101100000390E0F8900391E0686005E9C39E40D049
:101110007F01021A26C082C08380228A828B83E0EC
:10112000C0E0900493E0FC74942CF58274043400C5
:10113000F583D0E0121148900493E004F0E9F874CC
:10114000FF28190470D58088F08A828B83A3AA8235
:10115000AB832212120112098FE9603112127AE96F
:10116000602B75AC00759A0053F4FEC29043FE01EB
:1011700090620FE4F0E0A2E740FB90000174CDF034
:10118000022000C2AF75C9AB75C95B80FE9005D463
:10119000780C121BD5794E1211EBD2AF850D099048
:1011A00005CC780C121BA4E5095440600AA28050BB
:1011B00004C2808002D280120FFC120885E960DC34
:1011C000C280D2919005D87808121BD5120FFC90DE
:1011D00005DC7808121BA4E5084509450A450B7093
:1011E000EBC2AF75C9AB75C95B80FE781075B60FE1
:1011F000E5B4A2E750FAE5BBC39940F118E870EDF9
:1012000022C082C08353BEFBE59DA2E650FA00785F
:10121000F8790100E824FF18E934FFF9E84970F390
:1012200075C6807480659E70FA43BE0490627074C7
:1012300008F0D28043FD01C29143FE02794A1211A7
:10124000EB90000174F5F07403F5D575D488900522
:10125000E0121BFD900594121BF1900598E4F0A399
:10126000F0A37408F0120CCE7AFF7BFF12164F53D6
:10127000F4FED29043FE010210D074F11217BA743A
:10128000FF121B519005E4780C121BD57E00D2AFE3
:101290008004C291C280120FFC79018518828519E1
:1012A00083AA82AB831210D5E96012E064F860343F
:1012B000E0640770089005D4780C121BD5A29250F8
:1012C00023A293501E850C08850D09850E0A850FF3
:1012D0000B9005DC780C121BA4E5084509450A456E
:1012E0000B70130EC2AFD280C291EEF97401121BC3
:1012F000087F08021A26850D09E50954207093D24B
:1013000080D2918091C0E074F2121820900001E028
:1013100064CD7005122033800BE064F57005121661
:101320009A8001007F010218DCD083D08222C08223
:10133000C083E9FCEAFD7A007B00800790059CE011
:1013400012138190059BE0F8A3E0F9900678E0681D
:101350007003A3E069601C1213756C700D90059BFF
:10136000E0FAA3E0FB12138180091213756D70CCB3
:10137000ED60C980B490059CE0F5838882A3E49376
:1013800022F5838882E493F890059BE028F8A3E097
:101390003400F990059BE8F0A3E9F022C082C083F5
:1013A0001213AD7A00790112132E021329900676DA
:1013B000E0F8A3E0F990059BE8F0A3E9F02274F7C8
:1013C0001217BAE9FEEAFF1213AD7A00790212137E
:1013D0002EEA4B601CEE60108A828B83A3A3A3A32A
:1013E000A3E4936E70E48009EFF874FF281F047083
:1013F000D97F02021A2674F51217BAEAFF8B087A0F
:10140000001213BE7A02790412132EEA4B60188A76
:10141000828B83A3A3E4936F70EA8A828B83A3A356
:10142000A3E493650870DD7F04021A2674F712178F
:10143000BA74F0121B51E97A007B00600C14601042
:101440001460141460180215377AF07B0502153702
:101450007AF47B050215377A187B06021537900659
:101460003CE060030215337408121C09AC82AD83A2
:101470007583057582E87408121A93750808F509D2
:101480007808121B6B7402121C09AC82AD837AE8D7
:101490007B07797F12154F7402121B087808121B04
:1014A0006B740A121C09AC82AD837402121C09AA67
:1014B00082AB831219347402121B088B09EA4509A6
:1014C000701D7509007808121B6B7C0C7D78740206
:1014D000121C09AA82AB831219E07402121B087C49
:1014E000287D008D08851882851983E5822508F5F9
:1014F00082E5833400F583E0FF8C08743C2508F80E
:1015000074063400F9EF12153F88828983F0EFC426
:1015100012153FC0E0E824FEF582E934FFF583D0E0
:10152000E0F00D74FC2CFCEDC3940840B690063C32
:10153000742AF07A3C7B067410121B080213F154D3
:101540000FFA74662AF58274063400F583E022747B
:10155000F51217BA8908740B121C09E0FEA3E0FF0C
:10156000740F5508F50A750B00740B780A121B915D
:10157000EA2400F8EB3480F9E82400E9350BF9E5BA
:10158000C7F509A2AFE433F50AC2AFE508C4540FAA
:10159000FAE5C754F84AF5C7801C88828983E08C35
:1015A000828D83F088828983A3A882A9838C828D0F
:1015B00083A3AC82AD83EEFAEFFBEA24FF1EEB348B
:1015C000FFFFEA4B70D48509C7E50AA2E092AF7F1E
:1015D00004021A2674F71217BA7409121C09E0F5EE
:1015E00008A3E0F509ED900388F0ECA3F0A3746282
:1015F000F0A37473F0A3E0541FF0E508333354FCF8
:10160000A3F074067808121BB7E50890038CF090DD
:10161000038E7412F0A37442F075D1FE75D601EA00
:10162000906271F0EBA3F0906270E0D2E1F0E0A282
:10163000E740FB7F02021A26C082C083E9C33390D1
:101640006272F0906270E0D2E0F0D083D0822274B7
:10165000F71217BA7523007524007525008A268BAA
:1016600027EA90620BF08A088B0974047808121B31
:10167000B7E508906207F08A088B097409780812A8
:101680001BB7E508543E906209F0758B00C2E84331
:10169000AC20439A027F02021A2674F71217BAE5A9
:1016A0009DA2E650FA906206E0FAA2E25035A82622
:1016B000E890620BF0F50885270974047808121B7E
:1016C000B7E508906207F085260885270974097830
:1016D00008121BB7E508543E906209F0906201E0E1
:1016E000D2E0F07823EA46F6906202E0F508750948
:1016F0000074047808121B917823E50846F608E583
:101700000946F6906204E0F5087509007409780846
:10171000121B917824E50946F6EAA2E050037525EC
:101720000174065A6003752500E58BA2E550067525
:101730008BDF7525001217B9758B00C2E80216956C
:10174000C082C0839005B7E06422700A9005A4E0CF
:10175000701A74028015E064209005A4700BE0708C
:101760000B1217959005A480E97404F08043C082A1
:10177000C0839005B7E064219005A47013E0701356
:10178000121795A37407F0A3E4F09005A404800257
:101790007404F0801C9005B17494F0A37405F0A358
:1017A000E4F02280028000C082C0839005A474040B
:1017B000F0D083D0822280EF22222518C582C0E09B
:1017C000E51934FFC583C0E0E518C3958224F910FC
:1017D000AF0885831985821880088583198582184A
:1017E000D2AFCEF0A3E520F0A37808E608F0A3DEA0
:1017F000FAEFF0A3E58124FBF8E608F0A3E608F091
:10180000A30808E608F0A3E608F0A315811581D027
:10181000E0FED0E0F815811581E8C0E0EEC0E022DE
:10182000C0D02518C582C0E0E51934FFC583C0E0EB
:10183000E518C3958224F310AF08858319858218B3
:101840008008858319858218D2AFC8F0A3E9F0A378
:10185000EAF0A3EBF0A37908E709F0A3D8FAECF0DB
:10186000A3EDF0A3EEF0A3EFF0A3D0E0F0A3D0E05F
:10187000F0A3D0E0F0A3E520F0A3E5F0F0A322125E
:10188000010002020000205104A816090001020311
:10189000010902430002010080190904000001024D
:1018A00002010005240010010424020205240600A0
:1018B00001052401000107058203400040090401DD
:1018C00000020A000000070584024000000705042A
:1018D000024000009A180000BD1800008519838599
:1018E0001882E0C0E0A3E0F9A3E0FAA3E0FBA3784C
:1018F00008E0F608A3DFFAE0FCA3E0FDA3E0FEA306
:10190000E0FFA3E0C0E0A3E0C0E0A3E0F5D0A3E0E7
:10191000F520A3E0A3F5F010AF08858319858218A0
:101920008008858319858218D2AFD082D083D0E019
:10193000F8D0E03274F81217BA7408121C09E0F8F3
:10194000A3E08015A3AA82AB838C828D83A3AC8293
:10195000AD83E824FF18E934FFF9E84960238A825F
:101960008B83E0FE8C828D83E06E8A828B8360D4D1
:10197000E0F88C828D83E0FAE8C39AFA95E0FB8068
:10198000047A007B007F01021A26121C18B900039A
:101990000219DAE479217807B800028004F709D83F
:1019A000FCE490030278BF79038002F0A3D8FCD94D
:1019B000FA9005C0AA82AB8390008E78C37901802B
:1019C00015E493A3AC82AD838A828B83F0A3AA82B1
:1019D000AB838C828D83D8E9D9E7121153121C1383
:1019E00074F71217BA7409121C09E0FEA3E0FFEAAB
:1019F000F8EBF980188C828D83E088828983F0A3CC
:101A0000A882A9838C828D83A3AC82AD838E088F3C
:101A100009E50824FF1EE50934FFFFE508450970C4
:101A2000D47F02021A26851983851882E0A3FEE07E
:101A3000A3F5207808E0A3F608DFFAE0A3FFE0A30F
:101A4000C0E0E0A3C0E0E0A3C0E0E0A3C0E010AFCE
:101A5000088582188583198008858218858319D2A4
:101A6000AFD083D0822274038000CCC0E0EDC0E010
:101A7000E518C39CCCAD1950011D10AF068C188D14
:101A80001980068C188D19D2AF121A93D0E0FDD0B0
:101A9000E0FC22CAC0E0E0A3C582CCC582C583CDEC
:101AA000C583F0A3C582CCC582C583CDC583DAE6E4
:101AB000D0E0CA22C008C3E096F50808A3E0964229
:101AC0000808A3E096420808A3E09645087001D3F1
:101AD000D008222518F58210AF08F5184002151914
:101AE0008008F51840021519D2AF85198322BB0171
:101AF00002E722C082C08389828A83BB0003E08020
:101B000002E493D083D08222C0D0251810AF08F50C
:101B100018500205198008F51850020519D2AFD0E7
:101B2000D0226016080808C6C313C618C613C61804
:101B3000C613C618C613C6D5E0EA22BB000EC08283
:101B4000C0838A838982F0D083D08222BB0101F7CF
:101B500022251810AF08F518400215198008F5184D
:101B600040021519D2AF227403800474028000C0B1
:101B7000E0F404121AD3D0E0121BE422E0667010E5
:101B800008A3E066700A08A3E066700408A3E06694
:101B900022700422600D18C6C333C608C633C6D5EA
:101BA000E0F41822E026F608A3E036F608A3E036B3
:101BB000F608A3E036F622600C08C6C313C618C6A2
:101BC00013C6D5E0F42275D00075814075180275F2
:101BD000190302198AE0F608A3E0F608A3E0F60864
:101BE000A3E0F622CAC0E0E6F0A308DAFAD0E0FAF1
:101BF00022EAF0A3EBF0A3ECF0A3EDF022E0FAA3CD
:101C0000E0FBA3E0FCA3E0FD222518F582E43519F2
:101C1000F5832200000080FB790122E473FFFFFFBF
:101C2000FFFFFFFFFFFFFFFFFFFFFFFFFFFFFFFFC4
:101C3000FFFFFFFFFFFFFFFFFFFFFFFFFFFFFFFFB4
:101C4000FFFFFFFFFFFFFFFFFFFFFFFFFFFFFFFFA4
:101C5000FFFFFFFFFFFFFFFFFFFFFFFFFFFFFFFF94
:10200000022C0502221BFFFFFFFFFFFFFFFFFFFF68
:10201000FFFFFFFFFFFFFFFFFFFFFFFFFFFFFFFFD0
:10202000FFFFFFFFFFFFFFFFFFFFFF0228F6FFFF9D
:10203000FFFFFF02223EFFFFFFFFFFFFFFFFFFFF4B
:10204000FFFFFFFFFFFFFFFFFFFFFFFFFFFFFFFFA0
:10205000FFFFFF022157FFFFFFFFFFFFFFFFFFFF13
:10206000FFFFFFFFFFFFFFFFFFFFFF0228CEFFFF85
:10207000FFFFFFFFFFFFFFFFFFFFFF022795FFFFAF
:10208000FFFFFF0221B701FFFFFFFFFFFFFFFFFF81
:10209000102010200101FF01010503010F10FEFFB8
:1020A0000336033603360336A1349B340336A8497E
:1020B00000000000104A00000000FF000000FF00C8
:1020C000010000A33800000000F537C3393D38395E
:1020D0003900002B380000000000000000FF010163
:1020E000001F070000009707E80364006400B801C0
:1020F00002020008000005020701051E02051E027B
:102100000A0A0103B80B02803E0102FEFFE8030A3F
:10211000050001FFFF0A01E00020FD00020206FFAA
:10212000FF00035F005F0030005800000000000067
:10213000000000000000000000000000000000009F
:102140000000000000000000000000B6250B260B78
:10215000260B260B261326C0E074F2122557A2AFD9
:10216000E433FED2AFE5A7FFE5A1F5085F541060A8
:10217000061241BB75A1EFE5085F540860081241E3
:10218000C175A1F78024E508A2E092F0EFA2E082F9
:10219000F05017906198E0F8900878E0C398A2D2C8
:1021A00065D0335002E8F075A1FE751A00EEA2E08A
:1021B00092AF7F01022613C0E074F2122557A2AF3E
:1021C000E433FED2AF9061A4E0F8759B00E591582E
:1021D000540860087591F71242158023E591585410
:1021E0001060087591EF12421B8014E591A2E092F5
:1021F000F0E8A2E082F05007E0C2E0F012436B90FA
:1022000061A3E0F8E5E9585404600E12434175E912
:10221000FB906193E0A2E640F2808FC0E074F2127E
:102220002557A2AFE433FED2AF9061A5E0F8E5BF39
:10223000585404600675BFFB1243830221AAC0E014
:1022400074F1122557E59DA2E650FA906206E0FA75
:10225000A2E25035A82CE890620BF0F508852D0914
:1022600074047808122C24E508906207F0852C0885
:10227000852D0974097808122C24E508543E9062D3
:1022800009F0906201E0D2E0F07829EA46F6906227
:1022900002E0F50875090074047808122B7B782990
:1022A000E50846F608E50946F6906204E0F508758B
:1022B000090074097808122B7B782AE50946F6EAAA
:1022C000A2E05003752B0174065A6003752B00E5DC
:1022D0008BA2E55006758BDF752B0012452D758B93
:1022E00000C2E87F02022613C3E498F8E499F912C9
:1022F00023298026C3E49AFAE49BFBE920E7E9124C
:102300002329E498F8E499F922C3E498F8E499F9C8
:10231000122329E498F8E499F9C3E49AFAE49BFBC0
:1023200022EB20E7CFE920E7E0B90010BB0008E886
:102330008AF084F8AAF022E4FBC8FA22EB70227B30
:1023400010C833C8C933C9335007C39AC3DBF280FE
:10235000069A50012ADBEAC833F4C8C933F4C9FA33
:102360002275F008E4C833C8C933C933C99AC99B78
:102370005004C92AC93BD5F0ECFBC833F4C8E4C902
:10238000FA22080808EAC0E0EBC0E086F0E7A4FA09
:10239000180986F0E7A42AFA180986F0E7A42AFAB1
:1023A000180986F0E7A42AFA1986F0E7A4FBE5F0FD
:1023B0002AFA190886F0E7A42BFBE5F03AFA190887
:1023C00086F0E7A42BFBE5F03AFA18180986F0E747
:1023D000A4C5F02BFBE43AFA1908E7C5F0C6A42619
:1023E000F6E5F03BFBE43AFA1886F0E7A4F6E5F0F0
:1023F0000826F6E43B08F6E43A08F6D0E0FBD0E025
:10240000FA22122C67B90003022465E47921780DC1
:10241000B800028004F709D8FCE49004D1781A7956
:102420000B8002F0A3D8FCD9FA781A9020867A01A2
:10243000BA00028007E493A3F608DAF9900EEAAA3C
:1024400082AB8390209478C479018015E493A3AC87
:1024500082AD838A828B83F0A3AA82AB838C828D28
:1024600083D8E9D9E77582F67583CD74051229BA48
:102470007582DF75834774001229BAE4CFC0E0E4A7
:10248000CEC0E0E4CDC0E0E4CCC0E075F020C3E60F
:1024900033F608E633F608E633F608E633F618189E
:1024A00018EC33FCED33FDEE33FEEF33FFC3EC9756
:1024B00009ED9709EE9709EF97191919400FFFECED
:1024C00097FC09ED97FD09EE97FE191906D5F0BEA8
:1024D000ECF709EDF709EEF709EFF7191919D0E054
:1024E000FCD0E0FDD0E0FED0E0FF222518C582C080
:1024F000E0E51934FFC583C0E0E518C3958224F8F0
:1025000010AF088583198582188008858319858214
:1025100018D2AFCEF0A3E520F0A37808E608F0A328
:10252000DEFAEFF0A3E58124FAF8E608F0A3E60866
:10253000F0A3E608F0A30808E608F0A3E608F0A375
:1025400015811581D0E0FED0E0F815811581158147
:10255000E8C0E0EEC0E022C0D02518C582C0E0E5AA
:102560001934FFC583C0E0E518C3958224F310AF8A
:10257000088583198582188008858319858218D279
:10258000AFC8F0A3E9F0A3EAF0A3EBF0A37908E762
:1025900009F0A3D8FAECF0A3EDF0A3EEF0A3EFF06E
:1025A000A3D0E0F0A3D0E0F0A3D0E0F0A3E520F0CA
:1025B000A3E5F0F0A3221201000202000020510462
:1025C000A81609000102030109024300020100806C
:1025D0001909040000010202010005240010010491
:1025E00024020205240600010524010001070582DA
:1025F0000340004009040100020A000000070584AE
:102600000240000007050402400000D1250000F44C
:10261000250000851983851882E0C0E0A3E0F9A3B6
:10262000E0FAA3E0FBA37808E0F608A3DFFAE0FCF9
:10263000A3E0FDA3E0FEA3E0FFA3E0C0E0A3E0C0B1
:10264000E0A3E0F5D0A3E0F520A3E0A3F5F010AF00
:10265000088583198582188008858319858218D298
:10266000AFD082D083D0E0F8D0E0320875F0108E81
:10267000218F22858226858325851882851983E00E
:10268000CEA3E0CF852682852583EBC9EAC8EDCBB2
:10269000ECCAC3E833C8E933C9EA33CAEB33CBC366
:1026A000EA9EF524EB9FF523B35004AB23AA24EC58
:1026B00033CCED33CDD5F0DAAE21AF2222D083D0AA
:1026C00082ECC0E0EDC0E0E493A3FCE493A3FDED55
:1026D0004C600D1227D8EC24FFFCED34FFFD80EF99
:1026E000E493A3FCE493A3FDED4C600D122879EC78
:1026F00024FFFCED34FFFD80EFD0E0FDD0E0FCE4F2
:1027000093A3C0E0E493C0E022D083D082E9C0E08C
:10271000E493A3C386F0C5F095F0F908E493A3868B
:10272000F0C5F095F0700BE493A3C3994005E9045C
:102730008002A3E475F002A42582F582E5F03583DA
:10274000F583D0E0F9E493A3C0E0E493C0E02285F0
:102750001983851882E0A3FEE0A3F5207808E0A3A2
:10276000F608DFFAE0A3FFE0A3C0E0E0A3C0E0E0EA
:10277000A3C0E0E0A3C0E0E0A3C0E010AF08858202
:10278000188583198008858218858319D2AFD08374
:10279000D0820229C0C0E074F2122557A2AFE43300
:1027A000FED2AFE58AA2E25007900838E0D2E0F00E
:1027B000E58AA2E35007900838E0D2E1F0758A007C
:1027C000C2EB7A107B00900834E0F9123B25EEA2B0
:1027D000E092AF7F01022613C0E0C3E49396087431
:1027E00001939618400FE49366700808740193668D
:1027F0001870007019A3A3C3E4939608740193960C
:1028000018A3A3400DD0E0D0E0D0E00226F9A3A3A6
:10281000A3A3A3A3D0E022740480087403800474EB
:10282000028000CCC0E0EDC0E0E518C39CCCAD193F
:1028300050011D10AF068C188D1980068C188D194B
:10284000D2AF12293CD0E0FDD0E0FC22740280001F
:10285000CCC0E0EDC0E0E518C39CCCAD1950011D23
:1028600010AF068C188D1980068C188D19D2AF12F6
:10287000291AD0E0FDD0E0FC22C0E0C0F088F0E4EE
:10288000936670080874019366187000A8F0A3A3FB
:10289000700BD0F0D0E0D0E0D0E00226F9A3A3D0B6
:1028A000F0D0E022D083D082CCC0E0E493A36006D5
:1028B00012295D1470FAE493A36006122A9F147023
:1028C000FAD0E0FCE493A3C0E0E493C0E022C0E0CF
:1028D00074F2122557758900C2C5900EE2E0700EA1
:1028E0007A007B1090069AE0F9123B25800312468D
:1028F0006B7F01022613C0E0C0D0E8C0E0E9C0E071
:10290000E5A8D2AFC2C7751A00A2E7A2E792AFD07E
:10291000E0F9D0E0F8D0D0D0E032CAC0E0E493A330
:10292000C582CCC582C583CDC583F0A3C582CCC585
:1029300082C583CDC583DAE5D0E0CA22CAC0E0E013
:10294000A3C582CCC582C583CDC583F0A3C582CC87
:10295000C582C583CDC583DAE6D0E0CA22C0E0E4F3
:1029600093A3D39C5010E493A3C39C400AD0E0D01F
:10297000E0D0E00228C1A3A3A3D0E0227009080898
:1029800008226016181818C6C333C608C633C6080E
:10299000C633C608C633C6D5E0EA22C008C3E096EF
:1029A000F50808A3E096420808A3E096420808A3A9
:1029B000E09645087001D3D00822C09FF59FE473CC
:1029C000D09F22D083D082C09FE493C0E074019353
:1029D000C0E0740293F59F222518F58210AF08F528
:1029E00018400215198008F51840021519D2AF8554
:1029F0001983227404800A740380067402800274AE
:102A000001C0E0F4041229D8D0E0122C4222C0D038
:102A1000251810AF08F518500205198008F5185050
:102A2000020519D2AFD0D022BB0102E722C082C07A
:102A30008389828A83BB0003E08002E493D083D041
:102A400082226016080808C6C313C618C613C61823
:102A5000C613C618C613C6D5E0EA22C3E0C696F66A
:102A600008A3E0C696F608A3E0C696F608A3E0C65B
:102A700096F622251810AF08F5184002151980089F
:102A8000F51840021519D2AF22BB000EC082C083D8
:102A90008A838982F0D083D08222BB0101F722C0D1
:102AA000E0E493A36C7009D0E0D0E0D0E00228C14C
:102AB000A3A3D0E022E066701008A3E066700A08C5
:102AC000A3E066700408A3E06622C3E09608A3E0D2
:102AD0009608A3E09608A3E096A2D265D03322E739
:102AE0006670100809E766700A0809E7667004084E
:102AF00009E76622C3E697F60809E697F60809E6AD
:102B000097F60809E697F622C3E096F008A3E09648
:102B1000F008A3E096F008A3E096F022E657F60846
:102B200009E657F60809E657F60809E657F622E0DF
:102B300026F608A3E036F608A3E036F608A3E0364A
:102B4000F622E056F008A3E056F008A3E056F0089D
:102B5000A3E056F022E026F008A3E036F008A3E058
:102B600036F008A3E036F022E627F60809E637F645
:102B70000809E637F60809E637F622700422600DE8
:102B800018C6C333C608C633C6D5E0F41822E647D4
:102B9000F60809E647F60809E647F60809E647F6A3
:102BA00022E056F608A3E056F608A3E056F608A37E
:102BB000E056F622E4C396F608E496F608E496F6A4
:102BC00008E496F622C6F4C608C6F4C608C6F4C6DB
:102BD00008C6F4C622600D08C6A2E713C618C613BD
:102BE000C6D5E0F322C3E7960809E7960809E796F9
:102BF0000809E79622C3E09608A3E09608A3E096AA
:102C000008A3E0962275D0007581407518D175191A
:102C10000400022402E0F608A3E0F608A3E0F608A8
:102C2000A3E0F622600C08C6C313C618C613C6D5A7
:102C3000E0F422E6F008A3E6F008A3E6F008A3E635
:102C4000F022CAC0E0E6F0A308DAFAD0E0FA22E007
:102C5000FAA3E0FBA3E0FCA3E0FD22EAF0A3EBF083
:102C6000A3ECF0A3EDF022E5C754F84401F5C779D1
:102C700001222518F582E43519F58322C2AF75D6F5
:102C80009F020000221229C399EC031229C3D8EC39
:102C9000031229C3C4ED031229C37BEE031229C317
:102CA00013F1031229C369F2031229C31EF303129D
:102CB00029C33AF4031229C358F4031229C300802C
:102CC000021229C33880021229C37280021229C35A
:102CD0009480021229C3A680021229C3F88002122E
:102CE00029C35881021229C3E581021229C39382A4
:102CF000021229C3DB82021229C31583021229C3DF
:102D00003283021229C35983021229C3AF830212EC
:102D100029C3C883021229C3EE83021229C32C845B
:102D2000021229C38184021229C3AA84021229C370
:102D3000FC84021229C3BF85021229C340860212F5
:102D400029C3FA86021229C3C587021229C309883A
:102D5000021229C33288021229C37488021229C3BD
:102D6000A888021229C32F8A021229C3F18A0212EB
:102D700029C3178B021229C33D8B021229C35F8B13
:102D8000021229C36E8B021229C3798B021229C346
:102D9000328C021229C3928C021229C3588D02125E
:102DA00029C3608D021229C3EF8D021229C35E8EE2
:102DB000021229C39E8E021229C3EF90021229C368
:102DC000EB91021229C35992021229C3569302129F
:102DD00029C33E94021229C37994021229C3029591
:102DE000021229C32795021229C33895021229C35A
:102DF000B295021229C34096021229C39B96021271
:102E000029C36A97021229C38C97021229C3979883
:102E1000021229C3B598021229C3C898021229C305
:102E20002099021229C32F99021229C3B7990212BD
:102E300029C3069A021229C30F9A021229C32B9C96
:102E4000021229C3909D021229C3A99D021229C30F
:102E5000E79E021229C3649F021229C3ADA0021289
:102E600029C3EFA0021229C32BA1021229C34FA22A
:102E7000021229C3C0A4021229C3CBA4021229C37F
:102E8000D6A4021229C3E1A4021229C3EBA40212A0
:102E900029C3F6A4021229C310A5021229C31AA538
:102EA000021229C324A5021229C32FA5021229C385
:102EB0003AA5021229C362A5021229C3BDA50212B6
:102EC00029C3C7A5021229C3D2A5021229C3F6A598
:102ED000021229C31AA6021229C385A6021229C307
:102EE000C9A6021229C3E5A6021229C360A70212CD
:102EF00029C3A7A7021229C3F3A7021229C35DA8F9
:102F0000021229C320A9021229C31AAB021229C333
:102F100083AB021229C3B9AC021229C3DFAC02127F
:102F200029C33AAE021229C3DDB1021229C3B0B3DC
:102F3000021229C377B5021229C31EB6021229C391
:102F40009BB7021229C331B8021229C383B80212F7
:102F500029C3E7B8021229C3F6B8021229C384BBF9
:102F6000021229C3C6BC021229C342BE021229C3DF
:102F700094BE021229C389BF021229C36EC1021274
:102F800029C3FBC2021229C31AC3021229C36FC389
:102F9000021229C370C4021229C398C4021229C3A1
:102FA000ECC4021229C3D2C5021229C310C60212F0
:102FB00029C35BC6021229C3BCC6021229C302C8B8
:102FC000021229C373C8021229C39DC9021229C360
:102FD0003DCC021229C36ECC021229C3FFCE0212CD
:102FE00029C368CF021229C370D0021229C3F8D0B6
:102FF000021229C36BD1021229C32AD2021229C399
:10300000CFD2021229C36FD3021229C301D40212F4
:1030100029C34AD4021229C37BD4021229C33CD645
:10302000021229C31981011229C36581011229C322
:103030004B84011229C38A84011229C3D48401124A
:1030400029C3D585011229C33986011229C379867E
:10305000011229C3BD86011229C30F88011229C399
:10306000488B011229C38A8C011229C3208D0112B9
:1030700029C3E597011229C37B98011229C3789BC4
:10308000011229C3B49C011229C32F9D011229C327
:103090005D9E011229C3B19F011229C39AA001129A
:1030A00029C362A2011229C372A4011229C3FBA47D
:1030B000011229C3CFA5011229C367A6011229C392
:1030C00071A6011229C39FA6011229C35DA701128F
:1030D00029C33BA8011229C312A9011229C3AAA915
:1030E000011229C33EAA011229C354AA011229C3FD
:1030F000B5AA011229C3DEAA011229C30BAB011222
:1031000029C350AD011229C338AE011229C37CAEC8
:10311000011229C3E9AE011229C3A2AF011229C3CA
:10312000D4AF011229C31BB0011229C351B001123F
:1031300029C3BEB0011229C313B1011229C318B1AA
:10314000011229C36CB1011229C3B6B1011229C3FE
:10315000B7B2011229C31CB3011229C378B30112FB
:1031600029C3F6B3011229C3EEB6011229C3E4B78D
:10317000011229C377B9011229C3C5BB011229C3A2
:1031800076BC011229C31DBD011229C35FBF011204
:1031900029C302C0011229C340C0011229C31FC2A2
:1031A000011229C33CC2011229C345C2011229C31D
:1031B00069C2011229C374C2011229C393C2011248
:1031C00029C3C2C4011229C317C5011229C321C5CD
:1031D000011229C32BC5011229C386C5011229C3B7
:1031E000E2C5011229C315C7011229C376C701120E
:1031F00029C3CBC8011229C31CC9011229C3B2C9F2
:10320000011229C3BFCA011229C374CB011229C3F9
:1032100073CC011229C3A6CD011229C33ACE0112E3
:1032200029C3B3CE011229C3CACE011229C307CFC5
:10323000011229C311CF011229C31BCF011229C3C7
:1032400026CF011229C344CF011229C386CF011210
:1032500029C3E3CF011229C308D0011229C322D008
:10326000011229C3A8D0011229C3DED0011229C33B
:103270000DD2011229C356D2011229C343D3011220
:1032800029C379D3011229C30DD4011229C39FD4B4
:10329000011229C318D6011229C34BD7011229C321
:1032A000FDD7011229C3C4D8011229C363D9011261
:1032B00029C3C7D9011229C3A5DA011229C3F7DA34
:1032C000011229C35DDB011229C328DC011229C3C5
:1032D0004BDC011229C3D4DC011229C3F8DC011232
:1032E00029C31ADD011229C37BDD011229C3C8DFFE
:1032F000011229C3A5E0011229C350E1011229C31B
:103300007BE3011229C3C9E3011229C316E40112A8
:1033100029C358E4011229C3B2E4011229C3E0E42D
:10332000011229C304E5011229C347E5011229C38B
:1033300071E5011229C3ADE5011229C30CE60112A2
:1033400029C379E6011229C3C4E7011229C3E2E9BE
:10335000011229C323EA011229C34CEA011229C32D
:10336000D7EA011229C363EB011229C399EB0112B9
:1033700029C3D4EB011229C3F8EB011229C34DEC88
:10338000011229C368EC011229C321ED011229C3DE
:103390006AED011229C389F0011229C3BCF00112A0
:1033A00029C365F1011229C362F2011229C349DF61
:1033B000051229C388DF051229C36480031229C3BB
:1033C000A780031229C36181031229C36A820312F1
:1033D00029C38683031229C33885031229C3AC8508
:1033E000031229C36286031229C37187031229C3FA
:1033F000D887031229C31488031229C380880312B3
:1034000029C3B988031229C30989031229C39289E0
:10341000031229C3368A031229C3098B031229C355
:10342000D58B031229C35F8C031229C3858C031229
:1034300029C3B28C031229C3E38C031229C3878DDD
:10344000031229C3968E031229C3A68E031229C321
:10345000F68E031229C3038F031229C3188F031298
:1034600029C3218F031229C37B8F031229C3D88F4D
:10347000031229C32290031229C33D90031229C3CA
:103480006490031229C38190031229C38D90031203
:1034900029C3AD92031229C3C692031229C34F93C5
:1034A000031229C36293031229C37493031229C31D
:1034B0002A94031229C33495031229C3D896031200
:1034C00029C36397031229C36697031229C3CE97B2
:1034D000031229C3DF97031229C37198031229C36A
:1034E0009F98031229C3A198031229C3D9980312E4
:1034F00029C33699031229C35A99031229C378990B
:10350000031229C3C699031229C3E69A031229C3D9
:103510003E9B031229C3979B031229C3269C0312C7
:1035200029C34E9C031229C3849C031229C3939C74
:10353000031229C3F19C031229C3619D031229C3FD
:103540009E9D031229C3D99D031229C3049E031211
:1035500029C31E9E031229C3389E031229C3F29E5B
:10356000031229C3FC9E031229C3389F031229C3E7
:10357000489F031229C3519F031229C3B19F03120D
:1035800029C3C59F031229C3CEA0031229C3E1A0FA
:10359000031229C3F8A0031229C30DA1031229C3E2
:1035A000AFA1031229C32EA2031229C3D1A2031271
:1035B00029C3DDA2031229C30FA4031229C32BA41C
:1035C000031229C383A4031229C3BCA4031229C371
:1035D000D1A4031229C333A5031229C3D2A5031210
:1035E00029C31DA6031229C376A8031229C322A941
:1035F000031229C352AA031229C3E6AA031229C33C
:1036000014AD031229C32CAD031229C32FAD03122D
:1036100029C33BAD031229C34FAD031229C357ADD4
:10362000031229C397AD031229C3B5AE031229C3F0
:1036300038AF031229C3BAAF031229C334B003123F
:1036400029C3EFB0031229C311B1031229C3ADB1CD
:10365000031229C3B9B1031229C3E4B1031229C368
:10366000E7B1031229C314B2031229C329B203120A
:1036700029C38EB2031229C3F0B3031229C379B54B
:10368000031229C304B6031229C32CB7031229C39A
:10369000F9B7031229C32AB8031229C356B8031273
:1036A00029C338B9031229C367B9031229C326BA3B
:1036B000031229C3CEBA031229C342BB031229C382
:1036C000DDBB031229C363BC031229C399BC0312D7
:1036D00029C3DABC031229C30FBD031229C3E5C0F5
:1036E000041229C334C1041229C371C1041229C3AD
:1036F000C1C1041229C345C2041229C38DC40412D6
:1037000029C37EC6041229C32DCA041229C3D1CAF3
:10371000041229C30CCB041229C32ACB041229C3D7
:103720008ACB041229C3B2CB041229C3E2CB041200
:1037300029C313CC041229C34ACC041229C39BCC3D
:10374000041229C3E7CC041229C3EBF2011229C3E6
:1037500069F3011229C39FF3011229C307F401126F
:1037600029C37AF5011229C396F5011229C3DBF5A5
:10377000011229C368F6011229C3BFF6011229C339
:10378000E2F7011229C305F9011229C362F90112F6
:1037900029C3CEF9011229C377FA011229C3D8FA35
:1037A000011229C321FB011229C3CEFB011229C337
:1037B000D8FC011229C31BFD011229C364FD0112AB
:1037C00029C39BFD011229C33EFE011229C3EDFE50
:1037D000011229C335A8051229C346A8051229C319
:1037E000ABA8051229C358A9051229C391A905122E
:1037F00029C3C9F0021229C374F1021229C322F2AB
:10380000021229C3AFF2021229C387F5021229C39B
:103810003AF7021229C3F1F7021229C34FF8021234
:1038200029C36FFB021229C305FD021229C30AD363
:10383000051229C332D3051229C326D4051229C380
:103840005B86051229C3E086051229C3F786051297
:1038500029C36C87051229C3CA87051229C3F387B8
:10386000051229C37088051229C31389051229C3BB
:103870007889051229C3DC89051229C3FD8905123F
:1038800029C32E8A051229C34C8A051229C3738ABB
:10389000051229C3A38A051229C3E98A051229C37F
:1038A0004F8B051229C393F4031229C342F5031267
:1038B00029C362F5031229C382F5031229C396F5C1
:1038C000031229C3F6F5031229C326F6031229C3EE
:1038D000ADF7031229C356F8031229C338F90312AE
:1038E00029C387F9031229C3CBF9031229C330FA7C
:1038F000031229C39CFA031229C3BDFA031229C378
:1039000040FB031229C375FB031229C3E5FB031215
:1039100029C38BFD031229C35CFE031229C39EFE3B
:10392000031229C3F8FE031229C367C7051229C36E
:1039300071C7051229C392C7051229C31FCD0412EE
:1039400029C337CF041229C36DD0041229C354D21E
:10395000041229C3ACD2041229C36DD3041229C3A3
:10396000ADD3041229C3E2D3041229C3ACD4041288
:1039700029C328D5041229C340E3031229C31BD647
:10398000041229C31DD6041229C31FD6041229C349
:1039900021D6041229C33ED6041229C35ED60412CE
:1039A00029C388D6041229C3A4D6041229C328D750
:1039B000041229C375D7041229C3F0D7041229C3EE
:1039C0000080041229C32680041229C384810412B2
:1039D00029C3AF81041229C32E82041229C365ECC6
:1039E000031229C37282041229C3BC82041229C3A0
:1039F000E682041229C3FE83041229C3348404120C
:103A000029C36384041229C39684041229C35F85E1
:103A1000041229C37F85041229C3C785041229C350
:103A20002187041229C3A387041229C3978804128B
:103A300029C36189041229C39389041229C3EC891B
:103A4000041229C3508A041229C3C18A041229C34B
:103A5000258B041229C3638B041229C3A18C041281
:103A600029C3D68C041229C3338D041229C3EA8DCD
:103A7000041229C3188E041229C3AB8F041229C360
:103A80001F90041229C35290041229C38E9004126D
:103A900029C3A790041229C36391041229C32D924C
:103AA000041229C3E192041229C37693041229C394
:103AB0002994041229C3B194041229C358950412FD
:103AC00029C30080051229C34C80051229C3BA807E
:103AD000051229C3DB80051229C3F280051229C310
:103AE000A281051229C3AB81051229C3FE810512EB
:103AF00029C32782051229C33C82051229C3A58246
:103B0000051229C33683051229C37283051229C3FE
:103B1000BE83051229C32584051229C35E840512BC
:103B200029C3E484051229C32385051229C36485AA
:103B3000051229C39B85051229C3AD85051229C32A
:103B4000BF85051229C3F285051229C332860512E5
:103B500029C31F91051229C36292051229C38892B5
:103B6000051229C39992051229C3B294051229C3DB
:103B7000D194051229C3B4C9051229C3EAC9051293
:103B800029C335CA051229C383CB051229C31EAC2C
:103B9000041229C369AD041229C3A5AD041229C3B7
:103BA0005CAF041229C385AF041229C31DB20412ED
:103BB00029C35DB2041229C3FEB3041229C398B409
:103BC000041229C300B5041229C38DB5041229C3F8
:103BD000C5B5041229C305B6041229C398B7041247
:103BE00029C337B9041229C386BB041229C3B4BB45
:103BF000041229C3E0BB041229C3E9BB041229C380
:103C000044BC041229C3DABC041229C303C0041241
:103C100029C388C0041229C360DE051229C376DED9
:103C2000051229C380DE051229C3D0DE051229C37F
:103C3000909F051229C3A99F051229C34EA0051202
:103C400029C38EA0051229C3A7A0051229C3E0A08D
:103C5000051229C32DA1051229C35FA1051229C38D
:103C6000A1A1051229C3A4A3051229C30EA40512FC
:103C700029C3D3D6051229C328D7051229C381D752
:103C8000051229C3C2DD051229C304DE051229C3AA
:103C900046DE051229C356DE051229C31A96041200
:103CA00029C37296041229C37D96041229C38297F0
:103CB000041229C35498041229C36998041229C311
:103CC000B398041229C31999041229C32C99041218
:103CD00029C37099041229C3E999041229C3FD99D3
:103CE000041229C3609C041229C3739D041229C3C2
:103CF000CE9D041229C3EA9F041229C32AA00412EC
:103D000029C375A0041229C38BA0041229C398A04B
:103D1000041229C3D1A0041229C3E3A0041229C3A9
:103D2000CCA1041229C3D7A1041229C33FA20412B3
:103D300029C397A2041229C3F4A2041229C322A4FE
:103D4000041229C353A4041229C3DBA6041229C3F5
:103D50000CA7041229C39EA7041229C314A8041295
:103D600029C320A8041229C35CA8041229C3CAA825
:103D7000041229C3AFA9041229C3E8A9041229C354
:103D8000F2A9041229C3F5A9041229C3FFA9041238
:103D900029C31BAA041229C396AA041229C3CFAAB5
:103DA000041229C3EBAA041229C317AB041229C3B6
:103DB00052AB041229C36DAB041229C378AB0412B1
:103DC00029C3B4AB041229C3C7AB041229C3EEAB99
:103DD000041229C30CFF031229C31DFF031229C3B8
:103DE000A6FF031229C3DEE9041229C32DEA041237
:103DF00029C3EAEB041229C3C8ED041229C30CEE4F
:103E0000041229C301EF041229C332F0041229C39A
:103E100054F0041229C3B0F0041229C334F104127F
:103E200029C3724D001229C3A04D001229C3F04EC0
:103E3000001229C3394F001229C38E4F001229C323
:103E40000A50001229C37350001229C3BB5000123C
:103E500029C34451001229C3E751001229C36F52EC
:103E6000001229C3B052001229C30F57001229C3F0
:103E70009758001229C3D058001229C314590012B0
:103E800029C3315A001229C3515D001229C3E35DD1
:103E9000001229C3AC5F001229C3E160001229C3DC
:103EA000E561001229C35462001229C31C63001289
:103EB00029C37163001229C37463001229C33164DA
:103EC000001229C36C65001229C3AB67001229C315
:103ED0005C6A001229C33A6B001229C3746C001289
:103EE00029C3F46F001229C30470001229C3497159
:103EF000001229C3EE71001229C31373001229C3E3
:103F0000AE73001229C3D774001229C3567500126C
:103F100029C373D6021229C330D7021229C3ADD7E1
:103F2000021229C3BCD7021229C345D8021229C3E1
:103F30009CD8021229C3A7D9021229C3D0D90212D0
:103F400029C378DA021229C3CBDA021229C336DB7D
:103F5000021229C395DB021229C39ADE021229C379
:103F60004ADF021229C3B9DF021229C349E1021252
:103F700029C301E2021229C39EE2021229C3FFE211
:103F8000021229C379E3021229C372E4021229C37F
:103F90005CE5021229C3A2E5021229C3DBE5021285
:103FA00029C3EFE5021229C338E6021229C3BCE691
:103FB000021229C332E8021229C308EA021229C3F5
:103FC000FDEA021229C33CEC021229C351ED021290
:103FD00029C3F6ED021229C367EE021229C335EF99
:103FE000021229C3CCF8041229C31CF9041229C3F4
:103FF00073F9041229C3BEF9041229C3F7F9041294
:1040000029C347FA041229C3D7FB041229C36CFC45
:10401000041229C3A6FC041229C3C2FC041229C33A
:1040200019FD041229C379FD041229C3A3FD04124A
:1040300029C3A8FD041229C359FE041229C341FF54
:10404000041229C397C2051229C3C8C2051229C385
:1040500091C3051229C3F7C3051229C368C4051209
:1040600029C372CE051229C3F6DA051229C307DB6C
:10407000051229C3A7DB051229C3ED7F001229C34E
:10408000DEFF021229C30DDA051229C31DDA05125B
:1040900029C335DA051229C3E9DA051229C309D97A
:1040A000051229C38ED9051229C3F4D9051229C3D3
:1040B00075DC051229C378DC051229C3B1DC0512B1
:1040C00029C304DD051229C316DD051229C319DD34
:1040D000051229C34DAC051229C35BAC051229C3D7
:1040E000D5AC051229C3B9AD051229C37DAF0512A0
:1040F00029C3E2AF051229C345B0051229C3F87FD1
:10410000001229C3E6CB051229C31ECC051229C310
:104110006FCD051229C3F3CD051229C376BD051253
:1041200029C317BE051229C355BE051229C3A1BE56
:10413000051229C365BF051229C398BF051229C3FB
:10414000BFBF051229C3D1BF051229C3E5BF0512A0
:1041500029C3F3BF051229C32896051229C37D96EA
:10416000051229C37998051229C3AB98051229C3F2
:10417000CD98051229C3E698051229C3FF980512A8
:1041800029C3099A051229C3A49A051229C395D1F6
:10419000051229C3B9D1051229C3D2D1051229C3E9
:1041A00011D2051229C344D2051229C374D20512B3
:1041B00029C37ED2051229C3E6D2051229C3E9D24A
:1041C000051229C3F3D2051229C300D3051229C34E
:1041D000A1BA051229C3C9BA051229C30ABB05121F
:1041E00029C31CBB051229C337BB051229C39FBBBA
:1041F000051229C3ABBB051229C30ABC051229C38A
:1042000036BC051229C345BC051229C369BC051279
:1042100029C32ABD051229C337BD051229C348BDCC
:10422000051229C3C1FF011229C3D9FF011229C3F5
:10423000478C051229C3A98D051229C3AF8D05121C
:1042400029C3C68D051229C3E78D051229C3FD8D2B
:10425000051229C3118E051229C3908E051229C398
:10426000F58E051229C37D8F051229C3F68F05121D
:1042700029C3CF90051229C3DF90051229C3EE9000
:10428000051229C329DD051229C34DDD051229C3F5
:1042900075DD051229C39DDD051229C32BC005124A
:1042A00029C352C0051229C373C0051229C3E5C032
:1042B000051229C3FCC4051229C315C5051229C35B
:1042C0002CC5051229C335C5051229C353C50512CE
:1042D00029C35DC5051229C367C5051229C37AC55F
:1042E000051229C3CFC5051229C308C6051229C363
:1042F00036C6051229C387C6051229C3D8C60512BA
:1043000029C3F3C6051229C3FDC6051229C30EC76A
:10431000051229C354C7051229C364FF011229C31A
:10432000B5FF011229C3E675001229C312760012E7
:1043300029C33076001229C34376001229C35E7662
:10434000001229C3BD76001229C3EB76001229C3DF
:10435000097B001229C33F7C001229C3717C001223
:1043600029C3D97C001229C3567E001229C37E7E40
:10437000001229C3937E001229C3A37E001229C311
:10438000E37E001229C32F7F001229C33F7F001252
:1043900029C39BD5051229C3ABD5051229C3C9D59D
:1043A000051229C3E4D5051229C30BD6051229C36A
:1043B0002CD6051229C346D6051229C37ED605126E
:1043C00029C3A1D6051229C3C1DB051229C307DC05
:1043D000051229C359B0051229C360B0051229C3BB
:1043E000B6B1051229C3E6B1051229C316B20512EA
:1043F00029C349B2051229C35BB2051229C397B27A
:10440000051229C3FDB2051229C339B3051229C308
:1044100080B3051229C3ADB3051229C3CEB305126B
:1044200029C3FECF051229C320D0051229C345D1C7
:10443000051229C348D1051229C34BD1051229C33E
:10444000F6D7051229C368D8051229C3A6D80512C4
:1044500029C3E7D8051229C3AAE1041229C3B0E190
:10446000041229C3FDE1041229C321E4041229C363
:1044700059E4041229C3C5E4041229C392E50412C5
:1044800029C3D7E5041229C30AE6041229C394E616
:10449000041229C3ACE6041229C34FE8041229C34D
:1044A00047E9041229C3A5E9041229C307D9041254
:1044B00029C31DD9041229C3CFD9041229C3CADACA
:1044C000041229C3C2DB041229C35ADC041229C313
:1044D00099DC041229C311DD041229C373DD04120F
:1044E00029C383DD041229C3AADD041229C3FCDD1C
:1044F000041229C38FDF041229C394DF041229C3D5
:10450000B6DF041229C36D7F001229C39B7F0012FE
:1045100029C3D07F001229C3D27F001229C3D47FC0
:10452000001229C3E57F001229C3E77F001229C3C7
:10453000EA7F001229C34CFE021229C3BAFE0212FE
:1045400029C3DCFE021229C314FF021229C34AFF49
:10455000021229C368B7051229C3ABB7051229C3D4
:10456000C9B7051229C3FAB9051229C332BA05120F
:1045700029C357BA051229C3FEDE051229C364F107
:10458000041229C337F2041229C32EF3041229C3DB
:104590003FF3041229C350F3041229C39CF30412FD
:1045A00029C38DF5041229C3EAF6041229C31AF7A8
:1045B000041229C3E6F7041229C343F8041229C3DD
:1045C0001BA4051229C33AA4051229C37EA405120F
:1045D00029C39AA4051229C3CBA4051229C3E3A4B5
:1045E000051229C3FBA4051229C313A5051229C36B
:1045F000B9A5051229C3F7A5051229C301A60512FD
:1046000029C31AA6051229C328A7051229C33AA748
:10461000051229C345A7051229C357A7051229C3A7
:1046200060A7051229C36AA7051229C3CEA70512E0
:1046300029C3E39A051229C30A9F051229C3269F9D
:10464000051229C323B4051229C339B4051229C39D
:10465000BBB5051229C3E5B5051229C32DB6051250
:1046600029C339B7051229C357D4051229C3B5DFA9
:10467000051229C3DADF051229C37CE2031229C31C
:10468000C1E0031229C34FDE031229C3EEDD03127A
:1046900029C395DD031229C31ADD031229C3F1DCF6
:1046A000031229C3F1DA031229C3C1DA031229C3A1
:1046B00095DA031229C376DA031229C369D90312E2
:1046C00029C38AD8031229C3EED7031229C393D76B
:1046D000031229C30FD6031229C375D5031229C3A8
:1046E00072D5031229C38DD4031229C367D40312D0
:1046F00029C3A4D3031229C3E7D1031229C383D149
:10470000031229C355D1031229C352D1031229C35D
:1047100049EC031229C3D3EB031229C38BEB031219
:1047200029C3D4EA031229C346EA031229C344D198
:10473000031229C30BD1031229C3F3D0031229C3D7
:10474000A3CF031229C337EA031229C362CF03128E
:1047500029C3E0CE031229C3ACCE031229C353CE22
:10476000031229C33BE7031229C35282041229C34F
:1047700022CE031229C3E6CA031229C30CCA0312AC
:1047800029C3BAC9031229C3AEC9031229C307C971
:10479000031229C3D1C7031229C317C5031229C3A2
:1047A000A4C2031229C362C2031229C319C103128E
:1047B00029C3C0C0031229C3F2BF031229C3AEBF6D
:1047C000031229C377BD031229C3E1BD031229C314
:1047D00073E4031229C3B1BD031229C39BD504009E
:1047E000000080FBE4738F000100090887000100CE
:1047F0000808240002003E0F25000200400F26009A
:104800000200420F27000200440F28000100460F5B
:1048100029000100470F84000400480F86000100B2
:104820004C0F2A0001004D0F2B0001004E0F2C00F1
:104830000100510F2D000800F0072E000100520F5B
:104840002F000100530F30000100540F3100010010
:10485000550F32000100F80733000100F90734005A
:104860000100560F36000100FA0738000100570F0B
:1048700039000100500F83000200690F630001003E
:10488000050864000100ED07650001004F0F6D0091
:10489000010006086E000200EE0766000100680FC6
:1048A00043000100590F440002005A0F4500010067
:1048B0005C0F460002005D0F47000800FD0748003E
:1048C00001005F0F4B000100600F040001006B0F3F
:1048D000A10001006D0F370001006C0F880001007E
:1048E0000A083C000100FB073D000100580F490089
:1048F0000200610F6700010007084D000200630F0E
:104900004E000100650F4F000200660F3E000100DF
:10491000FC07000000000000000136360101000124
:104920000201000103010001040106060502000066
:10493000070100340801000F090401010D0100FF07
:104940000E08000017020000190100FF1A01000103
:104950001B0100FE1C0100081D0200001F010001D8
:1049600020010001210200002301000F24020000A9
:104970002601000127010008280200FF2A01000784
:104980002B0102402C0100002D0100012E0100012D
:104990002F0100FF30010B1C310800003A01000814
:1049A0003B01000F2F010000030071003001600087
:1049B00011007000310220035004800010006100DB
:1049C00000001400630073007200620043000000E6
:1049D00013000600000000000400120000000000A8
:1049E0000000000004000400370037003C024400CF
:1049F000000000000000000065000000350081009C
:104A000000000500000083000000660000000000B8
:104A100001037103010301030103010301032203E5
:104A2000020301031003000300030003000300035B
:104A300000030003420300032403060300030003F2
:104A400004031203250323032503230304030403A0
:104A500000030003000344030003000323030003D7
:104A600065032100350381030003050300030003F0
:104A7000000300032503230301017101010101016A
:104A800011010101310101010101800110016101E8
:104A90003B001400630173017201620143010001D4
:104AA000130106013D01350004011201000100015E
:104AB0000001000104010401330133013C01440100
:104AC000320136000001000165010001350081015D
:104AD000000105018201830100016601000100015E
:104AE000030471040204600411047004020402044B
:104AF0000104020410046104000414046304730438
:104B00007204620443040004130406040004000455
:104B100004041204000400040004000451046400AE
:104B20000004000400044404000400040004000421
:104B30006504000435048104640005040004830452
:104B400000046604000400040302710230016002E4
:104B500011027002010202020202800210026102CE
:104B60003A004100630273027202620243020002D1
:104B700013023800000200020402120200020002C6
:104B80000002000204020402370037003C02440223
:104B900000023900000200026502000235028102B3
:104BA0000002050282028302000266020002000285
:104BB0000000513F1300C13E0100513F0200433E3F
:104BC0000300493E04004F3E0500553E0600613E8D
:104BD0003000853E31007F3E3200913E3300973EEB
:104BE00035009D3E3400A33E3600A93E1100B53E7F
:104BF0001400BB3E1500733E1F00793EFFFF00000E
:104C000036000100060000000F0000000000000058
:104C100000000000000003FFFF00000403FFFF008E
:104C200000FFFF0FF4010005C40403200001000091
:104C30000B000000000000000003010F01753006AA
:104C4000AB3008A5300BC33010D32F0ADB30027B0A
:104C5000300599300781300C57300D693064D52DFF
:104C6000FF000003EAF5E5D5D5C5B5A59595858581
:104C70007575656555554545353525251515050168
:104C800035313507350D352B351F35193537353D60
:104C90003543354F351335FB34F53400160F00001E
:104CA0000B150B020002220F33000007F933F33318
:104CB0002F343B342934E1333534033615361B3673
:104CC000C5342136BF34CB346F368D3693367536C6
:104CD00081367B36003C40423A3F3F392F473066B1
:104CE000303017181921301B1D1F30333030161883
:104CF0001920231A1C1E30320C0E020B040B0A075B
:104D000008000F00011916181616182303000003D7
:104D10004D4C4651181A250502573627362D36397F
:104D200036333625354935873655355B350204022D
:104D300001010101090205340B34FF334134113400
:104D4000233400BE040A04003C000E0015003C00A1
:104D50007F00E8030000000028000C00100C0A038C
:104D6000080900040009FF1E1E0305010508040FC1
:104D7000100CC082C08390078FE4F0A3F07CD57D37
:104D8000047A097B0712444F122DDB900808E0706B
:104D9000047900800279011247C1122DE1026ADD17
:104DA00074F31224EB74F5122A7389098A088B0AAA
:104DB000E9705F74026508703E9007227408F07510
:104DC0000C00780C1229FFECF50C780C1229FFEB83
:104DD000F50C780C1229FF900F48122817900F4CF1
:104DE000E0F97CFD7D07900F69126AEE122E0574C2
:104DF00007122A0E024EB0740165086003024EB31A
:104E00009007227408F07B00AA0AA90A122E410218
:104E10004EB0740165096009740265096003024EB1
:104E2000B3EA6006740365087040900722740212AA
:104E30004ED4122C4F122DF3900727E0A2E340101E
:104E4000E9700D900793E004F064047003124EDEE5
:104E500074036508705A900794E0F8740128F0E82C
:104E6000C39405404B124EDE8046740165087043C2
:104E700074016509900722702C740AF07401122CD9
:104E800072E4F07402122C727403F004122C72E4B7
:104E9000F0A3F0A3F0A3F07408122C72E4125DD515
:104EA0001230878025740A124ED4122C4F122E29EC
:104EB000E960179080B41228177A017B0090071FD1
:104EC000E0F9123C457404122A0E740B122A0E7F6C
:104ED0000502274FF0900F4CE0F9900F4822900FF9
:104EE00048E4F0A374F8F0A374FFF0A37407F02271
:104EF00074F61224EBE9FFEAFE7AD1F9123B018A3B
:104F0000828B83E5824583702A7A027B00123AE322
:104F1000EA4B700E7A107B0090071FE0F9123B25D8
:104F200080148A828B8374D1F0EFA3F0EEF9123AE9
:104F3000EF8003EFA3F002513F74F71224EB8908CE
:104F400090068312743580288E828F83A3A3125C0F
:104F5000EE60168E828F83A3A3A3E0F5838882A3DD
:104F6000125CEEFAA908123E2B8E828F8312750F07
:104F7000FFEE4F70D390069AE0FAA908123E2B126A
:104F800031A19006F31256BF12319B02730E74F1D9
:104F90001224EB890A8C08750900750B00740F1236
:104FA0002C72125F997411122C721256E7804AE526
:104FB0000E12505BF50CA3E0F50DE50BC333FEE4D8
:104FC00033FFEA2EF582EB3FF583E0650C7004A316
:104FD000E0650D7019E509C333FEE433FFEC2EF5EF
:104FE00082ED3FF583E50CF0A3E50DF00509050E14
:104FF000E50EC3950840B8050BE50BC3950A5005AF
:10500000750E0080EBA90902655674F41224EB8931
:105010000B7D00740C122C72125F9980010DEDC390
:10502000950B5032750A008002050AE50AC39C50B0
:10503000ECEDC333FEE433FFEA2EF582EB3F125072
:105040006BF509E50A12505B65087004A3E0650979
:1050500070D7790180027900026411C333FEE43312
:10506000FFE82EF582E93FF583E022F583E0F508BD
:10507000A3E02274F61224EB1251107003A3E06D2A
:10508000701775082575090778081229FBEEFA12C2
:105090003F577402122A0E801F7508027509807826
:1050A000081229FB8C088D0978081229FB1251027D
:1050B000123F7B7404122A0E02513F74F61224EB45
:1050C0001251107003A3E06D70177508327509074F
:1050D00078081229FBEEFA123F5D7402122A0E8044
:1050E0001F75080375098078081229FB8C088D0943
:1050F00078081229FB125102123F7B7404122A0E07
:10510000803D1272E1EF12713FFD7C8012641A2221
:10511000EAFEEBFF125128FAA3E0F9EA2400FCE4CE
:1051200039FD9006F3E06C22EE127144EF126FD657
:10513000F8A3E0F988828983E0227402122A0E7FA4
:105140000202274F74F61224EB74FE122A73EAFE51
:10515000EBFF851882851983E4F0A3F0126563FAEA
:1051600088828983A3A3E0F97509007508006005AA
:1051700074FF69700575088280439006F3E06A70D9
:1051800003A3E06B7020851882851983AA82AB8304
:10519000123717E9F509851882851983126A257077
:1051A0001C7508838017900808E06004640170058E
:1051B0007508818008E06402700375088085188294
:1051C0008519831256E7A908EEFAEFFB123F63E553
:1051D000096011851882851983126A256006126A92
:1051E000E8123B8502513A74F21224EBEAFEEBFF1F
:1051F000750A00750B0012525B1231A1EA65087046
:1052000003EB65097012123729E914F50A79017A5E
:105210005B7B0712372F8003750B801272CAF50C67
:10522000780C1229FF750C5B750D07780C1229FBA1
:10523000780A1229FF78081229FBE50BF50878088F
:105240001229FF126248F582EF126F1F7A057B80E8
:10525000123F697407122A0E025FA7127466125F6A
:105260009D8882898312753FF508E439F509227417
:10527000F61224EBE9FE7F00802E8A828B83125087
:105280006DF9E5082400E439F509EF33F8E433F962
:10529000EC28F582ED39F583E508F0A3E509F0EA9D
:1052A0002402FAEB3400FB0FEFC39E40CD02513FC6
:1052B00074E81224EB74FB122A738A168B17851874
:1052C00082851983E4F07403122C72E4F0A3F004D5
:1052D000122C72E4F0127135F50AA3E0F50B850A81
:1052E00082F58312753BFEE439FF850A82850B83C4
:1052F000A3A3E0FA850A82850B83A3A3A3E0F9EABE
:10530000F508E439F509E50A2404F50AE50B34004B
:10531000F50BEEFAEFFB123243E964016016EEFA88
:10532000EFFB123243E9703D9006F3E06E7003A389
:10533000E06F6031125A211229FFE4F508F509786F
:10534000081229FB78081229FF9006F312281F750E
:10535000088078081229FF1256C5123F6974071297
:105360002A0E0256B51256ED8810602EC333FAE4A9
:1053700033FB123B7F7403122C721256BF7403125C
:105380002C72126A2560137403122C721256DFA954
:1053900010123E5B8A0A8B0B80037510001256EDCB
:1053A000880F602AC333FAE433FB123B7F74011287
:1053B0002C721256BF7401122C72126A25600F747F
:1053C00001122C721256DFA90F123E5B8003750F7B
:1053D00000900683805D850A82850B83A3A3A3A327
:1053E000A3A3A3A3E4F0A3F0AA0AAB0B85148285C0
:1053F0001583A3A31256FD125CEEF9123AEF851243
:1054000082851383E0C0E0851882851983E0F874F3
:105410005B28F582740712745ED0E01267A604F070
:10542000E511A2E05007AA12AB13123B8585148246
:10543000851583E0F514A3E0F515E5144515700313
:10544000025622851482851583A3A3125CEE60DDCB
:10545000851482851583A3A3A3A3A3A3A3A3E0A27A
:10546000E050CA851482851583A3A3A3A3126A25DD
:10547000851482851583A3A3601F125CEEFA79015F
:10548000851482851583A3A3A3A3125CF31247E4BA
:105490008A128B13751101800F1256FDA3A3E0F53C
:1054A00012A3E0F513751100E512451370030254C1
:1054B00020851282851383A3E065087004A3E0654C
:1054C00009600F74FF6508700474FF6509600302CA
:1054D0005420851282851383A3A3A3A3A3A3A3129D
:1054E000281F851282851383A3A3A3A3A3A3E0FC93
:1054F0007405122C72126AEEA910123E3D7402124B
:105500002A0EE9703C851282851383A3A3A3A3A36B
:10551000A3A3A3A3A312281F851282851383A3A389
:10552000A3A3A3A3A3A3A3E0FC7403122C72126A87
:10553000EEA90F123E3D7402122A0EE970030254C6
:1055400020E50F2510C333240AFA7B00123AE38AC0
:105550000A8B0BEA450B70030253FE8A828B83741D
:10556000D2F0851682851783A3A3125F998A828B56
:1055700083A3A3125DDD8A828B83A3A3A3A3E5107B
:10558000127545E50FF0E510603DEA2405FAEB34AD
:1055900000FBE50A240AF8E50B3400F98A828B83C4
:1055A000125DDD7403122C721257021229F7E510F6
:1055B000C333FCE433FD8A828B83126AEE123ABF56
:1055C0007403122A0E800D8A828B83A3A3A3A3A344
:1055D000E4F0A3F0E50F70030253D6E510C333F8EF
:1055E000E433F9E50A28F8E50B39F9E8240AFAE981
:1055F0003400FB850A82850B83A3A3A3A3A3A3A3E3
:10560000A31256BF7401122C721257021229F7E529
:105610000FC333FCE433FD123ABF7403122A0E02A7
:1056200053E8851882851983E06027125A211229D0
:10563000FF75085B75090778081229FB7403122CA3
:1056400072125A2B1229FF9006F312281F750800B8
:105650008029EEFAEFFB123243E9702F125A211221
:1056600029FF75085B75090778081229FB75080082
:1056700078081229FF9006F312281F78081229FFD4
:105680001256C5123F697407122A0E7403122C7247
:10569000126A25600B7403122C72126AEE123B859B
:1056A0007401122C72126A25600B7401122C721292
:1056B0006AEE123B857405122A0E7F1002274FEA0C
:1056C000F0A3EBF022E5162402FCE5173400FDE51B
:1056D0001612642CE51712713FF97A067B802212AC
:1056E00056E7AA0AAB0B22E0FCA3E0FD22850A8262
:1056F000850B83E0F8A385820A85830B22125CF375
:10570000A322E0F50CA3E0F50D750E00780C2274D1
:10571000F41224EB74F4122A738A088B09ECFEED60
:10572000FF740B122C727403F0122C72AA82AB83DA
:1057300012444F12319BEAFCEBFD7403122C72AA47
:1057400082AB83124449E9600A12585E6010E0643B
:1057500001600B851882851983748402580E8E822D
:105760008F83A3A3A3A3A3A3A3A3E06013F4601058
:1057700012585E7016EE24141272CD6003F4700B92
:10578000851882851983748202580EE508240CF569
:1057900082E5091272D064217002A3E0704D851871
:1057A00082851983748CF01258501229FF12587098
:1057B00012475B7401122A0EE9705485188285190C
:1057C00083E4F0123DAD12585E70447401122C72E5
:1057D000AC82AD83125F8A124749E970327D007C4A
:1057E000007900125F8A123F21802412585012293A
:1057F000FF1258701247557401122A0EE98518825B
:105800008519837007E4F0123DAD80037488F0E5DC
:10581000081272E2E5091258561229FF7401122C7F
:105820007285820A85830B780A1229FBE508240C0D
:10583000F582E5091258674480F50B780A1229FBB6
:10584000126305123F157405122A0E740C02640EC1
:10585000EE2414F582EF12713FF50A780A221272D3
:10586000BA12713F64032212746CE0F50AA3E022BD
:10587000EE240BFCEF3400FD8E828F83A3A3A3A341
:10588000A3A3A3A3A3126B2B8E828F83A3A3A3A393
:10589000A3A3A3A3E0F922C082C08374F3122A73E6
:1058A000851882851983E4F004122C721256BF7495
:1058B00003122C72AA82AB83122D098518828519D6
:1058C00083AA82AB83122D3F740D122A0E026ADD69
:1058D00074F61224EBEAFEEBFF125F938882898351
:1058E0001271E090072DE058F508A3E059F509E59D
:1058F000084509601C78081229FB9006F312281F3E
:105900001272CAFD7C00126416123F757404122ACA
:105910000E02513F74F41224EB74FF122A73EAFE54
:10592000EBFF851882851983E4F09007FCE0700393
:10593000025A0EEE240B1272CD64017003025A0E4D
:105940008E828F83A3A3125F99EE24151272CD6805
:105950007003A3E0696003025A0E125F93E8FAE94C
:10596000FB88828983A3A3A3A3A3A3A3A3E0FC88AA
:10597000828983A3A3A3A3A3A3A3A3A3E0F9EC24F5
:1059800000F508E439F509EC45096010EC9471E97B
:1059900094085008900808E06402700A851882850F
:1059A000198374808037122D818A0A8B0BA80AA96B
:1059B0000BE849602088828983A3A3A3A3E014C3D2
:1059C00094025011E82412125A13E82414125A13A4
:1059D000123DAD80098518828519837481F0127299
:1059E000E1EF125A281229FF7401122C72858208E5
:1059F00085830978081229FB75081F7509807808C6
:105A00001229FB12623D123F157405122A0E740111
:105A100002640EF582E912746CE508F0A3E509F062
:105A200022E5161272E2E51712746CE0F5087808A8
:105A30002274EA1224EB74DB122A738A148B157514
:105A40001200751300125CE8F50E85188285198323
:105A5000AC82AD837A007B00799C122E537A047954
:105A600000122D51EAF50C851882851983E0250C6A
:105A7000F0F8E50EC3984003025C76E0C3950EF59E
:105A800009C394044003750903E50975F01AA4FAE3
:105A9000ABF0123B7F8A128B13EA45137003025C52
:105AA00079750D00AE12AF13850E08025B38125CDB
:105AB000CD123ACB850A82850B83A3A3A3A3E07002
:105AC00039850A82850B83126A257012125F831250
:105AD00072C4EE2418F582EF12745EE48016125C34
:105AE000DCF090055AE014C0E0EE2418F582EF12C5
:105AF000745ED0E0125D29E4803B90055AE004C05A
:105B0000E0EE2418F582EF12745ED0E0125D21C33E
:105B10009403EE4003025BD4125F84126A10125D9C
:105B20002164017003025BE1EE2415125CDFF0EEEC
:105B30002416125CDF125CFCE50DC39509400302DC
:105B40005C06E508C3950C4003025BEB85080AAAD6
:105B50000A7B00122DBD8A0A8B0B0508900547129F
:105B60005D0812444F850A82850B83125F99125C8F
:105B7000BF1271C5125D36850A82850B83A3A3A36C
:105B8000A3A3A3A3A3A3A3E0C0E0EE2419F582EF8F
:105B900012745ED0E0F07401122C72E4F0850A8277
:105BA000850B83125F997402122C72125DDD7401F1
:105BB000122C72AA82AB83122D2DE96401600302BC
:105BC0005AAE7404122C72AC82AD83125CD31244B0
:105BD0004F025AB4125CDD125D2164036003025B64
:105BE00028125CC612745EE4025B2EE50CC3950EAF
:105BF00040057508008016E50EC3950CF508800D6C
:105C0000125CDC125CFCE50DC39509506C740E123D
:105C10002C72AC82AD8385080AAA0A7B00798712B0
:105C20002E5305087418122C72125D0812444F127C
:105C30005CCD123ACBEE2412F8EF3400F9740E1258
:105C40002C72126AEE88828983EAF0A3EB125D2936
:105C50007403125D36741D122C72E0C0E0EE24193C
:105C6000F582EF12745ED0E0126A4D7093125F837A
:105C700012745EE4808D750900750A00780A122995
:105C8000FF78121229FB78091229FFE50EF5097831
:105C9000091229FF7405122C72E0FD7C00126F0EB0
:105CA000123FB17405122A0EE51245136007AA12BD
:105CB000AB13123B857425122A0E7F0E02274FEE7E
:105CC0002412F582EF22EE2415F582EF227C087D66
:105CD0000079FFEE240AFAEF3400FB22EE2414F5DB
:105CE00082EF12746C74012212748E12746C125C46
:105CF000F3E022E0F8A3E0F583888222F0EE241A94
:105D0000FEEF3400FF050D22125F9D8E828F83E827
:105D1000F0A3E9F07C5B7D05EE2402FAEF3400FB92
:105D200022127481A3A3A3E022F0EE2415125D4693
:105D3000241612746922F0EE2417125D46241812FC
:105D4000746974FFF022F582EF1274707402F0EE41
:105D50002274F61224EB74F9122A738A088B091242
:105D600075C4123AD7851882851983122C5B125D8F
:105D7000C7C0E07404122C72D0E01273A3E0FA746E
:105D800005122C727401F07406122C727401F090DA
:105D900006FDF090070604127493A3125F99900613
:105DA000FE125DDDEA900707F0E50812642CE509B4
:105DB0001272D09006FC125DD5122DF9E960031223
:105DC0002DFF740702513CEE2404FEEF3400FF8ED9
:105DD000828F83E02212655BAA82AB8322E8F0A364
:105DE000E9F02274F21224EB74FF122A7375080092
:105DF0007E007F001230B78A0A8B0B1230B78A0CF4
:105E00008B0DA80CA90D80090508126C34E9125FEE
:105E100096E84970F3900808E060076401600302A7
:105E20005F001230B78A0C8B0DA80CA90D800712E9
:105E30006C34E9125F96E849603788828983126A78
:105E4000EE900547E06A7003A3E06B600E126C34BD
:105E5000E912745E126AEEEA4B70D488828983126A
:105E60005F99900547E0687003A3E0697003025FE3
:105E7000007A167B00123B7F8A0C8B0DAE0CAF0DA7
