:020000040800F2
:1000000098080020910B0008950B0008970B00083A
:10001000990B00089B0B00089D0B000800000000D6
:100020000000000000000000000000009F0B00081E
:10003000A10B000800000000A30B0008A50B00089E
:10004000A70B0008A70B0008A70B0008A70B0008C8
:10005000A70B0008A70B0008A70B0008A70B0008B8
:10006000A70B0008A70B0008A70B0008A70B0008A8
:10007000A70B0008A70B0008A70B0008A70B000898
:10008000A70B0008A70B0008A70B0008A70B000888
:10009000A70B0008A70B0008A70B0008A70B000878
:1000A000A70B0008A70B0008A70B0008A70B000868
:1000B000A70B0008A70B0008A70B0008A70B000858
:1000C000A70B0008A70B0008A70B0008A70B000848
:1000D000A70B0008A70B0008A70B0008A70B000838
:1000E000A70B0008A70B0008A70B000800F002F8F8
:1000F00000F041F80AA090E8000C82448344AAF181
:100100000107DA4501D100F036F8AFF2090EBAE87E
:100110000F0013F0010F18BFFB1A43F0010318473B
:10012000C41D0000E41D0000103A24BF78C878C147
:10013000FAD8520724BF30C830C144BF04680C60ED
:10014000704700000023002400250026103A28BF35
:1001500078C1FBD8520728BF30C148BF0B60704739
:10016000782901F0A582002070471FB5AFF3008009
:100170001FBD10B510BD01F0C5FB1146FFF7F5FF1F
:1001800000F0D5FC01F0E3FBFFF7F3FF00F091FA7C
:1001900070B504460D460026FF48006820F4007044
:1001A000FE49C1F80C0405F01F0040EA0406304681
:1001B00000F0BAFAFF2000F0B7FA064615F0800FFB
:1001C00003D0FF2000F0B0FA0646F348006840F480
:1001D0000070F249C1F80C04304670BD2DE9F041C1
:1001E00004460D4616460027EB48006820F40070D0
:1001F000EA49C1F80C0405F01F0040EA040738463C
:1002000000F092FA3746384600F08EFAE348D0F80C
:100210000C0440F40070E149C1F80C04BDE8F08121
:1002200070B504460D46DC48006820F40070DB49D8
:10023000C1F80C043A2000F077FA05E0641E0020B3
:1002400000F072FA28706D1C002CF7D10020287085
:10025000D148006840F40070D049C1F80C0470BD6A
:1002600070B505460C46CC48006820F40070CB49B8
:10027000C1F80C047A2000F057FA04E06D1E2078D3
:1002800000F052FA641C002DF8D1C348006840F415
:100290000070C249C1F80C0470BD10B5044604F0EA
:1002A0006000BF49097888420ED003221F21A02098
:1002B000FFF794FFC4F341121F218020FFF78EFF48
:1002C00004F06000B649087010BD10B50446204621
:1002D000FFF7E3FF21460020FFF75AFF10BD70B57E
:1002E00004460D462046FFF7D8FF2A462146402007
:1002F000FFF774FF70BD70B504460D462146D4204B
:10030000FFF7EDFFE9B2D620FFF7E9FFC5F30721BC
:10031000D720FFF7E4FF00BFEA20FFF7D6FF10F079
:10032000010FF9D170BD10B5044604F00701752026
:10033000FFF7D5FF10BD70B504469748006840F43C
:1003400000709649C1F80C04FF2200211046FFF707
:1003500045FF00209249091D086000210820FFF791
:10036000BEFF00210920FFF7BAFF00210C20FFF794
:10037000B6FF00210D20FFF7B2FFFE210A20FFF794
:10038000AEFF19210B20FFF7AAFFFF210420FFF782
:10039000A6FF19210520FFF7A2FFFF210620FFF786
:1003A0009EFF1F210720FFF79AFFB0213820FFF79B
:1003B00096FF3F212820FFF792FF30212920FFF7E9
:1003C0008EFFF9213020FFF78AFFF7213120FFF758
:1003D00086FF0D21C020FFF782FF0021C120FFF71B
:1003E0007EFF3322C2218020FFF7F8FE1221C620B3
:1003F000FFF775FF0C21C720FFF771FF1221C42002
:10040000FFF76DFFDC21CA20FFF769FF0521CB2034
:10041000FFF765FF2178E420FFF761FF6178E520B1
:10042000FFF75DFFA178E220FFF759FFE178E320B5
:10043000FFF755FF2179E020FFF751FF6179E120B7
:10044000FFF74DFFE420FFF740FF0546014655A0AA
:1004500001F0E6F8E520FFF738FF0546014655A014
:1004600001F0DEF8E220FFF730FF0546014655A017
:1004700001F0D6F8E320FFF728FF0546014655A016
:1004800001F0CEF8E020FFF720FF0546014655A019
:1004900001F0C6F8E120FFF718FF0546014655A018
:1004A00001F0BEF84FF480710020FFF724FF4FF4F5
:1004B00080711020FFF71FFF1F20FFF7EEFEC02204
:1004C0001B218020FFF78AFE04221F218020FFF7D6
:1004D00085FE70BD10B57220FFF7F7FE10BD70B538
:1004E00004460D46FF210220FFF7F9FE19210320E3
:1004F000FFF7F5FEFF202044C1B20620FFF7EFFE14
:1005000041F6FF102044C0F307210720FFF7E7FE64
:10051000002211467A20FFF761FE29462046FFF7A8
:100520009FFE08221F218020FFF758FE1C20FFF7A6
:10053000CCFE10F0020F04D008221F21A020FFF7EC
:100540004DFE70BD2DE9F04104460D463920FFF700
:10055000BCFE10B90020BDE8F0811148001D006804
:10056000C1B20020FFF7BBFE0D48001D0068C0F3BC
:1005700007210120FFF7B3FE00213A20FFF708FE14
:100580000749091D086000213A20FFF701FE0449D0
:10059000091D096836E000000C14014000100140FC
:1005A000000000204D4141445235203D2030782547
:1005B000780D0A004D4141445234203D20307825C9
:1005C000780D0A004D4141445233203D20307825BA
:1005D000780D0A004D4141445232203D20307825AB
:1005E000780D0A004D4141445231203D203078259C
:1005F000780D0A004D4141445230203D203078258D
:10060000780D0A0041EA00201C49086000213A20C8
:10061000FFF7BEFD074600213A20FFF7B9FD47EA84
:1006200000273F1F00213A20FFF7B2FD06460021B8
:100630003A20FFF7ADFD46EA0026601EB84200D220
:10064000671E16F0800F01D1002703E029463846C7
:10065000FFF7E6FD09480068C1B20C20FFF73FFE36
:1006600006480068C0F307210D20FFF738FE40223E
:100670001E218020FFF7B2FD38466CE70400002001
:1006800070B504460D46204600F039FA70BD70B5CD
:10069000054600F040FA044600F031FA70BD10B58E
:1006A0000446204600F02BFA10BD01464FF0FF3003
:1006B000704700BFFEE7000000B587B001210803C6
:1006C00001F0A0F9E020ADF8040001208DF806004B
:1006D00018208DF8070001A9204801F043F90020F7
:1006E000ADF808004FF48270ADF80A000020ADF8B4
:1006F0000C00ADF80E00ADF810004FF40070ADF82E
:1007000012000820ADF814000020ADF816000720F4
:10071000ADF8180002A9124801F095F9012110481E
:1007200001F07CF907B000BD10B5044600BF0221FE
:100730000B4801F07DF90028F9D02146084801F066
:1007400080F900BF0121064801F072F90028F9D0B4
:10075000034801F074F9C0B210BD00000008014068
:10076000003001401220CC4908607047CB48CC498A
:100770004860CC48086000BF00BFC948006810F45A
:10078000003FFAD000BFC648006810F0007FFAD0E2
:1007900000BFC348406800F00C000828F9D170473A
:1007A00045F25550C04908600220486040F69F70ED
:1007B00088604AF6AA2008604CF6CC400860704772
:1007C000BA484FF0E02148610620086100208861A6
:1007D0000846006940F0010008617047B048C069F0
:1007E00040F08050AE49C861B148006840F4807064
:1007F000AF490860AA48006A40F00100A8490862B1
:1008000000BFA748006A10F0020FFAD0A448006A9F
:1008100040F40140A2490862A648008840F0100058
:10082000A549A1F804080020A249091D088047F63F
:10083000FF70091D088000209E4914310880091DA1
:100840000880091D08803C20091D088001209A4964
:10085000A1F800084FF0E020D0F8000140F00800B7
:100860004FF0E021C1F800019348B0F8040820F0EF
:1008700010009049088000BF8E48008810F0200FBB
:10088000FAD08B48006820F480708949086070476E
:1008900000BF8348C06940F001008149C861002061
:1008A0008904088540F65F108885002008808880CC
:1008B0000885482088851E20888641F28830088770
:1008C0000520888700207D4908804FF4C040090634
:1008D000088360208883881508840420088000200D
:1008E000888000BF0846008840F00100088000BFF3
:1008F00000BF70476A48806940F004006849886119
:100900006F48704908604FF44C706F49C1F8040893
:100910006348806940F00800614988614FF44010E5
:100920006A4908606A486849C1F8040C5C488069F3
:1009300040F010005A4988610020664908604FF471
:10094000800048605648806940F020005449886122
:100950004FF04C706049086030205E49C1F80404D3
:1009600000BF704700BF4E48806940F004004C490A
:1009700088615448001D006820F47F605249C1F826
:1009800004080846D0F8040840F0B000C1F8040894
:100990000846D0F8040840F48060C1F804084048D4
:1009A000806940F480403E49886140F6C4104B495C
:1009B000088000204A49A1F80C08A1F81008084650
:1009C000B0F80C084549091D088000204449A1F8E9
:1009D00014080846B0F80C0840F00C00A1F80C0808
:1009E00000BF3E48001D008840F40050A1F80C08EC
:1009F00000BF00BF704700BF00BF00BF00BF00BF07
:100A000000BF00BF00BF00BF00BF00BF00BF00BFEE
:100A100000BF00BF00BF70472148C06940F00060C0
:100A20001F49C8610846C06940F08050C86120482D
:100A3000006840F480701E49086000202949088041
:100A40002949A1F8340C0846B0F8340C40F00300F2
:100A5000A1F8340C1648006820F48070144908602E
:100A60002048001D008810F0040F07D01F480068C0
:100A700040F004004FF0E021C1F80001704700B5DC
:100A8000FFF770FEFFF772FEFFF734FFFFF76AFF14
:100A900000BD17487047000000200240028411008A
:100AA000001002408200010100300040FF3D49007B
:100AB000007000400428004000200040400000403A
:100AC000040B33330008014000000140000C0140DA
:100AD0000040444400100140001401400838014027
:100AE00000300140306C00400060004000E100E058
:100AF000001BB70000E0401E0028FCD1704700BF7B
:100B00001649098811F0800FFAD0C0F30801134A82
:100B1000121D1180704700BF1048008810F0200F90
:100B2000FAD00E48001D0088C0F30800704710B5C9
:100B30000024FFF7A4FF0AA000F072FDFFF7BCFD40
:100B40000DA000F06DFD00F0D1F81048FFF7F3FBA9
:100B5000FFF7C0FC0446204610BD000000380140ED
:100B6000535049315F496E697420737461727469BE
:100B70006E672E2E2E0D0A00656E6332386A36308F
:100B800020696E69742E2E2E0D0A00007E1A000850
:100B900008480047FEE7FEE7FEE7FEE7FEE7FEE760
:100BA000FEE7FEE7FEE7FEE703480449024A044B7E
:100BB00070470000ED00000898060020980800200B
:100BC0009806002010B5044605222146E84800F0AA
:100BD000C2FD08B9012010BD0020FCE770B5044635
:100BE00000252046FFF7EEFF08B9FF2070BD07E0A3
:100BF00020782F2801D1641C0CE0681CC5B2641C4D
:100C0000207838B10A2D05DA20782C2802DD2078EA
:100C10007B28EDDB00BF20783A2806DA20782F28E1
:100C200003DD20783038C0B2E0E7FE20DEE770B5A3
:100C300004460D46CFA20021204600F077FC064670
:100C4000DCA23146204600F071FC0646E3A23146A4
:100C5000204600F06BFC064635B1E5A23146204641
:100C600000F064FC064605E0EAA23146204600F0AA
:100C70005DFC0646E8A23146204600F057FC0646D9
:100C8000BB4A1E3A3146204600F05DFC0646B84A93
:100C90003146204600F057FC0646E4A23146204685
:100CA00000F044FC0646B24A1E3A3146204600F0A7
:100CB0004AFC0646AE4A3146204600F044FC064651
:100CC00035B1E4A23146204600F030FC064605E08E
:100CD000E4A23146204600F029FC0646E54A3146AA
:100CE000204600F023FC0646304670BD2DE9F04F4B
:100CF00089B000260027B1469D482838FFF71BFB26
:100D00009B4808380068C2B299492239881F00F010
:100D100041FA40F2A4711420FFF7EDFA0220FFF728
:100D200002FB24E1D44940F2DC50FFF70BFC0446FF
:100D300004B91CE12146D04800F044FA18B1CE486D
:100D400000F014FB13E12146CB4800F05BFA00B938
:100D50000DE1C948C07D012809D1C74890F822009B
:100D6000082804D12146C44800F030FBFFE0C24807
:100D7000C07D06286FD1C04890F824000028F9D122
:100D8000BD4890F825007A4908390968884279D128
:100D9000B94890F82F0010F0020F03D0B64800F0C9
:100DA00076FBE4E0B44890F82F0010F0100F69D003
:100DB000B14800F09DFB00F090FB05464DB9AE48F0
:100DC00090F82F0010F0010F02D0AB4800F0C9FBE3
:100DD000CDE0A94841190422A8A000F0BCFC30B124
:100DE000A8A20021A44800F0A1FB044642E0A24AC8
:100DF000281D11180222B2A000F0ADFC002819D164
:100E0000B0A200219C4800F091FB0446B9A2214603
:100E1000994800F08BFB0446554A1E3A21469648F5
:100E200000F091FB0446B6A22146934800F07EFBF9
:100E300004461FE0904A691D5018FFF7CFFE804618
:100E400018F1010008D18B4A6C3200218A4800F069
:100E50006DFB04460EE015E0B8F1010F00D101264C
:100E6000B8F1000F00D1002631468348FFF7DFFEBE
:100E7000044600BF804800F074FB21467E4800F025
:100E8000A4FB74E07C48C07D11286FD17A4890F8AB
:100E9000240004286AD1784890F82500B02865D14C
:100EA000754890F82700083800F0FF0972482A308A
:100EB000FFF788FE002847D000270AE0781CC7B259
:100EC00007F12A006C49085C2C2802D1781CC7B2B3
:100ED00001E04F45F2DB00BF022F09DBA9F103005F
:100EE000B84205DB07F12B006349085C3D2804D0BC
:100EF00087A101A800F00AFC2BE007F12A005E4957
:100F0000085C74281BD107F12C0011F800A0BAF17D
:100F1000310F04D181A101A800F0F8FB19E0BAF16A
:100F2000300F04D17EA101A800F0F0FB11E0BAF16E
:100F30003F0F04D17AA101A800F0E8FB09E079A1F4
:100F400001A800F0E3FB04E07AA101A800F0DEFBB9
:100F500000BF01A800F045FC00F0FF0B0448001F93
:100F60005A4601A90368444800F04FFA00BFD9E689
:100F700038000020485454502F312E302032303069
:100F8000204F4B0D0A436F6E74656E742D5479704B
:100F9000653A20746578742F68746D6C0D0A507210
:100FA00061676D613A206E6F2D63616368650D0A3C
:100FB0000D0A00003C683120616C69676E3D636515
:100FC0006E7465723E4C43534F54B2E2CAD4D2B3EE
:100FD000C3E63C2F68313E3C68723E003C63656E60
:100FE0007465723E3C703ED7B4CCAC3A2000000031
:100FF0003C666F6E7420636F6C6F723D22233030DD
:1010000046463030223E20BFAA3C2F666F6E743EAB
:1010100000000000B9D80000203C736D616C6C3E8C
:101020003C6120687265663D22000000223E5BCB79
:10103000A2D0C25D3C2F613E3C2F736D616C6C3E53
:101040003C2F703E0A3C703E3C6120687265663DF4
:10105000220000002F30223EB9D8B1D53C2F613E8E
:101060003C703E002F31223EBFAAC6F43C2F613EA9
:101070003C703E00001E00085800002047455420E8
:1010800000000000485454502F312E3020323030B0
:10109000204F4B0D0A436F6E74656E742D5479703A
:1010A000653A20746578742F68746D6C0D0A0D0AAA
:1010B0003C68313E323030204F4B3C2F68313E008F
:1010C0002F200000485454502F312E302032303021
:1010D000204F4B0D0A436F6E74656E742D547970FA
:1010E000653A20746578742F68746D6C0D0A0D0A6A
:1010F000000000003C703E55736167653A200000B7
:1011000070617373776F72643C2F703E0000000053
:10111000653D6E6F5F636D6400000000743D3100DB
:10112000743D3000653D6E6F5F737563685F636D1E
:1011300064000000653D696E76616C69645F70777C
:101140000000000030B503460024012A03D1113409
:10115000A1F108000444022A03D1A41DA1F1080052
:10116000044406E058781D7840EA052004449B1C9E
:10117000891E0129F6D811B1187804EB002402E089
:10118000A0B200EB1444200CFAD14FF6FF7584EAAC
:10119000050030BD30B50023FB4C227005E0CC5C6F
:1011A000F94D1335EC545C1CE3B2042BF7DB002340
:1011B00005E0C45CF44D0D35EC545C1CE3B2062B29
:1011C000F7DB30BD10B503460022292901D20020EB
:1011D00010BD187B082802D1587B062801D00020BA
:1011E000F6E70BE002F12600185CE74C1334A45C30
:1011F000A04201D00020EBE7501CC2B2042AF1DB70
:101200000120E5E710B5034600222A2901D200207B
:1012100010BD187B082801D1587B08B10020F7E7E2
:10122000987B452801D00020F2E70BE002F11E0078
:10123000185CD54C1334A45CA04201D00020E7E731
:10124000501CC2B2042AF1DB0120E1E7002109E0D1
:101250008A1D835C4354CC4A0D32535C8A1D8354EF
:101260004A1CD1B20629F3DB704730B50446002092
:101270002076607640202075002060754020A075A3
:101280000022142104F10E00FFF75CFF0546280A36
:101290002076657630BD30B5054600240CE004F1BB
:1012A0001A00295C001D2954B7481330015D04F170
:1012B0001A002954601CC4B2042CF0DB2846FFF746
:1012C000D4FF30BDF0B5002409E004F12206875DAB
:1012D000B61C87550027B61E8755661CF4B2022C33
:1012E000F3DBA94E367880F82360042412E004F181
:1012F0002506865D314404F12906855D815513B1CB
:10130000361F855503E0002704F125068755090A95
:10131000661EF4B2002CEADC8BB9002600F8266FBA
:101320004670994E0C36367886700026C670263880
:10133000954E0C363678B61C934F0C373E7000260F
:1013400080F8326080F8336062B102262E30067277
:1013500004264672052686728026C672602600F82C
:101360002E6902E0502680F82E60F0BD70B505466B
:1013700000242846FFF76AFF0020287502206875C0
:101380000CE004F11600295C0A3029547E480D3027
:10139000015D04F116002954601CC4B2062CF0DB78
:1013A00000240CE004F11C00295C0A302954764822
:1013B0001330015D04F11C002954601CC4B2042CDC
:1013C000F0DB29462A20FFF78AF870BD70B5044685
:1013D0000D462046FFF73AFF2046FFF75CFF00204E
:1013E00084F8220094F82400F72804DD94F82500FE
:1013F000401C84F8250094F82400083084F8240068
:1014000021462846FFF76BF870BD2DE9F0470446EA
:101410000D4691461E4600272046FFF717FFB9F1FB
:10142000DC0F01DD4FF0DC090020207409F11C0005
:1014300060742046FFF72FFF300A04F8240F66700F
:101440000020A07009F10800E07000202071607198
:10145000243C05E0E95D07F12A002154781CC7B25D
:101460004F45F7DB09F11001012204F11A00FFF7E3
:1014700069FE80464FEA182084F8280084F8298005
:1014800009F12A002146FFF72AF8BDE8F08770B578
:1014900004462046FFF7DAFE002020742C206074FA
:1014A0002046FFF7F8FE122084F82F0000230122C7
:1014B00011462046FFF706FF0222202104F11A0000
:1014C000FFF740FE0546280A84F8320084F83350BE
:1014D00021463A20FFF703F870BD2B48083000681A
:1014E00020B12948001D0068223070470020FCE729
:1014F000027C417C62F31F21234A083211601146AD
:1015000009681439116090F82E1009118900121F12
:101510001160111D09681268891A1B4A083211608E
:101520001146096809B900211160704710B50346DA
:1015300003E001F136001C54491C12F8014B002C49
:10154000F7D1084610BD10B5034605E0147801F147
:1015500036001C54491C521C10780028F6D108464D
:1015600010BD70B505462846FFF770FE102085F8BF
:101570002F0005480830006840B9012300221946B1
:101580002846FFF79FFE08E04000002001230022CC
:10159000214801682846FFF795FE2824200A287470
:1015A0006C742846FFF777FE02221C2105F11A0011
:1015B000FFF7C8FD0446200A85F8320085F833405D
:1015C00029463620FEF78BFF70BD70B504460D46E8
:1015D000192084F82F0005F12806300A207466745B
:1015E0002046FFF742FE002084F8320084F83300E2
:1015F00005F11C01022204F11A00FFF7A3FD0646C3
:10160000300A84F8320084F8336005F13600214650
:10161000FEF765FF70BD0000480000207047000025
:101620000FB4054A054910B503AB7944029800F0A0
:1016300056F910BC5DF814FB0800002053F0FFFFC2
:101640002DE9F04104460E4600202BE0E1682046DB
:10165000884748B3252802D0D4E901211FE0E1687A
:1016600020460027884705001ED0A5F14100192813
:1016700002D820354FF400673246294620462760BD
:10168000FEF76EFD40B1012801D1361DDEE7F61DE3
:1016900026F007060836D9E7D4E901212846904705
:1016A000206A401C2062D1E7206ABDE8F08100007A
:1016B00070B504460D4621461068AFF300802168DE
:1016C000090502D5104A7A4402E00F4A7A440E32E4
:1016D000002104F1240306E000F00F064FEA101089
:1016E000965D5E54491C0028F6D12068002300074F
:1016F00004D5702D02D009B1113202232046BDE875
:10170000704000F090B80000F207000040EA0103CA
:10171000024630B59B0710D14FF0013400E008C2FB
:1017200008C91D1B9D4315EAC41FF8D013F0FF0123
:1017300002F8011B0ED01B0AF8E711F8014B02F862
:10174000014B002C134605D011F8014B5A1C002CFC
:101750001C70F2D130BD40EA010370B59B0729D15E
:101760004FF00136042A25D308C810C9121F9D1B4B
:101770009D4315EAC61505D1A342F3D018BA21BA84
:10178000401A70BDD8B2E1B2401A50EA0561F8D1F2
:1017900098B2A1B2401A50EA0541F2D123F07F413C
:1017A00024F07F40081A50EA0521EAD1180EA0EB78
:1017B000146070BD0AB9002070BD10F8013B11F82B
:1017C000014B63B1A3420AD1521E08D010F8013B6D
:1017D00011F8014B1BB1A34201D1521EEDD1181BD0
:1017E00070BD10B5431C04E010F8011B09B9C01A04
:1017F00010BD8107F8D14FF0013202C88C1A8C431A
:1018000014EAC211F9D0C01A0A0601D0C01E10BDD8
:101810000A0401D0801E10BD0902FCD0401E10BD7C
:101820007047704770472DE9F0470D4604469246D1
:10183000994600F124080168880604D5E06921F082
:101840001001216000E001200027A84200DD471BB5
:10185000A1697A1902EB0900081AA0612068C00684
:1018600002D42046AFF30080002608E0D4E901212D
:101870001AF806009047206A401C761C20624E45EC
:10188000F4DB2068C0060AD52046AFF3008006E0EE
:10189000D4E9012130209047206A401C2062381E84
:1018A000A7F10107F4DC07E0D4E9012118F80500ED
:1018B0009047206A401C2062281EA5F10105F3DC38
:1018C0002046AFF3008021680220090600D40120E1
:1018D000BDE8F08701694A1C02610878704710B5BD
:1018E0000C46194690B0CDE9024200220692044A05
:1018F0007A44CDE9042001A8FFF7A2FE10B010BD84
:10190000E1FFFFFF754600F029F8AE460500694685
:10191000534620F00700854618B020B5FFF744F97C
:10192000BDE820404FF000064FF000074FF00008E0
:101930004FF0000B21F00701AC46ACE8C009ACE861
:10194000C009ACE8C009ACE8C0098D467047044640
:10195000AFF300802046FEF717FC000000487047F8
:1019600038060020F0B5CB780022DC0603F00F0328
:1019700001D58C7823430C880F2714F0FF0F4FF00C
:10198000010C1CD0D0F800500E880CFA02F426404E
:10199000A64210D1960007FA06FE25EA0E0E03FABB
:1019A00006F5CE7845EA0E05282E00D14461CE78A2
:1019B000482E00D10461521C082AE5D305600A882C
:1019C000FF2A1ED94568002202F108060CFA06F427
:1019D0000E882640A64210D1960007FA06FE25EA98
:1019E0000E0E03FA06F5CE7845EA0E05282E00D134
:1019F0004461CE78482E00D10461521C082AE3D3FA
:101A00004560F0BD044A0029916901D0014300E01E
:101A10008143916170470000001002400029018855
:101A200002D041F0400101E021F040010180704707
:101A30000246128900200A4200D0012070478089A6
:101A400070478181704770B502880B884E888C88FA
:101A5000CD8833432C430E8923434C8933438D89EE
:101A60002343CC892B4302F4415223431343038085
:101A7000828B22F400628283098A018270BD110286
:101A8000030405663C703E3C623E3C7370616E2010
:101A90006C616E673D454E2D55533E412F44203CB1
:101AA0002F7370616E3ECEC2B6C8BCE0CAD33C7321
:101AB00070616E206C616E673D454E2D55533E3A08
:101AC000283C2F7370616E3EB7B6CEA73C73706131
:101AD0006E0D0A6C616E673D454E2D55533E307E4E
:101AE0003C7374313A63686D6574636E7620556E2D
:101AF00069744E616D653D22A1E3432220536F75E9
:101B000072636556616C75653D22353022204861EF
:101B10007353706163653D2246616C7365220D0AE3
:101B20004E656761746976653D2246616C73652216
:101B3000204E756D626572547970653D22312220A8
:101B4000544353433D22302220773A73743D226F31
:101B50006E223E3530A1E3433C2F7374313A636803
:101B60006D6574636E763E293C2F7370616E3E3CEA
:101B70002F623E3C2F703E0D0A0D0A3C7461626C70
:101B80006520636C6173733D4D736F4E6F726D6151
:101B90006C5461626C6520626F726465723D3120C5
:101BA00063656C6C73706163696E673D302063655B
:101BB0006C6C70616464696E673D30207769647431
:101BC000683D3534300D0A207374796C653D277794
:101BD000696474683A3430352E3070743B6D736FBD
:101BE0002D63656C6C73706163696E673A30636D09
:101BF0003B6261636B67726F756E643A7265643BDA
:101C0000626F726465723A6F757473657420342EF6
:101C10003570743B0D0A206D736F2D7061646469BB
:101C20006E672D616C743A30636D2030636D2030C7
:101C3000636D2030636D273E0D0A203C7472207363
:101C400074796C653D276D736F2D796674692D69A4
:101C5000726F773A303B6D736F2D796674692D66BC
:101C600069727374726F773A7965733B6D736F2D18
:101C7000796674692D6C617374726F773A796573E4
:101C8000273E0D0A20203C7464207374796C653DF6
:101C90002770616464696E673A30636D2030636DEC
:101CA0002030636D2030636D273E0D0A20203C7488
:101CB00061626C6520636C6173733D4D736F4E6F31
:101CC000726D616C5461626C6520626F72646572E2
:101CD0003D302063656C6C73706163696E673D3085
:101CE0002063656C6C70616464696E673D300D0AD9
:101CF0002020207374796C653D276D736F2D6365AB
:101D00006C6C73706163696E673A30636D3B6D73C1
:101D10006F2D70616464696E672D616C743A306315
:101D20006D2030636D2030636D2030636D273E0D74
:101D30000A2020203C7472207374796C653D276DF5
:101D4000736F2D796674692D69726F773A303B6DC8
:101D5000736F2D796674692D6669727374726F770B
:101D60003A7965733B6D736F2D796674692D6C617B
:101D70007374726F773A796573273E0D0A202020BD
:101D8000203C7464207374796C653D276261636BD9
:101D900067726F756E643A6C696D653B70616464FF
:101DA000696E673A30636D2030636D2030636D205B
:101DB00030636D273E0D0A202020203C7020636C8C
:101DC0006173733D4D736F4E6F726D616C3E3C730A
:101DD00070616E206C616E673D454E2D55533E26F9
:101DE0006E6273703B3C2F7370616E3E3C2F703E91
:101DF0000D0A202020203C2F74643E0D0A000000B4
:101E00003C2F63656E7465723E3C68723E3C702088
:101E1000616C69676E3D63656E7465723ECFEACF33
:101E2000B8D0C5CFA2C7EBB7C3CECAA3BA3C612016
:101E3000687265663D22687474703A2F2F777777E1
:101E40002E6C63736F66742E6E6574223E687474B4
:101E5000703A2F2F7777772E6C63736F66742E6EC0
:101E600065743C2F613E3C2F703E00004854545036
:101E70002F312E302034303120556E617574686FEB
:101E800072697A65640D0A436F6E74656E742D54C1
:101E90007970653A20746578742F68746D6C0D0ADA
:101EA0000D0A3C68313E34303120556E61757468DE
:101EB0006F72697A65643C2F68313E00303132338D
:101EC000343536373839414243444546403058006E
:101ED00030313233343536373839616263646566A0
:101EE00040307800041F0008000000205800000067
:101EF000280100085C1F000858000020400800006E
:101F00004401000800000000000000000000000084
:101F100000000000545558100024C0A801586874EF
:101F200074703A2F2F3139322E3136382E312E3807
:101F3000382F000050000000B00400006C63736F85
:101F40006674000050000000000000000000000067
:0C1F50000A00000000000000000000007B
:04000005080000ED02
:00000001FF
