:020000040000FA
:10000000020D9E022003FFFFFFFFFF02200BFFFFF8
:10001000FFFFFF020523FFFFFFFFFF02201BFFFF83
:10002000FFFFFF022023FFFFFFFFFF02202BFFFF48
:10003000FFFFFF022033FFFFFFFFFF020577FFFFF7
:10004000FFFFFF022043FFFFFFFFFF02204BFFFFE8
:10005000FFFFFF022053FFFFFFFFFF02205BFFFFB8
:10006000FFFFFF022063FFFFFFFFFF02206BFFFF88
:10007000FFFFFF022073FFFFFFFFFF02207BFFFF58
:10008000FFFFFF022083FFFFFFFFFF02208B002006
:10009000000090200000932000000100000000C834
:1000A0000300380000000000260000000000FFFFF1
:1000B000FFFF0000040074F8120B1B780079008029
:1000C0001A74922EF58274031201F4900412120134
:1000D000FE4005900412E4F01201EB900412E0FEE1
:1000E000A3E06E6007C3E89CE99D40D5806D74F87D
:1000F000120B1B120153C398120153FEE8500B124E
:1001000002CB700B7800790080141202E050F57A6F
:10011000007B00803CE004F0439A041201EBC3E84A
:100120009CE99D50288A828B83E0C0E0900497E090
:10013000FE74162E120308D0E01202BC900498E45C
:10014000F0900497E0C3947F40CBE480CAE8FAE9DA
:10015000FB800C900496E0F8A3E022E8FAE9FB7F2C
:1001600001020C8074F8120B1B7800790090051BBB
:10017000E0705AA3E0705675F900C28FC284A28362
:1001800040FCA28F4004A28350F8E5F9C28FA283FD
:100190005004D2848037C0E0E0FE749B2EF5827458
:1001A0000412030CD0E0F090051C1202F440D3E4DA
:1001B000F080CF749B2EF58274041201F490051B1D
:1001C0001201FE400590051BE4F01201EB90051BA7
:1001D000E0FEA3E06E6007C3E89CE99D40D5E849D6
:1001E0007006E4F090051BF002015BE8240108E9C9
:1001F0003400F92212030CE08A828B83F022E0049F
:100200001202C0C394802274F8120B1B90059D1239
:100210000156C39890059D120156FEE85007120240
:10022000CB700B80051202E04004EC4D70077A00A1
:100230007B000202B98A828B83E0F5F9A3AA82AB24
:1002400083780179008006E004F01201EBC3E89C9A
:10025000E99D50278A828B83E0C0E090059EE0FEF6
:10026000741D2EF582740512030CD0E01202BC90AE
:10027000059EE0C3947F40CFE480CEC28FA283402E
:10028000FCC284A28F4004A28350F890059D120204
:10029000FBE0F5F9C28F90059DE0FAA3E06A9005B6
:1002A0009D70051202FB80051202F44002E4F0A2E8
:1002B0008350D0D284E8FAE9FB02015F1202C02227
:1002C000F08A828B83A3AA82AB8322C39EF895E037
:1002D000F91202D522E824FF18E934FFF9E849228F
:1002E000C39EF895E0F9E8247FF8E93400F9C3E803
:1002F0009CE99D22E004F0C3948022E0FA741D2A58
:10030000F582740512030C22F58274043400F5831F
:100310002274FF120D2D1203FA1206D8E97003029F
:1003200003D77E00900390E06401700DC2849003B7
:10033000917401F09005B38005D2AF9005B77808AD
:10034000120D8F7C017D00851882851983AA82ABEE
:10035000831204DF8B0DEA450D6012E064F8602C17
:10036000E0640770089005BB7808120D8F85080CB3
:1003700085090D850A0E850B0F9005BF7808120DB3
:100380006BE50C450D450E450F70B80E900390E0DF
:1003900064017009D284900391E4F08002C2AFEE50
:1003A000A2E05033900390E06401700C75F800C235
:1003B000AB539AF7D2EA800C758600C2AAC28B535F
:1003C0009AFBC2E990000174CDF0022000C2AF7523
:1003D000C9AB75C95B80FE1204A4C2AF75C9AB7509
:1003E000C95B80FE781075B60FE5B4A2E750FAE558
:1003F000BBC39940F118E870ED22C082C083A2927D
:1004000050047A0080027A8053BEFBE59DA2E6503C
:10041000FA0078F87901001202D570FA8AC6E59ED2
:100420006A70FB43BE049062707408F0794A12034C
:10043000E490000174F5F07403F5D575D488A2A09A
:10044000E433900390F0A2E05029D28453F3F753A1
:10045000F3EF53FDF743FD10538FF753F7DF43FCE2
:100460002043F10253F5DF75F82043F4F0D2FED2B9
:10047000AB802C53FF3F85FFFF53F1FE43F30C533A
:10048000F2F375868075C480900499E4F0A3F0754A
:10049000C2D875C50B75C402438640D2AAD2E9D032
:1004A00083D0822274F5120B1B794E1203E4900361
:1004B00090E07002D2AF1205C8E960FAE0701B90BC
:1004C00005C37808120D8F009005BF7808120D6BD8
:1004D000E5084509450A450B70ED7F04020C80C014
:1004E00082C083900390E070051200B6801E9003D6
:1004F00091E06015A28F500DE5F98A828B83F07A26
:10050000017B0080077A0080F81201648091C0822C
:10051000C083900390E070051200EE800312020782
:1005200002049FC0E074F2120B81900001E064CDE0
:100530007005122013803BE064F57035E5C1C0E022
:10054000900413E0F8749228F582740312030CD01F
:10055000E0F0900412120156687006E595900415BB
:10056000F09004131202F44002E4F0A374C6F08089
:1005700001007F01020BE0C0E074F1120B819000DA
:1005800001E064CD700512203B8038E064F57032E4
:10059000120153687009539AFBA37401F08024C2BE
:1005A000E9900496E0F50874012508F07416250812
:1005B000120308E0F5C1900496E0C394804004E47F
:1005C00080DA007F02020BE074F7120B1B74FF123B
:1005D0000D2D7E008033900384E0F8851882851904
:1005E00083E068700D900382E0644D700512081B73
:1005F000E9FE900385E4F0900387F0851882851961
:1006000083E0F8900384E068F07C017D0085188227
:10061000851983AA82AB831204DF8B09EA4509702E
:10062000030206CCE0C0E0900387E0F8900385E089
:10063000FAE82AF8E434001209D3D0E0F0900387F6
:10064000E0601114602014603E14604E1460641465
:10065000608480A7851882851983E064FE709C9071
:10066000038774018094900384E4F08518828519CF
:1006700083E0900386F0C394809003874004E402F3
:1006800005FA74020205FA851882851983E0900341
:1006900082F090038774030205FA85188285198316
:1006A000E0900383F0900386E06019900387740460
:1006B0000205FA900385E004F0F8900386E0686094
:1006C000030205FB90038774050205FAEEF9740135
:1006D000120CFA7F02020C8074ED120B1B74FB12D9
:1006E0000D2D7508047509007808120D7E7402122C
:1006F0000DC91209C0120CFA851882E0F47003A328
:10070000E0F4600F851882851983E0F8A3E0F9E82A
:1007100049700302080F7402120DC9E0687003A348
:10072000E06970030207E975080090059F781012D0
:100730000D8F800A9005A37810120D43604A750A48
:1007400001750B00780A120D7E7406120DC9AC8279
:10075000AD8385100A85110BAA0AE50B5407FB8AA5
:100760000C85110D85120E85130F740B780C120D6C
:1007700014A90C1209CA120CFAE0F9AA08AB091262
:1007800009DF8A088B0980089005A77810120D8F61
:100790009005AB7810120D6B9005AF7810120CC05D
:1007A0005092E4F91209DFE4F91209DF7402120D24
:1007B000C9EAF0A3EBF07508017509007808120D7D
:1007C0007E7402120DC9AC82AD837A247B08120AB2
:1007D000A07402120CFA7508047808120D7E7402D7
:1007E000120DC91209C0120CFA1209B2120DC9E099
:1007F000687003A3E0697017851882851983E0F497
:100800007003A3E0F46008E849600479018002798C
:10081000007405120CFA7F0C020C8074F3120B1B8F
:1008200074FC120D2D900306E0FAA3E0F9EA24000F
:10083000F8F508E93408F509750A017F007E009093
:100840000383E014600C1460401470030208E20299
:10085000095FE5095401F9E8497011880C85090D13
:100860007409780C120DADA90C120B04750C108EC6
:100870000D780C120D7E7C087D03AA08AB09120AC4
:10088000A07402120CFA02095F880C85090D740924
:10089000780C120DADE50CC3947940040F02095F8A
:1008A000750A408E0B780A120D7E7C097D03EAF5ED
:1008B0000AE5095401F50B7402780A120D58AA0AC8
:1008C000AB0B74097808120DADA9081209CA120CF5
:1008D000FA900307E0A3F0900306E0A3F0750A4343
:1008E000807D7508048E097808120D7E7402120D41
:1008F000C91209C0120CFA7402120DC9E0F8A3E083
:10090000F9851882851983E0687003A3E069603B6C
:100910001209B2120DC9E8F0A3E9F07508017808D0
:10092000120D7E7402120DC9AC82AD837A247B084D
:10093000120AA07402120CFA7508047808120D7ECF
:100940007402120DC91209C0120CFA1209B2120D6A
:10095000C9E0687003A3E06970030E80027F07900E
:100960000305E0D2E7F0EFA3F0E50A900303F0748B
:100970004D650AF5087404250AFB7A0380071209FD
:10098000D0E062080AEAC39BA2D265D033EAF840FD
:10099000ED1209D0E508F074012AFC3395E0FD7AE8
:1009A000027B0312050EEEF97404120CFA7F0602A4
:1009B0000C80851882851983E0F8A3E0F97402227F
:1009C000AC82AD837A907B007904120A1B740222F8
:1009D0003395E0F9740228F582740339F58322C057
:1009E00008C0097C088A088B09740F7808120DADBD
:1009F000EAC333FAEB33FBE9A2E7500474014AFA85
:100A0000E508A2E0500874216AFA74106BFBE9C390
:100A100033F91CEC70CFD009D0082274F5120B1BEF
:100A20008908740B120DC9E0FEA3E0FF740F55088E
:100A3000F50A750B00740B780A120D58EA2400F8B9
:100A4000EB3480F9E82400E9350BF9E5C7F509A294
:100A5000AFE433F50AC2AFE508C4540FFAE5C75452
:100A6000F84AF5C7801C88828983E08C828D83F0E8
:100A700088828983A3A882A9838C828D83A3AC8278
:100A8000AD83EEFAEFFBEA24FF1EEB34FFFFEA4BE7
:100A900070D48509C7E50AA2E092AF7F04020C80FA
:100AA00074F7120B1B7409120DC9E0F508A3E0F5E9
:100AB00009ED900388F0ECA3F0A37462F0A37473C3
:100AC000F0A3E0541FF0E508333354FCA3F07406A0
:100AD0007808120DADE50890038CF090038E741227
:100AE000F0A37442F075D1FE75D601EA906271F000
:100AF000EBA3F0906270E0D2E1F0E0A2E740FB7F70
:100B000002020C80C082C083E9C333906272F0900D
:100B10006270E0D2E0F0D083D082222518C582C076
:100B2000E0E51934FFC583C0E0E518C3958224F9D8
:100B300010AF0885831985821880088583198582FE
:100B400018D2AFCEF0A3E520F0A37808E608F0A312
:100B5000DEFAEFF0A3E58124FBF8E608F0A3E6084F
:100B6000F0A30808E608F0A3E608F0A315811581B4
:100B7000D0E0FED0E0F815811581E8C0E0EEC0E0DD
:100B800022C0D02518C582C0E0E51934FFC583C056
:100B9000E0E518C3958224F310AF08858319858298
:100BA000188008858319858218D2AFC8F0A3E9F0B0
:100BB000A3EAF0A3EBF0A37908E709F0A3D8FAECD5
:100BC000F0A3EDF0A3EEF0A3EFF0A3D0E0F0A3D0FC
:100BD000E0F0A3D0E0F0A3E520F0A3E5F0F0A3223D
:100BE000851983851882E0C0E0A3E0F9A3E0FAA3A9
:100BF000E0FBA37808E0F608A3DFFAE0FCA3E0FD41
:100C0000A3E0FEA3E0FFA3E0C0E0A3E0C0E0A3E018
:100C1000F5D0A3E0F520A3E0A3F5F010AF0885839D
:100C2000198582188008858319858218D2AFD082F1
:100C3000D083D0E0F8D0E032120DD8B90003020C16
:100C40007AE4900302789E79038002F0A3D8FCD95D
:100C5000FA90059FAA82AB8390008E782979018053
:100C600015E493A3AC82AD838A828B83F0A3AA821E
:100C7000AB838C828D83D8E9D9E7120311120DD38F
:100C8000851983851882E0A3FEE0A3F5207808E0AB
:100C9000A3F608DFFAE0A3FFE0A3C0E0E0A3C0E012
:100CA000E0A3C0E0E0A3C0E010AF08858218858310
:100CB000198008858218858319D2AFD083D082220B
:100CC000C008C3E096F50808A3E096420808A3E030
:100CD00096420808A3E09645087001D3D008222563
:100CE00018F58210AF08F518400215198008F5189C
:100CF00040021519D2AF85198322C0D0251810AF34
:100D000008F518500205198008F51850020519D287
:100D1000AFD0D0226016080808C6C313C618C61381
:100D2000C618C613C618C613C6D5E0EA2225181081
:100D3000AF08F518400215198008F518400215197A
:100D4000D2AF22E066701008A3E066700A08A3E044
:100D500066700408A3E06622700422600D18C6C302
:100D600033C608C633C6D5E0F41822E026F608A339
:100D7000E036F608A3E036F608A3E036F622740261
:100D80008000C0E0F404120CDFD0E0120DBC22E0C1
:100D9000F608A3E0F608A3E0F608A3E0F62275D073
:100DA00000758140751802751903020C38600C0833
:100DB000C6C313C618C613C6D5E0F422CAC0E0E6FF
:100DC000F0A308DAFAD0E0FA222518F582E4351902
:100DD000F5832200000080FB790122FFFFFFFFFF67
:100DE000FFFFFFFFFFFFFFFFFFFFFFFFFFFFFFFF13
:100DF000FFFFFFFFFFFFFFFFFFFFFFFFFFFFFFFF03
:100E0000FFFFFFFFFFFFFFFFFFFFFFFFFFFFFFFFF2
:100E1000FFFFFFFFFFFFFFFFFFFFFFFFFFFFFFFFE2
:10200000022AA30221E8FFFFFFFFFFFFFFFFFFFF00
:10201000FFFFFFFFFFFFFFFFFFFFFFFFFFFFFFFFD0
:10202000FFFFFFFFFFFFFFFFFFFFFF0227AAFFFFEA
:10203000FFFFFFFFFFFFFFFFFFFFFFFFFFFFFFFFB0
:10204000FFFFFF02264DFFFFFFFFFFFFFFFFFFFF28
:10205000FFFFFF022124FFFFFFFFFFFFFFFFFFFF46
:10206000FFFFFFFFFFFFFFFFFFFFFF022782FFFFD2
:10207000FFFFFFFFFFFFFFFFFFFFFFFFFFFFFFFF70
:10208000FFFFFF02218401FFFFFFFFFFFFFFFFFFB4
:10209000102010200101FF01010503010F10FEFFB8
:1020A000A335A335A335A33541343B34A335A24929
:1020B000000000000A4A00000000FF000000FF00CE
:1020C00001000043380000000095375739DD37D94B
:1020D000380000CB370000000000000000FF0101C5
:1020E000002707000000E803A107E803640064007C
:1020F000B8010202000800000502070101051E02E6
:10210000051E020A0A0103B80B02803E0102FEFF0F
:10211000E8030A050001FFFF0A01E09651180002DA
:102120000206FFFFC0E074F212246CA2AFE433FE9B
:10213000D2AFE5A7FFE5A1F5085F54106006124293
:102140003375A1EFE5085F5408600812423975A1A4
:10215000F78024E508A2E092F0EFA2E082F05017A9
:10216000906198E0F8900C81E0C398A2D265D033DA
:102170005002E8F075A1FE751A00EEA2E092AF7F62
:10218000010224CBC0E074F212246CA2AFE433FE4F
:10219000D2AF9061A4E0F8759B00E59158540860B7
:1021A000087591F712428D8023E59158541060080C
:1021B0007591EF1242938014E591A2E092F0E8A2AB
:1021C000E082F05007E0C2E0F01243E39061A3E048
:1021D000F8E5E9585404600E1243B975E9FB9061C3
:1021E00093E0A2E640F2808FC0E074F212246CA269
:1021F000AFE433FED2AF9061A5E0F8E5BF585404D8
:10220000600675BFFB1243FB022177C3E498F8E434
:1022100099F912224C8026C3E49AFAE49BFBE92048
:10222000E7E912224CE498F8E499F922C3E498F81B
:10223000E499F912224CE498F8E499F9C3E49AFA83
:10224000E49BFB22EB20E7CFE920E7E0B90010BBDD
:102250000008E88AF084F8AAF022E4FBC8FA22EB2E
:1022600070227B10C833C8C933C9335007C39AC31F
:10227000DBF280069A50012ADBEAC833F4C8C9337E
:10228000F4C9FA2275F008E4C833C8C933C933C9A0
:102290009AC99B5004C92AC93BD5F0ECFBC833F45A
:1022A000C8E4C9FA22080808EAC0E0EBC0E086F0FA
:1022B000E7A4FA180986F0E7A42AFA180986F0E7D5
:1022C000A42AFA180986F0E7A42AFA1986F0E7A4E6
:1022D000FBE5F02AFA190886F0E7A42BFBE5F03AB3
:1022E000FA190886F0E7A42BFBE5F03AFA1818096A
:1022F00086F0E7A4C5F02BFBE43AFA1908E7C5F02D
:10230000C6A426F6E5F03BFBE43AFA1886F0E7A40B
:10231000F6E5F00826F6E43B08F6E43A08F6D0E0E5
:10232000FBD0E0FA22E4CFC0E0E4CEC0E0E4CDC0D0
:10233000E0E4CCC0E075F020C3E633F608E633F6FF
:1023400008E633F608E633F6181818EC33FCED33DC
:10235000FDEE33FEEF33FFC3EC9709ED9709EE97DF
:1023600009EF97191919400FFFEC97FC09ED97FD3C
:1023700009EE97FE191906D5F0BEECF709EDF7093D
:10238000EEF709EFF7191919D0E0FCD0E0FDD0E025
:10239000FED0E0FF222518C582C0E0E51934FFC554
:1023A00083C0E0E518C3958224F810AF088583192F
:1023B0008582188008858319858218D2AFCEF0A354
:1023C000E520F0A37808E608F0A3DEFAEFF0A3E535
:1023D0008124FAF8E608F0A3E608F0A3E608F0A3E3
:1023E0000808E608F0A3E608F0A315811581D0E0FF
:1023F000FED0E0F8158115811581E8C0E0EEC0E05F
:1024000022122B05B90003022456E49004D178F778
:10241000790F8002F0A3D8FCD9FA781A9020867A36
:1024200001BA00028007E493A3F608DAF99013C713
:10243000AA82AB83902094789179018015E493A3CC
:10244000AC82AD838A828B83F0A3AA82AB838C8219
:102450008D83D8E9D9E77582B07583F774051228A2
:102460006E7582D9758347740012286EC0D0251806
:10247000C582C0E0E51934FFC583C0E0E518C39507
:102480008224F310AF08858319858218800885831C
:1024900019858218D2AFC8F0A3E9F0A3EAF0A3EB44
:1024A000F0A37908E709F0A3D8FAECF0A3EDF0A3C4
:1024B000EEF0A3EFF0A3D0E0F0A3D0E0F0A3D0E0E3
:1024C000F0A3E520F0A3E5F0F0A322851983851899
:1024D00082E0C0E0A3E0F9A3E0FAA3E0FBA3780860
:1024E000E0F608A3DFFAE0FCA3E0FDA3E0FEA3E032
:1024F000FFA3E0C0E0A3E0C0E0A3E0F5D0A3E0F5D7
:1025000020A3E0A3F5F010AF088583198582188019
:1025100008858319858218D2AFD082D083D0E0F8A5
:10252000D0E0320C75F0108E218F228582268583B3
:1025300025851882851983E0CEA3E0CF8526828584
:102540002583EBC9EAC8EDCBECCAC3E833C8E9334D
:10255000C9EA33CAEB33CBC3EA9EF524EB9FF523DC
:10256000B35004AB23AA24EC33CCED33CDD5F0DA51
:10257000AE21AF2222D083D082ECC0E0EDC0E0E4F7
:1025800093A3FCE493A3FDED4C600D122690EC2484
:10259000FFFCED34FFFD80EFE493A3FCE493A3FD87
:1025A000ED4C600D12272DEC24FFFCED34FFFD8077
:1025B000EFD0E0FDD0E0FCE493A3C0E0E493C0E002
:1025C00022851983851882E0A3FEE0A3F520780810
:1025D000E0A3F608DFFAE0A3FFE0A3C0E0E0A3C0B9
:1025E000E0E0A3C0E0E0A3C0E0E0A3C0E010AF08DB
:1025F0008582188583198008858218858319D2AF52
:10260000D083D082022874D083D082E9C0E0E493E2
:10261000A3C386F0C5F095F0F908E493A386F0C54E
:10262000F095F0700BE493A3C3994005E904800290
:10263000A3E475F002A42582F582E5F03583F583E5
:10264000D0E0F9E493A3C0E0E493C0E022C0E074DA
:10265000F212246CA2AFE433FED2AFC2C09012BF1C
:10266000E0700BE5D1A2E4501D1241978018E5D12E
:10267000A2E3500675D1F712416DE5D1A2E45006F0
:1026800075D1EF124173EEA2E092AF7F010224CB2D
:10269000C0E0C3E49396087401939618400FE49346
:1026A00066700808740193661870007019A3A3C3BC
:1026B000E49396087401939618A3A3400DD0E0D03C
:1026C000E0D0E00225B1A3A3A3A3A3A3D0E022748A
:1026D00004800474028000CCC0E0EDC0E0E518C3C3
:1026E0009CCCAD1950011D10AF068C188D198006B9
:1026F0008C188D19D2AF1227F0D0E0FDD0E0FC226B
:1027000074028000CCC0E0EDC0E0E518C39CCCAD05
:102710001950011D10AF068C188D1980068C188D6C
:1027200019D2AF1227CED0E0FDD0E0FC22C0E0C02D
:10273000F088F0E4936670080874019366187000DE
:10274000A8F0A3A3700BD0F0D0E0D0E0D0E0022539
:10275000B1A3A3D0F0D0E022D083D082CCC0E0E4FB
:1027600093A3600612284F1470FAE493A360061234
:1027700029271470FAD0E0FCE493A3C0E0E493C0EE
:10278000E022C0E074F212246C758900C2C5901278
:10279000BFE0700E7A007B109006A0E0F9123AB903
:1027A000800312466B7F010224CBC0E0C0D0E8C09A
:1027B000E0E9C0E0E5A8D2AFC2C7751A00A2E7A25F
:1027C000E792AFD0E0F9D0E0F8D0D0D0E032CAC084
:1027D000E0E493A3C582CCC582C583CDC583F0A3B5
:1027E000C582CCC582C583CDC583DAE5D0E0CA22D7
:1027F000CAC0E0E0A3C582CCC582C583CDC583F045
:10280000A3C582CCC582C583CDC583DAE6D0E0CA34
:10281000227009080808226016181818C6C333C6A3
:1028200008C633C608C633C608C633C6D5E0EA2292
:10283000C008C3E096F50808A3E096420808A3E0A4
:1028400096420808A3E09645087001D3D00822C03C
:10285000E0E493A3D39C5010E493A3C39C400AD01C
:10286000E0D0E0D0E0022775A3A3A3D0E022C09F70
:10287000F59FE473D09F22D083D082C09FE493C0A1
:10288000E0740193C0E0740293F59F222518F5824D
:1028900010AF08F518400215198008F51840021508
:1028A00019D2AF851983227404800A7403800674D8
:1028B0000280027401C0E0F40412288CD0E0122AD5
:1028C000E022C0D0251810AF08F518500205198075
:1028D00008F51850020519D2AFD0D022BB0102E78B
:1028E00022C082C08389828A83BB0003E08002E425
:1028F00093D083D082226016080808C6C313C61876
:10290000C613C618C613C618C613C6D5E0EA22C336
:10291000E0C696F608A3E0C696F608A3E0C696F6CB
:1029200008A3E0C696F622C0E0E493A36C7009D039
:10293000E0D0E0D0E0022775A3A3D0E02225181054
:10294000AF08F518400215198008F518400215194E
:10295000D2AF22E76670100809E766700A0809E737
:102960006670040809E76622C3E09608A3E09608AB
:10297000A3E09608A3E096A2D265D03322E0667069
:102980001008A3E066700A08A3E066700408A3E0DC
:102990006622C3E096F008A3E096F008A3E096F064
:1029A00008A3E096F022C3E697F60809E697F60832
:1029B00009E697F60809E697F622E026F008A3E074
:1029C00036F008A3E036F008A3E036F022E627F65A
:1029D0000809E637F60809E637F60809E637F62269
:1029E000700422600D18C6C333C608C633C6D5E0CE
:1029F000F41822E647F60809E647F60809E647F61E
:102A00000809E647F622E657F60809E657F60809E8
:102A1000E657F60809E657F622E056F608A3E05610
:102A2000F608A3E056F608A3E056F622E056F008B2
:102A3000A3E056F008A3E056F008A3E056F022E029
:102A400026F608A3E036F608A3E036F608A3E0363B
:102A5000F622E4C396F608E496F608E496F608E44F
:102A600096F622600D08C6A2E713C618C613C6D58F
:102A7000E0F322C6F4C608C6F4C608C6F4C608C603
:102A8000F4C622C3E7960809E7960809E7960809FD
:102A9000E79622C3E09608A3E09608A3E09608A371
:102AA000E0962275D0007581407518D17519040023
:102AB000022401E0F608A3E0F608A3E0F608A3E08C
:102AC000F622600C08C6C313C618C613C6D5E0F4B8
:102AD00022E6F008A3E6F008A3E6F008A3E6F02259
:102AE000CAC0E0E6F0A308DAFAD0E0FA22E0FAA3DE
:102AF000E0FBA3E0FCA3E0FD22EAF0A3EBF0A3ECF3
:102B0000F0A3EDF022E5C754F84401F5C77901229E
:102B10002518F582E43519F58322C2AF75D69F02D8
:102B2000000022122877F3A603122877B8A7031211
:102B300028775EA803122877C4A8031228770EA965
:102B40000312287737A903122877B2A9031228772E
:102B50000BAA031228776CAA03122877DEAC0312A3
:102B6000287799AE031228775DAF031228779AB0C1
:102B70000312287769B30312287765B60312287702
:102B800074B60312287702B703122877B9B7031275
:102B9000287701B80312287777B80312287793B8FB
:102BA00003122877C7B80312287706B903122877CB
:102BB000F2B903122877A9BA0312287745BD031288
:102BC00028779BBE0312287750BF03122877DCBFFB
:102BD0000312287760C0031228779EC0031228775B
:102BE00015C10312287706C203122877D0C2031238
:102BF0002877E8C20312287791C30312287726C6E4
:102C000003122877BFC703122877DDC7031228777E
:102C10000080021228773880021228777280021210
:102C20002877948002122877A68002122877F880ED
:102C300002122877588102122877E581021228773C
:102C4000938202122877DB82021228771583021200
:102C50002877328302122877598302122877AF83AC
:102C600002122877C88302122877EE83021228778F
:102C70002C8402122877818402122877AA840212F7
:102C80002877FC8402122877BF85021228774086B5
:102C900002122877FA8602122877C587021228774F
:102CA0000988021228773288021228777488021263
:102CB0002877A888021228772F8A02122877F18AAB
:102CC00002122877178B021228773D8B0212287781
:102CD0005F8B021228776E8B02122877798B021293
:102CE0002877328C02122877928C02122877588D1E
:102CF00002122877608D02122877EF8D0212287752
:102D00005E8E021228779E8E02122877EF900212B2
:102D10002877EB910212287759920212287756935E
:102D2000021228773E9402122877799402122877AB
:102D300002950212287727950212287738950212F9
:102D40002877B295021228774096021228779B9630
:102D5000021228776A97021228778C970212287736
:102D6000979802122877B59802122877C89802120D
:102D700028772099021228772F9902122877B7997D
:102D800002122877009A021228770D9A02122877E9
:102D9000169A02122877329C02122877979D021207
:102DA0002877B09D02122877EE9E021228776B9F3B
:102DB00002122877B4A002122877F6A00212287710
:102DC00032A10212287756A202122877C7A4021253
:102DD0002877D2A402122877DDA402122877E8A46B
:102DE00002122877F2A402122877FDA40212287793
:102DF00017A50212287721A5021228772BA5021207
:102E0000287736A50212287741A50212287769A5EE
:102E100002122877C4A502122877CEA502122877BD
:102E2000D9A502122877FDA50212287721A6021241
:102E300028778CA602122877D0A602122877ECA653
:102E40000212287767A702122877AEA70212287706
:102E5000FAA70212287764A80212287727A902127B
:102E6000287721AB021228778AAB02122877C0ACF0
:102E700002122877E6AC0212287741AE02122877B8
:102E8000E4B102122877B7B3021228777EB5021296
:102E9000287725B602122877A2B70212287738B809
:102EA000021228778AB802122877EEB80212287721
:102EB000FDB8021228778BBB02122877CDBC021214
:102EC000287749BE021228779BBE0212287790BF4E
:102ED0000212287775C10212287702C302122877DE
:102EE00021C30212287776C30212287777C4021210
:102EF00028779FC402122877F3C402122877D9C515
:102F00000212287717C60212287762C602122877A3
:102F1000C3C60212287709C8021228777AC802129B
:102F20002877A4C90212287744CC0212287775CCDE
:102F30000212287706CF021228776FCF0212287765
:102F400077D002122877FFD00212287772D10212AE
:102F5000287731D202122877D6D20212287776D378
:102F60000212287708D40212287751D40212287747
:102F700082D40212287743D602122877D180011218
:102F800028771D8101122877038401122877428453
:102F9000011228778C84011228778D8501122877F9
:102FA000F185011228773186011228777586011282
:102FB0002877C78701122877008B01122877428C67
:102FC00001122877D88C011228779D970112287753
:102FD000339801122877309B011228776C9C0112DC
:102FE0002877E79C01122877159E01122877699FA0
:102FF0000112287752A0011228771AA2011228770D
:103000002AA401122877B3A40112287787A50112F8
:1030100028771FA60112287729A60112287757A61C
:103020000112287715A701122877F3A70112287734
:10303000CAA80112287762A901122877F6A90112FD
:1030400028770CAA011228776DAA0112287796AA70
:1030500001122877C3AA0112287708AD0112287738
:10306000F0AD0112287734AE01122877A1AE01121B
:1030700028775AAF011228778CAF01122877D3AF87
:103080000112287709B00112287776B0011228774B
:10309000CBB001122877D0B00112287724B10112E9
:1030A00028776EB1011228776FB201122877D4B257
:1030B0000112287730B301122877AEB301122877B6
:1030C000A6B6011228779CB7011228772FB90112F2
:1030D00028777DBB011228772EBC01122877D5BC3A
:1030E0000112287717BF01122877BABF011228777B
:1030F000F8BF01122877D7C101122877F4C1011255
:103100002877FDC10112287721C2011228772CC22D
:10311000011228774BC2011228777AC4011228774E
:10312000CFC401122877D9C401122877E3C4011251
:1031300028773EC5011228779AC501122877CDC697
:10314000011228772EC70112287783C80112287729
:10315000D4C8011228776AC90112287777CA0112E8
:1031600028772CCB011228772BCC011228775ECD43
:1031700001122877F2CD011228776BCE0112287741
:1031800082CE01122877BFCE01122877C9CE011254
:103190002877D3CE01122877DECE01122877FCCE15
:1031A000011228773ECF011228779BCF0112287792
:1031B000C0CF01122877DACF0112287760D0011230
:1031C000287796D001122877C5D1011228770ED220
:1031D00001122877FBD20112287731D30112287708
:1031E000C5D30112287757D401122877D0D5011200
:1031F000287703D701122877B5D7011228777CD812
:10320000011228771BD9011228777FD9011228775C
:103210005DDA01122877AFDA0112287715DB011287
:103220002877E0DB0112287703DC011228778CDC99
:1032300001122877B0DC01122877D2DC011228773E
:1032400033DD0112287780DF011228775DE001125B
:10325000287708E10112287733E30112287781E308
:1032600001122877CEE30112287710E401122877A3
:103270006AE40112287798E401122877BCE401126D
:103280002877FFE40112287729E50112287765E500
:1032900001122877C4E50112287731E60112287758
:1032A0007CE7011228779AE901122877DBE90112FD
:1032B000287704EA011228778FEA011228771BEB9E
:1032C0000112287751EB011228778CEB0112287735
:1032D000B0EB0112287705EC0112287720EC0112DF
:1032E0002877D9EC0112287714ED011228776CEDBC
:1032F000011228778BF001122877BEF0011228778F
:1033000067F10112287764F20112287792F404120F
:103310002877CAF404122877EBF4041228772DF5E5
:10332000041228778FF50412287799F5041228776C
:10333000A9F504122877E0F504122877A2F90412FF
:10334000287763FB0412287785FD0412287744FE52
:103350000412287711FF041228776480041228775A
:10336000A780041228776181041228776A820412E8
:103370002877868304122877388504122877AC854D
:10338000041228776286041228777187041228773E
:10339000D8870412287714880412287780880412AA
:1033A0002877B98804122877098904122877928926
:1033B00004122877368A04122877098B041228779A
:1033C000D58B041228775F8C04122877858C041221
:1033D0002877B28C04122877E38C04122877878D23
:1033E00004122877968E04122877A68E0412287766
:1033F000F68E04122877038F04122877188F041290
:103400002877218F041228777B8F04122877D88F92
:10341000041228772290041228773D90041228770E
:103420006490041228778190041228778D900412FA
:103430002877AD9204122877C692041228774F930A
:103440000412287762930412287774930412287761
:103450002A9404122877349504122877D8960412F7
:103460002877639704122877669704122877CE97F7
:1034700004122877DF9704122877719804122877AE
:103480009F9804122877A19804122877D9980412DB
:1034900028773699041228775A9904122877789950
:1034A00004122877C69904122877E69A041228771E
:1034B0003E9B04122877979B04122877269C0412BF
:1034C00028774E9C04122877849C04122877939CBA
:1034D00004122877F19C04122877619D0412287742
:1034E0009E9D04122877D99D04122877049E041209
:1034F00028771E9E04122877389E04122877F29EA1
:1035000004122877FC9E04122877389F041228772B
:10351000489F04122877519F04122877B19F041204
:103520002877C59F04122877CEA004122877E1A03F
:1035300004122877F8A0041228770DA10412287726
:10354000AFA1041228772EA204122877D1A2041268
:103550002877DDA2041228770FA4041228772BA461
:103560000412287783A404122877BCA404122877B5
:10357000D1A40412287733A504122877D2A5041207
:1035800028771DA60412287776A80412287722A986
:103590000412287752AA04122877E6AA0412287780
:1035A00014AD041228772CAD041228772FAD041225
:1035B00028773BAD041228774FAD0412287757AD1A
:1035C0000412287797AD04122877B5AE0412287735
:1035D00038AF04122877BAAF0412287734B0041237
:1035E0002877EFB00412287711B104122877ADB113
:1035F00004122877B9B104122877E4B104122877AD
:10360000E7B10412287714B20412287729B2041201
:1036100028778EB204122877F0B30412287779B590
:103620000412287704B6041228772CB704122877DE
:10363000F9B7041228772AB80412287756B804126A
:10364000287738B90412287767B90412287726BA80
:1036500004122877CEBA0412287742BB04122877C6
:10366000DDBB0412287763BC0412287799BC0412CE
:103670002877DABC041228770FBD0412287758E89F
:1036800004122877A7E804122877E4E804122877C0
:1036900034E904122877B8E90412287700EC041200
:1036A0002877F1ED04122877A0F10412287744F26C
:1036B000041228777FF2041228779DF204122877EB
:1036C000FDF20412287725F30412287755F304122B
:1036D000287786F304122877BDF3041228770EF4B6
:1036E000041228775AF404122877EDF20112287791
:1036F0006BF301122877A1F30112287709F4011264
:1037000028777CF50112287798F501122877DDF5E6
:10371000011228776AF601122877C1F6011228777C
:10372000E4F70112287707F90112287764F90112EA
:103730002877D0F90112287779FA01122877DAFA76
:103740000112287723FB01122877D0FB011228777A
:10375000DAFC011228771DFD0112287766FD01129F
:1037600028779DFD0112287740FE01122877EFFE91
:103770000112287783D70512287794D70512287766
:10378000F9D705122877A6D805122877DFD80512B1
:103790002877DFF0021228778AF10212287738F2B0
:1037A00002122877C5F2021228779DF502122877B7
:1037B00050F70212287707F80212287765F80212EC
:1037C000287785FB021228771BFD021228772BFB36
:1037D0000512287753FB0512287747FC0512287736
:1037E0009CB50512287721B60512287738B6051240
:1037F0002877ADB6051228770BB70512287734B7AE
:1038000005122877B1B70512287754B80512287722
:10381000B9B8051228771DB9051228773EB90512E7
:1038200028776FB9051228778DB905122877B4B9B2
:1038300005122877E4B9051228772ABA05122877E5
:1038400090BA05122877008005122877AF800512FC
:103850002877CF8005122877EF800512287703811B
:10386000051228776381051228779381051228773E
:103870001A8305122877C38305122877A5840512B9
:103880002877F484051228773885051228779D85D6
:10389000051228770986051228772A8605122877C7
:1038A000AD8605122877628805122877D28805121E
:1038B0002877788A05122877498B051228778F8B0D
:1038C00005122877E98B051228771AF10512287757
:1038D00027A20312287745F105122877FD8B0512E0
:1038E0002877F78D051228772D8F051228771491E8
:1038F000051228776C91051228773B9205122877DC
:103900007B9205122877C5920512287780930512BD
:103910002877F39305122877F59305122877F79304
:1039200005122877F993051228771694051228773F
:1039300042A5031228776094051228777C9405121B
:103940002877009505122877529505122877CD958E
:103950000512287777BD041228779DBD04122877B9
:10396000FBBE0412287726BF04122877A5BF0412D5
:103970002877C9BF04122877E9BF0412287733C01B
:10398000041228775DC00412287775C104122877C5
:10399000ABC104122877DAC1041228770DC20412D1
:1039A0002877D6C204122877F6C2041228773EC3BD
:1039B0000412287798C4041228771AC504122877AD
:1039C0000EC604122877D8C6041228770AC7041234
:1039D000287763C704122877C7C70412287738C826
:1039E000041228779CC804122877DAC804122877B2
:1039F00018CA041228774DCA04122877AACA0412DA
:103A0000287761CB041228778FCB0412287722CD38
:103A10000412287796CD04122877C9CD041228778E
:103A200005CE041228771ECE04122877DACE0412AF
:103A30002877A4CF0412287758D004122877EDD025
:103A400004122877A0D10412287728D204122877EC
:103A5000CFD20412287741AF051228778DAF051217
:103A60002877FBAF051228771CB00512287733B0F2
:103A700005122877E3B005122877ECB005122877F5
:103A80003FB10512287768B1051228777DB105127C
:103A90002877E6B10512287777B205122877B3B2F6
:103AA00005122877FFB20512287766B3051228772A
:103AB0009FB30512287725B40512287764B4051240
:103AC0002877A5B405122877DCB405122877EEB460
:103AD0000512287700B50512287733B50512287727
:103AE00073B5051228776DC005122877B0C105128D
:103AF0002877D6C105122877E7C10512287700C4B8
:103B0000051228771FC40512287767F30512287756
:103B10009DF305122877E8F30512287736F505128C
:103B2000287791D304122877DCD40412287718D58B
:103B300004122877CFD604122877F8D604122877F3
:103B400090D904122877D0D90412287771DB041297
:103B500028770BDC0412287773DC0412287700DD49
:103B60000412287738DD0412287778DD04122877CC
:103B70000BDF04122877AAE004122877F9E2041276
:103B8000287727E30412287753E3041228775CE3AD
:103B900004122877B7E3041228774DE4041228773B
:103BA00076E704122877FBE704122877CD86061201
:103BB0002877E38606122877ED86061228773D8758
:103BC00006122877DECE05122877F7CE0512287761
:103BD0009CCF05122877DCCF05122877F5CF051288
:103BE00028772ED0051228777BD005122877ADD004
:103BF00005122877EFD005122877F2D20512287720
:103C00005CD30512287700800612287755800612AB
:103C10002877AE80061228777E8506122877D18510
:103C2000061228771386061228772386061228772D
:103C30007AD602122877CFD60212287781D70212BD
:103C4000287788D80212287791D90212287763DA68
:103C50000212287778DA02122877C2DA021228775D
:103C600018DB0212287784DB0212287797DB021216
:103C70002877EFDB0212287768DC02122877FFDE54
:103C80000212287714E0021228776FE002122877D8
:103C9000B5E002122877D1E2021228776CE3021213
:103CA0002877FCE3021228773EE4021228775DE4CD
:103CB00002122877A8E402122877BEE402122877BD
:103CC000CBE40212287704E50212287716E50212E7
:103CD0002877FBE50212287706E6021228776CE6C1
:103CE00002122877C4E60212287721E70212287709
:103CF00051E80212287779E802122877F9EA0212CD
:103D0000287721EB02122877A6EB0212287722EC03
:103D100002122877F0EC021228772CED0212287795
:103D20009AED021228776BEE02122877A4EE0212A7
:103D30002877AEEE02122877B1EE02122877BBEE9A
:103D400002122877D7EE0212287752EF0212287754
:103D50008BEF02122877A7EF02122877D3EF021217
:103D600028770EF00212287729F00212287734F013
:103D70000212287775F00212287788F0021228774D
:103D8000AFF0021228773682061228774782061291
:103D90002877D08206122877BBA7051228770AA8B1
:103DA00005122877C7A905122877A5AB0512287731
:103DB000E9AB05122877DEAC051228770FAE0512A5
:103DC000287731AE051228778DAE0512287711AF0E
:103DD000051228779C4D00122877CA4D00122877CB
:103DE0001A4F00122877634F00122877B84F00123D
:103DF00028773450001228779D5000122877E5501C
:103E0000001228776B51001228770E520012287783
:103E1000965200122877D752001228773657001290
:103E20002877BA5800122877F358001228773F599C
:103E3000001228775F5A001228776B5D00122877EE
:103E40000E5E00122877BE5F00122877076100120D
:103E500028770B62001228778562001228774D635D
:103E600000122877B86300122877C86300122877F9
:103E7000856400122877C06500122877FF6700125A
:103E80002877B66A00122877946B00122877C86CDE
:103E9000001228775270001228776270001228777B
:103EA0009C71001228774172001228775C7300120F
:103EB0002877F773001228771F75001228779E75F0
:103EC0000012287718C803122877D5C8031228775C
:103ED00052C90312287761C903122877EAC903126D
:103EE000287741CA031228774CCB0312287775CB69
:103EF000031228771DCC0312287770CC0312287781
:103F0000DBCC031228773ACD031228773FD0031277
:103F10002877EFD0031228775ED103122877EED2EC
:103F200003122877A6D30312287743D403122877E5
:103F3000A4D4031228771ED50312287717D60312AC
:103F4000287701D70312287747D70312287780D71D
:103F50000312287794D703122877DDD70312287726
:103F600061D803122877D7D903122877ADDB031263
:103F70002877A2DC03122877E1DD03122877F6DE2A
:103F8000031228779BDF031228770CE003122877AF
:103F9000DAE0031228776EE203122877F0E20312C8
:103FA000287760E303122877B0E303122877F8E359
:103FB000031228779AE403122877CBE503122877B7
:103FC00016E6031228774FE6031228779FE60312BE
:103FD00028772FE803122877CAE80312287704E924
:103FE0000312287726EA0312287742EA0312287779
:103FF00076EA031228777BEB031228779FEB0312F4
:104000002877B5EB0312287737EC031228776AEC90
:10401000031228771FED0312287758ED0312287733
:104020007BED0312287795ED03122877C8ED031274
:104030002877E9ED0312287710EE0312287728EE8F
:104040000312287726EF0312287709F00312287746
:1040500046F103122877D5F10312287705F20312EF
:10406000287738F2031228773DF20312287795F269
:104070000312287746F30312287726F403122877D1
:1040800054F50312287764F6031228772EF70312EB
:1040900028777FF70312287797F703122877A7F876
:1040A0000312287748F90312287774F90312287746
:1040B0005FE6051228779AE60512287763E705126E
:1040C0002877C9E7051228773AE805122877CEE85D
:1040D000051228772AF805122877298306122877EF
:1040E0003A8306122877DA8306122877EFFF011247
:1040F0002877E8FF04122877F483061228770484CF
:1041000006122877198406122877AA8406122877BF
:10411000F4FE0512287779FF05122877DFFF0512D4
:104120002877F4FF02122877F7FF02122877E3FFBF
:1041300003122877F3FF03122877F6FF031228777C
:10414000F9FF03122877F87F0012287799F50512F6
:104150002877BBF50512287729F705122877ADF7E0
:1041600005122877BFFF04122877C8FF04122877AA
:10417000D1FF04122877DFFF0412287729FA0312EF
:10418000287795FA031228775CFB0312287768FCDE
:104190000312287753FE03122877AEFE0312287706
:1041A00003FF0312287714FF0312287726FF031258
:1041B000287790FF03122877A4FF03122877AFFF18
:1041C00003122877BDFF03122877CFFF0312287749
:1041D00076C505122877CBC505122877C7C7051203
:1041E0002877F9C7051228771BC80512287734C825
:1041F000051228774DC80512287757C90512287768
:10420000F2C905122877B6F905122877DAF90512EE
:104210002877F3F90512287732FA0512287765FA1C
:104220000512287795FA051228779FFA0512287744
:1042300007FB051228770AFB0512287714FB0512E5
:10424000287721FB051228776EE90512287796E971
:1042500005122877D7E905122877E9E905122877AA
:1042600004EA051228776CEA0512287778EA051225
:104270002877D7EA0512287703EB0512287712EB87
:104280000512287736EB05122877F7EB0512287709
:1042900004EC0512287715EC05122877B57F00127B
:1042A0002877CD7F0012287788BB05122877F7BCC6
:1042B00005122877FDBC0512287714BD0512287752
:1042C00035BD051228774BBD051228775FBD051255
:1042D0002877DEBD0512287743BE05122877CBBEAE
:1042E0000512287744BF051228771DC005122877CC
:1042F0002DC0051228773CC0051228773486061297
:104300002877588606122877808606122877A8868E
:104310000612287743EC051228776AEC05122877F5
:104320008BEC05122877FDEC05122877AFEE05120D
:104330002877C8EE05122877DFEE05122877E8EE19
:104340000512287706EF0512287710EF0512287757
:104350001AEF051228772DEF0512287782EF051244
:104360002877BBEF05122877E9EF051228773AF096
:10437000051228778BF005122877A6F0051228770A
:10438000B0F005122877C1F00512287707F1051261
:10439000287766FF01122877B7FF011228772E765B
:1043A000001228775A76001228777876001228773C
:1043B0008B7600122877A6760012287705770012F0
:1043C0002877337700122877517B00122877877C73
:1043D00000122877B97C00122877217D00122877F7
:1043E0009E7E00122877C67E00122877DB7E0012A0
:1043F0002877EB7E001228772B7F00122877777FB3
:1044000000122877877F00122877BCFD05122877D5
:10441000CCFD05122877EAFD0512287705FE051266
:1044200028772CFE051228774DFE0512287767FEA7
:10443000051228779FFE05122877C2FE05122877FD
:10444000BA840612287710850612287768DF0512CD
:1044500028776FDF05122877C5E005122877F5E089
:104460000512287725E10512287758E105122877EB
:104470006AE105122877A6E1051228770CE20512F9
:10448000287748E2051228778FE205122877BCE2E8
:1044900005122877DDE2051228775BFE02122877E5
:1044A0007DFE02122877A4FF02122877A7FF0212CE
:1044B0002877AAFF02122877238106122877958190
:1044C00006122877D38106122877148206122877DD
:1044D000879F051228778D9F05122877DA9F05128E
:1044E0002877FEA10512287736A205122877A2A206
:1044F000051228776FA305122877B4A30512287731
:10450000E7A30512287771A40512287789A405125C
:1045100028772CA60512287724A70512287782A7CA
:1045200005122877E49605122877FA96051228775F
:10453000AC9705122877A798051228779F9905123E
:104540002877379A05122877769A05122877EE9AF7
:1045500005122877509B05122877609B0512287753
:10456000879B05122877D99B051228776C9D051229
:104570002877719D05122877939D0512287769D3B6
:104580000512287788D305122877CCD3051228770F
:10459000E8D30512287719D40512287731D40512EB
:1045A000287749D40512287761D40512287707D5D2
:1045B0000512287745D5051228774FD5051228779B
:1045C00068D50512287776D60512287788D6051281
:1045D000287793D605122877A5D605122877AED668
:1045E00005122877B8D6051228771CD70512287728
:1045F00031CA0512287758CE0512287774CE0512D5
:1046000028779BDB05122877B1DB0512287750DD70
:10461000051228779BDD0512287706DE051228771C
:1046200008DF0512287737DF0512287749DF0512E2
:10463000287778FC0512287732E3051228778EE375
:1046400005122877CEE305122877D6E405122877DD
:10465000EEE40512287703E5051228772FE5051209
:10466000287766E50512287776E5051228778CE528
:1046700005122877B1E5051228773CE60512287760
:10468000C3FF01122877989F03122877299F0312EE
:104690002877CE9E03122877479D03122877AD9C7A
:1046A00003122877939C031228775F9C03122877C4
:1046B000509C03122877DA9B031228779A9B0312E7
:1046C0002877109B03122877B699031228772E9922
:1046D00003122877759803122877709703122877AA
:1046E000249703122877FE96031228773B9603122D
:1046F00028777E94031228771A9403122877EC9374
:1047000003122877E99303122877DB9303122877A3
:1047100012A503122877E6A403122877DCA403125B
:104720002877BDA403122877AAA403122877A093A0
:10473000031228778893031228772C920312287784
:10474000EB910312287797A403122877699103123B
:104750002877359103122877DC9003122877AB90E5
:104760000312287783A3031228773694051228773B
:104770006F8D03122877958C03122877438C0312D0
:104780002877378C03122877908B031228775A8A60
:1047900003122877A087031228772D850312287724
:1047A000EB8403122877A28303122877498303122C
:1047B00028777B82031228773782031228776A8052
:1047C000031228770080031228773A800312287793
:1047D000F8A20312287724F10500000080FBE4739F
:1047E0008F0001003808870001003708240002000C
:1047F0001D14250002001F142600020021142700AA
:1048000002002314280001002514290001002614A9
:10481000840004002714860001002B142A000100E4
:104820002C142B0001002D142C00010031142D003C
:1048300008001F082E00010032142F00010033145D
:104840003000010034143100010035143200010041
:104850002708330001002808340001003614360010
:104860000100290838000100371439000100301414
:104870008300020049146300010034086400010051
:104880002E14650001002F146D00010035086E0024
:1048900002001D086600010048144300010039149D
:1048A000440002003A14450001003C144600020096
:1048B0003D14470008002C08480001003F144B003D
:1048C00001004014040001004B14A10001004D142C
:1048D000370001004C148800010039083C00010039
:1048E0002A083D0001003814490002004114670005
:1048F000010036084D00020043144E00010045142B
:104900004F00020046143E0001002B08000000008A
:10491000000000013636010100010201000103011F
:104920000001040106060502000007010034080129
:10493000000F090401010D0100FF0E08000017021D
:104940000000190100FF1A0100011B0100FE1C01FB
:1049500000081D0200001F010001200100012102CA
:1049600000002301000F240200002601000127019E
:104970000008280200FF2A0100072B0102402C0139
:1049800000002D0100012E0100012F0100FF300168
:104990000B1C310800003A0100083B01000F2F01F9
:1049A000000003007100300160001100700031024E
:1049B0002003500480001000610000001400630018
:1049C0007300720062004300000013000600000044
:1049D00000000400120000000000000000000400BD
:1049E0000400370037003C024400000000000000D3
:1049F0000000650000003500810000000500000097
:104A00008300000066000000000001037103010341
:104A10000103010301030103220302030103100345
:104A2000000300030003000300030003000342032C
:104A300000032403060300030003040312032503F9
:104A400023032503230304030403000300030003DB
:104A5000440300030003230300036503210035031F
:104A60008103000305030003000300030003250383
:104A70002303010171010101010111010101310152
:104A8000010101018001100161013B00140063017B
:104A900073017201620143010001130106013D012E
:104AA00035000401120100010001000100010401B0
:104AB0000401330133013C0144013201360000019D
:104AC000000165010001350081010001050182013D
:104AD0008301000166010001000103047104020466
:104AE00060041104700402040204010402041004AE
:104AF0006104000414046304730472046204430434
:104B00000004130406040004000404041204000456
:104B100000040004000451046400000400040004C4
:104B20004404000400040004000465040004350487
:104B30008104640005040004830400046604000486
:104B400000040302710230016002110270020102CE
:104B5000020202028002100261023A004100630276
:104B60007302720262024302000213023800000262
:104B7000000204021202000200020002000204020B
:104B80000402370037003C024402000239000002F0
:104B90000002650200023502810200020502820263
:104BA000830200026602000200020000033F1300BD
:104BB000733E0100033F0200F53D0300FB3D04008E
:104BC000013E0500073E0600133E3000373E31002F
:104BD000313E3200433E3300493E35004F3E340003
:104BE000553E36005B3E1100673E14006D3E1500D9
:104BF000253E1F002B3EFFFF00003600010006008F
:104C000000000F0000000000000000000000000095
:104C100003FFFF00000403FFFF0000FFFF0FF4018C
:104C20000005C4040320000100000B000000000088
:104C300000000003010F01CD2F06033008FD2F0BEC
:104C40001B30102B2F0A333002D32F05F12F07D939
:104C50002F0CAF2F0DC12F64272DFF000003EAF5A5
:104C6000E5D5D5C5B5A59595858575756565555504
:104C7000454535352525151505A134D134A734AD65
:104C800034CB34BF34B934D734DD34E334EF34B308
:104C9000349B34953400160F00000B150B020002F4
:104CA000220F3300000700000000000000008967A9
:104CB000452301EFCDAB01030507090B0D0F0002E2
:104CC0000406080A0C0D5A6967426565416C6C69F7
:104CD000616E63653039A335B535BB356534C13593
:104CE0005F346B3499339333CF33DB33C933813340
:104CF000D533003C40423A3F3F392F473066303091
:104D000017181921301B1D1F30330F362D3633363F
:104D1000153621361B36303016181920231A1C1E62
:104D2000303200011916181616182303000C0E0253
:104D30000B040B0A0708000F00034D4C4651181ACC
:104D4000250502C534E9342736F534FB34F735C779
:104D500035CD35D935D335020402010101010902EF
:104D6000A533AB339F33E13300BE040AB133C33301
:104D70000E00150004003C003C000000000028006C
:104D80000C007F00E8030A03080900040010FF1E5E
:104D90001E0805090301040510080F0CC082C0831A
:104DA000900799E4F0A3F07CD57D047A117B07127B
:104DB00044C7122D2D900837E070047900800279E5
:104DC000011247C1122D33026B3774F3122395740D
:104DD000F512293D89098A088B0AE9705F7402651A
:104DE00008703E90072A7408F0750C00780C1228A1
:104DF000B3ECF50C780C1228B3EBF50C780C1228F8
:104E0000B39014271226CF90142BE0F97C2C7D0848
:104E1000901449126B48122D5774071228C2024E83
:104E2000DA740165086003024EDD90072A7408F009
:104E30007B00AA0AA90A122D99024EDA74016509AB
:104E40006009740265096003024EDDEA60067403BE
:104E50006508704090072A7402124EFE122AED1265
:104E60002D45900731E0A2E34010E9700D90079DB9
:104E7000E004F064047003124F0874036508705A6C
:104E800090079EE0F8740128F0E8C39405404B12A7
:104E90004F088046740165087043740165099007E6
:104EA0002A702C740AF07401122B10E4F0740212B0
:104EB0002B107403F004122B10E4F0A3F0A3F0A362
:104EC000F07408122B10E4125E00122FDF8025749C
:104ED0000A124EFE122AED122D7BE96017908060B7
:104EE0001226CF7A017B00900727E0F9123BD97494
:104EF000041228C2740B1228C27F050225C1F0904B
:104F0000142BE0F990142722901427E4F0A374F8EE
:104F1000F0A374FFF0A37407F02274F6122395E94E
:104F2000FFEAFE7AD1F9123A958A828B83E58245AF
:104F300083702A7A027B00123A77EA4B700E7A105D
:104F40007B00900727E0F9123AB980148A828B839C
:104F500074D1F0EFA3F0EEF9123A838003EFA3F0DF
:104F600002516674F7122395890890068912747BA2
:104F700080288E828F83A3A31260F960168E828FA1
:104F800083A3A3A3E0F5838882A31260F9FAA9089A
:104F9000123DDD8E828F83127557FFEE4F70D390D6
:104FA00006A0E0FAA908123DDD1230F99006F912C8
:104FB00056E61230F302735774F1122395890A8C66
:104FC00008750900750B00740F122B10125DF67432
:104FD00011122B1012570E804AE50E125085F50C57
:104FE000A3E0F50DE50BC333FEE433FFEA2EF582B3
:104FF000EB3FF583E0650C7004A3E0650D7019E5E7
:1050000009C333FEE433FFEC2EF582ED3FF583E573
:105010000CF0A3E50DF00509050EE50EC39508405B
:10502000B8050BE50BC3950A5005750E0080EBA97A
:10503000090265AA74F4122395890B7D00740C1281
:105040002B10125DF680010DEDC3950B5032750AE1
:10505000008002050AE50AC39C50ECEDC333FEE470
:1050600033FFEA2EF582EB3F125095F509E50A125F
:10507000508565087004A3E0650970D77901800246
:105080007900026465C333FEE433FFE82EF582E95C
:105090003FF583E022F583E0F508A3E02274F612E1
:1050A00023951251397003A3E06D701775082F75A1
:1050B000090778081228AFEEFA123F097402122885
:1050C000C2801F75080275098078081228AF8C0805
:1050D0008D0978081228AF12512C123F2D7404123A
:1050E00028C202516674F61223951251397003A337
:1050F000E06D701775083C75090778081228AFEE47
:10510000FA123F0F74021228C2801F750803750936
:105110008078081228AF8C088D0978081228AF1201
:10512000512C123F2D74041228C2803A12732A1295
:105130007011FD7C8012646E22EAFEEBFF12515169
:10514000FAA3E0F9EA2400FCE439FD9006F9E06CEA
:1051500022126267127034F8A3E0F988828983E032
:105160002274021228C27F020225C174F61223950E
:1051700074FE12293DEAFEEBFF851882851983E44F
:10518000F0A3F01265B7FA88828983A3A3E0F975CA
:105190000900750800600574FF6970057508828054
:1051A000439006F9E06A7003A3E06B7020851882D3
:1051B000851983AA82AB831236B7E9F5098518826F
:1051C000851983126A7F701C7508838017900837D1
:1051D000E06004640170057508818008E064027075
:1051E0000375088085188285198312570EA908EE69
:1051F000FAEFFB123F15E5096011851882851983C6
:10520000126A7F6006126B42123B1902516174F2FE
:10521000122395EAFEEBFF750A00750B001252820D
:105220001230F9EA65087003EB650970121236C98D
:10523000E914F50A79017A657B071236CF80037588
:105240000B80127313F50C780C1228B3750C65756E
:105250000D07780C1228AF780A1228B378081228A4
:10526000AFE50BF50878081228B3126279F582EFE2
:10527000126F737A057B80123F1B74071228C202DB
:105280005FB91274AC125DFA88828983127587F552
:1052900008E439F5092274F6122395E9FE7F0080AF
:1052A0002E8A828B83125097F9E5082400E439F5A1
:1052B00009EF33F8E433F9EC28F582ED39F583E5AD
:1052C00008F0A3E509F0EA2402FAEB3400FB0FEF43
:1052D000C39E40CD02516674E812239574FB1229D7
:1052E0003D8A168B17851882851983E4F0740312A2
:1052F0002B10E4F0A3F004122B10E4F0127193F5DC
:105300000AA3E0F50B850A82F583127583FEE43962
:10531000FF850A82850B83A3A3E0FA850A82850BA9
:1053200083A3A3A3E0F9EAF508E439F509E50A2423
:1053300004F50AE50B3400F50BEEFAEFFB12319B96
:10534000E964016016EEFAEFFB12319BE9703D90C3
:1053500006F9E06E7003A3E06F6031125A4F122815
:10536000B3E4F508F50978081228AF78081228B3D5
:105370009006F91226D375088078081228B31256C1
:10538000EC123F1B74071228C20256DC1257148815
:1053900010602EC333FAE433FB123B137403122B59
:1053A000101256E67403122B10126A7F60137403F6
:1053B000122B10125706A910123E0D8A0A8B0B8071
:1053C00003751000125714880F602AC333FAE433B0
:1053D000FB123B137401122B101256E67401122BB0
:1053E00010126A7F600F7401122B10125706A90F5A
:1053F000123E0D8003750F00900689805D850A823C
:10540000850B83A3A3A3A3A3A3A3A3E4F0A3F0AA60
:105410000AAB0B851482851583A3A312572412604F
:10542000F9F9123A83851282851383E0C0E085186A
:1054300082851983E0F8746528F58274071274A4D4
:10544000D0E01267FA04F0E511A2E05007AA12AB0F
:1054500013123B19851482851583E0F514A3E0F53A
:1054600015E5144515700302564985148285158388
:10547000A3A31260F960DD851482851583A3A3A31D
:10548000A3A3A3A3A3E0A2E050CA85148285158339
:10549000A3A3A3A3126A7F851482851583A3A360A7
:1054A0001F1260F9FA7901851482851583A3A3A3DD
:1054B000A31260FE1247DE8A128B13751101800F52
:1054C000125724A3A3E0F512A3E0F513751100E52C
:1054D0001245137003025447851282851383A3E09B
:1054E00065087004A3E06509600F74FF6508700427
:1054F00074FF65096003025447851282851383A3F4
:10550000A3A3A3A3A3A31226D3851282851383A3E7
:10551000A3A3A3A3A3E0FC7405122B10126B48A94C
:1055200010123DEF74021228C2E9703C8512828588
:105530001383A3A3A3A3A3A3A3A3A3A31226D385E7
:105540001282851383A3A3A3A3A3A3A3A3A3E0FC15
:105550007403122B10126B48A90F123DEF74021244
:1055600028C2E97003025447E50F2510C333240A0B
:10557000FA7B00123A778A0A8B0BEA450B7003021A
:1055800054258A828B8374D2F0851682851783A373
:10559000A3125DF68A828B83A3A3125E088A828B94
:1055A00083A3A3A3A3E51012758DE50FF0E51060AA
:1055B0003DEA2405FAEB3400FBE50A240AF8E50B82
:1055C0003400F98A828B83125E087403122B101246
:1055D00057291228ABE510C333FCE433FD8A828BD4
:1055E00083126B48123A5374031228C2800D8A82C8
:1055F0008B83A3A3A3A3A3E4F0A3F0E50F7003029E
:1056000053FDE510C333F8E433F9E50A28F8E50B58
:1056100039F9E8240AFAE93400FB850A82850B830C
:10562000A3A3A3A3A3A3A3A31256E67401122B1052
:105630001257291228ABE50FC333FCE433FD123AAD
:105640005374031228C202540F851882851983E00F
:105650006027125A4F1228B3750865750907780834
:105660001228AF7403122B10125A591228B3900645
:10567000F91226D37508008029EEFAEFFB12319B50
:10568000E9702F125A4F1228B3750865750907780B
:10569000081228AF75080078081228B39006F9128E
:1056A00026D378081228B31256EC123F1B74071247
:1056B00028C27403122B10126A7F600B7403122B22
:1056C00010126B48123B197401122B10126A7F6082
:1056D0000B7401122B10126B48123B19740512281F
:1056E000C27F100225C1EAF0A3EBF022E5162402E6
:1056F000FCE5173400FDE516126480E51712701200
:10570000F97A067B802212570EAA0AAB0B22E0FC24
:10571000A3E0FD22850A82850B83E0F8A385820A37
:1057200085830B221260FEA322E0F50CA3E0F50DA9
:10573000750E00780C2274F412239574F412293D2E
:105740008A088B09ECFEEDFF740B122B107403F02A
:10575000122B10AA82AB831244C71230F3EAFCEB7F
:10576000FD7403122B10AA82AB831244C1E9600AB4
:105770001258846010E06401600B851882851983DB
:1057800074840258358E828F83A3A3A3A3A3A3A3FB
:10579000A3E06013F460101258847016EE24141203
:1057A00073166003F4700B85188285198374820266
:1057B0005835E508240CF582E50912731964217047
:1057C00002A3E0704D851882851983748CF01258FD
:1057D000771228B312589312475574011228C2E960
:1057E0007054851882851983E4F0123D5F12588445
:1057F00070447401122B10AC82AD83125FAC12475F
:105800003DE970327D007C007900125FAC123ED31E
:1058100080241258771228B312589312474F7401FC
:105820001228C2E98518828519837007E4F0123DB9
:105830005F80037488F0E50812732BE50912587C29
:105840001228B37401122B1085820A85830B780A03
:105850001228AFE508240CF582E50912588A448025
:10586000F50B780A1228AF126336123EC774051280
:1058700028C2740C026462EE126A62EF127012F5B2
:105880000A780A2212700C6403221274B2E0F50A3C
:10589000A3E022EE240BFCEF3400FD8E828F83A365
:1058A000A3A3A3A3A3A3A3A3126B858E828F83A319
:1058B000A3A3A3A3A3A3A3E0F922C082C08374F38C
:1058C00012293D851882851983E4F004122B1012E9
:1058D00056E67403122B10AA82AB83122C5B851838
:1058E00082851983AA82AB83122C91740D1228C26F
:1058F000026B3774F612239512592F1272339007E8
:1059000037E058F508A3E059F509E5084509601C9A
:1059100078081228AF9006F91226D3127313FD7C73
:105920000012646A123F2774041228C2025166EA08
:10593000FEEBFF12700CF8A3E0F9888289832274D1
:10594000F412239574FF12293DEAFEEBFF851882BD
:10595000851983E4F090082BE07003025A3CEE2492
:105960000B12731664017003025A3C8E828F83A35C
:10597000A3125DF6EE2415127316687003A3E06996
:105980006003025A3C126267125DF3E8FAE9FB8891
:10599000828983A3A3A3A3A3A3A3A3E0FC888289F2
:1059A00083A3A3A3A3A3A3A3A3A3E0F9EC2400F5DB
:1059B00008E439F509EC45096010EC9471E99408A4
:1059C0005008900837E06402700A851882851983B0
:1059D00074808037122CD38A0A8B0BA80AA90BE893
:1059E00049602088828983A3A3A3A3E014C39402FF
:1059F0005011E82412125A41E82414125A41123D5F
:105A00005F80098518828519837481F012732AEFEB
:105A1000125A561228B37401122B108582088583FE
:105A20000978081228AF75081F75098078081228B0
:105A3000AF12626E123EC774051228C2740102646E
:105A400062F582E91274B2E508F0A3E509F022E5F7
:105A50001612732BE5171274B2E0F5087808227459
:105A6000EA12239574DB12293D8A148B15751200F6
:105A70007513001260F3F50E851882851983AC82C8
:105A8000AD837A007B00799C122DAB7A04790012E9
:105A90002CA3EAF50C851882851983E0250CF0F813
:105AA000E50EC3984003025CA4E0C3950EF509C35C
:105AB00094044003750903E50975F01AA4FAABF0E4
:105AC000123B138A128B13EA45137003025CA7750D
:105AD0000D00AE12AF13850E08025B66125CFB125E
:105AE0003A5F850A82850B83A3A3A3A3E07039855F
:105AF0000A82850B83126A7F7012125FA612730DE1
:105B0000EE2418F582EF1274A4E48016125D0AF0F8
:105B100090055EE014C0E0EE2418F582EF1274A444
:105B2000D0E0125D43E4803B90055EE004C0E0EE0F
:105B30002418F582EF1274A4D0E0125D3BC39403E5
:105B4000EE4003025C02125FA7126A6A125D3B64B8
:105B5000017003025C0FEE2415125D0DF0EE2416A9
:105B6000125D0D125D16E50DC395094003025C340C
:105B7000E508C3950C4003025C1985080AAA0A7B54
:105B800000122D0F8A0A8B0B050890054B125D221F
:105B90001244C7850A82850B83125DF6125CED12F2
:105BA0007218125D50850A82850B83A3A3A3A3A359
:105BB000A3A3A3A3A3E0C0E0EE2419F582EF12741F
:105BC000A4D0E0F07401122B10E4F0850A82850B5A
:105BD00083125DF67402122B10125E087401122BF0
:105BE00010AA82AB83122C7FE964016003025ADCA5
:105BF0007404122B10AC82AD83125D011244C702F3
:105C00005AE2125D0B125D3B64036003025B5612A5
:105C10005CF41274A4E4025B5CE50CC3950E4005D1
:105C20007508008016E50EC3950CF508800D125D11
:105C30000A125D16E50DC39509506C740E122B10F7
:105C4000AC82AD8385080AAA0A7B007987122DAB46
:105C500005087418122B10125D221244C7125CFB47
:105C6000123A5FEE2412F8EF3400F9740E122B1082
:105C7000126B4888828983EAF0A3EB125D437403B8
:105C8000125D50741D122B10E0C0E0EE2419F58255
:105C9000EF1274A4D0E0126AA77093125FA6127478
:105CA000A4E4808D750900750A00780A1228B3787B
:105CB000121228AF78091228B3E50EF509780912F7
:105CC00028B37405122B10E0FD7C00126F62123FA6
:105CD0006374051228C2E51245136007AA12AB13BC
:105CE000123B1974251228C27F0E0225C1EE241220
:105CF000F582EF22EE2415F582EF227C087D0079F3
:105D0000FFEE240AFAEF3400FB22EE2414F582EFB2
:105D10001274B2740122F0EE241AFEEF3400FF0573
:105D20000D22125DFA8E828F83E8F0A3E9F07C5F8A
:105D30007D05EE2402FAEF3400FB221274C7A3A300
:105D4000A3E022F0EE2415125D6024161274AF2237
:105D5000F0EE2417125D6024181274AF74FFF02265
:105D6000F582EF1274B67402F0EE2274F6122395E7
:105D700074F912293D8A088B0912760C123A6B8548
:105D80001882851983122AF9125DE1C0E0740412A9
:105D90002B10D0E01273ECE0FA7405122B10740192
:105DA000F07406122B107401F0900703F090070CAA
:105DB000041274DBA3125DF6900704125E08EA90E9
:105DC000070DF0E508126480E509127319900702C7
:105DD000125E00122D4BE96003122D51740702511F
:105DE00063EE2404FEEF3400FF8E828F83E02212E4
:105DF0006A61E91274B2125DFA22E0F8A3E0F922B6
:105E00001265AFAA82AB8322E8F0A3E9F02274F214
:105E100012239574FF12293D7508007E007F001241
:105E2000300F8A0A8B0B12300F8A0C8B0DA80CA92D
:105E30000D80050508125DEFE84970F7900837E01E
:105E4000600764016003025F2312300F8A0C8B0D20
:105E5000A80CA90D8003125DEFE84960378882899C
:105E600083126B4890054BE06A7003A3E06B600EF1
:105E7000126A61E91274A4126B48EA4B70D88882E6
:105E80008983125DF690054BE0687003A3E06970AA
:105E900003025F237A167B00123B138A0C8B0DAE34
:105EA0000CAF0DEE4F607C90054B125DF68E828F2D
:105EB00083125E08900540E08E828F83A3A3F012C8
:105EC0003183E98E828F83A3A3A3A3A3F090142C24
:105ED0001274BBF07C5F7D05125FAC1244C785185D
:105EE00082851983AA82AB837941124587851882FE
:105EF000851983E060089006F9125DF6800478FE4B
:105F000079FF8E828F83A3A3A3A3A3A3A3125E080A
:105F1000125FA61274A4E50AF0A3E50BF08E0A8FB7
:105F20000B050890070DE0F8E508C39850047A00C7
:105F30008022E508C398FAC3940640027A057900E6
:105F4000800DE50A126A62E50B12588AF50B09E921
:105F5000C39840EE75090078091228B3780A122810
:105F6000AFEAF50978091228B390070DE0F5097832
:105F7000091228B3AD087C007A047B07900702E081
:105F8000F9123F5D74051228C2900837E06004647E
:105F900001700BEE4F6007EEFAEFFB123B19122D6A
:105FA00051740102527CEE126A62EF22EE240BFA67
:105FB000EF3400FB22EEFAEFFB7F060225C174EC02
:105FC00012239574FF12293D8A0A8B0B7E008E0ED8
:105FD0008E0F1260F3FF851882851983AC82AD8322
:105FE0007A007B00799D122DAB851882851983E09C
:105FF000F8EFC398400302609AE0C39FFEC3940B7E
:1060000040027E0AEE75F007A4FAABF0123B138A49
:10601000088B098A0E8B0FEA450F607C750C008097
:1060200017850882850983A3A3A3A3A37403F0E5BE
:1060300008240712743A050CE50CC39E505CAC08AA
:10604000AD09850C108F12E5102512FAE43400FB1F
:10605000798B122DAB850882850983A3A3A3A3A303
:10606000E014600814601314601F80B585088285F1
:106070000983A3A3A3A3A3E480B48508828509832D
:10608000A3A3A3A3A3740180A5850882850983A384
:10609000A3A3A3A3740280967E007508007808125B
:1060A00028B3780E1228AFEEF50878081228B3EF5F
:1060B000F50878081228B37405122B10E0FD7C0057
:1060C000E50A2402FAE50B3400FBE50A126480E5D8
:1060D0000B126F73123F6974051228C2E50E450F4B
:1060E0006007AA0EAB0F123B1974011228C27F0C75
:1060F0000225C11274D41274B21260FEE022E0F8DC
:10610000A3E0F58388822274EA12239574FE122993
:106110003D8A148B15750A00750B001260F3F508A3
:10612000851882851983AC82AD837A007B0079A3C0
:1061300012474985080C851882851983125DF6C3BC
:10614000E50C98E499507F851882851983E0C39502
:106150000CFEA3E09400FFC3EE9404EF940040060D
:106160007E037F008004EE4F605CEEFAEFFBEA7581
:10617000F015A4FAA8F075F015EBA428FB123B1358
:106180008A0C8B0D8A0A8B0BEA450B603975090066
:10619000750E00850E10C3E5109EE49F502DAC0CCB
:1061A000AD0D850E12850810E5122510FAE43400B5
:1061B000FB79A2124749E50C2415F50CE50D3400D6
:1061C000F50D050E80CD75098B7E00750C00780CE1
:1061D0001228B3780A1228AFEEF50C780C1228B307
:1061E00078081228B37405122B10E0FDAC09126F69
:1061F00062123F6F74051228C2E50A450B6007AAB8
:106200000AAB0B123B197402025CE574F61223957B
:1062100074FF12293DEAFEEBFF12626712734FA36F
:10622000A3A3A3A3A3A3A3E0F9122D6FE98518826A
:10623000851983F075080078081228B37401122BB1
:106240001085820885830978081228AF750835758E
:10625000098078081228AF12626E123EC7740512C8
:1062600028C27401025163EE2413F582EF227901F2
:10627000126279FAEF3400FB22EE2402FCEF3400C4
:10628000FDEE240F2274F412239574FA12293D8A2C
:10629000088B0912722DFAEFFB122C61E9601312C0
:1062A00030F3EAFCEBFDEEFAEFFB1244C1E96401C6
:1062B000700A7401122B10E4F0A380097401122BF0
:1062C00010EEF0A3EF126A83A3A3A3A3A3A3E0F8A5
:1062D000A2E650087403122B107401F0E8A2E750F4
:1062E000087404122B107401F07405122B10E4F0E2
:1062F00004122B10AA82AB83122D9FE98518828588
:106300001983F0750A00780A1228B37401122B1051
:1063100085820A85830B780A1228AF750A34750BBB
:1063200080780A1228AF126336123EC7740512280D
:10633000C274060264627901E5082402FCE50934AE
:1063400000FDE508240FFAE5093400FB2274F6127B
:10635000239574FF12293D12592FE0F509A3E0F5AA
:1063600008A909122D5DE9851882851983F0900826
:1063700037E0700B740165087005A90912402FEE13
:10638000240B127316702E75080078081228B37447
:1063900001122B1085820885830978081228AF75B1
:1063A000083675098078081228AF12626E123EC74F
:1063B00074051228C2026262C082C083900837E06E
:1063C0007003124035026B3774F412239574EF1288
:1063D000293DEAFEEBFF1252829006F9E065087053
:1063E00004A3E06509705885188285198385820A9F
:1063F00085830B780A1228AF750A11750B00780A8D
:106400001228AF7C007D007A817B00123B9D7404D2
:106410001228C2E97029750A00780A1228B374019B
:10642000122B1085820A85830B780A1228AFAC08DC
:10643000AD0912646A123F2174031228C2802175CB
:106440000A11750B80780A1228AF78081228AF124B
:106450007313FD7C8412646A123F2D74041228C2E7
:1064600074111228C27F040225C112646E22EE2428
:1064700002FAEF3400FBEE126480EF127034F9225E
:10648000240FF5822274F112239574EB12293DEA50
:10649000FEEBFF1265B72400F508E43BF509900612
:1064A000F9E065087004A3E06509600302654F88A0
:1064B000828983A3A3E09410500F88828983A3A3C9
:1064C000E085188285198380088518828519837470
:1064D00010F0E0C0E07404122B10D0E0127330A36F
:1064E000A3A982AA83890C8A0D750E00780C122844
:1064F000AB7407122B10E0FC7D007408122B10AA5D
:1065000082AB83123A5374031228C27404122B1004
:1065100085820A85830B780A1228AF750A11750BDC
:1065200000780A1228AF7C007D007A817B00123B44
:106530009774041228C27404122B10E090072F6085
:1065400005E0D2E48003E0C2E41265AFE480088590
:1065500018828519837484F0E0C0E07401122B1056
:10656000D0E0F07402122B10E508F07403122B1027
:10657000E508F012732AEF125A561228B374021269
:106580002B1085820885830978081228AF750814B6
:1065900075098078081228AF7903126270123EC71D
:1065A00074051228C274151228C27F070225C1F093
:1065B00085188285198322125151FCA3E0FBEC223D
:1065C00074F412239574E012293D8A088B0985180A
:1065D00082851983AC82AD83123EB5900837E064A2
:1065E0000270337402122B10AE82AF831230F3EEBE
:1065F000FCEFFD1244C1E9601D1230F98A0A8B0BD1
:10660000A80AA90B851882851983E0687003A3E0A6
:106610006970030267F51232C17402122B10126BFB
:106620003E1231CBE9640170030267F57418122B36
:1066300010AA82AB831231057402122B10AC82AD0A
:10664000837418122B10AA82AB831244C1E9603202
:106650001230FF8A0A8B0BA80AA90B8518828519AC
:1066600083E0687003A3E069601885188285198348
:10667000125DF6900541125E087A417B05794B1256
:10668000458D900837E060076401600302671B12C4
:10669000749CC082C0831230F98A088B09D083D0E1
:1066A00082E065087004A3E0650960447402122B5F
:1066B00010AA82AB83122CD38A088B09A808A909D7
:1066C000E849602688828983A3A3A3A3E0640160CC
:1066D0000D88828983A3A3A3A3E06402700C7402D3
:1066E000122B10AA82AB83122CDF126B42123303DF
:1066F0001230F98A088B09A808A90985188285191A
:1067000083E0687003A3E06960117402122B101219
:106710006B3E122CB5E96003123D5F7402122B1020
:10672000126B3E1232A37900126B42122EE9740BE7
:10673000122B10E41267FAF8A3E0F9740C122B1074
:10674000125E08740B122B10AA82AB83122C7FE905
:10675000604B7C087D0079007418122B10AA82AB64
:1067600083123A5F740E122B10AC82AD8374181230
:106770002B10AA82AB831244C1E960217402122B50
:1067800010AC82AD83740E122B10AA82AB83122C34
:106790005B740B122B10AA82AB83122C9174021221
:1067A0002B10AC82AD83740E122B10AA82AB831215
:1067B0002C5B740B122B10AA82AB83122C85E96020
:1067C00034740C122B10125DF6851882851983E043
:1067D000687003A3E069601D851882851983125DC6
:1067E000F6740C122B10125E08740B122B10AA8276
:1067F000AB83122C9174200264621265AFE02274A4
:10680000F112239574F612293DEAFEEBFF7508009C
:1068100090079B126A7F70537A377B00123B13906C
:10682000079BEAF0A3EB12703A60197C377D007980
:1068300000123A5FEEFCEFFD90079B126B48123E90
:1068400085E9700B85188285198374880269BB12EB
:10685000731D242EF582E8125D10F07C917D3E9030
:1068600004D3126B481247B5026A5CE0C8242E12AA
:106870006A67F0EEFCEFFD126F78123E85E9700C4E
:106880008518828519837488F0750801750A657505
:106890000B07780A1228AF126B581226D312731DF9
:1068A0002428F582E8127319FC126B8B12731D12E7
:1068B0006A62E8126F73123DE974041228C2126A08
:1068C00070126A882431F582E812731960431270DD
:1068D0001FFAE433FB123B1390079BE02432126A49
:1068E0009D6022750C65750D07750E00780C1228D9
:1068F000AB12701FFCE433FD126B76123A53740333
:106900001228C2800C8518828519837488F0750856
:1069100001780A1228AF126B4C1226D312731D2471
:1069200011F582E8127319FC126B6D12731D242B82
:10693000F582E8126F73123DE974041228C21273D3
:106940001D2434126A882434F582E81273196035E4
:10695000127016FAE433FB123B1390079BE02435C8
:10696000126A9D6045750C65750D07750E00780CF3
:106970001228AB127016FCE433FD126B64123A530A
:1069800074031228C2E508A2E04028126A70F5825A
:10699000E8127319700890079B126FDD60157B0079
:1069A0007A007900123E8B026A5C85188285198311
:1069B0007488F08518828519837486F07409122B07
:1069C000107402126A83126FD7122B10125E088E97
:1069D000828F83A3125A591228B37401122B108587
:1069E000820885830978081228AF75082075098008
:1069F00078081228AF79017406122B10AC82AD838F
:106A0000EEFAEFFB123EC774051228C2126FBA707D
:106A1000487409122B107402F0126FCF122B10124F
:106A200070411228B37401122B10858208858309E6
:106A300078081228AF75082075098078081228AFE9
:106A400079017406122B10AC82AD8390079B126BF8
:106A500048123EC774051228C2123E7F740A0265AE
:106A6000A7E82414F58222F582E81274B274022297
:106A700090079B126F94243122F582E81274B212AF
:106A80006CC0221273ECA322F582E81274B2126A6F
:106A900093C822E9F090079BE0F8A3E022F8A3E076
:106AA000126AAEEAF0A3EB127349126CC0223400F2
:106AB000F98882898322C082C08390079B126A7FF3
:106AC0006075E0C82435126A796006126B64123B67
:106AD0001912731D2432126A796006126B76123B0A
:106AE0001912731D2412126A796009126B4C126B11
:106AF00048123B1912731D2415126A796006126B35
:106B00008B123B1912731D2429126A796009126BCA
:106B100058126B48123B1912731D242C126A7960AB
:106B200006126B6D123B1990079B126B48123B19B2
:106B300090079BE4F0A3F0D083D082022874AC824B
:106B4000AD83851882851983126B8522126F91247B
:106B500012F582E81274B222126F912429F582E8AC
:106B60001274B222126F912435126B7F22126F9130
:106B7000242C126B7F22126F912432126B7F22F52C
:106B800082E81274B6E0FAA3E0FB22126F9124159A
:106B9000126B7F2274F1122395EAFEEBFF8C088DB5
:106BA00009750A018C0C8D0D750E00780C1228AB3E
:106BB0007C177D00123A5374031228C2125CED1246
:106BC000715E125CF412716A2411F582E509127388
:106BD00019603EEE2412F8EF3400F9880C890D128A
:106BE000718B123B13126CAD6024E5082412126CF9
:106BF0009D1228ABE5082411126C8E125CEE127403
:106C0000A4126B48123A5374031228C28003750A07
:106C100000E508126A62E5091273196039EE24155D
:106C2000F8EF3400F9880C890D12718B123B1312A6
:106C30006CAD6055E5082415126C9D1228ABE50873
:106C40002414126C8E125CF51274A4126B48123A62
:106C50005374031228C2E50AA2E04028125CED1228
:106C60006A7C600C125CED1274A4126B48123B1922
:106C7000125CF4126A7C600C125CF41274A4126B45
:106C800048123B19A90A0265AA750A0080CEF5824E
:106C9000E509127012C333FCE433FDEE22F582E500
:106CA00009127012F50CA3E0F50D780C22850C8208
:106CB000850D831256E6850C82850D83126CC022E9
