:020000040000FA
:10000000021BC6022003FFFFFFFFFF02200BFFFFC2
:10001000FFFFFF022013FFFFFFFFFF02201BFFFF78
:10002000FFFFFF022023FFFFFFFFFF02202BFFFF48
:10003000FFFFFF021305FFFFFFFFFF02203BFFFF53
:10004000FFFFFF022043FFFFFFFFFF02204BFFFFE8
:10005000FFFFFF022053FFFFFFFFFF02205BFFFFB8
:10006000FFFFFF022063FFFFFFFFFF02206BFFFF88
:10007000FFFFFF022073FFFFFFFFFF02207BFFFF58
:10008000FFFFFF022083FFFFFFFFFF02208B002006
:10009000000090200000932000000100000000C834
:1000A00003000000000000000400FFFFFFFF00C28B
:1000B000010000002600FFFFFFFFFFFFFFFF04031A
:1000C00009042403540065007800610073002000D7
:1000D00049006E0073007400720075006D006500C9
:1000E0006E00740073002403540049002000430094
:1000F000430032003500330031002000550053002A
:100100004200200043004400430000035F005F0002
:100110003000580000000000000000000000000057
:1001200000000000000000000000000000000000CF
:10013000000000003031323334353637383941422F
:10014000434445467F18D418D418D418D418DC1862
:1001500074F71217BA1207A3700FA3A3E0700AA3D3
:10016000E064027002A3E060089005A47404020237
:10017000119005B6E02480600814602D14603A8068
:10018000E89005BAE070E29005B0E0600478018084
:100190000278009005BEE8F0A3E4F09005AFE060BF
:1001A000559005BEE04402804990059DE0640470CE
:1001B000B89005BEE4F0A3803C9005BAE0547FF50A
:1001C0000890059DE0640470A0E508C3940650996A
:1001D0009005BAE05480600C1202FBE06403700CDE
:1001E0007801800A1202EEE0640360F47800900562
:1001F000BEE8F0A3E4F09005A4E064046014900568
:10020000B174BEF0A37405F0A3E4F0A37402120865
:1002100002F07F02021A2674F71217BAE9FE90055F
:10022000BC1207A6701090059DE064046010900554
:10023000BA1207A660089005A474040202E89005AB
:10024000B6E0541F600814600D14602380E8900528
:10025000B8E06401600579000202EBEE9005AFF0B2
:1002600060047905800279067A001217B8807A90C6
:1002700005BAE0547FFA9005B8E070DAEAC3940654
:1002800050B4EA90620EF09005BAE05480602AEE15
:100290006004741080027440906211F0EE60047487
:1002A000038001E4C0E08A081202FBD0E0F0EE60B7
:1002B000047908802C79078028EE6004742080027D
:1002C0007480906214F0EE600474038001E4C0E076
:1002D0008A081202EED0E0F0EE6004790A8002791A
:1002E000091217B890620EE4F0790102021274A9A3
:1002F0002508F58274053400F5832274A42508F5D9
:100300008274053400F583227900120217E9700324
:100310001217A7227901120217E970031217B622E9
:10032000C082C0839005BA1207A67014A31207A654
:10033000700E9005B8E05480F8A3E0F9E849600732
:100340009005A47404801D9005B8E0906200F090C0
:10035000059D6009E06402700C74038007E064038B
:1003600070037402F0D083D0822274F51217BA9011
:1003700005B9E014600814601914604C806412130D
:100380009C120527A37B80121AEEA3F0A3E4F002CF
:1003900004DE9005B8E0FA79001213BE1205277B3F
:1003A00080E924020909EA3400FA121AEEFC19194C
:1003B000E0FAA3E92403090909EA3400FA121AEE63
:1003C000F9ECA3F0A3E980C69005B8E0F912142C6B
:1003D0009005B1EAF0A3EBF0A3E4120536A37B008D
:1003E00080A59005B1E4F0A3F0A3F0FA0204B27581
:1003F000090074037808121B91120540E493C0E0D1
:100400009005B9E0F8D0E06860030204B18A08758D
:10041000090074037808121B91120540A3E493C0ED
:10042000E09005B8E0F8D0E06860030204B18A0803
:1004300075090074037808121B91120558E493C0E3
:10044000E09005BBE0F8D0E06870668A08750900A6
:1004500074037808121B91120558A3E493C0E0902E
:1004600005BAE0F8D0E06870488A0875090074039E
:100470007808121B9112054CF988828983A3A3A3E3
:10048000A3E493F508740193F5099005B1E508F02C
:10049000A3E509F0A37480F088828983A3A3A3A3B2
:1004A000A3A3E493F8740193F99005B4E8F0A3E9E9
:1004B000F00A8A0890067A1206AC75830675827C6B
:1004C000E0C398F50AA3E099F50B7403780A121BB0
:1004D000B7C3E508950AE4950B50030203EF9005B6
:1004E000B1E0FCA3E0FDA3E0FEEC4D4E9005A4704E
:1004F000047404802CE0640460289005B41206ACF7
:100500007583057582BCC3E098A3E099500E9005F1
:10051000BC1206AC9005B4E8F0A3E9F09005A47411
:1005200001F07F04021A269005B1EAF0A3EBF0A3D4
:10053000748012053622F09005B1E0F9A3E0FA22AA
:100540001205442212054C8882F5832290067AE037
:100550002508F8A3E0350922120544A3A32274EF6D
:100560001217BA8A088B098A828B83A3A3A3A3E4F8
:1005700093602690067E1206ACE8FEE98007EE2422
:1005800004FEEF3400FF8E828F83E493F8740193AE
:10059000F9EA687002EB6970E5750C00804A9062B8
:1005A000147490F0741012069C70027940750A0160
:1005B000750B00E50E780A121B918E828F83A3A320
:1005C000A393550A6004E9D2E0F9E9906215F0EAD4
:1005D000906213F074A9250EF58274053400F5833A
:1005E000E4F090620EF0050C850882850983A3A3D0
:1005F000A3A3E493F8E50CC39840030206977A009E
:10060000790512132E8A0A8B0BEA450B60D8EA246F
:1006100002F8EB3400F9E8FCE9FD8C828D83E49369
:10062000540FF50E90620EF079008A828B83A3A39B
:10063000A3A3E4932407F510A3E4933400F5117405
:10064000037810121BB7AA108C828D8393A2E74007
:100650000302059E9062117448F0740812069C70A3
:10066000027940750A01750B00E50E780A121B919C
:100670008E828F83A3A393550A6004E9D2E0F9E93F
:10068000906212F0EA906210F0850E0A74A4250AB6
:10069000F58274050205DC7F0A021A26F0850A82BB
:1006A0008B83A3A3A3E4935403640122E0F8A3E0A3
:1006B000F922C082C0831207A37010A31207A6708C
:1006C0000AA3E064017002A3E060079005A474042B
:1006D000800C9005B1749EF0A374051207F8F00227
:1006E000036574F61217BA90059DE06402601490D9
:1006F00005BA1207A6700CA31207A670069005B9DA
:10070000E060099005A47404F00207917A00790171
:100710001217B89005B8E060637A00F91213BE8A28
:10072000088B09AE08AF09EE4F604990059D74042F
:10073000F09005B8E090059EF0750A008E828F83D8
:10074000A3A3A3A3E493F8E50AC398503D850A0840
:10075000120796E4F07A00790412132E8A828B83B2
:10076000A3A3A3E493F8120796E06870E812055E6D
:10077000050A80C89005A47404F0800E90059EF0D0
:1007800090059D7403F0F9120F5E7A00790212173A
:10079000B87F03021A26749F2508F5827405340079
:1007A000F583229005B8E0F8A3E0F9E8492274F651
:1007B0001217BA90059DE0640470199005B6E064C4
:1007C0008170111207A3700C9005BCE064017002E7
:1007D000A3E060079005A47404801A9005BAE02491
:1007E0009FF508A3E03405F5099005B1E508F0A3ED
:1007F000E5091207F8F08099F0A3E4F0A3041208C9
:100800000222F0A3E4F09005A4042274F71217BAB0
:1008100090059DE0640470109005B6E064017008D6
:100820009005BC1207A660089005A47404F08052DD
:100830009005B8E0FB9005BAE0FA90059EE0F91249
:1008400013F68A088B09AE08AF09EE4F60DA9005FF
:10085000BAE0FA79031217B89005B8E0C0E0900545
:10086000BAE0249FF8A3E03405F988828983D0E0B8
:10087000F0EEFAEFFB12055E9005BAE0FA79041289
:1008800017B802021274F81217BA74FF121B517EC5
:10089000008033900384E0F8851882851983E0682E
:1008A000700D900382E0644D7005120AD2E9FE904B
:1008B0000385E4F0900387F0851882851983E0F8BA
:1008C000900384E068F07901851882851983AA82F3
:1008D000AB831210D5E97003020983E0C0E09003F6
:1008E00087E0F8900385E0FAE82AF8E43400120C77
:1008F00086D0E0F0900387E0601114602014603E21
:1009000014604E14606414608A80AD851882851965
:1009100083E064FE70A29003877401809A90038440
:10092000E4F0851882851983E0900386F0C39480F3
:100930009003874004E40208B774020208B78518E0
:1009400082851983E0900382F09003877403020884
:10095000B7851882851983E0900383F0900386E0C1
:10096000601990038774040208B7900385E004F0CF
:10097000F8900386E06860030208B8900387740566
:100980000208B7EEF97401121B087F01021A2674DF
:10099000ED1217BA74FB121B517508047509007823
:1009A00008121B6B7402121C09120C73121B0885AF
:1009B0001882E0F47003A3E0F4600F8518828519B3
:1009C00083E0F8A3E0F9E8497003020AC674021252
:1009D0001C09E0687003A3E0697003020AA07508AF
:1009E000009005C07810121BD5800A9005C47810BD
:1009F000121B7C604A750A01750B00780A121B6B8A
:100A00007406121C09AC82AD8385100A85110BAAED
:100A10000AE50B5407FB8A0C85110D85120E851310
:100A20000F740B780C121B22A90C120C7D121B08E0
:100A3000E0F9AA08AB09120C928A088B0980089089
:100A400005C87810121BD59005CC7810121BA49005
:100A500005D07810121AB45092E4F9120C92E4F90D
:100A6000120C927402121C09EAF0A3EBF075080153
:100A70007509007808121B6B7402121C09AC82AD58
:100A8000837A247B081215D47402121B087508049B
:100A90007808121B6B7402121C09120C73121B08CB
:100AA000120C65121C09E0687003A3E069701785D9
:100AB0001882851983E0F47003A3E0F46008E84924
:100AC00060047901800279007405121B087F0C0212
:100AD0001A2674F31217BA74FC121B51900306E025
:100AE000FAA3E0F9EA2400F8F508E93408F50975F5
:100AF0000A017F007E00900383E014600C146040C4
:100B0000147003020B99020C16E5095401F9E84927
:100B10007011880C85090D7409780C121BB7A90C8B
:100B2000121638750C108E0D780C121B6B7C087D1C
:100B300003AA08AB091215D47402121B08020C1682
:100B4000880C85090D7409780C121BB7E50CC39449
:100B50007940040F020C16750A408E0B780A121B9E
:100B60006B7C097D03EAF50AE5095401F50B740273
:100B7000780A121B91AA0AAB0B74097808121BB7EA
:100B8000A908120C7D121B08900307E0A3F0900344
:100B900006E0A3F0750A43807D7508048E09780885
:100BA000121B6B7402121C09120C73121B087402C4
:100BB000121C09E0F8A3E0F9851882851983E06822
:100BC0007003A3E069603B120C65121C09E8F0A3F6
:100BD000E9F07508017808121B6B7402121C09AC4D
:100BE00082AD837A247B081215D47402121B087517
:100BF00008047808121B6B7402121C09120C731281
:100C00001B08120C65121C09E0687003A3E06970F0
:100C1000030E80027F07900305E0D2E7F0EFA3F018
:100C2000E50A900303F0744D650AF5087404250A7B
:100C3000FB7A038007120C83E062080AEAC39BA2D6
:100C4000D265D033EAF840ED120C83E508F0740168
:100C50002AF97A027B03121115EEF97404121B08AB
:100C60007F06021A26851882851983E0F8A3E0F929
:100C7000740222AC82AD837A907B00790412154F06
:100C80007402223395E0F9740228F582740339F571
:100C90008322C008C0097C088A088B09740F780871
:100CA000121BB7EAC333FAEB33FBE9A2E750047433
:100CB000014AFAE508A2E0500874216AFA74106B40
:100CC000FBE9C333F91CEC70CFD009D00822C082F5
:100CD000C0837A0079011213BE8A828B83A3A3A3F7
:100CE000A3A3A3A3E493A2E69005B05004740180EB
:100CF00001E4F09005AFE4F090620F7403F0E0A21D
:100D0000E750FB90620BE0D2E1F0D083D08222C0AA
:100D100082C08390059D7402F0A3E4F09005A4F0D6
:100D20007903120F5E75210075220080DD74F612C2
:100D300017BA90620EE0FEE4F0906211E0F50AA2AC
:100D4000E4501D7480F09005A47407F0E52145225D
:100D50006009852182852283121C1B9005A4E4F082
:100D6000E50AA2E2500B906211E4F09005A4F08035
:100D7000769005A4E064027057906216E0FF90053B
:100D8000B1121A66EFF97A207B62120F9674031281
:100D90001B088F089005B4120F33120F3EE0F8A322
:100DA000E0F9E8496004744080027448906211F0F0
:100DB000E8497014E5214522600985218285228356
:100DC000121C1B9005A4E4F0EE90620EF0020FDC02
:100DD000E064067009852182852283121C1B900520
:100DE000A4E06003020ECDE50AA2E050DB7508B670
:100DF000750905750A007808121B6779087A207B47
:100E000062120F967403121B087521007522009060
:100E100005B6E054E0601C24E07003020EA724E055
:100E2000606F24C0604524E07003020EB224E060CD
:100E30006B8030A3E014601C24FE601324FE600A63
:100E400024FC601524FE60168019120320806C12A9
:100E50000314806712030880621206E2805D1208A4
:100E60000B80589005A47404F08058A3E0600E2411
:100E7000FA600F24FE601024FE601180E61201501B
:100E8000803912036A80341206B2802F1207AE80B6
:100E90002A7521A37522171217A3801F7521A57526
:100EA00022171217A58014752140752217121740BA
:100EB000800975216E75221712176E9005A4E064E3
:100EC000047004746080027440906211F09005A474
:100ED000E06401704A750A029005B4C3E09420A34F
:100EE000E09400500A9005B4E0FF750A0A80027F82
:100EF000209005B1121A66EFF97A207B62120FBAC0
:100F00007403121B088F08120F3E120F33E50A906C
:100F10006211F0EFC394204003020DC8020DB4E04B
:100F200064056003020DC8852182852283121C1B83
:100F3000020DC8C3E09508F0A3E09400F0229005EC
:100F4000B1E0F9A3E0FAA3E0FBE92508F9EA3400EF
:100F5000FA9005B1E9F0A3EAF0A3EBF0A32274F74D
:100F60001217BA7800880874A52508F5827405124E
:100F70000F8A40F17800880874AA2508F582740564
:100F8000120F8A40F17F02021A263400F583E9F03D
:100F900008E8C394052274F61217BAEAFCEBFDE9DF
:100FA000F8740A121C09120FEC600D8C828D83E01C
:100FB000121B3B120FE170F3802274F61217BAEA8B
:100FC000FCEBFDE9F8740A121C09120FEC600D121B
:100FD0001AEE8C828D83F0120FE170F37F03021AF8
:100FE00026E9240109EA3400FA18E822E0F508A30A
:100FF000E0F509A3E0A908AA09FBE822C082C083A2
:10100000A823E8540460097823E654FBF6120D0F78
:10101000A823E8541060097823E654EFF6120D2D4A
:10102000A823E8A2E05005782354FCF690620EE075
:10103000FA7404F0906214E0A2E05042E5A8F8C20D
:10104000AF906216E0F9A3E0E9FBE8A2E792AF8077
:101050001F906228E0C0E0900391E0F8749228F5B8
:101060008274033400F583D0E0F0900391E004F043
:10107000EBFC74FF2C1B0470D8906214E4F0EA902F
:10108000620EF0E0FD7404F0906211E0A2E0403BDB
:10109000900493E0F8900492E068602F7A40900406
:1010A00092E0F8749428F58274043400F583E0909B
:1010B0006228F0900492E004F008900493E06860E5
:1010C000041AEA70D99062117401F0ED90620EF08A
:1010D000D083D0822274F81217BAE9FE7900801FFB
:1010E000900390E0FC74922CF58274033400F58335
:1010F000E08A828B83F0900390E0041211480990FB
:101100000390E0F8900391E0686005E9C39E40D049
:101110007F01021A26C082C08380228A828B83E0EC
:10112000C0E0900493E0FC74942CF58274043400C5
:10113000F583D0E0121148900493E004F0E9F874CC
:10114000FF28190470D58088F08A828B83A3AA8235
:10115000AB832212120112098FE9603112127AE96F
:10116000602B75AC00759A0053F4FEC29043FE01EB
:1011700090620FE4F0E0A2E740FB90000174CDF034
:10118000022000C2AF75C9AB75C95B80FE9005D463
:10119000780C121BD5794E1211EBD2AF850D099048
:1011A00005CC780C121BA4E5095440600AA28050BB
:1011B00004C2808002D280120FFC120885E960DC34
:1011C000C280D2919005D87808121BD5120FFC90DE
:1011D00005DC7808121BA4E5084509450A450B7093
:1011E000EBC2AF75C9AB75C95B80FE781075B60FE1
:1011F000E5B4A2E750FAE5BBC39940F118E870EDF9
:1012000022C082C08353BEFBE59DA2E650FA00785F
:10121000F8790100E824FF18E934FFF9E84970F390
:1012200075C6807480659E70FA43BE0490627074C7
:1012300008F0D28043FD01C29143FE02794A1211A7
:10124000EB90000174F5F07403F5D575D488900522
:10125000E0121BFD900594121BF1900598E4F0A399
:10126000F0A37408F0120CCE7AFF7BFF12164F53D6
:10127000F4FED29043FE010210D074F11217BA743A
:10128000FF121B519005E4780C121BD57E00D2AFE3
:101290008004C291C280120FFC79018518828519E1
:1012A00083AA82AB831210D5E96012E064F860343F
:1012B000E0640770089005D4780C121BD5A29250F8
:1012C00023A293501E850C08850D09850E0A850FF3
:1012D0000B9005DC780C121BA4E5084509450A456E
:1012E0000B70130EC2AFD280C291EEF97401121BC3
:1012F000087F08021A26850D09E50954207093D24B
:1013000080D2918091C0E074F2121820900001E028
:1013100064CD7005122033800BE064F57005121661
:101320009A8001007F010218DCD083D08222C08223
:10133000C083E9FCEAFD7A007B00800790059CE011
:1013400012138190059BE0F8A3E0F9900678E0681D
:101350007003A3E069601C1213756C700D90059BFF
:10136000E0FAA3E0FB12138180091213756D70CCB3
:10137000ED60C980B490059CE0F5838882A3E49376
:1013800022F5838882E493F890059BE028F8A3E097
:101390003400F990059BE8F0A3E9F022C082C083F5
:1013A0001213AD7A00790112132E021329900676DA
:1013B000E0F8A3E0F990059BE8F0A3E9F02274F7C8
:1013C0001217BAE9FEEAFF1213AD7A00790212137E
:1013D0002EEA4B601CEE60108A828B83A3A3A3A32A
:1013E000A3E4936E70E48009EFF874FF281F047083
:1013F000D97F02021A2674F51217BAEAFF8B087A0F
:10140000001213BE7A02790412132EEA4B60188A76
:10141000828B83A3A3E4936F70EA8A828B83A3A356
:10142000A3E493650870DD7F04021A2674F712178F
:10143000BA74F0121B51E97A007B00600C14601042
:101440001460141460180215377AF07B0502153702
:101450007AF47B050215377A187B06021537900659
:101460003CE060030215337408121C09AC82AD83A2
:101470007583057582E87408121A93750808F509D2
:101480007808121B6B7402121C09AC82AD837AE8D7
:101490007B07797F12154F7402121B087808121B04
:1014A0006B740A121C09AC82AD837402121C09AA67
:1014B00082AB831219347402121B088B09EA4509A6
:1014C000701D7509007808121B6B7C0C7D78740206
:1014D000121C09AA82AB831219E07402121B087C49
:1014E000287D008D08851882851983E5822508F5F9
:1014F00082E5833400F583E0FF8C08743C2508F80E
:1015000074063400F9EF12153F88828983F0EFC426
:1015100012153FC0E0E824FEF582E934FFF583D0E0
:10152000E0F00D74FC2CFCEDC3940840B690063C32
:10153000742AF07A3C7B067410121B080213F154D3
:101540000FFA74662AF58274063400F583E022747B
:10155000F51217BA8908740B121C09E0FEA3E0FF0C
:10156000740F5508F50A750B00740B780A121B915D
:10157000EA2400F8EB3480F9E82400E9350BF9E5BA
:10158000C7F509A2AFE433F50AC2AFE508C4540FAA
:10159000FAE5C754F84AF5C7801C88828983E08C35
:1015A000828D83F088828983A3A882A9838C828D0F
:1015B00083A3AC82AD83EEFAEFFBEA24FF1EEB348B
:1015C000FFFFEA4B70D48509C7E50AA2E092AF7F1E
:1015D00004021A2674F71217BA7409121C09E0F5EE
:1015E00008A3E0F509ED900388F0ECA3F0A3746282
:1015F000F0A37473F0A3E0541FF0E508333354FCF8
:10160000A3F074067808121BB7E50890038CF090DD
:10161000038E7412F0A37442F075D1FE75D601EA00
:10162000906271F0EBA3F0906270E0D2E1F0E0A282
:10163000E740FB7F02021A26C082C083E9C33390D1
:101640006272F0906270E0D2E0F0D083D0822274B7
:10165000F71217BA7523007524007525008A268BAA
:1016600027EA90620BF08A088B0974047808121B31
:10167000B7E508906207F08A088B097409780812A8
:101680001BB7E508543E906209F0758B00C2E84331
:10169000AC20439A027F02021A2674F71217BAE5A9
:1016A0009DA2E650FA906206E0FAA2E25035A82622
:1016B000E890620BF0F50885270974047808121B7E
:1016C000B7E508906207F085260885270974097830
:1016D00008121BB7E508543E906209F0906201E0E1
:1016E000D2E0F07823EA46F6906202E0F508750948
:1016F0000074047808121B917823E50846F608E583
:101700000946F6906204E0F5087509007409780846
:10171000121B917824E50946F6EAA2E050037525EC
:101720000174065A6003752500E58BA2E550067525
:101730008BDF7525001217B9758B00C2E80216956C
:10174000C082C0839005B7E06422700A9005A4E0CF
:10175000701A74028015E064209005A4700BE0708C
:101760000B1217959005A480E97404F08043C082A1
:10177000C0839005B7E064219005A47013E0701356
:10178000121795A37407F0A3E4F09005A404800257
:101790007404F0801C9005B17494F0A37405F0A358
:1017A000E4F02280028000C082C0839005A474040B
:1017B000F0D083D0822280EF22222518C582C0E09B
:1017C000E51934FFC583C0E0E518C3958224F910FC
:1017D000AF0885831985821880088583198582184A
:1017E000D2AFCEF0A3E520F0A37808E608F0A3DEA0
:1017F000FAEFF0A3E58124FBF8E608F0A3E608F091
:10180000A30808E608F0A3E608F0A315811581D027
:10181000E0FED0E0F815811581E8C0E0EEC0E022DE
:10182000C0D02518C582C0E0E51934FFC583C0E0EB
:10183000E518C3958224F310AF08858319858218B3
:101840008008858319858218D2AFC8F0A3E9F0A378
:10185000EAF0A3EBF0A37908E709F0A3D8FAECF0DB
:10186000A3EDF0A3EEF0A3EFF0A3D0E0F0A3D0E05F
:10187000F0A3D0E0F0A3E520F0A3E5F0F0A322125E
:10188000010002020000205104A816090001020311
:10189000010902430002010080190904000001024D
:1018A00002010005240010010424020205240600A0
:1018B00001052401000107058203400040090401DD
:1018C00000020A000000070584024000000705042A
:1018D000024000009A180000BD1800008519838599
:1018E0001882E0C0E0A3E0F9A3E0FAA3E0FBA3784C
:1018F00008E0F608A3DFFAE0FCA3E0FDA3E0FEA306
:10190000E0FFA3E0C0E0A3E0C0E0A3E0F5D0A3E0E7
:10191000F520A3E0A3F5F010AF08858319858218A0
:101920008008858319858218D2AFD082D083D0E019
:10193000F8D0E03274F81217BA7408121C09E0F8F3
:10194000A3E08015A3AA82AB838C828D83A3AC8293
:10195000AD83E824FF18E934FFF9E84960238A825F
:101960008B83E0FE8C828D83E06E8A828B8360D4D1
:10197000E0F88C828D83E0FAE8C39AFA95E0FB8068
:10198000047A007B007F01021A26121C18B900039A
:101990000219DAE479217807B800028004F709D83F
:1019A000FCE490030278BF79038002F0A3D8FCD94D
:1019B000FA9005C0AA82AB8390008E78C37901802B
:1019C00015E493A3AC82AD838A828B83F0A3AA82B1
:1019D000AB838C828D83D8E9D9E7121153121C1383
:1019E00074F71217BA7409121C09E0FEA3E0FFEAAB
:1019F000F8EBF980188C828D83E088828983F0A3CC
:101A0000A882A9838C828D83A3AC82AD838E088F3C
:101A100009E50824FF1EE50934FFFFE508450970C4
:101A2000D47F02021A26851983851882E0A3FEE07E
:101A3000A3F5207808E0A3F608DFFAE0A3FFE0A30F
:101A4000C0E0E0A3C0E0E0A3C0E0E0A3C0E010AFCE
:101A5000088582188583198008858218858319D2A4
:101A6000AFD083D0822274038000CCC0E0EDC0E010
:101A7000E518C39CCCAD1950011D10AF068C188D14
:101A80001980068C188D19D2AF121A93D0E0FDD0B0
:101A9000E0FC22CAC0E0E0A3C582CCC582C583CDEC
:101AA000C583F0A3C582CCC582C583CDC583DAE6E4
:101AB000D0E0CA22C008C3E096F50808A3E0964229
:101AC0000808A3E096420808A3E09645087001D3F1
:101AD000D008222518F58210AF08F5184002151914
:101AE0008008F51840021519D2AF85198322BB0171
:101AF00002E722C082C08389828A83BB0003E08020
:101B000002E493D083D08222C0D0251810AF08F50C
:101B100018500205198008F51850020519D2AFD0E7
:101B2000D0226016080808C6C313C618C613C61804
:101B3000C613C618C613C6D5E0EA22BB000EC08283
:101B4000C0838A838982F0D083D08222BB0101F7CF
:101B500022251810AF08F518400215198008F5184D
:101B600040021519D2AF227403800474028000C0B1
:101B7000E0F404121AD3D0E0121BE422E0667010E5
:101B800008A3E066700A08A3E066700408A3E06694
:101B900022700422600D18C6C333C608C633C6D5EA
:101BA000E0F41822E026F608A3E036F608A3E036B3
:101BB000F608A3E036F622600C08C6C313C618C6A2
:101BC00013C6D5E0F42275D00075814075180275F2
:101BD000190302198AE0F608A3E0F608A3E0F60864
:101BE000A3E0F622CAC0E0E6F0A308DAFAD0E0FAF1
:101BF00022EAF0A3EBF0A3ECF0A3EDF022E0FAA3CD
:101C0000E0FBA3E0FCA3E0FD222518F582E43519F2
:101C1000F5832200000080FB790122E473FFFFFFBF
:101C2000FFFFFFFFFFFFFFFFFFFFFFFFFFFFFFFFC4
:101C3000FFFFFFFFFFFFFFFFFFFFFFFFFFFFFFFFB4
:101C4000FFFFFFFFFFFFFFFFFFFFFFFFFFFFFFFFA4
:101C5000FFFFFFFFFFFFFFFFFFFFFFFFFFFFFFFF94
:10200000022C0902221FFFFFFFFFFFFFFFFFFFFF60
:10201000FFFFFFFFFFFFFFFFFFFFFFFFFFFFFFFFD0
:10202000FFFFFFFFFFFFFFFFFFFFFF0228FAFFFF99
:10203000FFFFFF022242FFFFFFFFFFFFFFFFFFFF47
:10204000FFFFFFFFFFFFFFFFFFFFFFFFFFFFFFFFA0
:10205000FFFFFF02215BFFFFFFFFFFFFFFFFFFFF0F
:10206000FFFFFFFFFFFFFFFFFFFFFF0228D2FFFF81
:10207000FFFFFFFFFFFFFFFFFFFFFF022799FFFFAB
:10208000FFFFFF0221BB01FFFFFFFFFFFFFFFFFF7D
:10209000102010200101FF01010503010F10FEFFB8
:1020A00081378137813781371F3619368137704C38
:1020B00000000000D84C00000000FF000000FF00FE
:1020C000010000213A0000000073392F4ABB39B7E4
:1020D0003A0000A9390000000000000000FF0101E3
:1020E000002B07000000E803A50703E80364006471
:1020F00000B8010202000800000502070401051EE5
:1021000002051E020A0A0103B80B02803E0102FE0C
:10211000FFE8030A050001FFFF0A01E00020FD00BF
:10212000020206FFFF00035F005F0030005800005E
:10213000000000000000000000000000000000009F
:10214000000000000000000000000000000000BAD5
:10215000250F260F260F260F261726C0E074F21231
:10216000255BA2AFE433FED2AFE5A7FFE5A1F508FA
:102170005F5410600612448375A1EFE5085F5408B0
:10218000600812448975A1F78024E508A2E092F066
:10219000EFA2E082F05017906198E0F8900932E0E9
:1021A000C398A2D265D0335002E8F075A1FE751A2B
:1021B00000EEA2E092AF7F01022617C0E074F21297
:1021C000255BA2AFE433FED2AF9061A4E0F8759B2B
:1021D00000E59158540860087591F71244DD80239A
:1021E000E59158541060087591EF1244E38014E5AE
:1021F00091A2E092F0E8A2E082F05007E0C2E0F0A5
:102200001246339061A3E0F8E5E9585404600E12D9
:10221000460975E9FB906193E0A2E640F2808FC029
:10222000E074F212255BA2AFE433FED2AF9061A559
:10223000E0F8E5BF585404600675BFFB12464B0238
:1022400021AEC0E074F112255BE59DA2E650FA9044
:102250006206E0FAA2E25035A82CE890620BF0F595
:1022600008852D0974047808122C28E50890620767
:10227000F0852C08852D0974097808122C28E508AA
:10228000543E906209F0906201E0D2E0F07829EAD1
:1022900046F6906202E0F5087509007404780812A9
:1022A0002B7F7829E50846F608E50946F690620492
:1022B000E0F50875090074097808122B7F782AE583
:1022C0000946F6EAA2E05003752B0174065A600332
:1022D000752B00E58BA2E55006758BDF752B001280
:1022E00047F5758B00C2E87F02022617C3E498F811
:1022F000E499F912232D8026C3E49AFAE49BFBE9C2
:1023000020E7E912232DE498F8E499F922C3E49830
:10231000F8E499F912232DE498F8E499F9C3E49AC2
:10232000FAE49BFB22EB20E7CFE920E7E0B90010BD
:10233000BB0008E88AF084F8AAF022E4FBC8FA227D
:10234000EB70227B10C833C8C933C9335007C39A16
:10235000C3DBF280069A50012ADBEAC833F4C8C90D
:1023600033F4C9FA2275F008E4C833C8C933C93355
:10237000C99AC99B5004C92AC93BD5F0ECFBC833A4
:10238000F4C8E4C9FA22080808EAC0E0EBC0E08615
:10239000F0E7A4FA180986F0E7A42AFA180986F0EB
:1023A000E7A42AFA180986F0E7A42AFA1986F0E7C2
:1023B000A4FBE5F02AFA190886F0E7A42BFBE5F068
:1023C0003AFA190886F0E7A42BFBE5F03AFA181858
:1023D0000986F0E7A4C5F02BFBE43AFA1908E7C533
:1023E000F0C6A426F6E5F03BFBE43AFA1886F0E7DF
:1023F000A4F6E5F00826F6E43B08F6E43A08F6D041
:10240000E0FBD0E0FA22122C6BB90003022469E44D
:102410007921780DB800028004F709D8FCE4900413
:10242000D178D5790B8002F0A3D8FCD9FA781A902C
:1024300020867A01BA00028007E493A3F608DAF94D
:10244000900FA5AA82AB8390209478C8790180155B
:10245000E493A3AC82AD838A828B83F0A3AA82AB80
:10246000838C828D83D8E9D9E77582337583A47410
:10247000061229BE7582A775834A74001229BEE42C
:10248000CFC0E0E4CEC0E0E4CDC0E0E4CCC0E07575
:10249000F020C3E633F608E633F608E633F608E63E
:1024A00033F6181818EC33FCED33FDEE33FEEF3342
:1024B000FFC3EC9709ED9709EE9709EF97191919E2
:1024C000400FFFEC97FC09ED97FD09EE97FE1919F7
:1024D00006D5F0BEECF709EDF709EEF709EFF719AD
:1024E0001919D0E0FCD0E0FDD0E0FED0E0FF2225BD
:1024F00018C582C0E0E51934FFC583C0E0E518C304
:10250000958224F810AF0885831985821880088584
:102510008319858218D2AFCEF0A3E520F0A3780806
:10252000E608F0A3DEFAEFF0A3E58124FAF8E60866
:10253000F0A3E608F0A3E608F0A30808E608F0A375
:10254000E608F0A315811581D0E0FED0E0F81581F2
:1025500015811581E8C0E0EEC0E022C0D02518C585
:1025600082C0E0E51934FFC583C0E0E518C3958259
:1025700024F310AF08858319858218800885831994
:10258000858218D2AFC8F0A3E9F0A3EAF0A3EBF07C
:10259000A37908E709F0A3D8FAECF0A3EDF0A3EED5
:1025A000F0A3EFF0A3D0E0F0A3D0E0F0A3D0E0F0F0
:1025B000A3E520F0A3E5F0F0A3221201000202003F
:1025C00000205104A816090001020301090243007A
:1025D0000201008019090400000102020100052423
:1025E0000010010424020205240600010524010054
:1025F000010705820340004009040100020A0000AF
:10260000000705840240000007050402400000D5D1
:10261000250000F8250000851983851882E0C0E0B8
:10262000A3E0F9A3E0FAA3E0FBA37808E0F608A38F
:10263000DFFAE0FCA3E0FDA3E0FEA3E0FFA3E0C01F
:10264000E0A3E0C0E0A3E0F5D0A3E0F520A3E0A381
:10265000F5F010AF088583198582188008858319E5
:10266000858218D2AFD082D083D0E0F8D0E0320C8F
:1026700075F0108E218F228582268583258518820C
:10268000851983E0CEA3E0CF852682852583EBC91B
:10269000EAC8EDCBECCAC3E833C8E933C9EA33CAA8
:1026A000EB33CBC3EA9EF524EB9FF523B35004AB89
:1026B00023AA24EC33CCED33CDD5F0DAAE21AF2212
:1026C00022D083D082ECC0E0EDC0E0E493A3FCE430
:1026D00093A3FDED4C600D1227DCEC24FFFCED34E0
:1026E000FFFD80EFE493A3FCE493A3FDED4C600DAC
:1026F00012287DEC24FFFCED34FFFD80EFD0E0FDDF
:10270000D0E0FCE493A3C0E0E493C0E022D083D007
:1027100082E9C0E0E493A3C386F0C5F095F0F90820
:10272000E493A386F0C5F095F0700BE493A3C399EE
:102730004005E9048002A3E475F002A42582F58235
:10274000E5F03583F583D0E0F9E493A3C0E0E493AA
:10275000C0E022851983851882E0A3FEE0A3F5205E
:102760007808E0A3F608DFFAE0A3FFE0A3C0E0E00A
:10277000A3C0E0E0A3C0E0E0A3C0E0E0A3C0E0109D
:10278000AF0885821885831980088582188583198A
:10279000D2AFD083D0820229C4C0E074F212255B8C
:1027A000A2AFE433FED2AFE58AA2E250079008F26E
:1027B000E0D2E0F0E58AA2E350079008F2E0D2E12F
:1027C000F0758A00C2EB7A107B009008EEE0F912F7
:1027D0003CA3EEA2E092AF7F01022617C0E0C3E463
:1027E0009396087401939618400FE4936670080856
:1027F000740193661870007019A3A3C3E49396083C
:102800007401939618A3A3400DD0E0D0E0D0E0026D
:1028100026FDA3A3A3A3A3A3D0E02274048008747D
:1028200003800474028000CCC0E0EDC0E0E518C372
:102830009CCCAD1950011D10AF068C188D19800667
:102840008C188D19D2AF122940D0E0FDD0E0FC22C7
:1028500074028000CCC0E0EDC0E0E518C39CCCADB4
:102860001950011D10AF068C188D1980068C188D1B
:1028700019D2AF12291ED0E0FDD0E0FC22C0E0C08A
:10288000F088F0E49366700808740193661870008D
:10289000A8F0A3A3700BD0F0D0E0D0E0D0E00226E7
:1028A000FDA3A3D0F0D0E022D083D082CCC0E0E45E
:1028B00093A360061229611470FAE493A3600612D0
:1028C0002AA31470FAD0E0FCE493A3C0E0E493C020
:1028D000E022C0E074F212255B758900C2C5900F3A
:1028E0009DE0700E7A007B109006A4E0F9123CA3E4
:1028F00080031249337F01022617C0E0C0D0E8C030
:10290000E0E9C0E0E5A8D2AFC2C7751A00A2E7A20D
:10291000E792AFD0E0F9D0E0F8D0D0D0E032CAC032
:10292000E0E493A3C582CCC582C583CDC583F0A363
:10293000C582CCC582C583CDC583DAE5D0E0CA2285
:10294000CAC0E0E0A3C582CCC582C583CDC583F0F3
:10295000A3C582CCC582C583CDC583DAE6D0E0CAE3
:1029600022C0E0E493A3D39C5010E493A3C39C4003
:102970000AD0E0D0E0D0E00228C5A3A3A3D0E02293
:102980007009080808226016181818C6C333C6084C
:10299000C633C608C633C608C633C6D5E0EA22C069
:1029A00008C3E096F50808A3E096420808A3E0965D
:1029B000420808A3E09645087001D3D00822C09FC2
:1029C000F59FE473D09F22D083D082C09FE493C050
:1029D000E0740193C0E0740293F59F222518F582FC
:1029E00010AF08F518400215198008F518400215B7
:1029F00019D2AF851983227404800A740380067487
:102A00000280027401C0E0F4041229DCD0E0122C30
:102A10004622C0D0251810AF08F5185002051980BD
:102A200008F51850020519D2AFD0D022BB0102E739
:102A300022C082C08389828A83BB0003E08002E4D3
:102A400093D083D082226016080808C6C313C61824
:102A5000C613C618C613C618C613C6D5E0EA22C3E5
:102A6000E0C696F608A3E0C696F608A3E0C696F67A
:102A700008A3E0C696F622251810AF08F518400204
:102A800015198008F51840021519D2AF22BB000EA7
:102A9000C082C0838A838982F0D083D08222BB0126
:102AA00001F722C0E0E493A36C7009D0E0D0E0D03D
:102AB000E00228C5A3A3D0E022E066701008A3E0DE
:102AC00066700A08A3E066700408A3E06622C3E00B
:102AD0009608A3E09608A3E09608A3E096A2D26524
:102AE000D03322E76670100809E766700A0809E724
:102AF0006670040809E76622C3E697F60809E697B8
:102B0000F60809E697F60809E697F622C3E096F07C
:102B100008A3E096F008A3E096F008A3E096F02260
:102B2000E657F60809E657F60809E657F60809E6F3
:102B300057F622E026F608A3E036F608A3E036F6BC
:102B400008A3E036F622E056F008A3E056F008A30A
:102B5000E056F008A3E056F022E026F008A3E036A5
:102B6000F008A3E036F008A3E036F022E627F608E6
:102B700009E637F60809E637F60809E637F622705F
:102B80000422600D18C6C333C608C633C6D5E0F4A8
:102B90001822E647F60809E647F60809E647F60868
:102BA00009E647F622E056F608A3E056F608A3E049
:102BB00056F608A3E056F622E4C396F608E496F625
:102BC00008E496F608E496F622C6F4C608C6F4C6EB
:102BD00008C6F4C608C6F4C622600D08C6A2E713EC
:102BE000C618C613C6D5E0F322C3E7960809E796D0
:102BF0000809E7960809E79622C3E09608A3E0963D
:102C000008A3E09608A3E0962275D0007581407570
:102C100018D175190400022406E0F608A3E0F608AE
:102C2000A3E0F608A3E0F622600C08C6C313C6189A
:102C3000C613C6D5E0F422E6F008A3E6F008A3E642
:102C4000F008A3E6F022CAC0E0E6F0A308DAFAD062
:102C5000E0FA22E0FAA3E0FBA3E0FCA3E0FD22EA15
:102C6000F0A3EBF0A3ECF0A3EDF022E5C754F84499
:102C700001F5C77901222518F582E43519F583227B
:102C8000C2AF75D69F020000221229C715AC0212EE
:102C900029C7E6AC021229C771AD021229C79EAE40
:102CA000021229C7B1AE021229C7C4AE021229C747
:102CB000E3AE021229C7EDAE021229C719AF021204
:102CC00029C749AF021229C711B1021229C7DCB1C5
:102CD000021229C782B2021229C7D5B2021229C72D
:102CE00056B3021229C7A0B3021229C7C9B30212F0
:102CF00029C744B4021229C79DB4021229C7FEB4E1
:102D0000021229C770B7021229C72BB9021229C7AC
:102D1000EFB9021229C72CBB021229C7FBBD021250
:102D200029C7F7C0021229C706C1021229C794C1D8
:102D3000021229C74BC2021229C793C2021229C725
:102D400009C3021229C725C3021229C759C3021297
:102D500029C798C3021229C784C4021229C73BC5D8
:102D6000021229C7D7C7021229C72DC9021229C7C3
:102D7000E2C9021229C76ECA021229C791CA0212F9
:102D800029C743CB021229C707CC021229C7C5CDD8
:102D9000021229C758CE021229C796CE021229C79D
:102DA0000DCF021229C7FECF021229C7C8D00212C6
:102DB00029C709D1021229C721D1021229C7CAD1B4
:102DC000021229C75FD4021229C7F8D5021229C7F7
:102DD00016D6021229C734D6021229C721D70212E9
:102DE00029C7E1DA021229C70080031229C73880F7
:102DF000031229C77280031229C79480031229C7BE
:102E0000A680031229C7F880031229C7588103122C
:102E100029C7E581031229C79382031229C7DB82E0
:102E2000031229C71583031229C73283031229C746
:102E30005983031229C7AF83031229C7C88303121A
:102E400029C7EE83031229C70D84031229C74B84B7
:102E5000031229C7A084031229C7C984031229C7F2
:102E60001B85031229C7DE85031229C75F8603125B
:102E700029C71987031229C7E487031229C728889D
:102E8000031229C75188031229C79388031229C73F
:102E9000C788031229C74E8A031229C7108B031251
:102EA00029C7368B031229C75C8B031229C77E8B77
:102EB000031229C78D8B031229C7988B031229C7C8
:102EC000518C031229C7B18C031229C7778D0312C5
:102ED00029C77F8D031229C70E8E031229C77D8E45
:102EE000031229C7BD8E031229C70E91031229C7E9
:102EF0000A92031229C77892031229C77593031205
:102F000029C75D94031229C79894031229C72195F4
:102F1000031229C74695031229C75795031229C7DB
:102F2000D195031229C75F96031229C7BA960312D7
:102F300029C78997031229C7AB97031229C7B698E7
:102F4000031229C7D498031229C7E798031229C787
:102F50003F99031229C74E99031229C7D699031224
:102F600029C71F9A031229C72C9A031229C7359A19
:102F7000031229C7519C031229C7B69D031229C702
:102F8000CF9D031229C70D9F031229C78A9F0312E1
:102F900029C7D3A0031229C715A1031229C751A11C
:102FA000031229C775A2031229C7E6A4031229C771
:102FB000F1A4031229C7FCA4031229C707A5031211
:102FC00029C711A5031229C71CA5031229C736A5B5
:102FD000031229C740A5031229C74AA5031229C70E
:102FE00055A5031229C760A5031229C788A5031296
:102FF00029C7E3A5031229C7EDA5031229C7F8A520
:10300000031229C71CA6031229C740A6031229C709
:10301000ABA6031229C7EFA6031229C70BA70312F9
:1030200029C786A7031229C7CDA7031229C719A844
:10303000031229C783A8031229C746A9031229C767
:1030400040AB031229C7A9AB031229C7DFAC031297
:1030500029C705AD031229C760AE031229C703B201
:10306000031229C7D6B3031229C79DB5031229C776
:1030700044B6031229C7C1B7031229C757B80312B0
:1030800029C7A9B8031229C70DB9031229C71CB94A
:10309000031229C7AABB031229C7ECBC031229C714
:1030A00068BE031229C7BABE031229C7AFBF0312F5
:1030B00029C794C1031229C721C3031229C740C3DA
:1030C000031229C795C3031229C796C4031229C73F
:1030D000BEC4031229C712C5031229C7F8C50312BB
:1030E00029C736C6031229C781C6031229C7E2C6FB
:1030F000031229C728C8031229C799C8031229C770
:10310000C3C9031229C763CC031229C794CC031285
:1031100029C725CF031229C78ECF031229C796D0FE
:10312000031229C71ED1031229C791D1031229C73F
:1031300050D2031229C7F5D2031229C795D303121F
:1031400029C727D4031229C770D4031229C7A1D4D1
:10315000031229C762D6031229C73581011229C774
:103160008181011229C76784011229C7A68401122F
:1031700029C7F084011229C7F185011229C7558694
:10318000011229C79586011229C7D986011229C7BC
:103190002B88011229C7648B011229C7A68C011242
:1031A00029C73C8D011229C70198011229C7979898
:1031B000011229C7949B011229C7D09C011229C76B
:1031C0004B9D011229C7799E011229C7CD9F01127B
:1031D00029C7B6A0011229C77EA2011229C78EA451
:1031E000011229C717A5011229C7EBA5011229C78A
:1031F00083A6011229C78DA6011229C7BBA60112F9
:1032000029C779A7011229C757A8011229C72EA9D2
:10321000011229C7C6A9011229C75AAA011229C732
:1032200070AA011229C7D1AA011229C7FAAA01124C
:1032300029C727AB011229C76CAD011229C754AEAB
:10324000011229C798AE011229C705AF011229C77B
:10325000BEAF011229C7F0AF011229C737B0011262
:1032600029C76DB0011229C7DAB0011229C72FB1E1
:10327000011229C734B1011229C788B1011229C727
:10328000D2B1011229C7D3B2011229C738B3011232
:1032900029C794B3011229C712B4011229C70AB76A
:1032A000011229C700B8011229C793B9011229C711
:1032B000E1BB011229C792BC011229C739BD011215
:1032C00029C77BBF011229C71EC0011229C75CC0D4
:1032D000011229C73BC2011229C758C2011229C7CE
:1032E00061C2011229C785C2011229C790C2011209
:1032F00029C7AFC2011229C7DEC4011229C733C5CD
:10330000011229C73DC5011229C747C5011229C7A6
:10331000A2C5011229C7FEC5011229C731C7011272
:1033200029C792C7011229C7E7C8011229C738C99E
:10333000011229C7CEC9011229C7DBCA011229C748
:1033400090CB011229C78FCC011229C7C2CD01121F
:1033500029C756CE011229C7CFCE011229C7E6CE02
:10336000011229C723CF011229C72DCF011229C766
:1033700037CF011229C742CF011229C760CF0112EE
:1033800029C7A2CF011229C7FFCF011229C724D014
:10339000011229C73ED0011229C7C4D0011229C782
:1033A000FAD0011229C729D2011229C772D20112FB
:1033B00029C75FD3011229C795D3011229C729D480
:1033C000011229C7BBD4011229C734D6011229C75B
:1033D00067D7011229C719D8011229C7E0D80112ED
:1033E00029C77FD9011229C7E3D9011229C7C1DA38
:1033F000011229C713DB011229C779DB011229C782
:1034000044DC011229C767DC011229C7F0DC011274
:1034100029C714DD011229C736DD011229C797DD3E
:10342000011229C7E4DF011229C7C1E0011229C72F
:103430006CE1011229C797E3011229C7E5E30112E4
:1034400029C732E4011229C774E4011229C7CEE466
:10345000011229C7FCE4011229C720E5011229C77E
:1034600063E5011229C78DE5011229C7C9E50112DB
:1034700029C728E6011229C795E6011229C7E0E706
:10348000011229C7FEE9011229C73FEA011229C723
:1034900068EA011229C7F3EA011229C77FEB01127A
:1034A00029C7B5EB011229C7F0EB011229C714ECAB
:1034B000011229C769EC011229C784EC011229C73E
:1034C0003DED011229C778ED011229C7D0ED011297
:1034D00029C7EFF0011229C722F1011229C7CBF148
:1034E000011229C7C8F2011229C7E9AC051229C780
:1034F00021AD051229C742AD051229C784AD0512B9
:1035000029C7E6AD051229C7F0AD051229C700AEDF
:10351000051229C737AE051229C7F9B1051229C707
:10352000BAB3051229C7DCB5051229C79BB6051227
:1035300029C768B7051229C76480041229C7A78064
:10354000041229C76181041229C76A82041229C79B
:103550008683041229C73885041229C7AC85041252
:1035600029C76286041229C77187041229C7D88720
:10357000041229C71488041229C78088041229C795
:10358000B988041229C70989041229C7928904122B
:1035900029C7368A041229C7098B041229C7D58B7B
:1035A000041229C75F8C041229C7858C041229C70D
:1035B000B28C041229C7E38C041229C7878D041228
:1035C00029C7968E041229C7A68E041229C7F68E23
:1035D000041229C7038F041229C7188F041229C7A0
:1035E000218F041229C77B8F041229C7D88F041298
:1035F00029C72290041229C73D90041229C764905C
:10360000041229C78190041229C78D90041229C77A
:10361000AD92041229C7C692041229C74F9304120F
:1036200029C76293041229C77493041229C72A94E4
:10363000041229C73495041229C7D896041229C741
:103640006397041229C76697041229C7CE970412FC
:1036500029C7DF97041229C77198041229C79F98B8
:10366000041229C7A198041229C7D998041229C79E
:103670003699041229C75A99041229C77899041255
:1036800029C7C699041229C7E69A041229C73E9B86
:10369000041229C7979B041229C7269C041229C724
:1036A0004E9C041229C7849C041229C7939C0412BF
:1036B00029C7F19C041229C7619D041229C79E9D48
:1036C000041229C7D99D041229C7049E041229C7D0
:1036D0001E9E041229C7389E041229C7F29E0412A6
:1036E00029C7FC9E041229C7389F041229C7489F86
:1036F000041229C7519F041229C7B19F041229C778
:10370000C59F041229C7CEA0041229C7E1A0041244
:1037100029C7F8A0041229C70DA1041229C7AFA117
:10372000041229C72EA2041229C7D1A2041229C744
:10373000DDA2041229C70FA4041229C72BA4041266
:1037400029C783A4041229C7BCA4041229C7D1A481
:10375000041229C733A5041229C7D2A5041229C708
:103760001DA6041229C776A8041229C722A904128B
:1037700029C752AA041229C7E6AA041229C714AD00
:10378000041229C72CAD041229C72FAD041229C772
:103790003BAD041229C74FAD041229C757AD04121F
:1037A00029C797AD041229C7B5AE041229C738AF8F
:1037B000041229C7BAAF041229C734B0041229C7AA
:1037C000EFB0041229C711B1041229C7ADB1041218
:1037D00029C7B9B1041229C7E4B1041229C7E7B156
:1037E000041229C714B2041229C729B2041229C726
:1037F0008EB2041229C7F0B3041229C779B5041296
:1038000029C704B6041229C72CB7041229C7F9B76F
:10381000041229C72AB8041229C756B8041229C7A6
:1038200038B9041229C767B9041229C726BA041285
:1038300029C7CEBA041229C742BB041229C7DDBB6F
:10384000041229C763BC041229C799BC041229C7F2
:10385000DABC041229C70FBD041229C7C794051288
:1038600029C71695051229C75395051229C7A3958F
:10387000051229C72796051229C76F98051229C76F
:10388000609A051229C70F9E051229C7B39E05121B
:1038900029C7EE9E051229C70C9F051229C76C9FE8
:1038A000051229C7949F051229C7C49F051229C76D
:1038B000F59F051229C72CA0051229C77DA0051266
:1038C00029C7C9A0051229C751F3011229C7CFF38F
:1038D000011229C705F4011229C76DF4011229C785
:1038E000E0F5011229C7FCF5011229C741F60112C2
:1038F00029C7CEF6011229C725F7011229C748F8B2
:10390000011229C76BF9011229C7C8F9011229C789
:1039100034FA011229C7DDFA011229C73EFB011250
:1039200029C787FB011229C734FC011229C73EFDB4
:10393000011229C781FD011229C7CAFD011229C739
:1039400001FE011229C7A4FE011229C753FF01126B
:1039500029C70080061229C71180061229C7768060
:10396000061229C72381061229C75C81061229C7BE
:10397000E7ED041229C792EE041229C740EF0412A2
:1039800029C7CDEF041229C7A5F2041229C758F49C
:10399000041229C70FF5041229C76DF5041229C7AF
:1039A0008DF8041229C723FA041229C7E2AA0612C5
:1039B00029C70AAB061229C7FEAB061229C747E280
:1039C000051229C7CCE2051229C7E3E2051229C76F
:1039D00058E3051229C7B6E3051229C7DFE305122C
:1039E00029C75CE4051229C7FFE4051229C764E56D
:1039F000051229C7C8E5051229C7E9E5051229C737
:103A00001AE6051229C738E6051229C75FE605122E
:103A100029C78FE6051229C7D5E6051229C73BE756
:103A2000051229C716B8051229C7C5B8051229C736
:103A3000E5B8051229C705B9051229C719B9051234
:103A400029C779B9051229C7A9B9051229C730BBF9
:103A5000051229C7D9BB051229C7BBBC051229C746
:103A60000ABD051229C74EBD051229C7B3BD0512EF
:103A700029C71FBE051229C740BE051229C7C3BEEC
:103A8000051229C7F8BE051229C768BF051229C744
:103A90000EC1051229C7DFC1051229C721C20512AF
:103AA00029C77BC2051229C7D69F061229C7E09FE6
:103AB000061229C701A0061229C701A1051229C7AC
:103AC00019A3051229C74FA4051229C736A6051246
:103AD00029C78EA6051229C74FA7051229C7D2A448
:103AE000021229C7C4A7051229C78EA8051229C723
:103AF0000AA9051229C77DA9051229C7FDA9051222
:103B000029C7FFA9051229C701AA051229C703AAB7
:103B1000051229C720AA051229C740AA051229C7DC
:103B20006AAA051229C786AA051229C70AAB051277
:103B300029C757AB051229C7D2AB051229C7CDD764
:103B4000041229C786A9021229C751D9041229C70C
:103B50007CD9041229C7FBD9041229C71FDA041221
:103B600029C73FDA041229C789DA041229C7B3DA50
:103B7000041229C7CBDB041229C701DC041229C7B0
:103B800030DC041229C763DC041229C72CDD0412BF
:103B900029C74CDD041229C794DD041229C7EEDEC3
:103BA000041229C770DF041229C764E0041229C770
:103BB0002EE1041229C760E1041229C7B9E10412F9
:103BC00029C71DE2041229C78EE2041229C7F2E2B6
:103BD000041229C730E3041229C76EE4041229C76E
:103BE000A3E4041229C700E5041229C7B7E50412AB
:103BF00029C7E5E5041229C778E7041229C7ECE7CD
:103C0000041229C71FE8041229C75BE8041229C758
:103C100074E8041229C730E9041229C7FAE904122A
:103C200029C7AEEA041229C743EB041229C7F6EBF1
:103C3000041229C77EEC041229C725ED041229C7F6
:103C4000FC78001229C74879001229C7B6790012FA
:103C500029C7D779001229C7EE79001229C79E7AA1
:103C6000001229C7A77A001229C7FA7A001229C7B9
:103C7000237B001229C7387B001229C7A17B0012C1
:103C800029C7327C001229C76E7C001229C7BA7C72
:103C9000001229C7217D001229C75A7D001229C7A9
:103CA000E07D001229C71F7E001229C7607E001226
:103CB00029C7977E001229C7A97E001229C7BB7E9B
:103CC000001229C7EE7E001229C72E7F001229C7D5
:103CD0000BED051229C74EEE051229C774EE051229
:103CE00029C785EE051229C79EF0051229C7BDF028
:103CF000051229C7CDFD031229C703FE031229C7E8
:103D00004EFE031229C79CFF031229C7008005122B
:103D100029C74B81051229C78781051229C73E8310
:103D2000051229C76783051229C7FF85051229C710
:103D30003F86051229C7E087051229C77A88051230
:103D400029C7E288051229C76F89051229C7A789E3
:103D5000051229C7E789051229C77A8B051229C7D9
:103D6000198D051229C7688F051229C7968F05126C
:103D700029C7C28F051229C7CB8F051229C72690E4
:103D8000051229C7BC90051229C7E593051229C75A
:103D90006A94051229C740B5061229C756B50612FE
:103DA00029C760B5061229C7B0B5061229C763FB3B
:103DB000041229C77CFB041229C721FC041229C75D
:103DC00061FC041229C77AFC041229C7B3FC04124F
:103DD00029C700FD041229C732FD041229C774FD4A
:103DE000041229C777FF041229C7E1FF041229C76B
:103DF000ABAE061229C700AF061229C759AF06128B
:103E000029C7DEB5061229C720B6061229C762B631
:103E1000061229C772B6061229C7FFDA021229C78D
:103E200057DB021229C709DC021229C710DD021272
:103E300029C72BDE021229C7FDDE021229C712DFB5
:103E4000021229C75CDF021229C7B2DF021229C79A
:103E50001EE0021229C731E0021229C789E00212CE
:103E600029C702E1021229C716E1021229C7ADE3F0
:103E7000021229C7C2E4021229C71DE5021229C78E
:103E800071E5021229C78DE7021229C728E802123C
:103E900029C7B8E8021229C7FAE8021229C719E9A6
:103EA000021229C764E9021229C77AE9021229C756
:103EB00091E9021229C7C0E9021229C7D2E9021208
:103EC00029C7CCEA021229C7D7EA021229C73DEB5B
:103ED000021229C795EB021229C7F2EB021229C779
:103EE00022ED021229C753ED021229C7D3EF0212A5
:103EF00029C704F0021229C792F0021229C70EF155
:103F0000021229C7DCF1021229C718F2021229C7CE
:103F100086F2021229C757F3021229C790F3021240
:103F200029C79AF3021229C79DF3021229C7A7F3E2
:103F3000021229C7C3F3021229C73EF4021229C78D
:103F400077F4021229C793F4021229C7BFF40212B0
:103F500029C7FAF4021229C715F5021229C720F55C
:103F6000021229C761F5021229C774F5021229C786
:103F70009BF5021229C7E5B1061229C7F6B1061250
:103F800029C77FB2061229C766D3051229C7B5D340
:103F9000051229C772D5051229C750D7051229C79E
:103FA00094D7051229C789D8051229C7BAD905128D
:103FB00029C7DCD9051229C738DA051229C7BCDAA6
:103FC000051229C76A50001229C79850001229C744
:103FD000E851001229C73152001229C78652001237
:103FE00029C70253001229C76B53001229C7B353C4
:103FF000001229C73954001229C7DC54001229C7FE
:104000006455001229C7A555001229C7045A001289
:1040100029C7885B001229C7C15B001229C70D5C44
:10402000001229C72D5D001229C73960001229C767
:10403000DC60001229C78C62001229C7D563001208
:1040400029C7D964001229C75365001229C71B6606
:10405000001229C78666001229C79666001229C772
:104060005367001229C78E68001229C7CD6A001253
:1040700029C7846D001229C7626E001229C7966F86
:10408000001229C72073001229C73073001229C7F4
:104090006A74001229C70F75001229C72A76001208
:1040A00029C7C576001229C7ED77001229C76C7899
:1040B000001229C777BD041229C734BE041229C7CC
:1040C000B1BE041229C7C0BE041229C749BF0412D9
:1040D00029C7A0BF041229C7ABC0041229C7D4C086
:1040E000041229C77CC1041229C7CFC1041229C7F1
:1040F0003AC2041229C799C2041229C79EC50412E4
:1041000029C74EC6041229C7BDC6041229C74DC807
:10411000041229C705C9041229C7A2C9041229C754
:1041200003CA041229C77DCA041229C776CB041218
:1041300029C760CC041229C7A6CC041229C7DFCC3A
:10414000041229C7F3CC041229C73CCD041229C795
:10415000C0CD041229C736CF041229C70CD10412CE
:1041600029C701D2041229C740D3041229C755D444
:10417000041229C7FAD4041229C76BD5041229C71F
:1041800039D6041229C799D6031229C71BD703129F
:1041900029C78BD7031229C7DBD7031229C723D816
:1041A000031229C7C5D8031229C7E7D9031229C7A3
:1041B0003EDA031229C789DA031229C7C2DA0312C9
:1041C00029C762DB031229C7B2DB031229C732DD1C
:1041D000031229C7A5DD031229C707DE031229C769
:1041E0009CDE031229C7D2DE031229C7CFDF0312D8
:1041F00029C744E0031229C754E1031229C766E224
:10420000031229C782E2031229C7BEE2031229C79B
:1042100053E3031229C75DE4031229C781E40312A3
:1042200029C797E4031229C719E5031229C74CE5EA
:10423000031229C71EE6031229C757E6031229C72E
:104240007AE6031229C794E6031229C7D3E60312BC
:1042500029C7F4E6031229C71BE7031229C733E76E
:10426000031229C71CE8031229C73CE9031229C716
:104270005AEA031229C759EC031229C7DEEC0312CC
:1042800029C702ED031229C73DED031229C767EDC7
:10429000031229C7A8EE031229C73DEF031229C74D
:1042A00082EF031229C7E6EF031229C750F0031269
:1042B00029C739F1031229C720F3031229C7E7F3ED
:1042C000031229C73BF5031229C7BCF6031229C7FD
:1042D00065F8031229C795F8031229C7A5F9031237
:1042E00029C774FA031229C7C7FA031229C7DFFACC
:1042F000031229C7D4FB031229C7ECFC031229C7F8
:1043000018FD031229C76692061229C7A192061248
:1043100029C76A93061229C7D093061229C7419468
:10432000061229C7D594061229C7AFA4061229C7B9
:10433000C1B3061229C7D2B3061229C772B4061236
:1043400029C7F6FF011229C7EEFF041229C7D8B208
:10435000061229C7E8B2061229C700B3061229C7F8
:10436000B4B3061229C7E1B0061229C766B1061216
:1043700029C7CCB1061229C752FF021229C755FF1F
:10438000021229C78EFF021229C7E1FF021229C7B4
:10439000F3FF021229C7F6FF021229C7188406127A
:1043A00029C72684061229C7A084061229C7848536
:1043B000061229C74887061229C7AD87061229C7E2
:1043C0001088061229C7F87F001229C723A20612F7
:1043D00029C75BA2061229C7ACA3061229C730A4BD
:1043E000061229C74A98061229C7EB98061229C750
:1043F0002999061229C77599061229C7399A0612F2
:1044000029C76C9A061229C7939A061229C7A59A3A
:10441000061229C7B99A061229C7C79A061229C7D0
:1044200014F2051229C769F2051229C765F40512AD
:1044300029C797F4051229C7B9F4051229C7D2F480
:10444000051229C7EBF4051229C7F5F5051229C78E
:1044500090F6051229C76DA9061229C791A906125F
:1044600029C7AAA9061229C7E9A9061229C71CAAA1
:10447000061229C74CAA061229C756AA061229C72E
:10448000BEAA061229C7C1AA061229C7CBAA0612BC
:1044900029C7D8AA061229C77595061229C79D955E
:1044A000061229C7DE95061229C7F095061229C7FC
:1044B0000B96061229C77396061229C77F96061215
:1044C00029C7DE96061229C70A97061229C7199727
:1044D000061229C73D97061229C7FE97061229C75B
:1044E0000B98061229C71C98061229C78FB7061207
:1044F00029C7A7B7061229C733E8051229C795E9C6
:10450000051229C79BE9051229C7B2E9051229C777
:10451000D3E9051229C7E9E9051229C7FDE9051202
:1045200029C77CEA051229C7E1EA051229C769EB08
:10453000051229C7E2EB051229C7BBEC051229C7F2
:10454000CBEC051229C7DAEC051229C75E7F0012F1
:1045500029C7827F001229C7AA7F001229C7D27FEC
:10456000001229C7FF9A061229C7269B061229C7DF
:10457000479B061229C7B99B061229C76B9D0612D5
:1045800029C7849D061229C79B9D061229C7A49D91
:10459000061229C7C29D061229C7CC9D061229C73B
:1045A000D69D061229C7E99D061229C73E9E06120E
:1045B00029C7779E061229C7A59E061229C7F69E0F
:1045C000061229C7479F061229C7629F061229C7EC
:1045D0006C9F061229C77D9F061229C7C39F06122A
:1045E00029C796FF051229C7E7FF051229C7CBF592
:1045F000021229C7F7F5021229C715F6021229C7B8
:1046000028F6021229C743F6021229C7A2F602129F
:1046100029C7D0F6021229C7EEFA021229C724FCD4
:10462000021229C756FC021229C7BEFC021229C772
:104630003BFE021229C763FE021229C778FE02124E
:1046400029C788FE021229C7C8FE021229C714FF13
:10465000021229C724FF021229C773AD061229C707
:1046600083AD061229C7A1AD061229C7BCAD06123B
:1046700029C7E3AD061229C704AE061229C71EAE2C
:10468000061229C756AE061229C779AE061229C7E7
:104690008CB4061229C7D2B4061229C72488061280
:1046A00029C72B88061229C78189061229C7B18913
:1046B000061229C7E189061229C7148A061229C7DA
:1046C000268A061229C7628A061229C7C88A0612D4
:1046D00029C7048B061229C74B8B061229C7788B72
:1046E000061229C7998B061229C7D4A7061229C713
:1046F000F6A7061229C71DA9061229C720A9061266
:1047000029C723A9061229C7CEAF061229C740B070
:10471000061229C77EB0061229C7BFB0061229C7E4
:1047200032CB051229C738CB051229C785CB051214
:1047300029C7A9CD051229C7E1CD051229C74DCE3C
:10474000051229C71ACF051229C75FCF051229C73D
:1047500092CF051229C71CD0051229C734D00512E3
:1047600029C7D7D1051229C7CFD2051229C72DD302
:10477000051229C78FC2051229C7A5C2051229C76C
:1047800057C3051229C752C4051229C74AC50512C5
:1047900029C7E2C5051229C721C6051229C799C62E
:1047A000051229C7FBC6051229C70BC7051229C761
:1047B00032C7051229C784C7051229C717C90512B0
:1047C00029C71CC9051229C73EC9051229C77CB6CD
:1047D000061229C7AAB6061229C7DFB6061229C7CC
:1047E000E1B6061229C7E3B6061229C7F4B60612C7
:1047F00029C7F6B6061229C7F9B6061229C742A676
:10480000061229C7B0A6061229C7D2A6061229C7C2
:104810000AA7061229C740A7061229C7378F061212
:1048200029C77A8F061229C7988F061229C7C991FE
:10483000061229C70192061229C72692061229C715
:10484000FCB6061229C7ECDA051229C7BFDB051230
:1048500029C7B6DC051229C7C7DC051229C7D8DC71
:10486000051229C724DD051229C715DF051229C73E
:1048700072E0051229C7A2E0051229C76EE10512F0
:1048800029C7CBE1051229C77CFB051229C79BFB71
:10489000051229C7DFFB051229C7FBFB051229C733
:1048A0002CFC051229C744FC051229C75CFC051223
:1048B00029C774FC051229C71AFD051229C758FD1E
:1048C000051229C762FD051229C77BFD051229C7FC
:1048D00089FE051229C79BFE051229C7A6FE0512EF
:1048E00029C7B8FE051229C7C1FE051229C7CBFE8C
:1048F000051229C72FFF051229C7CFF6051229C7B0
:10490000F6FA051229C712FB051229C7EE8B06120B
:1049100029C7048C061229C7868D061229C7B08DB7
:10492000061229C7F88D061229C7088F061229C753
:104930002FAC061229C76AB7061229C7CAFF01128F
:1049400029C76CA4021229C72DA4021229C7EDA3FE
:10495000021229C763A3021229C709A2021229C79A
:1049600073A1021229C7BAA0021229C7B59F021269
:1049700029C7699F021229C7439F021229C7809E37
:10498000021229C7C39C021229C75F9C021229C7C1
:10499000319C021229C72E9C021229C7FF9A0212CB
:1049A00029C7F299021229C7AD98021229C7E597C3
:1049B000021229C75A97021229C76896021229C7FC
:1049C000BF95021229C70695021229C7C494021284
:1049D00029C7E593021229C7ACA8021229C781A8EA
:1049E000021229C726A8021229C79BA6021229C7AC
:1049F00001A6021229C75193021229C72493021259
:104A000029C78992021229C74892021229C7D6A53E
:104A1000021229C7EB91021229C76991021229C714
:104A20003591021229C7DC90021229C7AAA50212E9
:104A300029C7F3D7041229C7AB90021229C76F8D7B
:104A4000021229C7958C021229C7438C021229C76A
:104A5000378C021229C7908B021229C75A8A021278
:104A600029C7A087021229C72D85021229C7EB8406
:104A7000021229C7A283021229C74983021229C739
:104A80007B82021229C73782021229C700800212D4
:104A900029C76A80021229C78EA5021229C73A8047
:104AA000021229C78FA70500000080FBE4738F0066
:104AB0000100C30887000100C20824000200FC0FA7
:104AC00025000200FE0F2600020000102700020051
:104AD00002102800010004102900010005108400C4
:104AE00004000610860001000A102A0001000B10C5
:104AF0002B0001000C102C00010010102D000800EC
:104B0000AA082E00010011102F0001001210300021
:104B10000100131031000100141032000100B2082E
:104B200033000100B3083400010015103600010005
:104B3000B408380001001610390001000F1083007E
:104B40000200281063000100BF08640001000D107E
:104B5000650001000E106D000100C0086E0002002B
:104B6000A808660001002710430001001810440047
:104B700002001910450001001B10460002001C1025
:104B800047000800B708480001001E104B00010054
:104B90001F10040001002A10A10001002C10370092
:104BA00001002B1088000100C4083C000100B5087A
:104BB0003D000100171049000200201067000100AD
:104BC000C1084D00020022104E00010024104F00C9
:104BD000020025103E000100B608000000000000A1
:104BE000000136360101000102010001030100014C
:104BF0000401060605020000070100340801000F49
:104C0000090401010D0100FF0E0800001702000059
:104C1000190100FF1A0100011B0100FE1C01000820
:104C20001D0200001F0100012001000121020000FF
:104C30002301000F240200002601000127010008C3
:104C4000280200FF2A0100072B0102402C0100006E
:104C50002D0100012E0100012F0100FF30010B1C6E
:104C6000310800003A0100083B01000F2F0100004D
:104C70000300710030016000110070003102200358
:104C800050048000100061000000140063007300F5
:104C900072006200430000001300060000000000E4
:104CA00004001200000000000000000004000400E6
:104CB000370037003C024400000000000000000004
:104CC0006500000035008100000005000000830041
:104CD00000006600000000000103710301030103EE
:104CE0000103010301032203020301031003000374
:104CF000000300030003000300030003420300035A
:104D00002403060300030003040312032503230303
:104D100025032303040304030003000300034403E7
:104D2000000300032303000365032100350381030F
:104D3000000305030003000300030003250323030E
:104D400001017101010101011101010131010101A3
:104D500001018001100161013B0014006301730136
:104D60007201620143010001130106013D0135009A
:104D7000040112010001000100010001040104010D
:104D8000330133013C0144013201360000010001CE
:104D900065010001350081010001050182018301E7
:104DA00000016601000100010304710402046004B3
:104DB00011047004020402040104020410046104DA
:104DC00000041404630473047204620443040004C2
:104DD0001304060400040004040412040004000484
:104DE00000040004510464000004000400044404AE
:104DF0000004000400040004650400043504810478
:104E00006400050400048304000466040004000434
:104E100003027102300160021102700201020202FB
:104E200002028002100261023A0041006302730232
:104E30007202620243020002130238000002000202
:104E40000402120200020002000200020402040234
:104E5000370037003C024402000239000002000221
:104E6000650200023502810200020502820283020D
:104E700000026602000200020000F34013006340DB
:104E80000100F3400200E53F0300EB3F0400F13F67
:104E90000500F73F06000340300027403100214065
:104EA000320033403300394035003F403400454044
:104EB00036004B401100574014005D40150015406E
:104EC0001F001B40FFFF000036000100060000002D
:104ED0000F0000000000000000000000000003FFC1
:104EE000FF00000403FFFF0000FFFF0FF4010005B7
:104EF000C4040320000100000B00000000000000BB
:104F00000003010F01AB3106E13108DB310BF93150
:104F10001009310A113202B13105CF3107B7310C16
:104F20008D310D9F3164052FFF000003EAF5E5D5B3
:104F3000D5C5B5A595958585757565655555454561
:104F4000353525251515057F36AF3685368B36A9BF
:104F5000369D369736B536BB36C136CD3691367965
:104F600036733600160F00000B150B020002220FDD
:104F7000330000070000000000000000896745239F
:104F800001EFCDAB01030507090B0D0F000204066D
:104F9000080A0C0D5A6967426565416C6C69616E5F
:104FA0006365303981379337993743369F373D36BC
:104FB000493677357135AD35B935A7355F35B335F8
:104FC000003C40423A3F3F392F4730663030171897
:104FD0001921301B1D1F3033ED370B381138F337D3
:104FE000FF37F937303016181920231A1C1E3032BB
:104FF00000011916181616182303000C0E020B04D4
:105000000B0A0708000F00034D4C4651181A2505DE
:1050100002A336C7360538D336D936D537A537ABD0
:1050200037B737B1370204020101010109028335A4
:1050300089357D35BF3500BE040A8F35A1350E0098
:10504000150004003C003C000000000028000C009B
:105050007F00E8030A03080900040010FF1E1E0871
:1050600005090301040510080F0CC082C0839007D6
:105070009DE4F0A3F07CD57D047A157B07124717D9
:10508000122F0B9008C2E07004790080027901129F
:105090004A89122F11026E0574F31224EF74F5126F
:1050A0002A7789098A088B0AE9705F74026508709B
:1050B0003E90072E7408F0750C00780C122A03EC51
:1050C000F50C780C122A03EBF50C780C122A0390DD
:1050D000100612281B90100AE0F97CB77D0890108A
:1050E00028126E16122F357407122A120251A87454
:1050F00001650860030251AB90072E7408F07B0035
:10510000AA0AA90A122F770251A874016509600939
:105110007402650960030251ABEA60067403650816
:10512000704090072E74021251CC122C53122F2370
:10513000900735E0A2E34010E9700D9007A1E0046C
:10514000F0640470031251D674036508705A900716
:10515000A2E0F8740128F0E8C39405404B1251D640
:1051600080467401650870437401650990072E70CC
:105170002C740AF07401122C76E4F07402122C766E
:105180007403F004122C76E4F0A3F0A3F0A3F074FF
:1051900008122C76E41260CE1231BD8025740A12FA
:1051A00051CC122C53122F59E960179080C8122845
:1051B0001B7A017B0090072BE0F9123DC3740412A7
:1051C0002A12740B122A127F05022753F090100A3C
:1051D000E0F990100622901006E4F0A374F8F0A312
:1051E00074FFF0A37407F02274F61224EFE9FFEACB
:1051F000FE7AD1F9123C7F8A828B83E582458370E7
:105200002A7A027B00123C61EA4B700E7A107B0016
:1052100090072BE0F9123CA380148A828B8374D10F
:10522000F0EFA3F0EEF9123C6D8003EFA3F002540F
:105230003474F71224EF890890068D12774980287C
:105240008E828F83A3A31263C760168E828F83A37F
:10525000A3A3E0F5838882A31263C7FAA908123FCB
:10526000CD8E828F83127825FFEE4F70D39006A4E7
:10527000E0FAA908123FCD1232D79006FD1259B4B8
:105280001232D102762574F11224EF890A8C087546
:105290000900750B00740F122C761260C474111281
:1052A0002C761259DC804AE50E125353F50CA3E01C
:1052B000F50DE50BC333FEE433FFEA2EF582EB3F39
:1052C000F583E0650C7004A3E0650D7019E509C372
:1052D00033FEE433FFEC2EF582ED3FF583E50CF071
:1052E000A3E50DF00509050EE50EC3950840B805C8
:1052F0000BE50BC3950A5005750E0080EBA909025A
:10530000687874F41224EF890B7D00740C122C76EB
:105310001260C480010DEDC3950B5032750A0080F8
:1053200002050AE50AC39C50ECEDC333FEE433FFEB
:10533000EA2EF582EB3F125363F509E50A12535347
:1053400065087004A3E0650970D7790180027900CF
:10535000026733C333FEE433FFE82EF582E93FF5FD
:1053600083E022F583E0F508A3E02274F61224EF2F
:105370001254077003A3E06D7017750833750907A1
:1053800078081229FFEEFA1240F97402122A1280EC
:105390001F75080275098078081229FF8C088D098D
:1053A00078081229FF1253FA12411D7404122A12AE
:1053B00002543474F61224EF1254077003A3E06D04
:1053C000701775084075090778081229FFEEFA1260
:1053D00040FF7402122A12801F7508037509807835
:1053E000081229FF8C088D0978081229FF1253FA38
:1053F00012411D7404122A12803A1275F81272DFDB
:10540000FD7C8012673C22EAFEEBFF12541FFAA3D8
:10541000E0F9EA2400FCE439FD9006FDE06C22127C
:105420006535127302F8A3E0F988828983E022745B
:1054300002122A127F0202275374F61224EF74FE1E
:10544000122A77EAFEEBFF851882851983E4F0A320
:10545000F0126885FA88828983A3A3E0F9750900B0
:10546000750800600574FF697005750882804390B7
:1054700006FDE06A7003A3E06B7020851882851931
:1054800083AA82AB83123895E9F5098518828519BC
:1054900083126D4D701C75088380179008C2E06000
:1054A00004640170057508818008E064027003756A
:1054B00008808518828519831259DCA908EEFAEF55
:1054C000FB124105E5096011851882851983126D6B
:1054D0004D6006126E10123D0302542F74F2122416
:1054E000EFEAFEEBFF750A00750B00125550123201
:1054F000D7EA65087003EB650970121238A7E91442
:10550000F50A79017A697B071238AD8003750B8043
:105510001275E1F50C780C122A03750C69750D07EC
:10552000780C1229FF780A122A0378081229FFE55D
:105530000BF5087808122A03126547F582EF1272FC
:10554000417A057B8012410B7407122A120262878E
:1055500012777A1260C888828983127855F508E438
:1055600039F5092274F61224EFE9FE7F00802E8AB5
:10557000828B83125365F9E5082400E439F509EFBD
:1055800033F8E433F9EC28F582ED39F583E508F0DA
:10559000A3E509F0EA2402FAEB3400FB0FEFC39E07
:1055A00040CD02543474E81224EF74FB122A778A37
:1055B000168B17851882851983E4F07403122C76F4
:1055C000E4F0A3F004122C76E4F0127461F50AA35F
:1055D000E0F50B850A82F583127851FEE439FF85E8
:1055E0000A82850B83A3A3E0FA850A82850B83A335
:1055F000A3A3E0F9EAF508E439F509E50A2404F57E
:105600000AE50B3400F50BEEFAEFFB123379E9648F
:10561000016016EEFAEFFB123379E9703D9006FD5A
:10562000E06E7003A3E06F6031125D1D122A03E487
:10563000F508F50978081229FF7808122A03900660
:10564000FD1228237508807808122A031259BA120D
:10565000410B7407122A120259AA1259E2881060EB
:105660002EC333FAE433FB123CFD7403122C761282
:1056700059B47403122C76126D4D60137403122CFE
:10568000761259D4A910123FFD8A0A8B0B8003753C
:1056900010001259E2880F602AC333FAE433FB1278
:1056A0003CFD7401122C761259B47401122C76123E
:1056B0006D4D600F7401122C761259D4A90F123F50
:1056C000FD8003750F0090068D805D850A82850B35
:1056D00083A3A3A3A3A3A3A3A3E4F0A3F0AA0AAB69
:1056E0000B851482851583A3A31259F21263C7F99F
:1056F000123C6D851282851383E0C0E08518828597
:105700001983E0F8746928F5827407127772D0E083
:10571000126AC804F0E511A2E05007AA12AB1312F6
:105720003D03851482851583E0F514A3E0F515E5A6
:105730001445157003025917851482851583A3A398
:105740001263C760DD851482851583A3A3A3A3A379
:10575000A3A3A3E0A2E050CA851482851583A3A366
:10576000A3A3126D4D851482851583A3A3601F1218
:1057700063C7FA7901851482851583A3A3A3A312B5
:1057800063CC124AAC8A128B13751101800F125927
:10579000F2A3A3E0F512A3E0F513751100E512459D
:1057A000137003025715851282851383A3E06508E1
:1057B0007004A3E06509600F74FF6508700474FF4E
:1057C00065096003025715851282851383A3A3A37D
:1057D000A3A3A3A3122823851282851383A3A3A3C3
:1057E000A3A3A3E0FC7405122C76126E16A9101266
:1057F0003FDF7402122A12E9703C851282851383FE
:10580000A3A3A3A3A3A3A3A3A3A3122823851282C4
:10581000851383A3A3A3A3A3A3A3A3A3E0FC74035F
:10582000122C76126E16A90F123FDF7402122A1282
:10583000E97003025715E50F2510C333240AFA7BDC
:1058400000123C618A0A8B0BEA450B70030256F387
:105850008A828B8374D2F0851682851783A3A31264
:1058600060C48A828B83A3A31260D68A828B83A3AF
:10587000A3A3A3E51012785BE50FF0E510603DEA05
:105880002405FAEB3400FBE50A240AF8E50B3400A2
:10589000F98A828B831260D67403122C761259F720
:1058A0001229FBE510C333FCE433FD8A828B83129B
:1058B0006E16123C3D7403122A12800D8A828B836D
:1058C000A3A3A3A3A3E4F0A3F0E50F70030256CBB8
:1058D000E510C333F8E433F9E50A28F8E50B39F9A4
:1058E000E8240AFAE93400FB850A82850B83A3A326
:1058F000A3A3A3A3A3A31259B47401122C76125923
:10590000F71229FBE50FC333FCE433FD123C3D7471
:1059100003122A120256DD851882851983E060275A
:10592000125D1D122A037508697509077808122986
:10593000FF7403122C76125D27122A039006FD12C3
:1059400028237508008029EEFAEFFB123379E970FD
:105950002F125D1D122A0375086975090778081250
:1059600029FF7508007808122A039006FD122823E3
:105970007808122A031259BA12410B7407122A121C
:105980007403122C76126D4D600B7403122C761278
:105990006E16123D037401122C76126D4D600B745D
:1059A00001122C76126E16123D037405122A127F14
:1059B00010022753EAF0A3EBF022E5162402FCE5DF
:1059C000173400FDE51612674EE5171272E0F97AFA
:1059D000067B80221259DCAA0AAB0B22E0FCA3E072
:1059E000FD22850A82850B83E0F8A385820A8583E0
:1059F0000B221263CCA322E0F50CA3E0F50D750E8B
:105A000000780C2274F41224EF74F4122A778A08B6
:105A10008B09ECFEEDFF740B122C767403F0122C44
:105A200076AA82AB831247171232D1EAFCEBFD74DF
:105A300003122C76AA82AB83124711E9600A125B2B
:105A4000526010E06401600B8518828519837484AC
:105A5000025B038E828F83A3A3A3A3A3A3A3A3E0CC
:105A60006013F46010125B527016EE24141275E489
:105A70006003F4700B8518828519837482025B03BE
:105A8000E508240CF582E5091275E764217002A38C
:105A9000E0704D851882851983748CF0125B451275
:105AA0002A03125B61124A237401122A12E970540C
:105AB000851882851983E4F0123F4F125B527044BF
:105AC0007401122C76AC82AD8312627A124A05E917
:105AD00070327D007C00790012627A1240C380240B
:105AE000125B45122A03125B61124A1D7401122ACD
:105AF00012E98518828519837007E4F0123F4F8000
:105B0000037488F0E5081275F9E509125B4A122A58
:105B1000037401122C7685820A85830B780A122978
:105B2000FFE508240CF582E509125B584480F50B6B
:105B3000780A1229FF1266041240B77405122A125D
:105B4000740C026730EE126D30EF1272E0F50A78D5
:105B50000A221272DA640322127780E0F50AA3E0C7
:105B600022EE240BFCEF3400FD8E828F83A3A3A3CF
:105B7000A3A3A3A3A3A3126E538E828F83A3A3A375
:105B8000A3A3A3A3A3E0F922C082C08374F3122AC3
:105B900077851882851983E4F004122C761259B4A3
:105BA0007403122C76AA82AB83122E338518828559
:105BB0001983AA82AB83122E6F740D122A12026E01
:105BC0000574F61224EF125BFD12750190073BE09D
:105BD00058F508A3E059F509E5084509601C78085F
:105BE0001229FF9006FD1228231275E1FD7C001298
:105BF00067381241177404122A12025434EAFEEB79
:105C0000FF1272DAF8A3E0F9888289832274F41211
:105C100024EF74FF122A77EAFEEBFF8518828519BC
:105C200083E4F09008B6E07003025D0AEE240B12E4
:105C300075E464017003025D0A8E828F83A3A31250
:105C400060C4EE24151275E4687003A3E069600374
:105C5000025D0A1265351260C1E8FAE9FB888289A3
:105C600083A3A3A3A3A3A3A3A3E0FC88828983A304
:105C7000A3A3A3A3A3A3A3A3E0F9EC2400F508E442
:105C800039F509EC45096010EC9471E99408500865
:105C90009008C2E06402700A8518828519837480B6
:105CA0008037122EB18A0A8B0BA80AA90BE849602B
:105CB0002088828983A3A3A3A3E014C39402501174
:105CC000E82412125D0FE82414125D0F123F4F807A
:105CD000098518828519837481F01275F8EF125DB9
:105CE00024122A037401122C768582088583097890
:105CF000081229FF75081F75098078081229FF12FC
:105D0000653C1240B77405122A127401026730F51F
:105D100082E9127780E508F0A3E509F022E5161282
:105D200075F9E517127780E0F50878082274EA1211
:105D300024EF74DB122A778A148B15751200751301
:105D4000001263C1F50E851882851983AC82AD837C
:105D50007A007B00799C122F897A047900122E81B7
:105D6000EAF50C851882851983E0250CF0F8E50E1C
:105D7000C3984003025F72E0C3950EF509C3940413
:105D80004003750903E50975F01AA4FAABF0123C5B
:105D9000FD8A128B13EA45137003025F75750D00BF
:105DA000AE12AF13850E08025E34125FC9123C4971
:105DB000850A82850B83A3A3A3A3E07039850A8299
:105DC000850B83126D4D70121262741275DBEE2416
:105DD00018F582EF127772E48016125FD8F0900502
:105DE00062E014C0E0EE2418F582EF127772D0E082
:105DF000126011E4803B900562E004C0E0EE2418DC
:105E0000F582EF127772D0E0126009C39403EE407E
:105E100003025ED0126275126D381260096401705F
:105E200003025EDDEE2415125FDBF0EE2416125F36
:105E3000DB125FE4E50DC395094003025F02E5084C
:105E4000C3950C4003025EE785080AAA0A7B00128C
:105E50002EED8A0A8B0B050890054F125FF0124752
:105E600017850A82850B831260C4125FBB1274E629
:105E700012601E850A82850B83A3A3A3A3A3A3A3F9
