:0A4F4000124E1A7F507E00024CF062
:102C5D009001ABE0FBA3E0FAA3E0F9900004122988
:102C6D008BFFAEF0E5F0600302303AEF24B0600365
:102C7D0002303AE9241CF9E43AFA9003F8EBF0A398
:102C8D00EAF0A3E9F090002AE030E6239003F8E0A3
:102C9D00FBA3E0FAA3E0F9E41228EE9003F8E0FBC1
:102CAD00A3E0FAA3E0F9900001E4F5F0022A7B908D
:102CBD00002AE030E3269003F8E0FBA3E0FAA3E05E
:102CCD00F9900001E475F0011229C3FEC3E5F094FB
:102CDD000AEE9400500302304002303A90002AE090
:102CED0020E103022EBF9003F8E0FBA3E0FAA3E07E
:102CFD00F912283E6003022EBF90001BE0FBA3E0FB
:102D0D00FAA3E0F912283EB4471C9000011228578F
:102D1D00B44513900002122857B4540A90000312C0
:102D2D0028576420600302303A7F0490001BE0FBBB
:102D3D00A3E0FAA3E0F98F8275830012285764206F
:102D4D0060178F82758300122857640D600B8F8278
:102D5D00758300122857B40A1690001BE0FBA3E000
:102D6D00FAA3E0F98F82758300E412290080050F24
:102D7D00EFB428B790001BE0FBA3E0FAA3E0F990B5
:102D8D000004122857B42F1A9000051228577012FC
:102D9D009003BB04F0A37403F0A374AEF09015C8B8
:102DAD00803590001BE0FBA3E0FAA3E02404F9E4D6
:102DBD003AFA9003BB7401F0A37403F0A374AEF060
:102DCD001241ADEF4E701E9003BB04F0A37403F0DF
:102DDD00A374AEF09015A1E493FB740193FA740201
:102DED0093F91241AD90001BE0FBA3E0FAA3E0F9CB
:102DFD00900004122857642F704D9000051228572B
:102E0D006463704390000612285764677039900010
:102E1D0007122857B46930900008122857B42F278D
:102E2D009003AEE0FBA3E0FAA3E0F9C003C002C03B
:102E3D00019003F8E0FBA3E0FAA3E0F9900006127D
:102E4D002B531237D4806B7B007A007900C003C0FE
:102E5D0002C0019003F8E0FBA3E0FAA3E0F99000B3
:102E6D0006122B539003F8E0FBA3E0FAA3E0F974EC
:102E7D00011228EE9003AEE0FBA3E0FAA3E0F9C047
:102E8D0003C002C0019003F8E0FBA3E0FAA3E0F950
:102E9D00900003122B539003B1E0FEA3E0FF9003CB
:102EAD00F8E0FBA3E0FAA3E0F9900001EE8FF01239
:102EBD002A7B9003F8E0FBA3E0FAA3E0F912283E89
:102ECD0064037003022FA990002AE020E003022F73
:102EDD00F49001ABE0FBA3E0FAA3E0F9900010122F
:102EED00298BFFAEF09003F8E0FBA3E0FAA3E0F925
:102EFD0090000112298BC39FE5F09E4061E92401EA
:102F0D00F9E43AFAC003C002C001122960FFAEF025
:102F1D009001ABE0FBA3E0FAA3E0F99000101229B9
:102F2D008BFDC3EF9DFFEE95F0D001D002D0038F46
:102F3D00F0122A5C9001ABE0FBA3E0FAA3E0F9905C
:102F4D00001012298BFF9003F8E0FBA3E0FAA3E039
:102F5D00F9900003A3E5F08FF0122A0F801490036F
:102F6D00F8E0FBA3E0FAA3E0F9900001E4F5F0121C
:102F7D002A7B9003F8E0FBA3E0FAA3E0F9900001AF
:102F8D0012298B45F07060900006122B23E94A4BF5
:102F9D006002804D90002A7410F0804B90002AE062
:102FAD005401FF9003F8E0FBA3E0FAA3E0F99000D1
:102FBD0006122B23900002122857FD3395E0FC904A
:102FCD00020075F003ED122AA8EC75F003A4258319
:102FDD00F583A3E0FAA3E0F5828A83122BB0EF60AC
:102FED0006124BA41237D49003F8E0FBA3E0FAA32A
:102FFD00E0F912283E6403603A90002AE020E333A2
:10300D00900003122B23900014EBF0A3EAF0A3E938
:10301D00F09003F8E0FBA3E0FAA3E0F990000112B1
:10302D00298BFF9001AFE5F0F0A3EFF02290002A7D
:03303D007420F00C
:01304000226D
:104BA4009003F8E0FBA3E0FAA3E0F9900006A3E485
:104BB40075F001122A0F9003F8E0FBA3E0FAA3E0DA
:104BC400F9900006122B2312283EB40AD39003F85E
:104BD400E0FBA3E0FAA3E0F9900006A3E475F0017A
:034BE400022A0F93
:1037D4009003F8E0FBA3E0FAA3E0F9900006122BB3
:1037E4002312283E24DD700302397224F57003028B
:1037F400397824CB700302387E24FA70030238F13E
:1038040024F5600302398F9003F8E0FBA3E0FAA3E8
:10381400E0F974021228EE9003F8E0FBA3E0FAA3A7
:10382400E0F9900006122B23E92402F9E43AFAC0E5
:1038340003C002C0019003F8E0FBA3E0FAA3E0F99F
:10384400900003122B53E4FF9003F8E0FBA3E0FA8B
:10385400A3E0F9900003122B238F827583001228B2
:1038640057640A60030F80E09003F8E0FBA3E0FADA
:10387400A3E0F9900001E402396D9003F8E0FBA3A2
:10388400E0FAA3E0F974031228EE7B007A007900D1
:10389400C003C002C0019003F8E0FBA3E0FAA3E078
:1038A400F9900003122B539003F8E0FBA3E0FAA372
:1038B400E0F9900001E4F5F0122A7B900006122B47
:1038C40023900002122857FF3395E0FE9002007502
:1038D400F003EF122AA8EE75F003A42583F583A361
:1038E400E0FAA3E0F5828A83E4FF022BB09003F8A8
:1038F400E0FBA3E0FAA3E0F974011228EE9003F8C8
:10390400E0FBA3E0FAA3E0F9900006122B23E924DC
:1039140002F9E43AFA9003BB7401F0A37403F0A330
:1039240074B3F01241ADEF4E700690002A7420F08B
:103934009003B3E0FBA3E0FAA3E0F9C003C002C024
:10394400019003F8E0FBA3E0FAA3E0F9900003126E
:103954002B539003B6E0FEA3E0FF9003F8E0FBA333
:10396400E0FAA3E0F9900001EE8FF0022A7B124BFB
:10397400A40237D49003F8E0FBA3E0FAA3E0F974BF
:10398400041228EE90002A7410F02290002A742069
:01399400F042
:01399500220F
:104B16007374617274696E672E2E2E2E2E2E0D0AF8
:104B260000313131313131313131313131313131A0
:104B360031313131313131310D0A003232323232D6
:104B4600323232323232323232323232323232323F
:094B56003232323232320D0A0013
:10409A00124EE87BFF7A4B7916124B5F124F52127F
:1040AA004D30124AC67BFF7A4B7927124B5F124F6B
:1040BA0040E4780EF67BFF7A4B7941124B5F124F40
:1040CA001B9002C8EEF0A3EFF0E4780FF608F6783A
:1040DA001006E618700106780FB601F308B6F4EF79
:1040EA009002C8E07002A3E07056780DF6780DE6EB
:1040FA00FFC3940A5038EF75F025A42439F97400E7
:10410A0035F0FA9001AB7401F0A3EAF0A3E9F07F6D
:10411A0002121606D39002C9E094009002C8E094F5
:10412A000040061235D4124EFA780D0680BF780E7A
:10413A0006E664147088124A0DE4780EF60240C846
:10414A007F007E08124F559001E9E0B50624A3E0EE
:10415A00B5071F1248C87F01121606D39002C9E09C
:10416A0094009002C8E0940050030240C81235D46B
:10417A00802B7F067E08124F559001E9E06E70038E
:10418A00A3E06F60030240C8123E22D39002C9E046
:10419A0094009002C8E0940050030240C8124EFAFC
:0341AA000240C808
:0C4F29009003FBEBF0A3EAF0A3E9F022F8
:1045CC00440017C0A8015844002CC0A801014400A5
:0545DC0030FFFFFF00AD
:104AC600E49001AEF09001AEE0FFC3940A5018EFF7
:104AD60025E02400F582E43400F583E4F0A3F090A9
:104AE60001AEE004F080DEE49001AEF09001AEE0AD
:104AF600FFC3940A501975F025EFA42452F582E5F8
:104B0600F03400F583E4F09001AEE004F080DD229D
:104BE700E49001AEF09001AEE0FDC3940A5033EDBE
:104BF70025E02400F582E43400F583E0FCA3E0B56A
:104C07000718ECB506149001AEE025E02400F58204
:104C1700E43400F583E4F0A3F0229001AEE004F061
:034C270080C32225
:104CF000E49001AEF09001AEE0FDC3940A5030EDB7
:104D000025E02400F582E43400F583E0FCA3E04CC8
:104D100070159001AEE025E02400F582E43400F542
:104D200083EEF0A3EFF0229001AEE004F080C62203
:0F4A6B0090002AE04402F09002C8E0FEA3E0FFB2
:104A7A009001ABE0FBA3E0FAA3E02408F9E43AFAD8
:104A8A00AD07AC0612484A900026E0FF9001ABE061
:104A9A00FBA3E0FAA3E0F9900008EF1229009000C6
:104AAA0027E0900009122900900028E090000A12DD
:0C4ABA002900900029E090000B02290068
:101606009001ABE0F9A3E0FAA3E09003AAC9F0A326
:10161600EAF0A3E9F090001B7401F0A37402F0A3B2
:101626007413F0EF640260030217AD900037E00414
:10163600F07016900036E004F0700E900035E0046D
:10164600F07006900034E004F0E49002C8F0A3F0D5
:101656009003AAE0FBA3E0FAA3E0F9900019122890
:1016660057FF64076004EFB4052690001A74011250
:1016760028BB90001A12285764786003022740900E
:1016860003AAE0FBA3E0FAA3E0F99000190225BB48
:101696009003AAE0FBA3E0FAA3E0F9900019122850
:1016A60057700302274090001012298B45F07003F3
:1016B60002177E90001A74FF1228846003022740E6
:1016C60090001B122857FF64086013900019122817
:1016D60057FE64026004EEB40117EFB403139000E2
:1016E60019E412290090002A7480F0122C5D02235E
:1016F600259003AAE0FBA3E0FAA3E0F990001B12F1
:101706002857FFD3940440067E047F0480007403A8
:10171600A807088002C333D8FC90001A122900904B
:10172600001B74011228BB9001D8E004F0700690EB
:1017360001D7E004F0900019122857540F147003D3
:10174600021EA624FD70030221D224FE700302218C
:10175600D224FE70030221D224056003022740E44E
:101766009002C8F0A3F09001AFF0A3F090002A74A5
:1017760004F0122C5D0224159003AAE0FBA3E0FA04
:10178600A3E0F9900019122857540F64036003026E
:1017960027409002C8F0A3F09001AFF0A3F09000AC
:1017A6002A7408F00223029001B4E004F070069057
:1017B60001B3E004F09001EBE06445601F9001B2D4
:1017C600E004F070069001B1E004F09001B8E00486
:1017D600F070739001B7E004F00227409002C8E071
:1017E600FF9001EDE0FDEF6D7001E46011E0FE9009
:1017F60002C9E0FDEDFF9002C8EEF0A3EFF0900203
:10180600C9E0FF9001EEE0FDEF6D7001E4600F901E
:1018160002C8E0FEEDFF9002C8EEF0A3EFF09001E3
:10182600F1E0543F7004A3E0601F9001B2E004F0C1
:1018360070069001B1E004F09001BEE004F070067D
:101846009001BDE004F0022740900017E0FEA3E0FF
:10185600FF9001FBE06E7003A3E06F60119001B290
:10186600E004F070069001B1E004F0022740900019
:1018760019E0FEA3E0FF9001FDE06E7003A3E06FA8
:1018860060119001B2E004F070069001B1E004F03E
:10189600022740124F4AEFF47002EEF4601F9001E7
:1018A600B2E004F070069001B1E004F09001C0E0EF
:1018B60004F070069001BFE004F00227409001F4A6
:1018C600E0640670030219B19001F4E06401601F40
:1018D6009001B2E004F070069001B1E004F09001CE
:1018E600C2E004F070069001C1E004F002274090C7
:1018F60001C6E004F070069001C5E004F09001FF17
:10190600E06408601F9001C4E004F070069001C313
:10191600E004F09001CAE004F070069001C9E0040A
:10192600F0022740E49001FFF0C3900202E094FF2A
:10193600900201E094F74006A3E02401800690029D
:1019460002E02400F0900201E03408F09001FBE090
:10195600FEA3E0FF900024EEF0A3EFF09001F7E085
:10196600FDA3E09001FBCDF0A3EDF09001F7EEF0C2
:10197600A3EFF09001FDE0FEA3E0FF900024EEF05F
:10198600A3EFF09001F9E0FDA3E09001FDCDF0A3F7
:10199600EDF09001F9EEF0A3EFF09001C8E004F04D
:1019A60070069001C7E004F00227319001CEE004F2
:1019B600F070069001CDE004F0123B50EFF4700297
:1019C600EEF4601F9001CCE004F070069001CBE0CD
:1019D60004F09001D2E004F070069001D1E004F02A
:1019E6000227409003AA7401F0A37400F0A374398F
:1019F600F09003AAA3E0FAA3E0C39001AB9582EAB4
:101A06009583506B9003AAE0FBA3A3E0F99000191D
:101A1600122857604E90000412298BFF900201E0B5
:101A260065F07003A3E06F703A90000612298BFFF1
:101A36009001FFE0B5F02CA3E0B50727122960FF5F
:101A46009001F7E0B5F01CA3E0B50717900002126D
:101A5600298BFF9001F9E065F07003A3E06F700336
:101A6600021ECF9003ABE475F025122934808290D4
:101A7600020CE0543F64027054900201E0FFA3E0C0
:101A8600900024CFF0A3EFF0E49001AEF09001AE09
:101A9600E0FFC3940A5028EF25E02400F582E434E1
:101AA60000F583E0FEA3E0FF900024E06E7003A340
:101AB600E06F7003021BEC9001AEE004F080CE9064
:101AC60001DCE004F070069001DBE004F090020C0B
:101AD600E030E2030227409001D6E004F070069061
:101AE60001D5E004F090020C7414F09002C8E4F002
:101AF600A37428F090020B7450F0900206E0FF9059
:101B060001AEF090020AE0900206F090020AEFF0B1
:101B1600900205E0FF9001AEF0900209E090020508
:101B2600F0900209EFF0900204E0FF9001AEF09011
:101B36000208E0900204F0900208EFF0900203E041
:101B4600FF9001AEF0900207E0900203F0900207CA
:101B5600EFF090020AE004F07016900209E004F03B
:101B6600700E900208E004F07006900207E004F0A0
:101B76009001FFE0FEA3E0FF900024EEF0A3EFF05B
:101B8600900201E0FDA3E09001FFCDF0A3EDF0A3EC
:101B9600EEF0A3EFF09001FBE0FEA3E0FF9000243F
:101BA600EEF0A3EFF09001F7E0FDA3E09001FBCD8E
:101BB600F0A3EDF09001F7EEF0A3EFF09001FDE059
:101BC600FEA3E0FF900024EEF0A3EFF09001F9E011
:101BD600FDA3E09001FDCDF0A3EDF09001F9EEF04C
:101BE600A3EFF00226B09003AAE4F0A3F0A3F090CE
:101BF60001AEF09001AEE0FFC3940A4003021C9CC4
:101C060075F025EFA42452F582E5F03400F583E063
:101C1600701E9001AEE075F025A42439F9740035E4
:101C2600F0FA9003AA7401F0A3EAF0A3E9F0806643
:101C36009001AEE0FF75F025A42452F582E5F0345C
:101C460000F583E0640770459003AAE0FBA3E0FA81
:101C5600A3E0F94A601B90001A122857FE75F0257A
:101C6600EFA42453F582E5F03400F583E0D39E40DB
:101C76001C9001AEE075F025A42439F9740035F006
:101C8600FA9003AA7401F0A3EAF0A3E9F09001AE7A
:101C9600E004F0021BF99003AAA3E0FAA3E04A705D
:101CA600119001DAE004F070069001D9E004F00228
:101CB60027409003AAE0F9A3E0FAA3E09001ABC99C
:101CC600F0A3EAF0A3E9F09003AAE0FBA3A3E0F9EE
:101CD60090001A7403122900900018740312290048
:101CE600900016E41229009000177404122900903F
:101CF600001BE4122900900201E0FFA3E09000041B
:101D0600CF8FF0122A7B9001FFE0FFA3E090000640
:101D1600CF8FF0122A7B9001F7E0FFA3E0CF8FF080
:101D2600122A5C9001F9E0FEA3E0FF9003AAE0FB13
:101D3600A3E0FAA3E0F9900002EE8FF0122A7B905E
:101D460000197401122900900034E090000C122949
:101D560000900035E090000D122900900036E090CA
:101D6600000E122900900037E090000F1229009013
:101D76000010E475F001122A7B900206E090000B39
:101D8600122900900205E090000A12290090020430
:101D9600E0900009122900900203E0900008122941
:101DA600007F017E00124A7A90020BE054F0D39431
:101DB600505003021EA6E49001AEF090020BE0C460
:101DC600540F24FBFFE434FFFEEF7802C333CE3317
:101DD600CED8F9FF9001AEE0FDC39FEE6480F874A3
:101DE60080984003021EA674132DF582E43402F592
:101DF60083E0900038F07003021EA6900038E0FFE2
:101E0600B401089001AEE004F080B0EF6402706A9D
:101E16009001AEE0FD2414F582E43402F583E0641B
:101E260004705774152DF582E43402F583E0FE74D0
:101E3600162DF582E43402F583E0FDEDFF900024D3
:101E4600EEF0A3EFF0D394B3EE940040067E007F4D
:101E5600B38008900024E0FEA3E0FF9003AAE0FB15
:101E6600A3E0FAA3E0F9900012EE8FF0122A7B901D
:101E76000014EE8FF0122A7B80269001AEE0FF243C
:101E860014F582E43402F583E0601574142FF582AC
:101E9600E43402F583E0FF9001AEE02FF0021DC1AD
:101EA60090020C7412F09002137402F0A37404F002
:101EB600E4A3F0A374B3F09002C8E4F0A3742CF08A
:101EC60090020B7460F00225D79003AAE0F9A3E014
:101ED600FAA3E09001ABC9F0A3EAF0A3E9F0E4901D
:101EE600002AF090020CE030E21A9003AAE0FBA36D
:101EF600E0FAA3E0F9900019E412290090002A7490
:101F0600200224A890020BE0C4540F25E025E0FF30
:101F16009001AEF0C39002C9E09FFF9002C8E09422
:101F260000CF24ECCF34FFF0A3EFF0D39002C9E04A
:101F360094009002C8E09400404F9003AAE0FBA3EF
:101F4600E0FAA3E0F9900008122857FF900203E098
:101F56006F60030225C2900009122857FF90020401
:101F6600E06F60030225C290000A122857FF900214
:101F760005E06F60030225C290000B122857FF9000
:101F86000206E06F60030225C290020CE020E40323
:101F96000220E09003AAE0FBA3E0FAA3E0F9900098
:101FA6001012298BFDACF04C70030220E0E9240CE2
:101FB600F9E43AFA12484A900026E0FF900207E058
:101FC6006F60030220E0900027E0FF900208E06FB8
:101FD60060030220E0900028E0FF900209E06F60B5
:101FE600030220E0900029E0FF90020AE06F600300
:101FF6000220E0900026E0FF9003AAE0FBA3E0FAAF
:10200600A3E0F990000CEF122900900027E0900061
:102016000D122900900028E090000E122900900071
:1020260029E090000F12290090001B122857600328
:032036000220C3C2
:102039009003AAE0FBA3E0FAA3E0F990001A1228A2
:1020490057FF900018122857C39FFF9003ADF090D7
:102059000016122857131313541FFEC3EF9E900343
:10206900ADF0E0FF9000161228BBC3EF64809480A6
:102079005007EFF4049003ADF09003ADE0FF900337
:10208900AAE0FBA3E0FAA3E0F9900017122857137E
:1020990013543FFEC3EF9E9003ADF0900017122832
:1020A900BB900016122857131313541FFF900017E3
:0A20B9001228572F9000181229007A
:1020C30090002A7401F09003AAE0FBA3E0FAA3E0D6
:1020D300F990001812285790001A1229009003AAA9
:1020E300E0FBA3E0FAA3E0F9900019122857540F7C
:1020F30014B40800400302274090210A75F003A49A
:10210300C58325F0C5837302212202274002215F84
:102113000224AF02254202259B0225C20224879096
:10212300002AE020E00302274090001974031229DB
:102133000090002A7440F0900010E4F5F0122A7B1E
:10214300D39002C9E094009002C8E09400400312C7
:102153004A6BE49001AFF0A3F002230290020CE07B
:1021630030E06F9003AAE0FBA3E0FAA3E0F990004C
:102173001012298B45F060030227409002C9E02426
:1021830001FF9002C8E03400FE124A7A90002A74DC
:1021930010F0D39002C9E094009002C8E09400408C
:1021A3000790002AE04402F0122C5D9003AAE0FBA2
:1021B300A3E0FAA3E0F9900010E475F001122A7B82
:1021C300900019740812290090001BE412290002E0
:1021D300236090020CE030E560900211A3E09000D0
:1021E3002BF0E0FFC39002C9E09F9002C8E0940087
:1021F3005007E0A3E090002BF090002BE0FF7E005F
:10220300124A7A90002BE0FFC39002C9E09FF0903E
:1022130002C8E09400F090001BE0F9A3E0FAA3E009
:10222300A3C9F0A3EAF0A3E9F090002BE0FF90002C
:102233001CE48FF0122934802FE490002BF09002DD
:1022430011E0FEA3E0FDEDFF90001CEE8FF01229DC
:1022530034900211E0FEA3E0FDEDFFC39002C9E05C
:102263009FF09002C8E09EF0D39002C9E0940090E2
:1022730002C8E0940040179003AAE0FBA3E0FAA38E
:10228300E0F990001912285720E403124A6B9002D8
:102293000DE0FEA3E07C002400FFEC3EFE90002452
:1022A300F0A3EFF09003AAE0FBA3E0FAA3E0F99018
:1022B300001412298BFDACF0D3EF9DEE9C500A90D5
:1022C3000024E07002A3E07008900024ECF0A3ED7A
:1022D300F0900024E0FEA3E0FF9003AAE0FBA3E05C
:1022E300FAA3E0F9900012EE8FF0122A7B90002AF5
:1022F300E054037003022740E49001AFF0A3F0120F
:102303002C5D90002AE030E522E49001AFF0A3F0C9
:102313009003AAE0FBA3E0FAA3E0F9900019E4120A
:10232300290090020C7414F00225C890002AE030B2
:10233300E434E49001AFF0A3F09003AAE0FBA3E040
:10234300FAA3E0F9900010E475F001122A7B9000E3
:1023530019740412290090001BE412290090020C46
:102363007411F00225C8D39001B0E094009001AF3E
:10237300E09400407790002AE030E0149003AAE054
:10238300FBA3E0FAA3E0F9900010E4F5F0122A7B36
:102393009003AAE0FBA3E0FAA3E0F990001012294E
:1023A3008B45F0702A90001212298BFFAEF0D39068
:1023B30001B0E09F9001AFE09E4005EEF0A3EFF087
:1023C3009001AFE0FFA3E0900010CF8FF0802E903C
:1023D30003AAE0FBA3E0FAA3E0F990001012298B13
:1023E300FF9001AFE5F0F0A3EFF080149003AAE0B3
:1023F300FBA3E0FAA3E0F9900010E4F5F0122A7BC6
:102403009003AAE0FBA3E0FAA3E0F990001BE41217
:102413002900900014E0F9A3E0FAA3E090001BC99F
:10242300F0A3EAF0A3E9F0D39001B0E094009001A7
:10243300AFE0940040329003AAE0FBA3E0FAA3E0EC
:10244300F990001012298BFFAEF0D39400EE9400A4
:102453004016EF2428FFE43E9002C8F0A3EFF0906B
:10246300020C7418F00225D190002AE020E1030247
:1024730027409002C8E4F0A37428F090020C741073
:10248300F00225D190002AE020E0030227409003C8
:10249300AAE0FBA3E0FAA3E0F9900019E4122900F3
:1024A30090002A7410F0122C5D022740D39002C9C9
:1024B300E094009002C8E094004003124A75900231
:1024C3000CE030E03F90002AE09003AA30E023E0E4
:1024D300FBA3E0FAA3E0F990001974071229009016
:1024E300001AE4122900900010E4F5F0122A7B028E
:1024F3002575E0FBA3E0FAA3E0F990001974061236
:102503002900806E90002AE030E01F9003AAE0FBD0
:10251300A3E0FAA3E0F990001974051229009000D2
:1025230010E4F5F0122A7B022740D39002C9E0940D
:10253300009002C8E0940050030227400225C2D352
:102543009002C9E094009002C8E094004003124A4C
:102553007590020CE030E02C9003AAE0FBA3E0FAB4
:10256300A3E0F9900019740712290090001AE412ED
:1025730029007F017E00124A7A90002A7410F0121B
:102583002C5D803BD39002C9E094009002C8E09494
:10259300005003022740802790002AE020E0030236
:1025A30027409003AAE0FBA3E0FAA3E0F990001907
:1025B300740712290090001AE412290002274090A0
:1025C300020C7410F09002C8E4F0A37428F0900297
:1025D3000B7450F09003AAE0FBA3E0FAA3E0F99098
:1025E3000008122857900207F0900009122857900C
:1025F3000208F090000A122857900209F090000B8D
:1026030012285790020AF090000C122857900203E8
:10261300F090000D122857900204F090000E12283B
:1026230057900205F090000F122857900206F09081
:1026330001F47406F090000412298BFF9001FFE56A
:10264300F0F0A3EFF090000612298BFF900201E552
:10265300F0F0A3EFF0900017E0FFA3E09001F7CFB5
:10266300F0A3EFF0900019E0FFA3E09001F9CFF0A1
:10267300A3EFF0122960FF9001FBE5F0F0A3EFF068
:1026830090000212298BFF9001FDE5F0F0A3EFF01B
:1026930090001912285730E40BE490020EF09002D8
:1026A3000DF0800990020D7480F0E4A3F09002C84D
:1026B300E09001EDF09002C8E0A3E09001EEF0E4B9
:1026C30090020FF0A3F0123B50EFF4FFEEF49002F0
:1026D3000FF0A3EFF09001EB7445F0E4A3F0900149
:1026E300F2F09001F1F09001F374FFF0900022E01A
:1026F30004F07006900021E004F0900021E0FCA3B8
:10270300E0FDEC9001EFF0EDA3F0E49001F5F0A310
:10271300F0124F4AEFF4FFEEF49001F5F0A3EFF05F
:102723009001D0E004F070069001CFE004F0900136
:10273300B6E004F0700E9001B5E004F022E49002DC
:04274300C8F0A3F047
:01274700226F
:014F55002239
:10484A009003AEECF0A3EDF09000031228572D90E0
:10485A000029F0900002122857FD9003AEE02D9037
:10486A000028F0900001122857900027F012283EE5
:10487A00900026F09003AEE0FCA3E0FDECFF900070
:10488A0028E0C39FE49400500F900027E004F0E072
:10489A007006900026E004F0AF05900029E0C39F5F
:1048AA00E494005018900028E004F0E0700F9000A3
:0E48BA0027E004F0E07006900026E004F022F3
:06429A007B017D147C0095
:1042A0009003B2EBF0A3EAF0A3E9F0A3ECF0A3EDE6
:0142B000F01D
:1042B100E4A3F0A3F0D39003B6E094019003B5E03A
:1042C1009400404E9003B2E0FBA3E0FAA3E0F912A0
:1042D1002960FFAEF09003B8E02FF09003B7E03E05
:1042E100F0C3A3E09F9003B7E09E500CA3E004F05D
:1042F10070069003B7E004F09003B3E475F0021286
:1043010029349003B6E024FEF09003B5E034FFF0C9
:1043110080A39003B5E07004A3E06401704D9003A5
:10432100B2E0FBA3E0FAA3E0F912283E7F00FE12FF
:104331004F559003B8E02FF09003B7E03EF09003A3
:10434100B2E0FBA3E0FAA3E0F912283E7F00FE12DF
:104351004F55C39003B8E09F9003B7E09E500CA364
:10436100E004F070069003B7E004F09003B7E0FEBC
:03437100A3E0FFC7
:014374002226
:084F4A007A0179EB12429A2270
:103B50007A0179FF12429A9003AEEEF0A3EFF09053
:103B6000001BE0FBA3E0FAA3E0F99001EDE0FEA367
:103B7000E07C002400FFEC3ECF24D8FDEF34FFFCB6
:103B80001242A09003B0EEF0A3EFF09003AEE0FE7F
:103B9000A3E0FFA3EE8FF0122934FCD3EF95F0EEF3
:103BA0009C400E9003B1E004F070069003B0E00476
:103BB000F09001F7E0FEA3E0FF9003B0EE8FF0126B
:103BC0002934FCD3EF95F0EE9C400E9003B1E00455
:103BD000F070069003B0E004F09001F9E0FEA3E07D
:103BE000FF9003B0EE8FF0122934FCD3EF95F0EE86
:103BF0009C400E9003B1E004F070069003B0E00426
:103C0000F09001FBE0FEA3E0FF9003B0EE8FF01216
:103C10002934FCD3EF95F0EE9C400E9003B1E00404
:103C2000F070069003B0E004F09001FDE0FEA3E028
:103C3000FF9003B0EE8FF0122934FCD3EF95F0EE35
:103C40009C400E9003B1E004F070069003B0E004D5
:103C5000F07F067E00124F559003B0EE8FF01229D0
:103C600034ADF0FCC004C0057F067E00124F55D075
:103C700005D004C3ED9FEC9E500E9003B1E004F01C
:103C800070069003B0E004F09001EDE0FEA3E07C4C
:103C9000002400FFEC3ECF24ECCF34FFFE124F5542
:103CA0009003AEEEF0A3EFF09003AEE0FEA3E0FFD2
:103CB000A3EE8FF0122934FCD3EF95F0EE9C400E6A
:103CC0009003B1E004F070069003B0E004F09003BC
:063CD000B0E0FEA3E0FFDE
:013CD60022CB
:0945E1004603451234567890ABF4
:104D3000E49003A4F09003A4E0FFC39408502790EC
:104D40000004C083C0827D00EF75F00BA4244BF9F2
:104D5000740335F0FA7B01D007D006122BB2900312
:074D6000A4E004F080CF2263
:104A0D009003A5E004F0E49003A4F09003A4E0FF6C
:104A1D00C394085048EF75F00BA4244BF97403357B
:104A2D00F0FA7B0190000212298BFFAEF012296083
:104A3D00FDE5F04EFEED4F4E601B90000A1228571B
:104A4D00FF9003A5E0C39FC3947840097E007F04C7
:0D4A5D007D00122BB29003A4E004F080AEA7
:014A6A002229
:0B3996009003AAEBF0A3EAF0A3E9F015
:1039A100E49003A4F09003A4E0FFC3940840030251
:1039B1003A3EEF75F00BA4244BF9740335F0FA7B12
:1039C100019003B0EBF0A3EAF0A3E9F012296045FE
:1039D100F060619003B0E0FBA3E0FAA3E0F990008E
:1039E1000212298B45F0604C122960FFAEF0900362
:1039F100AAE0FBA3E0FAA3E0F91229606F7003E5E6
:103A0100F06E70309003B0E0FBA3E0FAA3E0F99010
:103A1100000212298BFFAEF09003AAE0FBA3E0FAAB
:103A2100A3E0F990000212298BB50708E5F0B5066D
:103A310003023B129003A4E004F00239A6E49003D0
:103A4100A4F09003A4E0FFC39408503EEF75F00B7F
:103A5100A4244BF9740335F0FA7B019003B0EBF029
:103A6100A3EAF0A3E9F012296045F070159003B0C4
:103A7100E0FBA3E0FAA3E0F990000212298B45F0E4
:103A810060089003A4E004F080B89003A4E0640807
:103A9100705E900344F09003A3F0A3F09003A4E0C0
:103AA100FFC394085044EF75F00BA4244BF9740341
:103AB10035F0FA7B019003B0EBF0A3EAF0A3E9F053
:103AC10090000A122857FF9003A5E0C39FFF9003BF
:103AD10044E0FEEFD39E400AEFF09003A4E0900390
:103AE100A3F09003A4E004F080B29003A3E0A3F05C
:103AF1009003B0E0FBA3E0FAA3E0F8AC02AD0390C1
:103B010003AAE0FBA3E0FAA3E0F97E007F041228F8
:103B1100189003B0E0FBA3E0FAA3E02404F9E43A2F
:103B2100A801FCAD039003ADE0FBA3E0FAA3E0F92B
:103B31007E007F061228189003A5E0FF9003B0E0F5
:0E3B4100FBA3E0FAA3E0F990000AEF122900BE
:013B4F002253
:1048C8009002C9E024F2F09002C8E034FFF09000B2
:1048D80030E0FEA3E0FF900017E05EFEA3E05FFF7C
:1048E800900030E0FCA3E0FD9001F7E05CFCA3E061
:1048F8005DB50745ECB50641900032E0FEA3E0FF48
:10490800900019E05EFEA3E05FFF900032E0FCA398
:10491800E0FD9001F9E05CFCA3E05DB5071BECB598
:1049280006179003AD7401F0A37401F0A374E3F0CB
:0A4938007B017A0179F7123996220B
:103E2200C39002C9E0942A9002C8E094005005E4CD
:103E3200F0A3F022E49002C8F0A3F09001F1E0FEBA
:103E4200A3E0FFEE6003023F6AEF24FE7003023F2D
:103E52002B046003023F6A900017E0FEA3E0FF908C
:103E62000203E06E7003A3E06F6003023F6A9000FA
:103E720019E0FEA3E0FF900205E06E7003A3E06F7D
:103E82006003023F6A9001F1F0A37402F078FD7CB6
:103E9200017D017B017A0179F37E007F06122818E9
:103EA20078F37C017D017B017A0379457E007F06F0
:103EB20012281878E37C017D017B017A0379457E23
:103EC200007F0612281878DD7C017D017B017A01D2
:103ED20079FD7E007F061228189001F9E0FFA3E029
:103EE200900203CFF0A3EFF09001FBE0FFA3E0907C
:103EF2000205CFF0A3EFF0900017E0FFA3E09001DE
:103F0200F9CFF0A3EFF0900019E0FFA3E09001FBDE
:103F1200CFF0A3EFF09001E97408F0A37406F090DB
:103F220002C8E4F0A3742AF022900017E0FEA3E096
:103F3200FF900203E0B50630A3E0B5072B9000190D
:103F4200E0FEA3E0FF900205E0B5061CA3E0B50782
:103F5200179003AD7401F0A37401F0A374F3F07B26
:093F6200017A0179F91239962265
:1035D400900030E0FEA3E0FF900017E05EFEA3E061
:1035E4005FFF900030E0FCA3E0FD9001FBE05CFC99
:1035F400A3E05DB50732ECB5062E900032E0FEA3E1
:10360400E0FF900019E05EFEA3E05FFF900032E06F
:10361400FCA3E0FD9001FDE0FAA3E0FBEA5CFCEB17
:103624005D6F7002EC6E602090002CE0FFA3E090D0
:1036340003A6CFF0A3EFF090002EE0FFA3E09003E9
:10364400A8CFF0A3EFF080159001FBE0FFA3E0907A
:1036540003A6CFF0A3EFF0A3EAF0A3EBF0E490030A
:10366400A4F09003A4E0FFC394085051EF75F00B4D
:10367400A4244BF9740335F0FA7B019003AAEBF010
:10368400A3EAF0A3E9F0122960FF9003A6E0B5F0E5
:1036940024A3E0B5071F9003AAE0FBA3E0FAA3E08C
:1036A400F990000212298BFF9003A8E065F07003E3
:1036B400A3E06F60089003A4E004F080A59003A445
:1036C400E06408600302378CFE7F067DFF7B017A8D
:1036D4000179DD122BB27E007F067D007B017A0129
:1036E40079FD122BB278E37C017D017B017A0379A9
:1036F400457E007F0612281878F37C017D017B014A
:103704007A0379457E007F061228189003A6E0FF0D
:10371400A3E0900203CFF0A3EFF09003A8E0FFA38F
:10372400E0900205CFF0A3EFF0900017E0FFA3E0D4
:103734009001F9CFF0A3EFF0900019E0FFA3E0901F
:1037440001FBCFF0A3EFF09001F1E4F0A304F090BB
:1037540001EBE4F0A304F0A37408F0A3E4F0A37471
:1037640006F0A37404F09001E97408F0A37406F061
:1037740090001B7401F0A37402F0A37413F0900280
:10378400C8E4F0A3742AF0229003AAE0FBA3E0FAB1
:10379400A3E02404F9E43AFA78DD7C017D017E009B
:1037A4007F0612281878E37C017D017B017A037976
:1037B400457E007F061228189001E97408F0A3E4FE
:0F37C400F09002C9E0240EF09002C8E03400F04B
:0137D30022D3
:10450E002535750D0A00253575003C747220616CD9
:10451E0069676E3D2263656E746572223E3C7464FB
:10452E003E2D3C2F74643E3C74643E2D3C2F7464CF
:10453E003E3C74643E25753C2F74643E3C74643E70
:10454E0025753C2F74643E3C74643E2563202563C0
:10455E003C2F74643E3C2F74723E0D0A003C747204
:10456E0020616C69676E3D2263656E746572223ED2
:10457E003C74643E25752E25752E25752E25753AAF
:10458E0025753C2F74643E3C74643E25733C2F7439
:10459E00643E3C74643E25753C2F74643E3C7464EA
:1045AE003E25753C2F74643E3C74643E2563202585
:0E45BE00633C2F74643E3C2F74723E0D0A0065
:1045EA00490323FF3F6BFF49A8FF33A647033D4317
:1045FA004C4F5345440049031A53594E2D524356C2
:10460A00440049033453594E2D53454E54004C022D
:10461A00CA45535441424C4953484544004B03044C
:10462A0046494E2D574149542D31004B030F4649F7
:10463A004E2D574149542D320048032C434C4F53B9
:10464A00494E47004A02FA54494D452D57414954AB
:10465A00004902F14C4153542D41434B005B02D6B1
:10466A0001033D01031A0103340102CA01030401D3
:0B467A00030F01032C0102FA0102F102
:103F6B00EF60279003F8E0FBA3E0FAA3E0F99000E1
:103F7B0001E475F004122A0F90000112298BC394EF
:103F8B0016E5F0940040037F01229003F8E0FBA3B9
:103F9B00E0FAA3E0F990000112298BFDACF025E0CB
:103FAB00FFEC33FE74B12FF974013EFA9003B17438
:103FBB0001F0A3EAF0A3E9F090001BE0F9A3E0FA0B
:103FCB00A3E09003AEC9F0A3EAF0A3E9F09003AC31
:103FDB00E4F0A37405F09003AAECF0A3EDF0C3900A
:103FEB0003ABE094169003AAE09400506D9003ACE1
:103FFB0074FFF5F0122934FED3E5F09400EE940033
:10400B0040589003B774FFF0A37445F0A3740EF0FF
:10401B009003B1E0FBA3E0FAA3E0F9122960FF9053
:10402B0003BAE5F0F0A3EFF09003AEE0FBA3E0FAE8
:10403B00A3E0F91230A69003B2E475F00212293412
:10404B009003AFE475F0061229349003ABE004F053
:10405B00708C9003AAE004F0808490001BE0F9A31D
:10406B00E0FAA3E0900014C9F0A3EAF0A3E9F09002
:10407B00001BA3A3E0AE02FF9003AEA3E0FAA3E004
:0E408B00C39FFFEA9E9001AFF0A3EFF07F000D
:014099002204
:1049A800EF60037F012290001BE0F9A3E0FAA3E087
:1049B800900014C9F0A3EAF0A3E9F09003F8E0FB33
:1049C800A3E0FAA3E0F9900006122B23E92404F9E6
:1049D800E43AFA1247259003BAEEF0A3EFF09003F9
:1049E800B774FFF0A37445F0A37414F090001BE0B3
:1049F800FBA3E0FAA3E0F91230A69001AFEEF0A312
:054A0800EFF07F002229
:1033A600EF60209003F8E0FBA3E0FAA3E0F99000B9
:1033B60001E475F001122A0FFEE5F0640A4E70036F
:1033C6007F01229003F8E0FBA3E0FAA3E0F9900066
:1033D6000112298BFFAEF07C007D2512292274395B
:1033E6002FF974003EFA7B019003AAEBF0A3EAF0F2
:1033F600A3E9F0900019122857FF540F7067900048
:103406001BE0F9A3E0FAA3E0900014C9F0A3EAF0E8
:10341600A3E9F09003B774FFF0A37445F0A3741802
:10342600F09003AAE0FBA3E0FAA3E0F990001B12D8
:1034360028579003BAF090001A1228579003BBF051
:1034460090001012298B45F060047E2A80027E20AF
:103456009003BCEEF0EF30E4047F2180027F2090E1
:1034660003BD0235B990001BE0F9A3E0FAA3E09092
:103476000014C9F0A3EAF0A3E9F09003AAE0FBA3C5
:10348600E0FAA3E0F9122960FFAEF0124F55EEFF05
:103496007E00C007C0069003AAE0FBA3E0FAA3E003
:1034A600F9122960FFAEF0124F557E00C007C00624
:1034B6009003AAE0FBA3E0FAA3E0F9900002122928
:1034C6008BFFAEF0124F55EEFF7E00C007C0069090
:1034D60003AAE0FBA3E0FAA3E0F990000212298B0D
:1034E600FFAEF0124F557E00C007C0069003AAE05B
:1034F600FBA3E0FAA3E0F990000612298BFFAEF0D9
:10350600124F559003C2EEF0A3EFF09003C0D0E047
:10351600F0A3D0E0F09003BED0E0F0A3D0E0F090AE
:1035260003BCD0E0F0A3D0E0F09003BAD0E0F0A363
:10353600D0E0F09003B774FFF0A37445F0A3746B6A
:10354600F09003AAE0FBA3E0FAA3E0F990001912B9
:103556002857FF540F75F003A424D6F582E43402ED
:10356600F583E0F9A3E0FAA3E09003C4C9F0A3EA67
:10357600F0A3E9F09003AAA3E0FAA3E0F990001BF8
:103586001228579003C7F090001A1228579003C8C4
:10359600F090001012298B45F060047E2A80027E8E
:1035A600209003C9EEF0EF30E4047F2180027F20F3
:1035B6009003CAEFF090001BE0FBA3E0FAA3E0F94A
:0D35C6001230A69001AFEEF0A3EFF07F00F1
:0135D30022D5
:08494200E0FBA3E0FAA3E0F999
:0B494A009003C3EBF0A3EAF0A3E9F038
:10495500E4FF9003C6E0FBA3E0FAA3E0F98F8275BC
:104965008300122857FE601C9003C3E0FBA3E0FA06
:10497500A3E0F98F82758300122857FD640D60044A
:10498500EDB40A037F00229003C3E0FBA3E0FAA382
:10499500E0F98F827583001228576E60037F01222C
:0349A5000F80AFD1
:0B41AD009003B8EBF0A3EAF0A3E9F0E8
:1041B800E49003BEF0A3F0A374FFF0A37415F0A37A
:1041C80074F9F09003C0E0FBA3E0FAA3E04A4B7057
:1041D800030242969003C0A3A3E0F9900003122BB8
:1041E800239003C6EBF0A3EAF0A3E9F09003B8121A
:1041F8004942EF706F9003C0E0FBA3E0FAA3E0F937
:10420800900006122B23C003C002C0019003BBE03C
:10421800FBA3E0FAA3E0F9122AD49003C0E0FBA3C1
:10422800E0FAA3E0F990000912298BFF9003BBE0A4
:10423800FBA3E0FAA3E0F9900003E5F08FF0122A5F
:104248007B9003BFE025E0FF9003BEE033FE74DC03
:104258002FF58274033EF583E475F0011229347E4C
:10426800007F01229003BFE004F070069003BEE0D7
:1042780004F09003C0E0FBA3E0FAA3E0F9122AB42B
:104288009003C0EBF0A3EAF0A3E9F00241CBE4FE0F
:01429800FF26
:014299002202
:104E1A00E4FDFCED25E0FFEC33FE74DC2FF5827433
:104E2A00033EF583E4F0A3F00DBD00010CED640E22
:034E3A004C70E0D9
:014E3D002252
:0B4725009003AAEBF0A3EAF0A3E9F078
:10473000E49003B0F0A3F09003AD74FFF0A3741500
:10474000F0A374F9F09003ADE0FBA3E0FAA3E04A14
:104750004B60679003ADA3A3E0F9900003122B23F5
:104760009003C6EBF0A3EAF0A3E9F09003AA124984
:1047700042EF701D9003B1E025E0FF9003B0E033FD
:10478000FE74DC2FF58274033EF583E0FEA3E0FFA8
:10479000229003B1E004F070069003B0E004F090C2
:1047A00003ADE0FBA3E0FAA3E0F9122AB49003AD55
:0D47B000EBF0A3EAF0A3E9F0808BE4FEFF3C
:0147BD0022D9
:100003002F6367692F66696C6573002320546869E1
:1000130073207363726970742073686F77732074CD
:1000230068652061636365737320737461746973B6
:100033007469637320666F722064696666657265AE
:100043006E742066696C6573206F6E207468650A30
:100053002320776562207365727665722E0A230A00
:10006300232046697273742C20776520696E636C54
:10007300756465207468652048544D4C206865613B
:100083006465722E0A69202F66696C65735F686503
:10009300616465722E68746D6C0A23205072696EF8
:1000A30074206F757420746865206E616D65206FB0
:1000B30066207468652066696C652C20616E642017
:1000C30063616C6C207468652066756E6374696F18
:1000D3006E2074686174207072696E74730A2320D1
:1000E30074686520616363657373207374617469F5
:1000F3007374696373206F66207468617420666922
:100103006C652E0A74203C74723E3C74643E3C6100
:1001130020687265663D222F696E6465782E687467
:100123006D6C223E2F696E6465782E68746D6C3C2D
:100133002F613E3C2F74643E3C74643E0A6320622C
:10014300202F696E6465782E68746D6C0A74203C88
:100153002F74643E3C2F74723E203C74723E3C7498
:10016300643E3C6120687265663D222F61626F7553
:10017300742E68746D6C223E2F61626F75742E68E5
:10018300746D6C3C2F613E3C2F74643E3C74643E42
:100193000A632062202F61626F75742E68746D6C20
:1001A3000A74203C2F74643E3C2F74723E203C74CE
:1001B300723E3C74643E3C6120687265663D222F4A
:1001C300636F6E74726F6C2E68746D6C223E2F6356
:1001D3006F6E74726F6C2E68746D6C3C2F613E3C55
:1001E3002F74643E3C74643E0A632062202F636F65
:1001F3006E74726F6C2E68746D6C0A74203C2F746D
:10020300643E3C2F74723E203C74723E3C74643EE8
:100213003C6120687265663D222F696D672F6267B6
:100223002E706E67223E2F696D672F62672E706E88
:10023300673C2F613E3C2F74643E3C74643E0A630A
:100243002062202F696D672F62672E706E670A74B4
:10025300203C2F74643E3C2F74723E203C74723EEB
:100263003C74643E3C6120687265663D222F3430E5
:10027300342E68746D6C223E2F3430342E68746DC6
:100283006C3C2F613E3C2F74643E3C74643E0A63B5
:100293002062202F3430342E68746D6C0A74203C35
:1002A3002F74643E3C2F74723E203C74723E3C7447
:1002B300643E3C6120687265663D222F6367692F47
:1002C30066696C6573223E2F6367692F66696C6587
:1002D300733C2F613E3C2F74643E3C74643E0A635E
:1002E3002062202F6367692F66696C65730A742027
:1002F3003C2F74643E3C2F74723E203C74723E3C2F
:1003030074643E3C6120687265663D222F636769B1
:100313002F7374617473223E2F6367692F73746143
:1003230074733C2F613E3C2F74643E3C74643E0AFC
:10033300632062202F6367692F73746174730A7477
:10034300203C2F74643E3C2F74723E203C74723EFA
:100353003C74643E3C6120687265663D222F63678E
:10036300692F746370223E2F6367692F7463703C37
:100373002F613E3C2F74643E3C74643E0A632062EA
:10038300202F6367692F7463700A74203C2F746491
:100393003E3C2F74723E0A2320496E636C7564657C
:1003A300207468652048544D4C20666F6F746572E5
:1003B3002E0A69202F66696C65735F666F6F7465BB
:1003C300722E706C61696E0A2320456E64206F661D
:1003D300207363726970742E0A2E2F6367692F73FB
:1003E300746174730069202F73746174735F68653B
:1003F300616465722E68746D6C0A6320610A6920FA
:100403002F73746174735F666F6F7465722E706C93
:1004130061696E0A2E0A2F6367692F74637000691E
:10042300202F7463705F6865616465722E68746DF4
:100433006C0A6320630A69202F7463705F666F6FB1
:100443007465722E706C61696E0A2E2F696D672F49
:1004530062672E706E6700485454502F312E30203F
:10046300323030204F4B0D0A5365727665723A2055
:100473007549502F302E392028687474703A2F2F05
:1004830064756E6B656C732E636F6D2F6164616D44
:100493002F7569702F290D0A436F6E74656E742D65
:1004A300747970653A20696D6167652F706E670DA9
:1004B3000A0D0A89504E470D0A1A0A0000000D4919
:1004C3004844520000031D0000005E0806000000BF
:1004D30046BD79CC00000006624B474400FF00FF95
:1004E30000FFA0BDA79300000009704859730000E6
:1004F3000B1200000B1201D2DD7EFC00000007741A
:10050300494D4507D30A0512223322D07C9A0000B5
:10051300001D74455874436F6D6D656E74004372AE
:100523006561746564207769746820546865204741
:10053300494D50EF64256E000003A04944415478AF
:10054300DAEDDDC1769A4018805127C7056CD16575
:100553001AECE9FBBF459E23D5B44B7119DD4D97CA
:10056300368A061C8220F7EE92A83F0C68FAA13D5A
:10057300096FAF1F717626CC6E159ECEBF17E37140
:1005830044B8FDA193D56D5B7FC313EF1E86B32DD6
:100593005D6DDBF257963477FBFB9074FFE5CFB4C8
:1005A300F9BB4DDAFCA2CC92D6B45A5F99DFE05C7A
:1005B3005FAEB2D920856F5CFF707C2D5A94F9F041
:1005C30076FD69363953DCE741FC1E18E1EF41C67D
:1005D300F17CA93D4FE3831FFCB11E17CB04000040
:1005E3006833000000D1010000880E000040740051
:1005F3000000880E00004074000000A203000040C9
:1006030074000000A20300004074000000A2030075
:1006130000101D001D0A96000044070000404BE136
:10062300EDF523D67CFBF607ACC998188F23C21DC2
:10063300AF64867B2656E27E77BA6E1D1F83A46D58
:100643000BFD6E6B976B1AEE7C557EB1CA929E0BB7
:10065300DBF52169FE3261FE188FF7C3BF46D9E788
:10066300E1AFD5D8DF09F44EE6249E2FB5E7697CC8
:10067300F0833FD6E362990000006D060000203A44
:10068300000000D1010000880E000000D10100002D
:10069300880E00004074000000880E0000407400C3
:1006A3000000880E98AAE0590F00880E008653A90F
:1006B300960000D1010000880E0000407400000085
:1006C3007C93B92580FB28CAECE2CF4283CFD15774
:1006D300EBC3E51F36B89CB05C6549DBBFBD303F5B
:1006E30034FC3F008B326DFE6E73687FA710FF9B57
:1006F3009F27CDAFDEF7ED469F1C93E239F7240029
:100703006032BCD3010000880E000040740000007A
:10071300880E000040740000008F1F1DDDFEF9D914
:1007230018A355060000D1C164848E1F2E585200B1
:100733000044070000203A000000D1010000203AE5
:10074300000000D1010000880E000000D10100006C
:10075300880E000080B92580FBD86D0E779DBF5DA4
:10076300A7CD5FAEB2A4FB5735FBDFE68F4D166511
:10077300BBF9A78F5D6DF6E73788F1CA037CFE727C
:10078300F1923B8901A021EF74000000A203000055
:10079300101D000000A263ACDA7CCE1D00004407EC
:1007A300E0590D00F8E709000080E8000000440765
:1007B300000080E800000044070000203A00000029
:1007C30044070000203A000000D1010000203A0055
:1007D300008081985B02E016DBF5A1F6FB21F43380
:1007E3007FB739B4BB43889FBE5C9479D2FCEA7D62
:1007F300DF6EFCC9259EE2B9BFF975C7A4F8913B2A
:100803008901E88D773A000000D10143D3D7D57C25
:10081300EB0200880E00BE8E31AFB400880E0000DC
:1008230000D1010000880E000000D1010000880EF5
:1008330000004074000000880E00004074000000B7
:10084300A20300006034D1118205070000D10143E7
:100853002152010044070000C057E6960018A3A2E6
:10086300CC5ADDFEF4E39DD5667F7E8318AF3C4012
:10087300B7DBBFFBBB4FBAFFE2254F9BFFA7E1FCF2
:100883000BFB5D3CE7DFBEFFE1CA65B13EE65F3DC2
:10089300FF12E7034C8D773A000000D10100008876
:1008A3000E000000D1010000880E0000407400001B
:1008B30000880E00004074000000A2030000407492
:1008C3003413E4150000880E000040740000008813
:1008D3000E0000407400000013F10F24A15CAB4133
:1008E300D892A40000000049454E44AE4260822FD6
:1008F30061626F75742E68746D6C00485454502F88
:10090300312E3020323030204F4B0D0A5365727632
:1009130065723A207549502F302E39202868747437
:10092300703A2F2F64756E6B656C732E636F6D2F2A
:100933006164616D2F7569702F290D0A436F6E74A1
:10094300656E742D747970653A20746578742F68B8
:10095300746D6C0D0A0D0A3C68746D6C3E0A3C6242
:100963006F6479206267636F6C6F723D2277686989
:100973007465223E0A3C63656E7465723E0A3C747C
:1009830061626C652077696474683D223630302279
:1009930020626F726465723D2230223E3C74723E67
:1009A3003C74643E0A3C68323E57656C636F6D6508
:1009B3003C2F68323E0A3C7020616C69676E3D22B1
:1009C3006A757374696679223E0A54686573652093
:1009D3007765622070616765732061726520736556
:1009E300727665642062792074686520736D616C2A
:1009F3006C20776562207365727665722072756EFE
:100A03006E696E67206F6E20746F70206F660A7454
:100A13006865203C6120687265663D226874747065
:100A23003A2F2F64756E6B656C732E636F6D2F6138
:100A330064616D2F7569702F22207461726765740C
:100A43003D225F746F70223E754950205443502FEE
:100A530049500A737461636B3C2F613E2E0A3C2F2D
:100A6300703E0A3C7020616C69676E3D226A757343
:100A730074696679223E0A436C69636B206F6E204A
:100A8300746865206C696E6B732061626F76652094
:100A9300746F2073656520736F6D65207374617463
:100AA300757320696E666F726D6174696F6E206114
:100AB300626F757420746865207765620A73657266
:100AC30076657220616E6420746865205443502FEC
:100AD300495020737461636B2E0A3C2F703E0A3CAD
:100AE3002F74643E3C2F74723E3C2F7461626C65BC
:100AF3003E0A3C2F63656E7465723E0A3C2F626F3B
:100B030064793E0A3C2F68746D6C3E2F636F6E747C
:100B1300726F6C2E68746D6C00485454502F312ED4
:100B23003020323030204F4B0D0A53657276657298
:100B33003A207549502F302E392028687474703A42
:100B43002F2F64756E6B656C732E636F6D2F6164ED
:100B5300616D2F7569702F290D0A436F6E74656E71
:100B6300742D747970653A20746578742F68746D88
:100B73006C0D0A0D0A3C68746D6C3E0A3C626F642E
:100B830079206267636F6C6F723D22776869746561
:100B9300223E0A3C63656E7465723E0A3C74616270
:100BA3006C652077696474683D2237393722206881
:100BB30065696768743D2239342220626F72646507
:100BC300723D2230222063656C6C70616464696ECF
:100BD300673D2230220A0963656C6C737061636937
:100BE3006E673D223022206261636B67726F756EA0
:100BF300643D222F696D672F62672E706E67223EF8
:100C03003C74723E3C746420616C69676E3D226380
:100C1300656E746572223E0A3C68313E7549502008
:100C230077656220736572766572207465737420CC
:100C330070616765733C2F68313E0A5B203C61201D
:100C4300687265663D2261626F75742E68746D6C9F
:100C530022207461726765743D226D61696E223E64
:100C630041626F75743C2F613E207C0A3C612068B1
:100C73007265663D222F6367692F74637022207447
:100C830061726765743D226D61696E223E436F6ECA
:100C93006E656374696F6E733C2F613E207C0A3C02
:100CA3006120687265663D222F6367692F66696CF0
:100CB300657322207461726765743D226D61696E8C
:100CC300223E46696C65733C2F613E207C0A3C6181
:100CD30020687265663D222F6367692F73746174A0
:100CE3007322207461726765743D226D61696E229F
:100CF3003E537461746973746963733C2F613E205E
:100D03005D0A3C2F74643E3C2F74723E3C2F746129
:100D1300626C653E0A3C2F63656E7465723E0A3CE5
:100D23002F626F64793E0A3C2F68746D6C3E2F34DA
:100D330030342E68746D6C00485454502F312E306B
:100D4300203430342046696C65206E6F7420666FE2
:100D5300756E640D0A5365727665723A2075495053
:100D63002F302E392028687474703A2F2F64756ED3
:100D73006B656C732E636F6D2F6164616D2F756985
:100D8300702F290D0A436F6E74656E742D7479701C
:100D9300653A20746578742F68746D6C0D0A0D0ABA
:100DA3003C68746D6C3E3C626F6479206267636F6C
:100DB3006C6F723D227768697465223E3C63656E91
:100DC3007465723E3C68313E343034202D206669B0
:100DD3006C65206E6F7420666F756E643C2F68318E
:100DE3003E3C2F63656E7465723E3C2F626F64797F
:100DF3003E3C2F68746D6C3E2F66696C65735F664D
:100E03006F6F7465722E706C61696E003C2F746431
:100E13003E3C2F74723E3C2F7461626C653E0A3C0B
:100E23002F626F64793E0A3C2F68746D6C3E0A2F03
:100E330066696C65735F6865616465722E68746D5D
:100E43006C00485454502F312E3020323030204F14
:100E53004B0D0A5365727665723A207549502F30EF
:100E63002E392028687474703A2F2F64756E6B6561
:100E73006C732E636F6D2F6164616D2F7569702FB5
:100E8300290D0A436F6E74656E742D747970653A1B
:100E930020746578742F68746D6C0D0A0D0A3C68B4
:100EA300746D6C3E0A3C626F6479206267636F6C99
:100EB3006F723D227768697465223E0A3C63656EF2
:100EC3007465723E0A3C7461626C65207769647470
:100ED300683D223630302220626F726465723D2293
:100EE30030223E0A2F696E6465782E68746D6C003B
:100EF300485454502F312E3020323030204F4B0D78
:100F03000A5365727665723A207549502F302E392F
:100F13002028687474703A2F2F64756E6B656C7338
:100F23002E636F6D2F6164616D2F7569702F290DAD
:100F33000A436F6E74656E742D747970653A20740C
:100F43006578742F68746D6C0D0A0D0A3C68746DB6
:100F53006C3E0A3C686561643E3C7469746C653E32
:100F630075495020776562207365727665722074C7
:100F730065737420706167653C2F7469746C653E9A
:100F83003C2F686561643E0A0A3C6672616D657355
:100F9300657420636F6C733D222A2220726F77730E
:100FA3003D223132302C2A22206672616D65626FD8
:100FB300726465723D226E6F223E200A20203C66D9
:100FC30072616D65207372633D22636F6E74726F1D
:100FD3006C2E68746D6C223E0A20203C6672616D33
:100FE30065207372633D2261626F75742E68746D40
:100FF3006C22206E616D653D226D61696E223E0A31
:101003003C2F6672616D657365743E0A0A3C6E6FB0
:101013006672616D65733E0A3C626F64793E0A597C
:101023006F75722062726F77736572206D7573745A
:1010330020737570706F7274206672616D65730AC8
:101043003C2F626F64793E0A3C2F6E6F6672616D4E
:1010530065733E0A3C2F68746D6C3E2F7374617424
:10106300735F666F6F7465722E706C61696E003C9E
:101073002F74643E3C2F74723E3C2F7461626C6526
:101083003E0A3C2F626F64793E0A3C2F68746D6C94
:101093003E0A2F73746174735F6865616465722EB1
:1010A30068746D6C00485454502F312E3020323008
:1010B30030204F4B0D0A5365727665723A2075499D
:1010C300502F302E392028687474703A2F2F64758E
:1010D3006E6B656C732E636F6D2F6164616D2F751D
:1010E30069702F290D0A436F6E74656E742D7479C0
:1010F30070653A20746578742F68746D6C0D0A0DF1
:101103000A3C68746D6C3E0A3C626F6479206267C6
:10111300636F6C6F723D227768697465223E0A3C87
:1011230063656E7465723E0A3C7461626C65207718
:10113300696474683D223630302220626F726465C0
:10114300723D2230223E0A3C74723E3C74643E0A75
:101153003C7072653E0A4950202020202020202028
:101163002020205061636B6574732064726F70700C
:1011730065640A20202020202020202020202020F9
:101183005061636B6574732072656365697665642A
:101193000A202020202020202020202020205061F1
:1011A300636B6574732073656E740A4950206572AE
:1011B300726F727320202020495020766572736904
:1011C3006F6E2F686561646572206C656E67746805
:1011D3000A202020202020202020202020204950C9
:1011E300206C656E6774682C206869676820627973
:1011F30074650A2020202020202020202020202069
:101203004950206C656E6774682C206C6F77206280
:101213007974650A202020202020202020202020EF
:1012230020495020667261676D656E74730A2020D1
:101233002020202020202020202020486561646574
:101243007220636865636B73756D0A20202020200C
:10125300202020202020202057726F6E672070727C
:101263006F746F636F6C0A49434D5009202020202F
:10127300205061636B6574732064726F7070656472
:101283000A20202020202020202020202020506100
:10129300636B6574732072656365697665640A20A0
:1012A3002020202020202020202020205061636B3C
:1012B3006574732073656E740A202020202020201B
:1012C30020202020202054797065206572726F726F
:1012D300730A544350202020202020202020205017
:1012E30061636B6574732064726F707065640A2048
:1012F3002020202020202020202020205061636BEC
:101303006574732072656365697665640A202020BD
:10131300202020202020202020205061636B657432
:10132300732073656E740A20202020202020202043
:1013330020202020436865636B73756D206572728E
:101343006F72730A202020202020202020202020BC
:101353002044617461207061636B657473207769E5
:1013630074686F75742041434B730A20202020203A
:1013730020202020202020205265736574730A20CA
:10138300202020202020202020202020526574723D
:10139300616E736D697373696F6E730A0920202020
:1013A30020204E6F20636F6E6E656374696F6E20CD
:1013B3006176616C6961626C650A092020202020D6
:1013C300436F6E6E656374696F6E20617474656DCF
:1013D30070747320746F20636C6F73656420706F17
:1013E3007274730A3C2F7072653E092020202020FE
:1013F3000A3C2F74643E3C74643E3C7072653E2F1D
:101403007463705F666F6F7465722E706C61696E62
:10141300000A3C2F74643E3C2F74723E3C2F74616F
:10142300626C653E0A3C2F63656E7465723E0A3CCE
:101433002F626F64793E0A3C2F68746D6C3E2F7483
:1014430063705F6865616465722E68746D6C0048D3
:101453005454502F312E3020323030204F4B0D0A50
:101463005365727665723A207549502F302E3920B4
:1014730028687474703A2F2F64756E6B656C732EC5
:10148300636F6D2F6164616D2F7569702F290D0A6C
:10149300436F6E74656E742D747970653A2074654C
:1014A30078742F68746D6C0D0A0D0A3C68746D6C4A
:1014B3003E0A3C626F6479206267636F6C6F723DB2
:1014C300227768697465223E0A3C63656E746572AF
:1014D3003E0A3C7461626C652077696474683D22DE
:1014E3003630302220626F726465723D2230223EB4
:1014F3000A3C74723E3C74683E52656D6F74653C81
:101503002F74683E3C74683E53746174653C2F7459
:10151300683E3C74683E52657472616E736D6973A4
:1015230073696F6E733C2F74683E3C74683E5469F4
:101533006D65723C2F74683E3C74683E466C61670F
:10154300733C2F74683E3C2F74723E0A0A000000FD
:10155300FF0003FF000E03CF0000FF1550FF03DD64
:10156300FF03E800310000FF155DFF0419FF0422AB
:10157300002C0000FF156AFF044EFF045A04980074
:1015830000FF1577FF08F2FF08FE02100000FF15A9
:1015930084FF0B0EFF0B1C02150000FF1591FF0DBE
:1015A30031FF0D3B00C00000FF159EFF0DFBFF0E3A
:1015B3000F00230000FF15ABFF0E32FF0E4500A204
:1015C3000000FF15B8FF0EE7FF0EF3016B0000FFED
:1015D30015C5FF105EFF107200230000FF15D2FF38
:1015E3001095FF10A8035A0000FF15DFFF1402FF38
:1015F3001414002D0000FF15ECFF1441FF145200DA
:03160300FE0000E6
:104EA100E47811F6C297EF339295D297EF25E0FFA0
:094EB100781106E6B408EDC29781
:014EBA0022D5
:104E3E00C297E47812F618F6D2977812E625E0FFBC
:104E4E00F6A296E4334FF6C2971806E6B408E97850
:034E5E0012E6FF5A
:014E6100222E
:0B4F3500EF1FAC0670011E4C70F6224E
:104E6200EF1FAC0670011E4C6017781176000876B1
:104E720064781108E6161886047001164C60E18009
:014E8200F03F
:014E8300220C
:094DCC00E4F0A3EFF0E4FD7F3AEE
:054DD5009003B8EDF0B1
:104DDA00C293541F4FFF124EA1124E3E9003B8E0E9
:084DEA0030E703124E3ED293A4
:014DF200229E
:104EBB009003BAEBF0C293ED541F4FFF124EA1902B
:0A4ECB0003BAE0FF124EA1D29322B9
:104D9B009003B9EFF05460781B6660247B037D1F92
:104DAB007FA0124EBB9003B9E05460C4135407FBB1
:104DBB007D1F7F80124EBB9003B9E05460781BF6C9
:014DCB0022C5
:104ED5009003B7EFF0124D9B9003B7E0FDE4FF128E
:034EE5004DD52286
:034E8400A3E0FDAB
:104E87009003B8EDF09003B7EFF0124D9B9003B786
:0A4E9700E0FDA3E0FB7F40024EBBEC
:104C2A00AD077FD4124E877D017FD2124E877FEA6D
:104C3A00124ED5EF20E0F77D017FD2124E877FD842
:104C4A00124ED59003FEE4F0A3EFF07FD9124ED5B1
:104C5A009003FEE0FEA3E04FFF9003FEEEF0FEA3FA
:024C6A00EFF069
:014C6C002225
:104D67009003AAECF0A3EDF0AD077FD4124E879025
:104D770003AA7FD6124E849003AAE0FD7FD7124E76
:104D8700877FEA124ED5EF30E0097F0F7E00124F82
:044D97003580EE2253
:104C6D009003B7EEF0A3EFF0A3EBF0A3EAF0A3E906
:104C7D00F0C2937F3A124EA19003B774FFF5F01274
:104C8D00294A45F06019124E3E9003B9E0FBA3E4AA
:104C9D0075F00112294AA9F0FAEF1228EE80D9D247
:024CAD00932250
:104CAF009003AFEEF0A3EFF0A3EBF0A3EAF0A3E9CC
:104CBF00F0C2937F7A80229003AF74FFF5F0122930
:104CCF004A45F060199003B1E0FBA3E475F00112BF
:104CDF00294AA9F0FA12283EFF124EA180D9D29389
:014CEF0022A2
:104686009003AAEEF0A3EFF0A3EBF0A3EAF0A3E900
:10469600F07D247F02124E877D1A7F03124E87908B
:1046A60003AAA3E02424FD7F06124E879003ABE005
:1046B60024249003AAE0341AFD7F07124E87E4FBF8
:1046C600FD7F7A124EBBD39002C9E094369002C8A1
:1046D600E09400500B9003AAE0FEA3E0FFA3802B1A
:1046E6009003ABE024CAF09003AAE034FFF09003F5
:1046F600ACE0FBA3E0FAA3E0F97F367E00124CAFF4
:104706009003AAE0FEA3E0FF90001BE0FBA3E0FA03
:0F471600A3E0F9124CAF7B087D1F7F80024EBBE2
:103CD7009003AAEEF0A3EFF0A3EBF0A3EAF0A3E9B9
:013CE700F0EC
:103CE8007F1C124ED5EF20E60B7F39124ED5EF70B0
:103CF80003FEFF22781AE6FDE4FF124E877819E6E4
:103D0800FD7F01124E87124DD17819760008A6075B
:103D1800124DD1EF781946F608E6F6124DD1900308
:103D2800B1124DCCEFFE9003B1E04EF0A3E0124D7E
:103D3800D09003AF124DCCEFFE9003AFE04EF0A34E
:103D4800E0F09003AAE0FEA3E0FF9003B1E0FCA33B
:103D5800E0FDC39FEC9E5006AE04AF0580009003C3
:103D6800B1EEF0A3EFF09003ACE0FBA3E0FAA3E020
:043D7800F9124C6D83
:103D7C007F09124ED59003B3E4F0A3EFF0E0F8E422
:103D8C00F0E89003B3F07F08124ED59003B3E0F047
:103D9C00A3E04FF07F0B124ED59003B5E4F0A3EFE8
:103DAC00F0E0F8E4F0E89003B5F07F0A124ED590FD
:103DBC0003B5E0F0A3E04FF0781AE624FFFF18E615
:103DCC0034FFFED39003B4E09F9003B3E09E500DFC
:103DDC00C39003B6E09F9003B5E09E500E9003B5E0
:103DEC007F0C124E849003B5E08013781AE614FD14
:103DFC007F0C124E87781AE624FF18E634FFFD7FFD
:043E0C000D124E87BE
:103E10007B407D1E7F80124EBB9003B1E0FEA3E08D
:013E2000FFA2
:013E2100227E
:034F5200024375A2
:104EFA009002C8E0FEA3E0FF7B017A0179DD024659
:014F0A008620
:0E4F1B007B017A0179DD7FE97E00123CD7220E
:104375007BFFE4FD7FFF124EBB7F057E00124E6280
:10438500E47819F608F6FD7F08124E87E4FD7F09EB
:10439500124E87E4FD7F0C124E87E4FD7F0D124E11
:1043A500877D237F0A124E877D1A7F0B124E877DEC
:1043B500247F04124E877D1A7F05124E877D0D7F5F
:1043C500C0124E87E4FD7FC1124E877B327DC27FCE
:1043D50080124EBB7D127FC6124E877D0C7FC712A1
:1043E5004E877D127FC4124E877DEE7FCA124E879F
:1043F5007D057FCB124E877D127FE4124E877D347B
:104405007FE5124E877D567FE2124E877D787FE3EA
:10441500124E877D907FE0124E877DAB7FE1124E75
:10442500877D007C017F10124D677F1F124D9B7B9E
:10443500C07D1B7F80124EBB7B047D1F7F80024E9B
:01444500BBBB
:104F0B003031323334353637383961626364656634
:104EE800758920758DFD758BFD759850438780D227
:024EF8008E2208
:104B5F007811A60308A60208A6017811860308E6B5
:104B6F00FA08E6F912283E602BB40A0875990D3041
:104B7F0099FDC2997811860308E6FA08E6F912281A
:104B8F003EF5993099FDC2997813740126F618E411
:044B9F0036F680C6A0
:014BA30022EF
:104446007814A60308A60208A6017814860308E6CF
:10445600FA08E6F912283E700302450D64257078C5
:10446600900001122857FF6478705578167402265A
:10447600F618E436F6EDC4540FFE7817F6ED540F31
:1044860008F6EEF5823395E0F583740B2582F58206
:10449600744F3583F583E493F5993099FDC2997885
:1044A60018E6F5823395E0F583740B2582F5827460
:1044B6004F3583F583E493F5993099FDC299808A47
:1044C600EFB463147816740226F618E436F68D995E
:1044D6003099FDC29902445012283EB40A087599D3
:1044E6000D3099FDC2997814860308E6FA08E6F9B4
:1044F60012283EF5993099FDC2997816740126F670
:0745060018E436F6024450F0
:01450D00228B
:030000000247BEF6
:0C47BE00787FE4F6D8FD758121024805E3
:10274800E709F608DFFA8046E709F208DFFA803E73
:1027580088828C83E709F0A3DFFA8032E309F60860
:10276800DFFA8078E309F208DFFA807088828C83C8
:10277800E309F0A3DFFA806489828A83E0A3F6087C
:10278800DFFA805889828A83E0A3F208DFFA804C56
:1027980080D280FA80C680D4806980F2803380102D
:1027A80080A680EA809A80A880DA80E280CA803396
:1027B80089828A83ECFAE493A3C8C582C8CCC5830E
:1027C800CCF0A3C8C582C8CCC583CCDFE9DEE780DE
:1027D8000D89828A83E493A3F608DFF9ECFAA9F05D
:1027E800EDFB2289828A83ECFAE0A3C8C582C8CCB3
:1027F800C583CCF0A3C8C582C8CCC583CCDFEADECC
:10280800E880DB89828A83E493A3F208DFF980CC2D
:1028180088F0EF60010E4E60C388F0ED2402B40426
:102828000050B9F582EB2402B4040050AF232345CD
:0628380082239027987333
:10283E00BB010689828A83E0225002E722BBFE0298
:09284E00E32289828A83E49322CB
:10285700BB010CE58229F582E5833AF583E0225036
:1028670006E92582F8E622BBFE06E92582F8E22280
:0D287700E58229F582E5833AF583E493229A
:10288400BB0111F8E58229F582E5833AF583E0C8B6
:1028940028F0E8225009C58229F8C58226C622BB41
:1028A400FE0DC58229F8E2C5822582F2E58222EA7C
:0728B4002583F583E993225F
:1028BB00BB010FF8E58229F582E5833AF583E02821
:1028CB00F0225009C58229F8E58226F622BBFE09C3
:1028DB00C58229F8E22582F222F8EA2583F583E9FD
:0328EB009328220D
:1028EE00BB010689828A83F0225002F722BBFE01C9
:0228FE00F322C3
:10290000F8BB010DE58229F582E5833AF583E8F00D
:10291000225006E92582C8F622BBFE05E92582C8B9
:02292000F222A1
:10292200EF8DF0A4A8F0CF8CF0A428CE8DF0A42EC9
:02293200FE2283
:10293400C5F0F8A3E028F0C5F0F8E582158270022E
:062944001583E038F022CB
:10294A00A3F8E0C5F025F0F0E58215827002158340
:06295A00E0C838F0E8229D
:10296000BB010A89828A83E0F5F0A3E02250068742
:10297000F009E71922BBFE07E3F5F009E319228904
:0B298000828A83E493F5F07401932237
:10298B00BB0110E58229F582E5833AF583E0F5F08A
:10299B00A3E0225009E92582F886F008E622BBFE67
:1029AB000AE92582F8E2F5F008E222E5832AF583AD
:0829BB00E993F5F0A3E9932272
:1029C300BB010FF8E58229F582E5833AF583E80236
:1029D300294A5011C58229F808C5F026C6F5F01812
:1029E300C58236C622BBFE15C58229F808E2C5F0AA
:1029F30025F0F218E2C5823582F2E58222E5832AC8
:0C2A0300F583E993F5F0A3E993C5F022F8
:102A0F00BB010DC58229C582C5833AC5830229340E
:102A1F005011C58229F808E5F026F618F5F0E58281
:102A2F0036F622BBFE11C58229F808E225F0F5F033
:102A3F00F218E23582F222F8E58229F582E5832A3F
:0D2A4F00F58374019325F0F5F0E49338222F
:102A5C00BB010A89828A83F0E5F0A3F0225006F7C5
:0F2A6C0009A7F01922BBFE06F3E5F009F31922C2
:102A7B00F8BB0111E58229F582E5833AF583E8F08D
:102A8B00E5F0A3F0225009E92582C8F608A6F0224A
:0D2A9B00BBFE09E92582C8F2E5F008F22231
:0C2AA800A42582F582E5F03583F5832239
:102AB400BB010789828A83022BF05005E9F8022BB7
:102AC400DEBBFE05E9F8022C1989828A83022C2BCD
:102AD400BB011A89828A83D0F0D0E0F8D0E0F9D023
:102AE400E0FAD0E0FBE8C0E0C0F0022C105016E998
:102AF400F8D083D082D0E0F9D0E0FAD0E0FBC082F5
:102B0400C083022BE7BBFE16E9F8D083D082D0E065
:0F2B1400F9D0E0FAD0E0FBC082C083022C22226D
:102B2300BB010DE58229F582E5833AF583022BF09B
:102B33005007E92582F8022BDEBBFE07E92582F860
:102B4300022C19E58229F582E5833AF583022C2BC1
:102B5300BB0120E58229F582E5833AF583D0F0D0E5
:102B6300E0F8D0E0F9D0E0FAD0E0FBE8C0E0C0F054
:102B7300022C105018E92582F8D083D082D0E0F9D6
:102B8300D0E0FAD0E0FBC082C083022BE7BBFE1883
:102B9300E92582F8D083D082D0E0F9D0E0FAD0E002
:092BA300FBC082C083022C222237
:062BAC008A838982E473B4
:10304100E50824B7F582E43403F583E0050822900E
:1030510003B43007039003B7E475F001122BF902B2
:10306100283E2000E97F2ED2008018EF540F2490D3
:10307100D43440D4FF30040BEF24BFB41A00500302
:103081002461FFE50960021509050CE50C700205D4
:103091000B30070E9003B4E475F001122BF9EF0227
:1030A10028EE024DF37403D2078003E4C207F5084A
:1030B1009003B4122C10E4F509F50BF50CE5096049
:1030C100077F2012308480F5750AFFC201C200C259
:1030D10002C203C205C206C208123050FF700D3091
:1030E10007057F00123095AF0CAE0B22B4255FC2ED
:1030F100D5C204123050FF24D0B40A00501A75F022
:103101000A780930D50508B6FF0106C6A426F620BF
:10311100D5047002D20380D924CFB41A00EF500431
:10312100C2E5D204023296D20180C6D20080C0D25A
:103131000280BCD2D580BAD20580B47F20123084FF
:103141002002077401B5090040F1123041FF12302D
:10315100840230BED208D2068095123041FB123073
:1031610041FA123041F94A4B700679677A337BFF95
:1031710020022EE509602A7E008E827583001228C6
:103181005760060EEE650A70F0C2D5EBC0E0EAC0EA
:10319100E0E9C0E0EE1232DDD0E0F9D0E0FAD0E0B3
:1031A100FB12283EFF60AAEBC0E0EAC0E0E9C0E004
:1031B100123084D0E02401F9D0E03400FAD0E0FBF1
:1031C100E50A0460DCD50AD980877BFF7A3279D998
:1031D100D202809C791080027908C206C208800858
:1031E100D2D5790A8004790AC2D5E50A047002F5BC
:1031F1000AE4FAFDFEFF123041FC7B0820011312A4
:103201003041FD7B1030000A123041FE123041FF87
:103211007B20EC3382D592D55013C3E43000069F56
:10322100FFE49EFEE42001039DFDE49CFCE4CBF859
:10323100C201EC700CCFCECDCCE824F8F870F3804D
:1032410017C3EF33FFEE33FEED33FDEC33FCEB330D
:10325100FB994002FB0FD8E9EB300105F8D0E0C43F
:1032610048B201C0E00AEC4D4E4F78207B0070C29D
:10327100EAB50A0040BCC0E01232DFD0F0D0E02055
:103281000104C4C0E0C4B201C0F012306DD0F0D569
:10329100F0EB0230BE122C37315B5331D558312C53
:1032A1004C31284231D94F31E14431E14931414377
:0832B10031E75531CB4631CB6A
:1032B9004531CB4733875031302D31342E31572B9F
:1032C90031382331552033702A30F0480000314F0E
:1032D9003F3F3F00790AA2D5200314300509B910F0
:1032E900020404B9080104A2D520060250010420F1
:1032F90002689202B509005034C0E07F20300319FA
:103309007F30A20272067205500F123336C202C212
:1033190006C205C2087F30800F300503E9C0E012FC
:103329003084300503D0E0F9D0E0B509CC30051779
:103339007F30B9100C1230847F583004077F7880B1
:1033490003B908031230843002057F2D0230847FCF
:10335900202008F87F2B2006F322920280CF286EC6
:10336900756C6C2900D2011230413001F8C2017824
:103379000930D50108F60230F02D50434958123072
:10338900412403B405004001E4903382931230755F
:0D339900743A123075D2037509040231D563
:102BB200EF4E6012EF60010EEDBB010B89828A833A
:102BC200F0A3DFFCDEFA2289F05007F709DFFCA947
:0C2BD200F022BBFEFCF309DFFCA9F0229E
:1047CA0002409AE493A3F8E493A34003F68001F22B
:1047DA0008DFF48029E493A3F85407240CC8C333F0
:1047EA00C4540F4420C8834004F456800146F6DFBF
:1047FA00E4800B01020408102040809045CCE47E3E
:10480A00019360BCA3FF543F30E509541FFEE493B3
:10481A00A360010ECF54C025E060A840B8E493A37A
:10482A00FAE493A3F8E493A3C8C582C8CAC583CAA5
:10483A00F0A3C8C582C8CAC583CADFE9DEE780BE5D
:014685000034
:092BDE00E6FB08E6FA08E6F9221C
:092BE700EBF608EAF608E9F62213
:092BF000E0FBA3E0FAA3E0F922E6
:102BF900F8E0FBA3A3E0F925F0F0E5821582700265
:072C09001583E0FA38F02208
:092C1000EBF0A3EAF0A3E9F022C5
:092C1900E2FB08E2FA08E2F922EC
:092C2200EBF208EAF208E9F222E3
:0C2C2B00E493FB740193FA740293F92205
:102C3700D083D082F8E4937012740193700DA3A32C
:102C470093F8740193F5828883E473740293686040
:062C5700EFA3A3A380DF40
:104DF300EFB40A07740D124DFE740A309811A89986
:104E0300B8130CC2983098FDA899C298B811F6301F
:074E130099FDC299F59922F7
:00000001FF
