:020000040000FA
:10000000020D9E022003FFFFFFFFFF02200BFFFFF8
:10001000FFFFFF020523FFFFFFFFFF02201BFFFF83
:10002000FFFFFF022023FFFFFFFFFF02202BFFFF48
:10003000FFFFFF022033FFFFFFFFFF020577FFFFF7
:10004000FFFFFF022043FFFFFFFFFF02204BFFFFE8
:10005000FFFFFF022053FFFFFFFFFF02205BFFFFB8
:10006000FFFFFF022063FFFFFFFFFF02206BFFFF88
:10007000FFFFFF022073FFFFFFFFFF02207BFFFF58
:10008000FFFFFF022083FFFFFFFFFF02208B002006
:10009000000090200000932000000100000000C834
:1000A0000300380000000000260000000000FFFFF1
:1000B000FFFF0000040074F8120B1B780079008029
:1000C0001A74922EF58274031201F4900412120134
:1000D000FE4005900412E4F01201EB900412E0FEE1
:1000E000A3E06E6007C3E89CE99D40D5806D74F87D
:1000F000120B1B120153C398120153FEE8500B124E
:1001000002CB700B7800790080141202E050F57A6F
:10011000007B00803CE004F0439A041201EBC3E84A
:100120009CE99D50288A828B83E0C0E0900497E090
:10013000FE74162E120308D0E01202BC900498E45C
:10014000F0900497E0C3947F40CBE480CAE8FAE9DA
:10015000FB800C900496E0F8A3E022E8FAE9FB7F2C
:1001600001020C8074F8120B1B7800790090051BBB
:10017000E0705AA3E0705675F900C28FC284A28362
:1001800040FCA28F4004A28350F8E5F9C28FA283FD
:100190005004D2848037C0E0E0FE749B2EF5827458
:1001A0000412030CD0E0F090051C1202F440D3E4DA
:1001B000F080CF749B2EF58274041201F490051B1D
:1001C0001201FE400590051BE4F01201EB90051BA7
:1001D000E0FEA3E06E6007C3E89CE99D40D5E849D6
:1001E0007006E4F090051BF002015BE8240108E9C9
:1001F0003400F92212030CE08A828B83F022E0049F
:100200001202C0C394802274F8120B1B90059D1239
:100210000156C39890059D120156FEE85007120240
:10022000CB700B80051202E04004EC4D70077A00A1
:100230007B000202B98A828B83E0F5F9A3AA82AB24
:1002400083780179008006E004F01201EBC3E89C9A
:10025000E99D50278A828B83E0C0E090059EE0FEF6
:10026000741D2EF582740512030CD0E01202BC90AE
:10027000059EE0C3947F40CFE480CEC28FA283402E
:10028000FCC284A28F4004A28350F890059D120204
:10029000FBE0F5F9C28F90059DE0FAA3E06A9005B6
:1002A0009D70051202FB80051202F44002E4F0A2E8
:1002B0008350D0D284E8FAE9FB02015F1202C02227
:1002C000F08A828B83A3AA82AB8322C39EF895E037
:1002D000F91202D522E824FF18E934FFF9E849228F
:1002E000C39EF895E0F9E8247FF8E93400F9C3E803
:1002F0009CE99D22E004F0C3948022E0FA741D2A58
:10030000F582740512030C22F58274043400F5831F
:100310002274FF120D2D1203FA1206D8E97003029F
:1003200003D77E00900390E06401700DC2849003B7
:10033000917401F09005B38005D2AF9005B77808AD
:10034000120D8F7C017D00851882851983AA82ABEE
:10035000831204DF8B0DEA450D6012E064F8602C17
:10036000E0640770089005BB7808120D8F85080CB3
:1003700085090D850A0E850B0F9005BF7808120DB3
:100380006BE50C450D450E450F70B80E900390E0DF
:1003900064017009D284900391E4F08002C2AFEE50
:1003A000A2E05033900390E06401700C75F800C235
:1003B000AB539AF7D2EA800C758600C2AAC28B535F
:1003C0009AFBC2E990000174CDF0022000C2AF7523
:1003D000C9AB75C95B80FE1204A4C2AF75C9AB7509
:1003E000C95B80FE781075B60FE5B4A2E750FAE558
:1003F000BBC39940F118E870ED22C082C083A2927D
:1004000050047A0080027A8053BEFBE59DA2E6503C
:10041000FA0078F87901001202D570FA8AC6E59ED2
:100420006A70FB43BE049062707408F0794A12034C
:10043000E490000174F5F07403F5D575D488A2A09A
:10044000E433900390F0A2E05029D28453F3F753A1
:10045000F3EF53FDF743FD10538FF753F7DF43FCE2
:100460002043F10253F5DF75F82043F4F0D2FED2B9
:10047000AB802C53FF3F85FFFF53F1FE43F30C533A
:10048000F2F375868075C480900499E4F0A3F0754A
:10049000C2D875C50B75C402438640D2AAD2E9D032
:1004A00083D0822274F5120B1B794E1203E4900361
:1004B00090E07002D2AF1205C8E960FAE0701B90BC
:1004C00005C37808120D8F009005BF7808120D6BD8
:1004D000E5084509450A450B70ED7F04020C80C014
:1004E00082C083900390E070051200B6801E9003D6
:1004F00091E06015A28F500DE5F98A828B83F07A26
:10050000017B0080077A0080F81201648091C0822C
:10051000C083900390E070051200EE800312020782
:1005200002049FC0E074F2120B81900001E064CDE0
:100530007005122013803BE064F57035E5C1C0E022
:10054000900413E0F8749228F582740312030CD01F
:10055000E0F0900412120156687006E595900415BB
:10056000F09004131202F44002E4F0A374C6F08089
:1005700001007F01020BE0C0E074F1120B819000DA
:1005800001E064CD700512203B8038E064F57032E4
:10059000120153687009539AFBA37401F08024C2BE
:1005A000E9900496E0F50874012508F07416250812
:1005B000120308E0F5C1900496E0C394804004E47F
:1005C00080DA007F02020BE074F7120B1B74FF123B
:1005D0000D2D7E008033900384E0F8851882851904
:1005E00083E068700D900382E0644D700512081B73
:1005F000E9FE900385E4F0900387F0851882851961
:1006000083E0F8900384E068F07C017D0085188227
:10061000851983AA82AB831204DF8B09EA4509702E
:10062000030206CCE0C0E0900387E0F8900385E089
:10063000FAE82AF8E434001209D3D0E0F0900387F6
:10064000E0601114602014603E14604E1460641465
:10065000608480A7851882851983E064FE709C9071
:10066000038774018094900384E4F08518828519CF
:1006700083E0900386F0C394809003874004E402F3
:1006800005FA74020205FA851882851983E0900341
:1006900082F090038774030205FA85188285198316
:1006A000E0900383F0900386E06019900387740460
:1006B0000205FA900385E004F0F8900386E0686094
:1006C000030205FB90038774050205FAEEF9740135
:1006D000120CFA7F02020C8074ED120B1B74FB12D9
:1006E0000D2D7508047509007808120D7E7402122C
:1006F0000DC91209C0120CFA851882E0F47003A328
:10070000E0F4600F851882851983E0F8A3E0F9E82A
:1007100049700302080F7402120DC9E0687003A348
:10072000E06970030207E975080090059F781012D0
:100730000D8F800A9005A37810120D43604A750A48
:1007400001750B00780A120D7E7406120DC9AC8279
:10075000AD8385100A85110BAA0AE50B5407FB8AA5
:100760000C85110D85120E85130F740B780C120D6C
:1007700014A90C1209CA120CFAE0F9AA08AB091262
:1007800009DF8A088B0980089005A77810120D8F61
:100790009005AB7810120D6B9005AF7810120CC05D
:1007A0005092E4F91209DFE4F91209DF7402120D24
:1007B000C9EAF0A3EBF07508017509007808120D7D
:1007C0007E7402120DC9AC82AD837A247B08120AB2
:1007D000A07402120CFA7508047808120D7E7402D7
:1007E000120DC91209C0120CFA1209B2120DC9E099
:1007F000687003A3E0697017851882851983E0F497
:100800007003A3E0F46008E849600479018002798C
:10081000007405120CFA7F0C020C8074F3120B1B8F
:1008200074FC120D2D900306E0FAA3E0F9EA24000F
:10083000F8F508E93408F509750A017F007E009093
:100840000383E014600C1460401470030208E20299
:10085000095FE5095401F9E8497011880C85090D13
:100860007409780C120DADA90C120B04750C108EC6
:100870000D780C120D7E7C087D03AA08AB09120AC4
:10088000A07402120CFA02095F880C85090D740924
:10089000780C120DADE50CC3947940040F02095F8A
:1008A000750A408E0B780A120D7E7C097D03EAF5ED
:1008B0000AE5095401F50B7402780A120D58AA0AC8
:1008C000AB0B74097808120DADA9081209CA120CF5
:1008D000FA900307E0A3F0900306E0A3F0750A4343
:1008E000807D7508048E097808120D7E7402120D41
:1008F000C91209C0120CFA7402120DC9E0F8A3E083
:10090000F9851882851983E0687003A3E069603B6C
:100910001209B2120DC9E8F0A3E9F07508017808D0
:10092000120D7E7402120DC9AC82AD837A247B084D
:10093000120AA07402120CFA7508047808120D7ECF
:100940007402120DC91209C0120CFA1209B2120D6A
:10095000C9E0687003A3E06970030E80027F07900E
:100960000305E0D2E7F0EFA3F0E50A900303F0748B
:100970004D650AF5087404250AFB7A0380071209FD
:10098000D0E062080AEAC39BA2D265D033EAF840FD
:10099000ED1209D0E508F074012AFC3395E0FD7AE8
:1009A000027B0312050EEEF97404120CFA7F0602A4
:1009B0000C80851882851983E0F8A3E0F97402227F
:1009C000AC82AD837A907B007904120A1B740222F8
:1009D0003395E0F9740228F582740339F58322C057
:1009E00008C0097C088A088B09740F7808120DADBD
:1009F000EAC333FAEB33FBE9A2E7500474014AFA85
:100A0000E508A2E0500874216AFA74106BFBE9C390
:100A100033F91CEC70CFD009D0082274F5120B1BEF
:100A20008908740B120DC9E0FEA3E0FF740F55088E
:100A3000F50A750B00740B780A120D58EA2400F8B9
:100A4000EB3480F9E82400E9350BF9E5C7F509A294
:100A5000AFE433F50AC2AFE508C4540FFAE5C75452
:100A6000F84AF5C7801C88828983E08C828D83F0E8
:100A700088828983A3A882A9838C828D83A3AC8278
:100A8000AD83EEFAEFFBEA24FF1EEB34FFFFEA4BE7
:100A900070D48509C7E50AA2E092AF7F04020C80FA
:100AA00074F7120B1B7409120DC9E0F508A3E0F5E9
:100AB00009ED900388F0ECA3F0A37462F0A37473C3
:100AC000F0A3E0541FF0E508333354FCA3F07406A0
:100AD0007808120DADE50890038CF090038E741227
:100AE000F0A37442F075D1FE75D601EA906271F000
:100AF000EBA3F0906270E0D2E1F0E0A2E740FB7F70
:100B000002020C80C082C083E9C333906272F0900D
:100B10006270E0D2E0F0D083D082222518C582C076
:100B2000E0E51934FFC583C0E0E518C3958224F9D8
:100B300010AF0885831985821880088583198582FE
:100B400018D2AFCEF0A3E520F0A37808E608F0A312
:100B5000DEFAEFF0A3E58124FBF8E608F0A3E6084F
:100B6000F0A30808E608F0A3E608F0A315811581B4
:100B7000D0E0FED0E0F815811581E8C0E0EEC0E0DD
:100B800022C0D02518C582C0E0E51934FFC583C056
:100B9000E0E518C3958224F310AF08858319858298
:100BA000188008858319858218D2AFC8F0A3E9F0B0
:100BB000A3EAF0A3EBF0A37908E709F0A3D8FAECD5
:100BC000F0A3EDF0A3EEF0A3EFF0A3D0E0F0A3D0FC
:100BD000E0F0A3D0E0F0A3E520F0A3E5F0F0A3223D
:100BE000851983851882E0C0E0A3E0F9A3E0FAA3A9
:100BF000E0FBA37808E0F608A3DFFAE0FCA3E0FD41
:100C0000A3E0FEA3E0FFA3E0C0E0A3E0C0E0A3E018
:100C1000F5D0A3E0F520A3E0A3F5F010AF0885839D
:100C2000198582188008858319858218D2AFD082F1
:100C3000D083D0E0F8D0E032120DD8B90003020C16
:100C40007AE4900302789E79038002F0A3D8FCD95D
:100C5000FA90059FAA82AB8390008E782979018053
:100C600015E493A3AC82AD838A828B83F0A3AA821E
:100C7000AB838C828D83D8E9D9E7120311120DD38F
:100C8000851983851882E0A3FEE0A3F5207808E0AB
:100C9000A3F608DFFAE0A3FFE0A3C0E0E0A3C0E012
:100CA000E0A3C0E0E0A3C0E010AF08858218858310
:100CB000198008858218858319D2AFD083D082220B
:100CC000C008C3E096F50808A3E096420808A3E030
:100CD00096420808A3E09645087001D3D008222563
:100CE00018F58210AF08F518400215198008F5189C
:100CF00040021519D2AF85198322C0D0251810AF34
:100D000008F518500205198008F51850020519D287
:100D1000AFD0D0226016080808C6C313C618C61381
:100D2000C618C613C618C613C6D5E0EA2225181081
:100D3000AF08F518400215198008F518400215197A
:100D4000D2AF22E066701008A3E066700A08A3E044
:100D500066700408A3E06622700422600D18C6C302
:100D600033C608C633C6D5E0F41822E026F608A339
:100D7000E036F608A3E036F608A3E036F622740261
:100D80008000C0E0F404120CDFD0E0120DBC22E0C1
:100D9000F608A3E0F608A3E0F608A3E0F62275D073
:100DA00000758140751802751903020C38600C0833
:100DB000C6C313C618C613C6D5E0F422CAC0E0E6FF
:100DC000F0A308DAFAD0E0FA222518F582E4351902
:100DD000F5832200000080FB790122FFFFFFFFFF67
:100DE000FFFFFFFFFFFFFFFFFFFFFFFFFFFFFFFF13
:100DF000FFFFFFFFFFFFFFFFFFFFFFFFFFFFFFFF03
:100E0000FFFFFFFFFFFFFFFFFFFFFFFFFFFFFFFFF2
:100E1000FFFFFFFFFFFFFFFFFFFFFFFFFFFFFFFFE2
:10200000022A9F0221E5FFFFFFFFFFFFFFFFFFFF07
:10201000FFFFFFFFFFFFFFFFFFFFFFFFFFFFFFFFD0
:10202000FFFFFFFFFFFFFFFFFFFFFF0227A6FFFFEE
:10203000FFFFFFFFFFFFFFFFFFFFFFFFFFFFFFFFB0
:10204000FFFFFF022649FFFFFFFFFFFFFFFFFFFF2C
:10205000FFFFFF022121FFFFFFFFFFFFFFFFFFFF49
:10206000FFFFFFFFFFFFFFFFFFFFFF02277EFFFFD6
:10207000FFFFFFFFFFFFFFFFFFFFFFFFFFFFFFFF70
:10208000FFFFFF02218101FFFFFFFFFFFFFFFFFFB7
:10209000102010200101FF01010503010F10FEFFB8
:1020A000AF34AF34AF34AF344D334733AF34CA47B6
:1020B00000000000324800000000FF000000FF00A8
:1020C0000100004F3700000000A1366338E936E513
:1020D000370000D7360000000000000000FF0101BB
:1020E000001F070000009707E80364006400B801C0
:1020F00002020008000005020701051E02051E027B
:102100000A0A0103B80B02803E0102FEFFE8030A3F
:10211000050001FFFF0A01E096511800020206FFC8
:10212000FFC0E074F2122469A2AFE433FED2AFE53F
:10213000A7FFE5A1F5085F5410600612405B75A18A
:10214000EFE5085F5408600812406175A1F780242C
:10215000E508A2E092F0EFA2E082F05017906198BB
:10216000E0F8900C52E0C398A2D265D0335002E858
:10217000F075A1FE751A00EEA2E092AF7F01022475
:10218000C8C0E074F2122469A2AFE433FED2AF906B
:1021900061A4E0F8759B00E59158540860087591BA
:1021A000F71240B58023E59158541060087591EFFF
:1021B0001240BB8014E591A2E092F0E8A2E082F028
:1021C0005007E0C2E0F012420B9061A3E0F8E5E9AD
:1021D000585404600E1241E175E9FB906193E0A24E
:1021E000E640F2808FC0E074F2122469A2AFE433BB
:1021F000FED2AF9061A5E0F8E5BF585404600675C3
:10220000BFFB124223022174C3E498F8E499F91247
:1022100022498026C3E49AFAE49BFBE920E7E9120D
:102220002249E498F8E499F922C3E498F8E499F98A
:10223000122249E498F8E499F9C3E49AFAE49BFB82
:1022400022EB20E7CFE920E7E0B90010BB0008E867
:102250008AF084F8AAF022E4FBC8FA22EB70227B11
:1022600010C833C8C933C9335007C39AC3DBF280DF
:10227000069A50012ADBEAC833F4C8C933F4C9FA14
:102280002275F008E4C833C8C933C933C99AC99B59
:102290005004C92AC93BD5F0ECFBC833F4C8E4C9E3
:1022A000FA22080808EAC0E0EBC0E086F0E7A4FAEA
:1022B000180986F0E7A42AFA180986F0E7A42AFA92
:1022C000180986F0E7A42AFA1986F0E7A4FBE5F0DE
:1022D0002AFA190886F0E7A42BFBE5F03AFA190868
:1022E00086F0E7A42BFBE5F03AFA18180986F0E728
:1022F000A4C5F02BFBE43AFA1908E7C5F0C6A426FA
:10230000F6E5F03BFBE43AFA1886F0E7A4F6E5F0D0
:102310000826F6E43B08F6E43A08F6D0E0FBD0E005
:10232000FA22E4CFC0E0E4CEC0E0E4CDC0E0E4CCEB
:10233000C0E075F020C3E633F608E633F608E6336E
:10234000F608E633F6181818EC33FCED33FDEE33DF
:10235000FEEF33FFC3EC9709ED9709EE9709EF976E
:10236000191919400FFFEC97FC09ED97FD09EE973D
:10237000FE191906D5F0BEECF709EDF709EEF709DD
:10238000EFF7191919D0E0FCD0E0FDD0E0FED0E065
:10239000FF222518C582C0E0E51934FFC583C0E0DF
:1023A000E518C3958224F810AF0885831985821833
:1023B0008008858319858218D2AFCEF0A3E520F07E
:1023C000A37808E608F0A3DEFAEFF0A3E58124FA8B
:1023D000F8E608F0A3E608F0A3E608F0A30808E68C
:1023E00008F0A3E608F0A315811581D0E0FED0E047
:1023F000F8158115811581E8C0E0EEC0E022122BAE
:1024000001B90003022453E49004D178C8790F8005
:1024100002F0A3D8FCD9FA781A9020867A01BA0083
:10242000028007E493A3F608DAF9901398AA82AB26
:1024300083902094788E79018015E493A3AC82ADCB
:10244000838A828B83F0A3AA82AB838C828D83D80C
:10245000E9D9E775822E7583C7740512286A7582DB
:1024600001758346740012286AC0D02518C582C041
:10247000E0E51934FFC583C0E0E518C3958224F375
:1024800010AF088583198582188008858319858295
:1024900018D2AFC8F0A3E9F0A3EAF0A3EBF0A37958
:1024A00008E709F0A3D8FAECF0A3EDF0A3EEF0A34F
:1024B000EFF0A3D0E0F0A3D0E0F0A3D0E0F0A3E5EC
:1024C00020F0A3E5F0F0A322851983851882E0C0EF
:1024D000E0A3E0F9A3E0FAA3E0FBA37808E0F608A4
:1024E000A3DFFAE0FCA3E0FDA3E0FEA3E0FFA3E08E
:1024F000C0E0A3E0C0E0A3E0F5D0A3E0F520A3E0B6
:10250000A3F5F010AF0885831985821880088583AC
:1025100019858218D2AFD082D083D0E0F8D0E032D3
:1025200075F0108E218F228582268583258518825D
:10253000851983E0CEA3E0CF852682852583EBC96C
:10254000EAC8EDCBECCAC3E833C8E933C9EA33CAF9
:10255000EB33CBC3EA9EF524EB9FF523B35004ABDA
:1025600023AA24EC33CCED33CDD5F0DAAE21AF2263
:1025700022D083D082ECC0E0EDC0E0E493A3FCE481
:1025800093A3FDED4C600D12268CEC24FFFCED3482
:10259000FFFD80EFE493A3FCE493A3FDED4C600DFD
:1025A000122729EC24FFFCED34FFFD80EFD0E0FD85
:1025B000D0E0FCE493A3C0E0E493C0E0228519835B
:1025C000851882E0A3FEE0A3F5207808E0A3F608D2
:1025D000DFFAE0A3FFE0A3C0E0E0A3C0E0E0A3C017
:1025E000E0E0A3C0E0E0A3C0E010AF08858218855A
:1025F00083198008858218858319D2AFD083D08251
:10260000022870D083D082E9C0E0E493A3C386F0AF
:10261000C5F095F0F908E493A386F0C5F095F07045
:102620000BE493A3C3994005E9048002A3E475F089
:1026300002A42582F582E5F03583F583D0E0F9E444
:1026400093A3C0E0E493C0E022C0E074F2122469D6
:10265000A2AFE433FED2AFC2C0901290E0700BE59F
:10266000D1A2E4501D123FBF8018E5D1A2E350066D
:1026700075D1F7123F95E5D1A2E4500675D1EF125E
:102680003F9BEEA2E092AF7F010224C8C0E0C3E40A
:102690009396087401939618400FE49366700808A7
:1026A000740193661870007019A3A3C3E49396088D
:1026B0007401939618A3A3400DD0E0D0E0D0E002BF
:1026C00025ADA3A3A3A3A3A3D0E022740480047424
:1026D000028000CCC0E0EDC0E0E518C39CCCAD1991
:1026E00050011D10AF068C188D1980068C188D199D
:1026F000D2AF1227ECD0E0FDD0E0FC2274028000C3
:10270000CCC0E0EDC0E0E518C39CCCAD1950011D74
:1027100010AF068C188D1980068C188D19D2AF1247
:1027200027CAD0E0FDD0E0FC22C0E0C0F088F0E491
:10273000936670080874019366187000A8F0A3A34C
:10274000700BD0F0D0E0D0E0D0E00225ADA3A3D054
:10275000F0D0E022D083D082CCC0E0E493A3600626
:1027600012284B1470FAE493A36006122923147004
:10277000FAD0E0FCE493A3C0E0E493C0E022C0E020
:1027800074F2122469758900C2C5901290E0700E2F
:102790007A007B1090069AE0F91239C58003124442
:1027A000937F010224C8C0E0C0D0E8C0E0E9C0E0E7
:1027B000E5A8D2AFC2C7751A00A2E7A2E792AFD0D0
:1027C000E0F9D0E0F8D0D0D0E032CAC0E0E493A382
:1027D000C582CCC582C583CDC583F0A3C582CCC5D7
:1027E00082C583CDC583DAE5D0E0CA22CAC0E0E065
:1027F000A3C582CCC582C583CDC583F0A3C582CCD9
:10280000C582C583CDC583DAE6D0E0CA2270090847
:102810000808226016181818C6C333C608C633C67F
:1028200008C633C608C633C6D5E0EA22C008C3E0EE
:1028300096F50808A3E096420808A3E09642080827
:10284000A3E09645087001D3D00822C0E0E493A32A
:10285000D39C5010E493A3C39C400AD0E0D0E0D0B6
:10286000E0022771A3A3A3D0E022C09FF59FE473E9
:10287000D09F22D083D082C09FE493C0E0740193A4
:10288000C0E0740293F59F222518F58210AF08F579
:1028900018400215198008F51840021519D2AF85A5
:1028A0001983227404800A740380067402800274FF
:1028B00001C0E0F404122888D0E0122ADC22C0D043
:1028C000251810AF08F518500205198008F51850A2
:1028D000020519D2AFD0D022BB0102E722C082C0CC
:1028E0008389828A83BB0003E08002E493D083D093
:1028F00082226016080808C6C313C618C613C61875
:10290000C613C618C613C6D5E0EA22C3E0C696F6BB
:1029100008A3E0C696F608A3E0C696F608A3E0C6AC
:1029200096F622C0E0E493A36C7009D0E0D0E0D02A
:10293000E0022771A3A3D0E022251810AF08F518F4
:10294000400215198008F51840021519D2AF22E788
:102950006670100809E766700A0809E766700408DF
:1029600009E76622C3E09608A3E09608A3E096086C
:10297000A3E096A2D265D03322E066701008A3E0EF
:1029800066700A08A3E066700408A3E06622C3E04C
:1029900096F008A3E096F008A3E096F008A3E0966E
:1029A000F022C3E697F60809E697F60809E697F6D7
:1029B0000809E697F622E026F008A3E036F008A31F
:1029C000E036F008A3E036F022E627F60809E637FD
:1029D000F60809E637F60809E637F62270042260A1
:1029E0000D18C6C333C608C633C6D5E0F41822E6B0
:1029F00047F60809E647F60809E647F60809E647F4
:102A0000F622E657F60809E657F60809E657F608EB
:102A100009E657F622E056F608A3E056F608A3E0CA
:102A200056F608A3E056F622E056F008A3E056F06A
:102A300008A3E056F008A3E056F022E026F608A32B
:102A4000E036F608A3E036F608A3E036F622E4C343
:102A500096F608E496F608E496F608E496F6226000
:102A60000D08C6A2E713C618C613C6D5E0F322C6E2
:102A7000F4C608C6F4C608C6F4C608C6F4C622C31F
:102A8000E7960809E7960809E7960809E79622C33A
:102A9000E09608A3E09608A3E09608A3E0962275C6
:102AA000D0007581407518D1751904000223FEE02D
:102AB000F608A3E0F608A3E0F608A3E0F622600C0F
:102AC00008C6C313C618C613C6D5E0F422E6F0083C
:102AD000A3E6F008A3E6F008A3E6F022CAC0E0E609
:102AE000F0A308DAFAD0E0FA22E0FAA3E0FBA3E0D0
:102AF000FCA3E0FD22EAF0A3EBF0A3ECF0A3EDF0E1
:102B000022E5C754F84401F5C77901222518F5825A
:102B1000E43519F58322C2AF75D69F020000221258
:102B20002873D3EB0312287349EC0312287365EC66
:102B30000312287399EC03122873D8EC031228733C
:102B4000C4ED031228737BEE0312287313F10312F2
:102B5000287369F2031228731EF3031228733AF4E0
:102B60000312287358F4031228730080021228738A
:102B70003880021228737280021228739480021225
:102B80002873A68002122873F880021228735881D5
:102B900002122873E58102122873938202122873AD
:102BA000DB82021228731583021228733283021209
:102BB0002873598302122873AF8302122873C883C3
:102BC00002122873EE83021228732C8402122873D7
:102BD000818402122873AA8402122873FC840212D0
:102BE0002873BF8502122873408602122873FA8662
:102BF00002122873C58702122873098802122873EB
:102C0000328802122873748802122873A88802126C
:102C100028732F8A02122873F18A02122873178BE5
:102C2000021228733D8B021228735F8B02122873E5
:102C30006E8B02122873798B02122873328C021267
:102C40002873928C02122873588D02122873608D9B
:102C500002122873EF8D021228735E8E02122873FF
:102C60009E8E02122873EF9002122873EB910212CB
:102C700028735992021228735693021228733E94B5
:102C80000212287379940212287302950212287393
:102C9000279502122873389502122873B2950212F2
:102CA00028734096021228739B96021228736A9723
:102CB000021228738C9702122873979802122873B5
:102CC000B59802122873C89802122873209902122C
:102CD00028732F9902122873B79902122873069A43
:102CE000021228730F9A021228732B9C0212287367
:102CF000909D02122873A99D02122873E79E02126A
:102D00002873649F02122873ADA002122873EFA0EB
:102D1000021228732BA1021228734FA202122873E9
:102D2000C0A402122873CBA402122873D6A40212E4
:102D30002873E1A402122873EBA402122873F6A4EC
:102D40000212287310A5021228731AA50212287302
:102D500024A5021228732FA5021228733AA5021285
:102D6000287362A502122873BDA502122873C7A595
:102D700002122873D2A502122873F6A50212287334
:102D80001AA60212287385A602122873C9A6021277
:102D90002873E5A60212287360A702122873A7A75A
:102DA00002122873F3A7021228735DA80212287377
:102DB00020A9021228731AAB0212287383AB0212E5
:102DC0002873B9AC02122873DFAC021228733AAE32
:102DD00002122873DDB102122873B0B302122873F5
:102DE00077B5021228731EB6021228739BB702121F
:102DF000287331B80212287383B802122873E7B817
:102E000002122873F6B80212287384BB02122873C8
:102E1000C6BC0212287342BE0212287394BE02126C
:102E2000287389BF021228736EC102122873FBC275
:102E3000021228731AC3021228736FC30212287376
:102E400070C40212287398C402122873ECC40212D0
:102E50002873D2C50212287310C6021228735BC6EB
:102E600002122873BCC60212287302C80212287309
:102E700073C8021228739DC9021228733DCC021236
:102E800028736ECC02122873FFCE0212287368CF0B
:102E90000212287370D002122873F8D0021228731D
:102EA0006BD1021228732AD202122873CFD20212D7
:102EB00028736FD30212287301D4021228734AD4E4
:102EC000021228737BD4021228733CD60212287394
:102ED000C180011228730D8101122873F38301123E
:102EE00028733284011228737C84011228737D8533
:102EF00001122873E18501122873218601122873BB
:102F0000658601122873B78701122873F08A0112AF
:102F10002873328C01122873C88C011228738D9784
:102F200001122873239801122873209B0112287321
:102F30005C9C01122873D79C01122873059E011214
:102F40002873599F0112287342A0011228730AA204
:102F5000011228731AA401122873A3A40112287362
:102F600077A5011228730FA60112287319A6011262
:102F7000287347A60112287305A701122873E3A737
:102F800001122873BAA80112287352A901122873DA
:102F9000E6A901122873FCA9011228735DAA011287
:102FA000287386AA01122873B3AA01122873F8ACF9
:102FB00001122873E0AD0112287324AE01122873A8
:102FC00091AE011228734AAF011228737CAF01122F
:102FD0002873C3AF01122873F9AF0112287366B0CA
:102FE00001122873BBB001122873C0B001122873FC
:102FF00014B1011228735EB1011228735FB201127D
:103000002873C4B20112287320B3011228739EB32F
:103010000112287396B6011228738CB70112287317
:103020001FB9011228736DBB011228731EBC011257
:103030002873C5BC0112287307BF01122873AABFE9
:1030400001122873E8BF01122873C7C10112287347
:10305000E4C101122873EDC10112287311C20112DB
:1030600028731CC2011228733BC2011228736AC460
:1030700001122873BFC401122873C9C40112287336
:10308000D3C4011228732EC5011228738AC50112F8
:103090002873BDC6011228731EC70112287373C896
:1030A00001122873C4C8011228735AC90112287367
:1030B00067CA011228731CCB011228731BCC0112A2
:1030C00028734ECD01122873E2CD011228735BCE16
:1030D0000112287372CE01122873AFCE0112287329
:1030E000B9CE01122873C3CE01122873CECE0112BD
:1030F0002873ECCE011228732ECF011228738BCFC8
:1031000001122873B0CF01122873CACF011228739D
:1031100050D00112287386D001122873B5D1011244
:103120002873FED101122873EBD20112287321D328
:1031300001122873B5D30112287347D401122873E2
:10314000C0D501122873F3D601122873A5D7011236
:1031500028736CD8011228730BD9011228736FD908
:10316000011228734DDA011228739FDA01122873B5
:1031700005DB01122873D0DB01122873F3DB011287
:1031800028737CDC01122873A0DC01122873C2DCD6
:103190000112287323DD0112287370DF01122873D6
:1031A0004DE001122873F8E00112287323E30112A5
:1031B000287371E301122873BEE30112287300E43F
:1031C000011228735AE40112287388E4011228734B
:1031D000ACE401122873EFE40112287319E501121F
:1031E000287355E501122873B4E50112287321E60E
:1031F000011228736CE7011228738AE901122873FF
:10320000CBE901122873F4E9011228737FEA011255
:1032100028730BEB0112287341EB011228737CEB2E
:1032200001122873A0EB01122873F5EB0112287329
:1032300010EC01122873C9EC0112287312ED01126F
:10324000287331F00112287364F0011228730DF114
:10325000011228730AF20112287352D20512287340
:1032600091D205122873648003122873A780031279
:1032700028736181031228736A820312287386837C
:1032800003122873388503122873AC850312287340
:10329000628603122873718703122873D88703127A
:1032A0002873148803122873808803122873B9883E
:1032B0000312287309890312287392890312287351
:1032C000368A03122873098B03122873D58B0312D5
:1032D00028735F8C03122873858C03122873B28CB9
:1032E00003122873E38C03122873878D031228734B
:1032F000968E03122873A68E03122873F68E03127D
:103300002873038F03122873188F03122873218FD9
:10331000031228737B8F03122873D88F031228732C
:103320002290031228733D900312287364900312B5
:1033300028738190031228738D9003122873AD9225
:1033400003122873C692031228734F930312287333
:103350006293031228737493031228732A9403123E
:103360002873349503122873D89603122873639731
:1033700003122873669703122873CE9703122873DB
:10338000DF97031228737198031228739F98031212
:103390002873A19803122873D998031228733699B9
:1033A000031228735A990312287378990312287309
:1033B000C69903122873E69A031228733E9B0312E0
:1033C0002873979B03122873269C031228734E9C24
:1033D00003122873849C03122873939C031228738E
:1033E000F19C03122873619D031228739E9D0312A2
:1033F0002873D99D03122873049E031228731E9EFE
:1034000003122873389E03122873F29E0312287346
:10341000FC9E03122873389F03122873489F0312DF
:103420002873519F03122873B19F03122873C59FFD
:1034300003122873CEA003122873E1A0031228738D
:10344000F8A0031228730DA103122873AFA1031271
:1034500028732EA203122873D1A203122873DDA2AF
:10346000031228730FA4031228732BA403122873CA
:1034700083A403122873BCA403122873D1A40312DB
:10348000287333A503122873D2A5031228731DA62F
:103490000312287376A80312287322A90312287333
:1034A00052AA03122873E6AA0312287314AD03125A
:1034B00028732CAD031228732FAD031228733BAD74
:1034C000031228734FAD0312287357AD03122873EC
:1034D00097AD03122873B5AE0312287338AF0312E9
:1034E0002873BAAF0312287334B003122873EFB0F5
:1034F0000312287311B103122873ADB1031228739C
:10350000B9B103122873E4B103122873E7B10312AF
:10351000287314B20312287329B2031228738EB2CF
:1035200003122873F0B30312287379B503122873BA
:1035300004B6031228732CB703122873F9B70312C9
:1035400028732AB80312287356B80312287338B99F
:103550000312287367B90312287326BA031228735B
:10356000CEBA0312287342BB03122873DDBB0312C9
:10357000287363BC0312287399BC03122873DABC46
:10358000031228730FBD03122873B3C004122873EB
:1035900002C1041228733FC1041228738FC10412A0
:1035A000287313C2041228735BC4041228734CC618
:1035B00004122873FBC9041228739FCA04122873CB
:1035C000DACA04122873F8CA0412287358CB0412FA
:1035D000287380CB04122873B0CB04122873E1CB7C
:1035E0000412287318CC0412287369CC04122873AF
:1035F000B5CC0412287393F20112287311F301124F
:10360000287347F301122873AFF30112287322F5D0
:10361000011228733EF50112287383F501122873F5
:1036200010F60112287367F6011228738AF7011247
:103630002873ADF8011228730AF90112287376F97C
:10364000011228731FFA0112287380FA01122873DD
:10365000C9FA0112287376FB0112287380FC01124B
:103660002873C3FC011228730CFD0112287343FD5B
:1036700001122873E6FD0112287395FE01122873CA
:10368000A1A705122873B2A70512287317A805125F
:103690002873C4A805122873FDA805122873C9F061
:1036A0000212287374F10212287322F20212287394
:1036B000AFF20212287387F5021228733AF702124A
:1036C0002873F1F7021228734FF8021228736FFB68
:1036D0000212287305FD0212287334C905122873DB
:1036E0005CC90512287350CA05122873BA850512E1
:1036F00028733F8605122873568605122873CB86D9
:10370000051228732987051228735287051228731A
:10371000CF8705122873728805122873D78805127F
:1037200028733B89051228735C89051228738D89DB
:1037300005122873AB8905122873D28905122873E4
:10374000028A05122873488A05122873AE8A051268
:103750002873EDCC041228739CCD04122873BCCDC1
:1037600004122873DCCD04122873F0CD04122873E0
:1037700050CE0412287380CE0412287307D004128E
:103780002873B0D00412287392D104122873E1D1A7
:103790000412287325D2041228738AD204122873C3
:1037A000F6D20412287317D3041228739AD3041282
:1037B00028734FD504122873BFD50412287365D718
:1037C0000412287336D8041228737CD80412287384
:1037D000D6D80412287398C005122873A2C0051207
:1037E00028734FDE031228730974001228730376BE
:1037F0000012287339770012287320790012287379
:10380000787900122873477A00122873877A001299
:103810002873D17A001228738C7B00122873FF7BE7
:1038200000122873017C00122873037C0012287395
:10383000057C00122873227C00122873427C00123F
:1038400028738BEB03122873887C001228730C7D7D
:10385000001228735E7D00122873D97D0012287330
:1038600000800412287326800412287384810412B5
:103870002873AF81041228732E8204122873528297
:1038800004122873728204122873BC8204122873F3
:10389000E68204122873FE8304122873348404120F
:1038A00028736384041228739684041228735F8536
:1038B000041228737F8504122873C78504122873A5
:1038C000218704122873A38704122873978804128F
:1038D0002873618904122873938904122873EC8970
:1038E00004122873508A04122873C18A04122873A0
:1038F000258B04122873638B04122873A18C041285
:103900002873D68C04122873338D04122873EA8D21
:1039100004122873188E04122873AB8F04122873B4
:103920001F90041228735290041228738E90041270
:103930002873A790041228736391041228732D92A0
:1039400004122873E19204122873769304122873E8
:10395000299404122873B194041228735895041200
:1039600028737EF804122873CAF80412287338F9F1
:103970000412287359F90412287370F90412287379
:1039800020FA0412287329FA041228737CFA04120C
:103990002873A5FA04122873BAFA0412287323FBB9
:1039A00004122873B4FB04122873F0FB041228736A
:1039B0003CFC04122873A3FC04122873DCFC0412E0
:1039C000287362FD04122873A1FD04122873E2FD1E
:1039D0000412287319FE041228732BFE0412287394
:1039E0003DFE0412287370FE04122873B0FE041208
:1039F00028738B9005122873CE9105122873F491C9
:103A0000051228730592051228731E940512287357
:103A10003D9405122873E5C2051228731BC30512D5
:103A2000287366C305122873B4C405122873ECAB5F
:103A30000412287337AD0412287373AD041228736F
:103A40002AAF0412287353AF04122873EBB1041287
:103A500028732BB204122873CCB30412287366B4F3
:103A600004122873CEB4041228735BB504122873B1
:103A700093B504122873D3B50412287366B70412E1
:103A8000287305B90412287354BB0412287382BB2F
:103A900004122873AEBB04122873B7BB0412287338
:103AA00012BC04122873A8BC04122873D1BF0412DC
:103AB000287356C004122873B4D105122873CAD1D2
:103AC00005122873D4D10512287324D20512287345
:103AD000FC9E05122873159F05122873BA9F0512C4
:103AE0002873FA9F0512287313A0051228734CA09F
:103AF0000512287399A005122873CBA0051228730C
:103B00000DA10512287310A3051228737AA30512BC
:103B10002873D9FE041228732EFF0412287387FF1E
:103B20000412287365D005122873B8D005122873C3
:103B3000FAD0051228730AD1051228731A960412B6
:103B400028736F96041228737A96041228737F974D
:103B5000041228735198041228736698041228736B
:103B6000B098041228731699041228732999041224
:103B700028736D9904122873E69904122873499CDE
:103B8000041228735C9D04122873B79D04122873D5
:103B9000D39F0412287313A0041228735EA004128A
:103BA000287374A00412287381A004122873BAA089
:103BB00004122873CCA004122873B5A10412287330
:103BC000C0A10412287328A20412287380A2041230
:103BD0002873DDA2041228730BA40412287333A4E3
:103BE00004122873BBA604122873E3A604122873D8
:103BF0006CA704122873E2A704122873EEA704121C
:103C000028732AA80412287398A8041228737DA97F
:103C100004122873B6A904122873C0A904122873C9
:103C2000C3A904122873CDA904122873E9A90412A8
:103C3000287364AA041228739DAA04122873B9AACF
:103C400004122873E5AA0412287320AB0412287307
:103C50003BAB0412287346AB0412287382AB0412E8
:103C6000287395AB04122873BCAB041228730CFFA5
:103C7000011228731DFF01122873A6FF0112287379
:103C8000C1E90412287310EA04122873CDEB041260
:103C90002873ABED04122873EFED04122873E4EEE1
:103CA0000412287315F00412287337F004122873D5
:103CB00093F00412287317F104122873954B001225
:103CC0002873C34B00122873134D001228735C4DE8
:103CD00000122873B14D001228732D4E0012287364
:103CE000964E00122873DE4E00122873674F0012A2
:103CF00028730A5000122873925000122873D35070
:103D000000122873325500122873BA560012287315
:103D1000F3560012287337570012287354580012B4
:103D20002873745B00122873065C00122873CF5D41
:103D300000122873045F00122873086000122873B1
:103D40007760001228733F6100122873946100129B
:103D500028739761001228735462001228738F63CE
:103D600000122873CE65001228737F680012287332
:103D70005D6900122873976A00122873176E00128B
:103D80002873276E001228736C6F0012287311704D
:103D900000122873367100122873D1710012287333
:103DA000FA720012287379730012287373D6021204
:103DB000287330D702122873ADD702122873BCD7EC
:103DC0000212287345D8021228739CD80212287355
:103DD000A7D902122873D0D90212287378DA0212F6
:103DE0002873CBDA0212287336DB0212287395DBB4
:103DF000021228739ADE021228734ADF0212287315
:103E0000B9DF0212287349E10212287301E202129B
:103E100028739EE202122873FFE20212287379E3EC
:103E20000212287372E4021228735CE502122873EE
:103E3000A2E502122873DBE502122873EFE50212F5
:103E4000287338E602122873BCE60212287332E89F
:103E50000212287308EA02122873FDEA021228737C
:103E60003CEC0212287351ED02122873F6ED021297
:103E7000287367EE0212287335EF0212287354F18B
:103E800004122873A4F104122873FBF1041228739E
:103E900046F2041228737FF204122873CFF2041240
:103EA00028735FF404122873F4F4041228732EF5B7
:103EB000041228734AF504122873A1F5041228731A
:103EC00001F6041228732BF60412287330F604123C
:103ED0002873E1F604122873C9F704122873C8BBCB
:103EE00005122873F9BB05122873C2BC051228738A
:103EF00028BD0512287399BD05122873A8C705129D
:103F0000287310CE0512287321CE05122873C1CE56
:103F100005122873F5FF02122873ECFF03122873B1
:103F2000DBCE05122873EBCE0512287300CF0512E5
:103F3000287391CF05122873F07E00122873757FC5
:103F400000122873DB7F001228732ED3051228730A
:103F500031D305122873DCFF02122873ECFF021222
:103F60002873EFFF02122873F2FF02122873F87F02
:103F70000012287317C50512287339C50512287356
:103F8000A7C6051228732BC70512287305D305127F
:103F900028730ED30512287317D30512287325D35F
:103FA000051228730080051228736C80051228738F
:103FB0003381051228733F82051228732A84051263
:103FC0002873858405122873DA8405122873EB841C
:103FD00005122873FD84051228736785051228735E
:103FE0007B85051228738685051228739485051232
:103FF0002873A68505122873949505122873E995F0
:1040000005122873E597051228731798051228736F
:104010003998051228735298051228736B98051267
:104020002873759905122873109A051228731AFEC1
:10403000031228733EFE0312287357FE03122873DF
:1040400096FE03122873C9FE03122873F9FE0312A9
:10405000287303FF031228736BFF031228736EFF8C
:104060000312287378FF0312287385FF0312287345
:1040700087B605122873AFB605122873F0B605127D
:10408000287302B7051228731DB70512287385B768
:104090000512287391B705122873F0B7051228731B
:1040A0001CB8051228732BB8051228734FB80512D7
:1040B000287310B9051228731DB9051228732EB97B
:1040C000051228739BD205122873B3D205122873E8
:1040D000A68B05122873158D051228731B8D0512EA
:1040E0002873328D05122873538D05122873698D3C
:1040F000051228737D8D05122873FC8D0512287317
:10410000618E05122873E98E05122873628F0512DD
:1041100028733B90051228734B90051228735A9010
:10412000051228731BD1051228733FD1051228737D
:1041300067D1051228738FD1051228735CB9051257
:10414000287383B905122873A4B90512287316BA07
:10415000051228732DBE0512287346BE051228735A
:104160005DBE0512287366BE0512287384BE051253
:1041700028738EBE0512287398BE05122873ABBE35
:104180000512287300BF0512287339BF0512287362
:1041900067BF05122873B8BF0512287309C005123E
:1041A000287324C0051228732EC0051228733FC03F
:1041B0000512287385C0051228738FFF0312287318
:1041C000E0FF0312287393F403122873BFF4031261
:1041D0002873DDF403122873F0F4031228730BF52F
:1041E000031228736AF50312287398F503122873D3
:1041F000B6F903122873ECFA031228731EFB03129C
:10420000287386FB0312287303FD031228732BFD0A
:104210000312287340FD0312287350FD0312287304
:1042200090FD03122873DCFD03122873ECFD0312CA
:104230002873C5CB05122873D5CB05122873F3CB91
:10424000051228730ECC0512287335CC051228737D
:1042500056CC0512287370CC05122873A8CC051211
:104260002873CBCC05122873A1CF05122873F7CF82
:104270000512287386AF051228738DAF05122873B7
:10428000E3B00512287313B10512287343B1051268
:10429000287376B10512287388B105122873C4B14A
:1042A000051228732AB20512287366B20512287304
:1042B000ADB205122873DAB205122873FBB20512EB
:1042C000287345FE0212287367FE021228738CFFC2
:1042D000021228738FFF0212287392FF02122873B2
:1042E000FDCC051228736FCD05122873ADCD0512D4
:1042F0002873EECD051228738DE10412287393E123
:1043000004122873E0E10412287304E404122873F1
:104310003CE404122873A8E40412287375E504121F
:104320002873BAE504122873EDE50412287377E6C2
:10433000041228738FE60412287332E804122873DB
:104340002AE90412287388E904122873EAD80412AF
:10435000287300D904122873B2D904122873ADDA75
:1043600004122873A5DB041228733DDC04122873A1
:104370007CDC04122873F4DC0412287356DD04126A
:10438000287366DD041228738DDD04122873DFDDC7
:104390000412287372DF0412287377DF0412287363
:1043A00099DF0412287387A305122873A6A30512A8
:1043B0002873EAA30512287306A40512287337A4EC
:1043C000051228734FA40512287367A405122873D9
:1043D0007FA40512287325A50512287363A505126D
:1043E00028736DA50512287386A50512287394A657
:1043F00005122873A6A605122873B1A60512287304
:10440000C3A605122873CCA605122873D6A60512DA
:1044100028733AA7051228734F9A05122873769EBF
:1044200005122873929E05122873B9AB05122873E2
:10443000CFAB051228736EAD05122873B9AD051206
:10444000287324AE0512287326AF0512287355AFC2
:104450000512287367AF0512287381CA05122873E5
:1044600050B305122873ACB305122873ECB30512D0
:104470002873F4B4051228730CB50512287321B5FE
:10448000051228734DB50512287384B505122873DB
:1044900094B505122873AAB505122873CFB5051275
:1044A00028735AB605122873D9D205122873EEDD87
:1044B0000312287395DD031228731ADD0312287383
:1044C000F1DC03122873F1DA03122873C1DA031244
:1044D000287395DA0312287376DA0312287369D9E0
:1044E000031228738AD803122873EED70312287395
:1044F00093D7031228730FD60312287375D50312AE
:10450000287372D5031228738DD40312287367D4CD
:1045100003122873A4D303122873E7D1031228735C
:1045200083D10312287355D10312287352D1031279
:10453000287344D103122873D4EA0312287346EA7D
:104540000312287337EA031228733BE70312287318
:1045500073E4031228730BD103122873F3D00312F0
:104560002873A3CF0312287362CF0312287340E38A
:1045700003122873E0CE03122873ACCE0312287303
:1045800053CE0312287322CE031228737CE2031247
:1045900028736C7C00122873E6CA031228730CCAB5
:1045A00003122873BAC903122873AEC90312287301
:1045B00007C903122873D1C70312287317C5031242
:1045C0002873A4C20312287362C20312287319C18C
:1045D00003122873C0C003122873F2BF031228739A
:1045E000AEBF03122873E1BD0312287377BD031217
:1045F0002873B1BD03122873C1E003122873C3C02E
:104600000500000080FBE4738F00010009088700AB
:104610000100080824000200EC1325000200EE133C
:1046200026000200F01327000200F2132800010008
:10463000F41329000100F51384000400F61386002A
:104640000100FA132A000100FB132B000100FC13E8
:104650002C000100FF132D000800F0072E000100C0
:1046600000142F0001000114300001000214310079
:104670000100031432000100F80733000100F907BC
:1046800034000100041436000100FA07380001006C
:10469000051439000100FE138300020017146300A3
:1046A0000100050864000100ED0765000100FD132D
:1046B0006D00010006086E000200EE0766000100B2
:1046C00016144300010007144400020008144500BA
:1046D00001000A14460002000B1447000800FD0701
:1046E000480001000D144B0001000E1404000100ED
:1046F0001914A10001001B14370001001A148800CE
:1047000001000A083C000100FB073D0001000614FF
:10471000490002000F146700010007084D00020065
:1047200011144E00010013144F00020014143E0037
:104730000100FC0700000000000000013636010106
:104740000001020100010301000104010606050247
:104750000000070100340801000F090401010D01E8
:1047600000FF0E08000017020000190100FF1A01E7
:1047700000011B0100FE1C0100081D0200001F01BA
:10478000000120010001210200002301000F24028A
:1047900000002601000127010008280200FF2A016D
:1047A00000072B0102402C0100002D0100012E0109
:1047B00000012F0100FF30010B1C310800003A01FD
:1047C00000083B01000F2F010000030071003001C1
:1047D00060001100700031022003500480001000BE
:1047E0006100000014006300730072006200430067
:1047F000000013000600000000000400120000008A
:1048000000000000000004000400370037003C02F4
:1048100044000000000000000000650000003500BA
:104820008100000005000000830000006600000019
:1048300000000103710301030103010301030103EC
:10484000220302030103100300030003000300031B
:1048500000030003000342030003240306030003D4
:104860000003040312032503230325032303040386
:1048700004030003000300034403000300032303B5
:1048800000036503210035038103000305030003D2
:10489000000300030003250323030101710101014B
:1048A000010111010101310101010101800110012A
:1048B00061013B0014006301730172016201430155
:1048C0000001130106013D01350004011201000140
:1048D00000010001000104010401330133013C0126
:1048E000440132013600000100016501000135007C
:1048F00081010001050182018301000166010001BF
:104900000001030471040204600411047004020431
:10491000020401040204100461040004140463048A
:1049200073047204620443040004130406040004C4
:1049300000040404120400040004000400045104F0
:1049400064000004000400044404000400040004A3
:1049500000046504000435048104640005040004B7
:1049600083040004660400040004030271023001A1
:1049700060021102700201020202020280021002B1
:1049800061023A0041006302730272026202430252
:1049900000021302380000020002040212020002A8
:1049A00000020002000204020402370037003C0249
:1049B00044020002390000020002650200023502D2
:1049C00081020002050282028302000266020002E6
:1049D00000020000EB3D13005B3D0100EB3D0200D7
:1049E000DD3C0300E33C0400E93C0500EF3C06002D
:1049F000FB3C30001F3D3100193D32002B3D3300A0
:104A0000313D3500373D34003D3D3600433D11001A
:104A10004F3D1400553D15000D3D1F00133DFFFF98
:104A2000000036000100060000000F00000000003A
:104A3000000000000000000003FFFF00000403FF6F
:104A4000FF0000FFFF0FF4010005C4040320000174
:104A500000000B000000000000000003010F012116
:104A60002F06572F08512F0B6F2F107F2E0A872FDD
:104A700002272F05452F072D2F0C032F0D152F640F
:104A8000812CFF000003EAF5E5D5D5C5B5A59595C0
:104A90008585757565655555454535352525151546
:104AA00005AD33DD33B333B933D733CB33C533E35C
:104AB00033E933EF33FB33BF33A733A13300160F92
:104AC00000000B150B020002220F33000007A53275
:104AD0009F32DB32E732D5328D32E132AF34C1342E
:104AE000C7347133CD346B3377331B3539353F35AC
:104AF00021352D352735003C40423A3F3F392F477D
:104B00003066303017181921301B1D1F30333030FC
:104B100016181920231A1C1E30320C0E020B040B1F
:104B20000A0708000F0001191618161618230300AB
:104B300000034D4C4651181A2505020335D334D9CC
:104B400034E534DF34D133F53333350134073402FF
:104B50000402010101010902B132B732AB32ED3278
:104B6000BD32CF3200BE040A04003C000E00150026
:104B70003C007F00E8030000000028000C00081043
:104B80000C0A03080900040009FF1E1E03050105A5
:104B900008040F100CC082C08390078FE4F0A3F0CC
:104BA0007CD57D047A097B071242EF122C8790088E
:104BB00008E070047900800279011245E9122C8D19
:104BC00002690074F312239274F512293989098A53
:104BD000088B0AE9705F74026508703E90072274C2
:104BE00008F0750C00780C1228AFECF50C780C125C
:104BF00028AFEBF50C780C1228AF9013F61226CBE9
:104C00009013FAE0F97CFD7D0790141712691112D8
:104C10002CB174071228BE024CD3740165086003DE
:104C2000024CD69007227408F07B00AA0AA90A1247
:104C30002CED024CD37401650960097402650960AA
:104C400003024CD6EA6006740365087040900722A0
:104C50007402124CF7122AE9122C9F900727E0A247
:104C6000E34010E9700D900793E004F064047003D2
:104C7000124D0174036508705A900794E0F87401AE
:104C800028F0E8C39405404B124D0180467401653D
:104C900008704374016509900722702C740AF0743F
:104CA00001122B0CE4F07402122B0C7403F00412AA
:104CB0002B0CE4F0A3F0A3F0A3F07408122B0CE487
:104CC000125BF8122F338025740A124CF7122AE96E
:104CD000122CD5E960179080641226CB7A017B00F4
:104CE00090071FE0F9123AE574041228BE740B1203
:104CF00028BE7F050225BDF09013FAE0F99013F667
:104D0000229013F6E4F0A374F8F0A374FFF0A374F8
:104D100007F02274F6122392E9FFEAFE7AD1F91223
:104D200039A18A828B83E5824583702A7A027B00CF
:104D3000123983EA4B700E7A107B0090071FE0F95E
:104D40001239C580148A828B8374D1F0EFA3F0EE00
:104D5000F912398F8003EFA3F0024F6274F7122328
:104D600092890890068312725880288E828F83A3BE
:104D7000A3125B1160168E828F83A3A3A3E0F58339
:104D80008882A3125B11FAA908123CC58E828F8318
:104D9000127332FFEE4F70D390069AE0FAA9081210
:104DA0003CC512304D9006F31254E21230470271A6
:104DB0003174F1122392890A8C08750900750B0071
:104DC000740F122B0C125DBC7411122B0C12550AAD
:104DD000804AE50E124E7EF50CA3E0F50DE50BC3FF
:104DE00033FEE433FFEA2EF582EB3FF583E0650CFA
:104DF0007004A3E0650D7019E509C333FEE433FFC9
:104E0000EC2EF582ED3FF583E50CF0A3E50DF00502
:104E100009050EE50EC3950840B8050BE50BC395D3
:104E20000A5005750E0080EBA90902637974F4122B
:104E30002392890B7D00740C122B0C125DBC800137
:104E40000DEDC3950B5032750A008002050AE50A84
:104E5000C39C50ECEDC333FEE433FFEA2EF582EB46
:104E60003F124E8EF509E50A124E7E65087004A3C6
:104E7000E0650970D7790180027900026234C3339A
:104E8000FEE433FFE82EF582E93FF583E022F58367
:104E9000E0F508A3E02274F6122392124F33700358
:104EA000A3E06D701775082575090778081228ABFF
:104EB000EEFA123DF174021228BE801F75080275C9
:104EC000098078081228AB8C088D0978081228AB65
:104ED000124F25123E1574041228BE024F6274F65A
:104EE000122392124F337003A3E06D7017750832CE
:104EF00075090778081228ABEEFA123DF774021212
:104F000028BE801F75080375098078081228AB8CAD
:104F1000088D0978081228AB124F25123E1574042B
:104F20001228BE803D127104EF126F62FD7C801268
:104F3000623D22EAFEEBFF124F4BFAA3E0F9EA24AE
:104F400000FCE439FD9006F3E06C22EE126F67EF8F
:104F5000126DF9F8A3E0F988828983E022740212C5
:104F600028BE7F020225BD74F612239274FE122918
:104F700039EAFEEBFF851882851983E4F0A3F0126D
:104F80006386FA88828983A3A3E0F975090075080E
:104F900000600574FF69700575088280439006F310
:104FA000E06A7003A3E06B7020851882851983AADC
:104FB00082AB831235C3E9F50985188285198312FE
:104FC0006848701C7508838017900808E0600464C6
:104FD0000170057508818008E0640270037508801F
:104FE00085188285198312550AA908EEFAEFFB127B
:104FF0003DFDE509601185188285198312684860B6
:105000000612690B123A25024F5D74F2122392EADE
:10501000FEEBFF750A00750B0012507E12304DEA50
:1050200065087003EB650970121235D5E914F50AAD
:1050300079017A5B7B071235DB8003750B80127078
:10504000EDF50C780C1228AF750C5B750D07780C1C
:105050001228AB780A1228AF78081228ABE50BF5B6
:105060000878081228AF12606BF582EF126D427A51
:10507000057B80123E0374071228BE025DCA1272BD
:1050800089125DC088828983127362F508E439F55C
:10509000092274F6122392E9FE7F00802E8A828B09
:1050A00083124E90F9E5082400E439F509EF33F84E
:1050B000E433F9EC28F582ED39F583E508F0A3E552
:1050C00009F0EA2402FAEB3400FB0FEFC39E40CD57
:1050D000024F6274E812239274FB1229398A168BEC
:1050E00017851882851983E4F07403122B0CE4F001
:1050F000A3F004122B0CE4F0126F58F50AA3E0F5AC
:105100000B850A82F58312735EFEE439FF850A82FD
:10511000850B83A3A3E0FA850A82850B83A3A3A34F
:10512000E0F9EAF508E439F509E50A2404F50AE5A9
:105130000B3400F50BEEFAEFFB1230EFE96401607F
:1051400016EEFAEFFB1230EFE9703D9006F3E06ED9
:105150007003A3E06F60311258441228AFE4F508E1
:10516000F50978081228AB78081228AF9006F312D8
:1051700026CF75088078081228AF1254E8123E0333
:1051800074071228BE0254D81255108810602EC31E
:1051900033FAE433FB123A1F7403122B0C1254E25D
:1051A0007403122B0C12684860137403122B0C1238
:1051B0005502A910123CF58A0A8B0B80037510006A
:1051C000125510880F602AC333FAE433FB123A1FDA
:1051D0007401122B0C1254E27401122B0C12684849
:1051E000600F7401122B0C125502A90F123CF580AE
:1051F00003750F00900683805D850A82850B83A36B
:10520000A3A3A3A3A3A3A3E4F0A3F0AA0AAB0B85D3
:105210001482851583A3A3125520125B11F912394C
:105220008F851282851383E0C0E0851882851983FB
:10523000E0F8745B28F5827407127281D0E0126581
:10524000C904F0E511A2E05007AA12AB13123A25E7
:10525000851482851583E0F514A3E0F515E5144562
:10526000157003025445851482851583A3A3125B30
:105270001160DD851482851583A3A3A3A3A3A3A333
:10528000A3E0A2E050CA851482851583A3A3A3A33B
:10529000126848851482851583A3A3601F125B11D1
:1052A000FA7901851482851583A3A3A3A3125B1643
:1052B0001246068A128B13751101800F125520A316
:1052C000A3E0F512A3E0F513751100E51245137084
:1052D00003025243851282851383A3E0650870049C
:1052E000A3E06509600F74FF6508700474FF650929
:1052F0006003025243851282851383A3A3A3A3A351
:10530000A3A31226CF851282851383A3A3A3A3A3ED
:10531000A3E0FC7405122B0C126911A910123CD7E2
:1053200074021228BEE9703C851282851383A3A300
:10533000A3A3A3A3A3A3A3A31226CF85128285139D
:1053400083A3A3A3A3A3A3A3A3A3E0FC7403122B8F
:105350000C126911A90F123CD774021228BEE97011
:1053600003025243E50F2510C333240AFA7B0012CF
:1053700039838A0A8B0BEA450B70030252218A8219
:105380008B8374D2F0851682851783A3A3125DBC2C
:105390008A828B83A3A3125C008A828B83A3A3A33C
:1053A000A3E510127368E50FF0E510603DEA2405EF
:1053B000FAEB3400FBE50A240AF8E50B3400F98A1D
:1053C000828B83125C007403122B0C125525122859
:1053D000A7E510C333FCE433FD8A828B8312691185
:1053E00012395F74031228BE800D8A828B83A3A3B7
:1053F000A3A3A3E4F0A3F0E50F70030251F9E510B5
:10540000C333F8E433F9E50A28F8E50B39F9E82461
:105410000AFAE93400FB850A82850B83A3A3A3A3C0
:10542000A3A3A3A31254E27401122B0C125525124C
:1054300028A7E50FC333FCE433FD12395F74031270
:1054400028BE02520B851882851983E06027125806
:10545000441228AF75085B75090778081228AB74E9
:1054600003122B0C12584E1228AF9006F31226CFBF
:105470007508008029EEFAEFFB1230EFE9702F1269
:1054800058441228AF75085B75090778081228ABD5
:1054900075080078081228AF9006F31226CF780816
:1054A0001228AF1254E8123E0374071228BE740388
:1054B000122B0C126848600B7403122B0C1269112A
:1054C000123A257401122B0C126848600B740112F9
:1054D0002B0C126911123A2574051228BE7F100296
:1054E00025BDEAF0A3EBF022E5162402FCE5173413
:1054F00000FDE51612624FE517126F62F97A067B1E
:10550000802212550AAA0AAB0B22E0FCA3E0FD227E
:10551000850A82850B83E0F8A385820A85830B22A6
:10552000125B16A322E0F50CA3E0F50D750E0078D2
:105530000C2274F412239274F41229398A088B090C
:10554000ECFEEDFF740B122B0C7403F0122B0CAA63
:1055500082AB831242EF123047EAFCEBFD74031278
:105560002B0CAA82AB831242E9E9600A12568160D1
:1055700010E06401600B85188285198374840256DB
:10558000318E828F83A3A3A3A3A3A3A3A3E060135D
:10559000F460101256817016EE24141270F060033D
:1055A000F4700B8518828519837482025631E508E0
:1055B000240CF582E5091270F364217002A3E070F7
:1055C0004D851882851983748CF01256731228AF9A
:1055D00012569312457D74011228BEE97054851845
:1055E00082851983E4F0123C47125681704474019D
:1055F000122B0CAC82AD83125DAD124565E97032A1
:105600007D007C007900125DAD123DBB80241256F6
:10561000731228AF12569312457774011228BEE90F
:105620008518828519837007E4F0123C4780037463
:1056300088F0E508127105E5091256791228AF7451
:1056400001122B0C85820A85830B780A1228ABE5A0
:1056500008240CF582E50912568A4480F50B780A75
:105660001228AB126128123DAF74051228BE740CCB
:10567000026231EE2414F582EF126F62F50A780AA5
:10568000221270DD126F6264032212728FE0F50A3B
:10569000A3E022EE240BFCEF3400FD8E828F83A367
:1056A000A3A3A3A3A3A3A3A312694E8E828F83A354
:1056B000A3A3A3A3A3A3A3E0F922C082C08374F38E
:1056C000122939851882851983E4F004122B0C12F3
:1056D00054E27403122B0CAA82AB83122BB58518EB
:1056E00082851983AA82AB83122BEB740D1228BE1C
:1056F00002690074F6122392EAFEEBFF125DB6888F
:1057000082898312700390072DE058F508A3E059B1
:10571000F509E5084509601C78081228AB9006F3E6
:105720001226CF1270EDFD7C00126239123E0F740A
:10573000041228BE024F6274F412239274FF1229DD
:1057400039EAFEEBFF851882851983E4F09007FCA7
:10575000E07003025831EE240B1270F06401700304
:105760000258318E828F83A3A3125DBCEE241512E2
:1057700070F0687003A3E0696003025831125DB6EF
:10578000E8FAE9FB88828983A3A3A3A3A3A3A3A325
:10579000E0FC88828983A3A3A3A3A3A3A3A3A3E07C
:1057A000F9EC2400F508E439F509EC45096010EC42
:1057B0009471E994085008900808E06402700A8522
:1057C000188285198374808037122C2D8A0A8B0BDE
:1057D000A80AA90BE849602088828983A3A3A3A310
:1057E000E014C394025011E82412125836E824142D
:1057F000125836123C4780098518828519837481B6
:10580000F0127104EF12584B1228AF7401122B0CD6
:1058100085820885830978081228AB75081F7509E9
:105820008078081228AB126060123DAF7405122810
:10583000BE7401026231F582E912728FE508F0A3AD
:10584000E509F022E516127105E51712728FE0F5F1
:105850000878082274EA12239274DB1229398A1418
:105860008B15751200751300125B0BF50E851882EF
:10587000851983AC82AD837A007B00799C122CFF62
:105880007A047900122BFDEAF50C851882851983BC
:10589000E0250CF0F8E50EC3984003025A99E0C3E6
:1058A000950EF509C394044003750903E50975F0E5
:1058B0001AA4FAABF0123A1F8A128B13EA4513703E
:1058C00003025A9C750D00AE12AF13850E080259E3
:1058D0005B125AF012396B850A82850B83A3A3A34E
:1058E000A3E07039850A82850B8312684870121212
:1058F0005DA61270E7EE2418F582EF127281E48043
:1059000016125AFFF090055AE014C0E0EE2418F584
:1059100082EF127281D0E0125B4CE4803B90055A1A
:10592000E004C0E0EE2418F582EF127281D0E0129C
:105930005B44C39403EE40030259F7125DA712685B
:1059400033125B4464017003025A04EE2415125BA7
:1059500002F0EE2416125B02125B1FE50DC39509DF
:105960004003025A29E508C3950C4003025A0E85EC
:10597000080AAA0A7B00122C698A0A8B0B05089078
:105980000547125B2B1242EF850A82850B83125D5D
:10599000BC125AE2126FE8125B59850A82850B83AA
:1059A000A3A3A3A3A3A3A3A3A3A3E0C0E0EE2419EE
:1059B000F582EF127281D0E0F07401122B0CE4F04A
:1059C000850A82850B83125DBC7402122B0C125C5B
:1059D000007401122B0CAA82AB83122BD9E964014B
:1059E00060030258D17404122B0CAC82AD83125A9E
:1059F000F61242EF0258D7125B00125B4464036058
:105A00000302594B125AE9127281E4025951E50C12
:105A1000C3950E40057508008016E50EC3950CF57C
:105A200008800D125AFF125B1FE50DC39509506CDB
:105A3000740E122B0CAC82AD8385080AAA0A7B0077
:105A40007987122CFF05087418122B0C125B2B128D
:105A500042EF125AF012396BEE2412F8EF3400F9CB
:105A6000740E122B0C12691188828983EAF0A3EB61
:105A7000125B4C7403125B59741D122B0CE0C0E0D6
:105A8000EE2419F582EF127281D0E01268707093E3
:105A9000125DA6127281E4808D750900750A007886
:105AA0000A1228AF78121228AB78091228AFE50E37
:105AB000F50978091228AF7405122B0CE0FD7C0063
:105AC000126D31123E4B74051228BEE5124513606B
:105AD00007AA12AB13123A2574251228BE7F0E02B4
:105AE00025BDEE2412F582EF22EE2415F582EF2279
:105AF0007C087D0079FFEE240AFAEF3400FB22EEE9
:105B00002414F582EF12728F7401221272B1127294
:105B10008F125B16E022E0F8A3E0F583888222F082
:105B2000EE241AFEEF3400FF050D22125DC08E82B6
:105B30008F83E8F0A3E9F07C5B7D05EE2402FAEFA9
:105B40003400FB221272A4A3A3A3E022F0EE2415DA
:105B5000125B69241612728C22F0EE2417125B6914
:105B6000241812728C74FFF022F582EF1272937473
:105B700002F0EE2274F612239274F91229398A087F
:105B80008B091273E7123977851882851983122AD7
:105B9000F5125BEAC0E07404122B0CD0E01271C65F
:105BA000E0FA7405122B0C7401F07406122B0C74BD
:105BB00001F09006FDF0900706041272B6A3125D84
:105BC000BC9006FE125C00EA900707F0E50812623E
:105BD0004FE5091270F39006FC125BF8122CA5E950
:105BE0006003122CAB7407024F5FEE2404FEEF3407
:105BF00000FF8E828F83E02212637EAA82AB832213
:105C0000E8F0A3E9F02274F212239274FF1229390A
:105C10007508007E007F00122F638A0A8B0B122FFB
:105C2000638A0C8B0DA80CA90D80090508126A5710
:105C3000E9125DB9E84970F3900808E06007640173
:105C40006003025D23122F638A0C8B0DA80CA90D33
:105C50008007126A57E9125DB9E84960378882897E
:105C600083126911900547E06A7003A3E06B600E30
:105C7000126A57E9127281126911EA4B70D4888254
:105C80008983125DBC900547E0687003A3E06970EA
:105C900003025D237A167B00123A1F8A0C8B0DAE2D
:105CA0000CAF0DEE4F607C900547125DBC8E828F6D
:105CB00083125C0090053CE08E828F83A3A3F012D8
:105CC00030D7E98E828F83A3A3A3A3A3F09013FB05
:105CD000127298F07C5B7D05125DAD1242EF851863
:105CE00082851983AA82AB8379411243AF851882DA
:105CF000851983E060089006F3125DBC800478FE8D
:105D000079FF8E828F83A3A3A3A3A3A3A3125C0016
:105D1000125DA6127281E50AF0A3E50BF08E0A8FE0
:105D20000B0508900707E0F8E508C39850047A00CF
:105D30008022E508C398FAC3940640027A057900E8
:105D4000800DE50A126A58E50B12568AF50B09E92F
:105D5000C39840EE75090078091228AF780A122816
:105D6000ABEAF50978091228AF900707E0F5097842
:105D7000091228AFAD087C007AFE7B069006FCE095
:105D8000F9123E4574051228BE900808E0600464CC
:105D900001700BEE4F6007EEFAEFFB123A25122C62
:105DA000AB7401025078EE2414F582EF22EE240B3E
:105DB000FAEF3400FB221270DD12728F125DC022E6
:105DC000E0F8A3E0F922EEFAEFFB7F060225BD74AE
:105DD000EC12239274FF1229398A0A8B0B7E008EF3
:105DE0000E8E0F125B0BFF851882851983AC82AD76
:105DF000837A007B00799D122CFF85188285198398
:105E0000E0F8EFC3984003025EABE0C39FFEC3948B
:105E10000B40027E0AEE75F007A4FAABF0123A1FAF
:105E20008A088B098A0E8B0FEA450F607C750C007F
:105E30008017850882850983A3A3A3A3A37403F015
:105E4000E5082407127219050CE50CC39E505CACE2
:105E500008AD09850C108F12E5102512FAE4340004
:105E6000FB798B122CFF850882850983A3A3A3A34A
:105E7000A3E014600814601314601F80B5850882C5
:105E8000850983A3A3A3A3A3E480B485088285091D
:105E900083A3A3A3A3A3740180A585088285098396
:105EA000A3A3A3A3A3740280967E007508007808BC
:105EB0001228AF780E1228ABEEF50878081228AF3A
:105EC000EFF50878081228AF7405122B0CE0FD7C62
:105ED00000E50A2402FAE50B3400FBE50A12624FE2
:105EE000E50B126D42123E5174051228BEE50E45B7
:105EF0000F6007AA0EAB0F123A2574011228BE7F5D
:105F00000C0225BD74EA12239274FE1229398A14F8
:105F10008B15750A00750B00125B0BF5088518824E
:105F2000851983AC82AD837A007B0079A312457119
:105F300085080C851882851983125DBCC3E50C9811
:105F4000E499507F851882851983E0C3950CFEA3E0
:105F5000E09400FFC3EE9404EF940040067E037FBC
:105F6000008004EE4F605CEEFAEFFBEA75F015A4DA
:105F7000FAA8F075F015EBA428FB123A1F8A0C8BD7
:105F80000D8A0A8B0BEA450B6039750900750E0006
:105F9000850E10C3E5109EE49F502DAC0CAD0D8511
:105FA0000E12850810E5122510FAE43400FB79A2E0
:105FB000124571E50C2415F50CE50D3400F50D05C1
:105FC0000E80CD75098B7E00750C00780C1228AF01
:105FD000780A1228ABEEF50C780C1228AF7808126C
:105FE00028AF7405122B0CE0FDAC09126D31123E86
:105FF0005774051228BEE50A450B6007AA0AAB0BC9
:10600000123A257402025ADA74F612239274FF12BD
:1060100029391270D9127129A3A3A3A3A3A3A3A3FF
:10602000E0F9122CC9E9851882851983F0750800FA
:1060300078081228AF7401122B0C85820885830919
:1060400078081228AB75083575098078081228ABD6
:10605000126060123DAF74051228BE7401024F5FDA
:10606000790112606BFAEF3400FB22EE2402FCEFA0
:106070003400FDEE240F2274F412239274FA1229D4
:10608000398A088B09126FFDFAEFFB122BBBE9600E
:1060900013123047EAFCEBFDEEFAEFFB1242E9E99E
:1060A0006401700A7401122B0CE4F0A380097401DE
:1060B000122B0CEEF0A3EF12684CA3A3A3A3A3A38F
:1060C000E0F8A2E650087403122B0C7401F0E8A269
:1060D000E750087404122B0C7401F07405122B0C99
:1060E000E4F004122B0CAA82AB83122CF3E985187E
:1060F00082851983F0750A00780A1228AF7401129C
:106100002B0C85820A85830B780A1228AB750A341A
:10611000750B80780A1228AB126128123DAF740506
:106120001228BE74060262317901E5082402FCE5FA
:10613000093400FDE508240FFAE5093400FB227458
:10614000F612239274FF1229391270D9125B0EF9DC
:10615000122CB7E9851882851983F0EE240B127092
:10616000F0702E75080078081228AF7401122B0CFD
:1061700085820885830978081228AB750836750969
:106180008078081228AB126060123DAF74051228A7
:10619000BE02605B02287074F412239274EF12291D
:1061A00039EAFEEBFF12507E9006F3E065087004BA
:1061B000A3E06509705885188285198385820A8550
:1061C000830B780A1228AB750A11750B00780A1236
:1061D00028AB7C007D007A817B00123AA9740412FE
:1061E00028BEE97029750A00780A1228AF740112D6
:1061F0002B0C85820A85830B780A1228ABAC08AD7C
:1062000009126239123E0974031228BE8021750AF0
:1062100011750B80780A1228AB78081228AB12701F
:10622000EDFD7C84126239123E1574041228BE748E
:10623000111228BE7F040225BD12623D22EE240207
:10624000FAEF3400FBEE12624FEF126DF9F92224DF
:106250000FF5822274F112239274EB122939EAFEAF
:10626000EBFF1263862400F508E43BF5099006F382
:10627000E065087004A3E06509600302631E88827C
:106280008983A3A3E09410500F88828983A3A3E09D
:106290008518828519838008851882851983741072
:1062A000F0E0C0E07404122B0CD0E012710AA3A33A
:1062B000A982AA83890C8A0D750E00780C1228A772
:1062C0007407122B0CE0FC7D007408122B0CAA82C0
:1062D000AB8312395F74031228BE7404122B0C8531
:1062E000820A85830B780A1228AB750A11750B0098
:1062F000780A1228AB7C007D007A817B00123AA3D9
:1063000074041228BE7404122B0CE090072560055B
:10631000E0D2E48003E0C2E412637EE480088518E2
:10632000828519837484F0E0C0E07401122B0CD0D4
:10633000E0F07402122B0CE508F07403122B0CE54C
:1063400008F0127104EF12584B1228AF7402122B8E
:106350000C85820885830978081228AB75081475A6
:10636000098078081228AB7903126062123DAF747D
:10637000051228BE74151228BE7F070225BDF085C0
:10638000188285198322124F4BFCA3E0FBEC227488
:10639000F412239274E01229398A088B0985188235
:1063A000851983AC82AD83123D9D900808E064029C
:1063B00070337402122B0CAE82AF83123047EEFCA6
:1063C000EFFD1242E9E9601D12304D8A0A8B0BA8DD
:1063D0000AA90B851882851983E0687003A3E06918
:1063E00070030265C41232157402122B0C12690775
:1063F00012311FE9640170030265C47418122B0C7A
:10640000AA82AB831230597402122B0CAC82AD837A
:106410007418122B0CAA82AB831242E9E960321283
:1064200030538A0A8B0BA80AA90B85188285198319
:10643000E0687003A3E069601885188285198312EB
:106440005DBC90053D125C007A3D7B05794B1243A3
:10645000B5900808E06007640160030264EA127204
:1064600079C082C08312304D8A088B09D083D082D4
:10647000E065087004A3E0650960447402122B0C07
:10648000AA82AB83122C2D8A088B09A808A909E8D7
:1064900049602688828983A3A3A3A3E06401600DD9
:1064A00088828983A3A3A3A3E06402700C74021200
:1064B0002B0CAA82AB83122C3912690B12325112A7
:1064C000304D8A088B09A808A90985188285198387
:1064D000E0687003A3E06960117402122B0C12696A
:1064E00007122C0FE96003123C477402122B0C12A6
:1064F00069071231F7790012690B122E3D740B12E5
:106500002B0CE41265C9F8A3E0F9740C122B0C12E1
:106510005C00740B122B0CAA82AB83122BD9E9609E
:106520004B7C087D0079007418122B0CAA82AB8377
:1065300012396B740E122B0CAC82AD837418122BB3
:106540000CAA82AB831242E9E960217402122B0C7F
:10655000AC82AD83740E122B0CAA82AB83122BB5C6
:10656000740B122B0CAA82AB83122BEB7402122B2E
:106570000CAC82AD83740E122B0CAA82AB83122B4F
:10658000B5740B122B0CAA82AB83122BDFE960349B
:10659000740C122B0C125DBC851882851983E0687F
:1065A0007003A3E069601D851882851983125DBCA4
:1065B000740C122B0C125C00740B122B0CAA82AB05
:1065C00083122BEB742002623112637EE02274F19D
:1065D00012239274F6122939EAFEEBFF7508009037
:1065E000079112684870537A377B00123A1F900760
:1065F00091EAF0A3EB126DFF60197C377D00790002
:1066000012396BEEFCEFFD900791126911123D6D8E
:10661000E9700B851882851983748802678A127065
:10662000F7242EF582E8125B05F07C797D3D90041D
:10663000D31269111245DD02682BE0C8242E1268BE
:1066400030F0EEFCEFFD126D47123D6DE9700C85E8
:1066500018828519837488F0750801750A5B750BBB
:1066600007780A1228AB1269211226CF1270F7247C
:1066700028F582E81270F3FC1269541270F7126A5E
:1066800058E8126D42123CD174041228BE126839C7
:106690001268512431F582E81270F36043126DE400
:1066A000FAE433FB123A1F900791E0243212686635
:1066B0006022750C5B750D07750E00780C1228A70B
:1066C000126DE4FCE433FD12693F12395F7403126A
:1066D00028BE800C8518828519837488F07508019E
:1066E000780A1228AB1269151226CF1270F72411FE
:1066F000F582E81270F3FC1269361270F7242BF55C
:1067000082E8126D42123CD174041228BE1270F756
:1067100024341268512434F582E81270F360351283
:106720006DDBFAE433FB123A1F900791E024351237
:1067300068666045750C5B750D07750E00780C1268
:1067400028A7126DDBFCE433FD12692D12395F744A
:10675000031228BEE508A2E04028126839F582E855
:106760001270F37008900791126DAC60157B007A7F
:10677000007900123D7302682B8518828519837495
:1067800088F08518828519837486F07409122B0CA1
:10679000740212684C126DA6122B0C125C008E82D1
:1067A0008F83A312584E1228AF7401122B0C8582CE
:1067B0000885830978081228AB7508207509807848
:1067C000081228AB79017406122B0CAC82AD83EE53
:1067D000FAEFFB123DAF74051228BE126D897048A6
:1067E0007409122B0C7402F0126D9E122B0C126E97
:1067F000061228AF7401122B0C8582088583097854
:10680000081228AB75082075098078081228AB7922
:10681000017406122B0CAC82AD83900791126911A2
:10682000123DAF74051228BE123D67740A026376EA
:10683000F582E812728F740222900791126D632420
:106840003122F582E812728F126A8F221271C6A36A
:1068500022F582E812728F12685CC822E9F0900774
:1068600091E0F8A3E022F8A3E0126877EAF0A3EB46
:10687000127123126A8F223400F98882898322C020
:1068800082C0839007911268486075E0C824351271
:106890006842600612692D123A251270F7243212EE
:1068A0006842600612693F123A251270F7241212EC
:1068B00068426009126915126911123A251270F7BF
:1068C00024151268426006126954123A251270F7B4
:1068D00024291268426009126921126911123A25AD
:1068E0001270F7242C1268426006126936123A259B
:1068F000900791126911123A25900791E4F0A3F0E4
:10690000D083D082022870AC82AD8385188285192D
:106910008312694E22126D602412F582E812728F82
:1069200022126D602429F582E812728F22126D60A6
:10693000243512694822126D60242C1269482212F3
:106940006D60243212694822F582E8127293E0FAEF
:10695000A3E0FB22126D6024151269482274F11223
:106960002392EAFEEBFF8C088D09750A018C0C8DD1
:106970000D750E00780C1228A77C177D0012395F68
:1069800074031228BE125AE2126F23125AE9126FD0
:106990002F2411F582E5091270F3603EEE2412F8FF
:1069A000EF3400F9880C890D126F50123A1F126AE9
:1069B0007C6024E5082412126A6C1228A7E50824DA
:1069C00011126A5D125AE312728112691112395F53
:1069D00074031228BE8003750A00E508126A58E5A0
:1069E000091270F36039EE2415F8EF3400F9880CC1
:1069F000890D126F50123A1F126A7C6055E5082407
:106A000015126A6C1228A7E5082414126A5D125A3E
:106A1000EA12728112691112395F74031228BEE5FD
:106A20000AA2E04028125AE2126845600C125AE2AB
:106A3000127281126911123A25125AE912684560E0
:106A40000C125AE9127281126911123A25A90A022E
:106A50006379750A0080CEE82414F58222F582E578
:106A600009126F62C333FCE433FDEE22F582E509BF
:106A7000126F62F50CA3E0F50D780C22850C82856F
:106A80000D831254E2850C82850D83126A8F22E0F9
:106A9000F8A3E0F9E8492274EE12239274ED12296A
:106AA00039890A8A0E8B0F750C00750D00750BFF66
:106AB0007510FF7511FF750800750900851882852E
:106AC0001983E4126DFF601A7403650A600674028C
:106AD000650A7013E0C82430F582E81270F3650F80
:106AE00060057900026D277C797D3D7A007B00127C
:106AF00045DD7401650A700A8518828519837485DD
:106B0000803DE50A60067403650A701990079112CA
:106B10006D6DF07403650A7029E50E602985188291
:106B2000851983801A7402650A701BE50E9007911F
:106B30007005126D6D80081270FA242F126830F003
:106B40008004E50A6021126D73701C126D97600558
:106B500012683C800A126DAC600D1270F72434F597
:106B600082E81270F314F0126D976022124E90F5C5
:106B700009126DE4F8E433F9900791E0FAA3E0CA52
:106B80002432126DB9241D126D542425802D126DEE
:106B9000AC6030900791E02417F508A3E012721D55
:106BA000126DDBF8E433F9900791E0FAA3E0CA2410
:106BB00035126DB92406126D54240EF582E8127058
:106BC000F3F50B7409122B0C74021265C9600302F1
:106BD0006C8AE50845097003026C8A126D737004B3
:106BE0007E2280027E21850882850983126DA4128F
:106BF0002B0C125C00900795E0C0E01270F7243077
:106C0000F582E8127281D0E0F07412122B0C74033A
:106C1000F0AC0CAD0D740A122B0CAA82AB8312429D
:106C2000EF850882850983A3E0F50C780C1228AF64
:106C3000780B1228AF740C122B0C85820C85830DF7
:106C4000780C1228AB78101228ABE5082406F50C56
:106C5000E5093400F50D780C1228ABE50812710532
:106C6000E509126D427409122B0CAC82AD83EEFA69
:106C70007B00123E2174081228BE7C797D3D900471
:106C8000D31269111245DD026D25126D9E122B0C77
:106C9000126E061228AF7401122B0C8582088583B0
:106CA0000978081228AB7508207509807808122821
:106CB000AB79017406122B0CAC82AD839007911254
